{
  "contractName": "PurseTokenUpgradable",
  "abi": [
    {
      "anonymous": false,
      "inputs": [
        {
          "indexed": false,
          "internalType": "address",
          "name": "previousAdmin",
          "type": "address"
        },
        {
          "indexed": false,
          "internalType": "address",
          "name": "newAdmin",
          "type": "address"
        }
      ],
      "name": "AdminChanged",
      "type": "event"
    },
    {
      "anonymous": false,
      "inputs": [
        {
          "indexed": true,
          "internalType": "address",
          "name": "_owner",
          "type": "address"
        },
        {
          "indexed": true,
          "internalType": "address",
          "name": "_spender",
          "type": "address"
        },
        {
          "indexed": false,
          "internalType": "uint256",
          "name": "_value",
          "type": "uint256"
        }
      ],
      "name": "Approval",
      "type": "event"
    },
    {
      "anonymous": false,
      "inputs": [
        {
          "indexed": true,
          "internalType": "address",
          "name": "beacon",
          "type": "address"
        }
      ],
      "name": "BeaconUpgraded",
      "type": "event"
    },
    {
      "anonymous": false,
      "inputs": [
        {
          "indexed": true,
          "internalType": "address",
          "name": "_from",
          "type": "address"
        },
        {
          "indexed": false,
          "internalType": "uint256",
          "name": "_value",
          "type": "uint256"
        }
      ],
      "name": "Burn",
      "type": "event"
    },
    {
      "anonymous": false,
      "inputs": [
        {
          "indexed": true,
          "internalType": "address",
          "name": "_from",
          "type": "address"
        },
        {
          "indexed": true,
          "internalType": "address",
          "name": "_to",
          "type": "address"
        },
        {
          "indexed": false,
          "internalType": "uint256",
          "name": "_value",
          "type": "uint256"
        }
      ],
      "name": "Mint",
      "type": "event"
    },
    {
      "anonymous": false,
      "inputs": [
        {
          "indexed": true,
          "internalType": "address",
          "name": "previousOwner",
          "type": "address"
        },
        {
          "indexed": true,
          "internalType": "address",
          "name": "newOwner",
          "type": "address"
        }
      ],
      "name": "OwnershipTransferred",
      "type": "event"
    },
    {
      "anonymous": false,
      "inputs": [
        {
          "indexed": false,
          "internalType": "address",
          "name": "account",
          "type": "address"
        }
      ],
      "name": "Paused",
      "type": "event"
    },
    {
      "anonymous": false,
      "inputs": [
        {
          "indexed": true,
          "internalType": "address",
          "name": "_from",
          "type": "address"
        },
        {
          "indexed": true,
          "internalType": "address",
          "name": "_to",
          "type": "address"
        },
        {
          "indexed": false,
          "internalType": "uint256",
          "name": "_value",
          "type": "uint256"
        }
      ],
      "name": "Transfer",
      "type": "event"
    },
    {
      "anonymous": false,
      "inputs": [
        {
          "indexed": false,
          "internalType": "address",
          "name": "account",
          "type": "address"
        }
      ],
      "name": "Unpaused",
      "type": "event"
    },
    {
      "anonymous": false,
      "inputs": [
        {
          "indexed": true,
          "internalType": "address",
          "name": "implementation",
          "type": "address"
        }
      ],
      "name": "Upgraded",
      "type": "event"
    },
    {
      "inputs": [],
      "name": "_averageInterval",
      "outputs": [
        {
          "internalType": "uint256",
          "name": "",
          "type": "uint256"
        }
      ],
      "stateMutability": "view",
      "type": "function",
      "constant": true
    },
    {
      "inputs": [],
      "name": "_getRewardEndTime",
      "outputs": [
        {
          "internalType": "uint256",
          "name": "",
          "type": "uint256"
        }
      ],
      "stateMutability": "view",
      "type": "function",
      "constant": true
    },
    {
      "inputs": [],
      "name": "_getRewardStartTime",
      "outputs": [
        {
          "internalType": "uint256",
          "name": "",
          "type": "uint256"
        }
      ],
      "stateMutability": "view",
      "type": "function",
      "constant": true
    },
    {
      "inputs": [],
      "name": "_lastRewardStartTime",
      "outputs": [
        {
          "internalType": "uint256",
          "name": "",
          "type": "uint256"
        }
      ],
      "stateMutability": "view",
      "type": "function",
      "constant": true
    },
    {
      "inputs": [],
      "name": "_monthlyDistributePr",
      "outputs": [
        {
          "internalType": "uint256",
          "name": "",
          "type": "uint256"
        }
      ],
      "stateMutability": "view",
      "type": "function",
      "constant": true
    },
    {
      "inputs": [],
      "name": "_numOfDaysPerMth",
      "outputs": [
        {
          "internalType": "uint256",
          "name": "",
          "type": "uint256"
        }
      ],
      "stateMutability": "view",
      "type": "function",
      "constant": true
    },
    {
      "inputs": [],
      "name": "_percentageDistribute",
      "outputs": [
        {
          "internalType": "uint256",
          "name": "",
          "type": "uint256"
        }
      ],
      "stateMutability": "view",
      "type": "function",
      "constant": true
    },
    {
      "inputs": [],
      "name": "_totalSupply",
      "outputs": [
        {
          "internalType": "uint256",
          "name": "",
          "type": "uint256"
        }
      ],
      "stateMutability": "view",
      "type": "function",
      "constant": true
    },
    {
      "inputs": [
        {
          "internalType": "address",
          "name": "",
          "type": "address"
        }
      ],
      "name": "accAmount",
      "outputs": [
        {
          "internalType": "uint256",
          "name": "amount",
          "type": "uint256"
        },
        {
          "internalType": "uint256",
          "name": "accReward",
          "type": "uint256"
        },
        {
          "internalType": "uint256",
          "name": "lastUpdateTime",
          "type": "uint256"
        }
      ],
      "stateMutability": "view",
      "type": "function",
      "constant": true
    },
    {
      "inputs": [
        {
          "internalType": "uint256",
          "name": "",
          "type": "uint256"
        }
      ],
      "name": "admins",
      "outputs": [
        {
          "internalType": "address",
          "name": "",
          "type": "address"
        }
      ],
      "stateMutability": "view",
      "type": "function",
      "constant": true
    },
    {
      "inputs": [
        {
          "internalType": "address",
          "name": "",
          "type": "address"
        },
        {
          "internalType": "address",
          "name": "",
          "type": "address"
        }
      ],
      "name": "allowance",
      "outputs": [
        {
          "internalType": "uint256",
          "name": "",
          "type": "uint256"
        }
      ],
      "stateMutability": "view",
      "type": "function",
      "constant": true
    },
    {
      "inputs": [
        {
          "internalType": "address",
          "name": "",
          "type": "address"
        }
      ],
      "name": "balanceOf",
      "outputs": [
        {
          "internalType": "uint256",
          "name": "",
          "type": "uint256"
        }
      ],
      "stateMutability": "view",
      "type": "function",
      "constant": true
    },
    {
      "inputs": [],
      "name": "burnPercent",
      "outputs": [
        {
          "internalType": "uint256",
          "name": "",
          "type": "uint256"
        }
      ],
      "stateMutability": "view",
      "type": "function",
      "constant": true
    },
    {
      "inputs": [],
      "name": "decimals",
      "outputs": [
        {
          "internalType": "uint8",
          "name": "",
          "type": "uint8"
        }
      ],
      "stateMutability": "view",
      "type": "function",
      "constant": true
    },
    {
      "inputs": [],
      "name": "disPercent",
      "outputs": [
        {
          "internalType": "uint256",
          "name": "",
          "type": "uint256"
        }
      ],
      "stateMutability": "view",
      "type": "function",
      "constant": true
    },
    {
      "inputs": [],
      "name": "disPool",
      "outputs": [
        {
          "internalType": "address",
          "name": "",
          "type": "address"
        }
      ],
      "stateMutability": "view",
      "type": "function",
      "constant": true
    },
    {
      "inputs": [
        {
          "internalType": "address",
          "name": "",
          "type": "address"
        }
      ],
      "name": "isAdmin",
      "outputs": [
        {
          "internalType": "bool",
          "name": "",
          "type": "bool"
        }
      ],
      "stateMutability": "view",
      "type": "function",
      "constant": true
    },
    {
      "inputs": [
        {
          "internalType": "address",
          "name": "",
          "type": "address"
        }
      ],
      "name": "isWhitelistedFrom",
      "outputs": [
        {
          "internalType": "bool",
          "name": "",
          "type": "bool"
        }
      ],
      "stateMutability": "view",
      "type": "function",
      "constant": true
    },
    {
      "inputs": [
        {
          "internalType": "address",
          "name": "",
          "type": "address"
        }
      ],
      "name": "isWhitelistedTo",
      "outputs": [
        {
          "internalType": "bool",
          "name": "",
          "type": "bool"
        }
      ],
      "stateMutability": "view",
      "type": "function",
      "constant": true
    },
    {
      "inputs": [],
      "name": "liqPercent",
      "outputs": [
        {
          "internalType": "uint256",
          "name": "",
          "type": "uint256"
        }
      ],
      "stateMutability": "view",
      "type": "function",
      "constant": true
    },
    {
      "inputs": [],
      "name": "liqPool",
      "outputs": [
        {
          "internalType": "address",
          "name": "",
          "type": "address"
        }
      ],
      "stateMutability": "view",
      "type": "function",
      "constant": true
    },
    {
      "inputs": [],
      "name": "name",
      "outputs": [
        {
          "internalType": "string",
          "name": "",
          "type": "string"
        }
      ],
      "stateMutability": "view",
      "type": "function",
      "constant": true
    },
    {
      "inputs": [],
      "name": "owner",
      "outputs": [
        {
          "internalType": "address",
          "name": "",
          "type": "address"
        }
      ],
      "stateMutability": "view",
      "type": "function",
      "constant": true
    },
    {
      "inputs": [],
      "name": "paused",
      "outputs": [
        {
          "internalType": "bool",
          "name": "",
          "type": "bool"
        }
      ],
      "stateMutability": "view",
      "type": "function",
      "constant": true
    },
    {
      "inputs": [],
      "name": "renounceOwnership",
      "outputs": [],
      "stateMutability": "nonpayable",
      "type": "function"
    },
    {
      "inputs": [],
      "name": "symbol",
      "outputs": [
        {
          "internalType": "string",
          "name": "",
          "type": "string"
        }
      ],
      "stateMutability": "view",
      "type": "function",
      "constant": true
    },
    {
      "inputs": [],
      "name": "totalSupply",
      "outputs": [
        {
          "internalType": "uint256",
          "name": "",
          "type": "uint256"
        }
      ],
      "stateMutability": "view",
      "type": "function",
      "constant": true
    },
    {
      "inputs": [
        {
          "internalType": "address",
          "name": "newOwner",
          "type": "address"
        }
      ],
      "name": "transferOwnership",
      "outputs": [],
      "stateMutability": "nonpayable",
      "type": "function"
    },
    {
      "inputs": [
        {
          "internalType": "address",
          "name": "newImplementation",
          "type": "address"
        }
      ],
      "name": "upgradeTo",
      "outputs": [],
      "stateMutability": "nonpayable",
      "type": "function"
    },
    {
      "inputs": [
        {
          "internalType": "address",
          "name": "newImplementation",
          "type": "address"
        },
        {
          "internalType": "bytes",
          "name": "data",
          "type": "bytes"
        }
      ],
      "name": "upgradeToAndCall",
      "outputs": [],
      "stateMutability": "payable",
      "type": "function",
      "payable": true
    },
    {
      "inputs": [
        {
          "internalType": "address",
          "name": "_to",
          "type": "address"
        },
        {
          "internalType": "uint256",
          "name": "_value",
          "type": "uint256"
        }
      ],
      "name": "transfer",
      "outputs": [
        {
          "internalType": "bool",
          "name": "success",
          "type": "bool"
        }
      ],
      "stateMutability": "nonpayable",
      "type": "function"
    },
    {
      "inputs": [
        {
          "internalType": "address",
          "name": "_spender",
          "type": "address"
        },
        {
          "internalType": "uint256",
          "name": "_value",
          "type": "uint256"
        }
      ],
      "name": "approve",
      "outputs": [
        {
          "internalType": "bool",
          "name": "success",
          "type": "bool"
        }
      ],
      "stateMutability": "nonpayable",
      "type": "function"
    },
    {
      "inputs": [
        {
          "internalType": "address",
          "name": "_from",
          "type": "address"
        },
        {
          "internalType": "address",
          "name": "_to",
          "type": "address"
        },
        {
          "internalType": "uint256",
          "name": "_value",
          "type": "uint256"
        }
      ],
      "name": "transferFrom",
      "outputs": [
        {
          "internalType": "bool",
          "name": "success",
          "type": "bool"
        }
      ],
      "stateMutability": "nonpayable",
      "type": "function"
    },
    {
      "inputs": [
        {
          "internalType": "address",
          "name": "_account",
          "type": "address"
        },
        {
          "internalType": "uint256",
          "name": "_amount",
          "type": "uint256"
        }
      ],
      "name": "mint",
      "outputs": [],
      "stateMutability": "nonpayable",
      "type": "function"
    },
    {
      "inputs": [
        {
          "internalType": "uint256",
          "name": "_amount",
          "type": "uint256"
        }
      ],
      "name": "burn",
      "outputs": [],
      "stateMutability": "nonpayable",
      "type": "function"
    },
    {
      "inputs": [],
      "name": "claimDistributionPurse",
      "outputs": [
        {
          "internalType": "bool",
          "name": "success",
          "type": "bool"
        }
      ],
      "stateMutability": "nonpayable",
      "type": "function"
    },
    {
      "inputs": [
        {
          "internalType": "uint256",
          "name": "_rewardStartTime",
          "type": "uint256"
        },
        {
          "internalType": "uint256",
          "name": "_rewardEndTime",
          "type": "uint256"
        },
        {
          "internalType": "uint256",
          "name": "_monthlyDisPr",
          "type": "uint256"
        },
        {
          "internalType": "uint256",
          "name": "_numOfDays",
          "type": "uint256"
        },
        {
          "internalType": "uint256",
          "name": "_percentage",
          "type": "uint256"
        }
      ],
      "name": "activateClaimMonthly",
      "outputs": [],
      "stateMutability": "nonpayable",
      "type": "function"
    },
    {
      "inputs": [
        {
          "internalType": "address",
          "name": "_newLPool",
          "type": "address"
        }
      ],
      "name": "updateLPoolAdd",
      "outputs": [],
      "stateMutability": "nonpayable",
      "type": "function"
    },
    {
      "inputs": [
        {
          "internalType": "address",
          "name": "_newDPool",
          "type": "address"
        }
      ],
      "name": "updateDPoolAdd",
      "outputs": [],
      "stateMutability": "nonpayable",
      "type": "function"
    },
    {
      "inputs": [
        {
          "internalType": "uint256",
          "name": "_newDisPercent",
          "type": "uint256"
        },
        {
          "internalType": "uint256",
          "name": "_newLiqPercent",
          "type": "uint256"
        },
        {
          "internalType": "uint256",
          "name": "_newBurnPercent",
          "type": "uint256"
        }
      ],
      "name": "updatePercent",
      "outputs": [],
      "stateMutability": "nonpayable",
      "type": "function"
    },
    {
      "inputs": [
        {
          "internalType": "address",
          "name": "newAdmin",
          "type": "address"
        }
      ],
      "name": "addAdmin",
      "outputs": [],
      "stateMutability": "nonpayable",
      "type": "function"
    },
    {
      "inputs": [
        {
          "internalType": "uint256",
          "name": "index",
          "type": "uint256"
        }
      ],
      "name": "removeAdmin",
      "outputs": [
        {
          "internalType": "address[]",
          "name": "",
          "type": "address[]"
        }
      ],
      "stateMutability": "nonpayable",
      "type": "function"
    },
    {
      "inputs": [
        {
          "internalType": "address",
          "name": "token",
          "type": "address"
        },
        {
          "internalType": "uint256",
          "name": "amount",
          "type": "uint256"
        },
        {
          "internalType": "address",
          "name": "_to",
          "type": "address"
        }
      ],
      "name": "transferERCToken",
      "outputs": [],
      "stateMutability": "nonpayable",
      "type": "function"
    },
    {
      "inputs": [],
      "name": "pause",
      "outputs": [],
      "stateMutability": "nonpayable",
      "type": "function"
    },
    {
      "inputs": [],
      "name": "unpause",
      "outputs": [],
      "stateMutability": "nonpayable",
      "type": "function"
    },
    {
      "inputs": [
        {
          "internalType": "address",
          "name": "newWhitelist",
          "type": "address"
        }
      ],
      "name": "setWhitelistedTo",
      "outputs": [],
      "stateMutability": "nonpayable",
      "type": "function"
    },
    {
      "inputs": [
        {
          "internalType": "address",
          "name": "newWhitelist",
          "type": "address"
        }
      ],
      "name": "removeWhitelistedTo",
      "outputs": [],
      "stateMutability": "nonpayable",
      "type": "function"
    },
    {
      "inputs": [
        {
          "internalType": "address",
          "name": "newWhitelist",
          "type": "address"
        }
      ],
      "name": "setWhitelistedFrom",
      "outputs": [],
      "stateMutability": "nonpayable",
      "type": "function"
    },
    {
      "inputs": [
        {
          "internalType": "address",
          "name": "newWhitelist",
          "type": "address"
        }
      ],
      "name": "removeWhitelistedFrom",
      "outputs": [],
      "stateMutability": "nonpayable",
      "type": "function"
    },
    {
      "inputs": [
        {
          "internalType": "address",
          "name": "_to",
          "type": "address"
        },
        {
          "internalType": "address",
          "name": "_lPool",
          "type": "address"
        },
        {
          "internalType": "uint256",
          "name": "_burnPercent",
          "type": "uint256"
        },
        {
          "internalType": "uint256",
          "name": "_liqPercent",
          "type": "uint256"
        },
        {
          "internalType": "uint256",
          "name": "_disPercent",
          "type": "uint256"
        }
      ],
      "name": "initialize",
      "outputs": [],
      "stateMutability": "nonpayable",
      "type": "function"
    }
  ],
  "bytecode": "0x60a06040523060601b60805234801561001757600080fd5b5060805160601c613afe61004b60003960008181610fe201528181611022015281816116a401526116e40152613afe6000f3fe6080604052600436106102c95760003560e01c80635c975abb11610175578063b7c74bd3116100dc578063d13f90b411610095578063dd62ed3e1161006f578063dd62ed3e146108a6578063e2657da1146108df578063f2fde38b146108ff578063f75672441461091f57600080fd5b8063d13f90b41461084f578063d55292041461086f578063d5b8ddf81461088657600080fd5b8063b7c74bd314610758578063bab38440146107b0578063bc8d571d146107d0578063c43c082f146107e7578063c6ef924614610807578063ca04d2d81461081e57600080fd5b80638456cb591161012e5780638456cb59146106ac5780638da5cb5b146106c157806395d89b41146106df57806395e96ff1146106f4578063a9059cbb1461070b578063ad7bbc291461072b57600080fd5b80635c975abb146105f9578063704802751461061157806370a0823114610631578063715018a61461065f578063740b91f4146106745780637888f7b21461069557600080fd5b8063347d34c61161023457806340c10f19116101ed5780634d28b4ba116101c75780634d28b4ba1461057e5780634f1ef2861461059e5780635422e495146105b15780635b014029146105c857600080fd5b806340c10f191461051e57806342966c681461053e578063434f92371461055e57600080fd5b8063347d34c61461047957806335e8b82e146104905780633659cfe6146104b25780633838d4e3146104d25780633eaaf86b146104f25780633f4ba83a1461050957600080fd5b806318160ddd1161028657806318160ddd146103ae57806320b1e78a146103c457806323b872dd146103db57806324d7806c146103fb57806327ba6e111461042c578063313ce5671461044d57600080fd5b806303807ee5146102ce57806306fdde03146102f8578063095ea7b31461031a5780630f4307e21461034a57806311a6c16c1461036157806314bfd6d014610376575b600080fd5b3480156102da57600080fd5b506102e56101035481565b6040519081526020015b60405180910390f35b34801561030457600080fd5b5061030d61093f565b6040516102ef9190613770565b34801561032657600080fd5b5061033a6103353660046135ff565b6109cd565b60405190151581526020016102ef565b34801561035657600080fd5b506102e561010a5481565b34801561036d57600080fd5b5061033a610a67565b34801561038257600080fd5b50610396610391366004613687565b610c14565b6040516001600160a01b0390911681526020016102ef565b3480156103ba57600080fd5b506102e560fd5481565b3480156103d057600080fd5b506102e561010b5481565b3480156103e757600080fd5b5061033a6103f63660046134b4565b610c3f565b34801561040757600080fd5b5061033a610416366004613466565b6101106020526000908152604090205460ff1681565b34801561043857600080fd5b5061010254610396906001600160a01b031681565b34801561045957600080fd5b5060fe546104679060ff1681565b60405160ff90911681526020016102ef565b34801561048557600080fd5b506102e56101065481565b34801561049c57600080fd5b506104b06104ab366004613466565b610f2b565b005b3480156104be57600080fd5b506104b06104cd366004613466565b610fd7565b3480156104de57600080fd5b506104b06104ed366004613466565b6110a0565b3480156104fe57600080fd5b506102e561010d5481565b34801561051557600080fd5b506104b061114d565b34801561052a57600080fd5b506104b06105393660046135ff565b6111ca565b34801561054a57600080fd5b506104b0610559366004613687565b6112f4565b34801561056a57600080fd5b506104b06105793660046136cc565b6113e3565b34801561058a57600080fd5b506104b0610599366004613466565b6115ec565b6104b06105ac36600461353d565b611699565b3480156105bd57600080fd5b506102e56101045481565b3480156105d457600080fd5b5061033a6105e3366004613466565b6101116020526000908152604090205460ff1681565b34801561060557600080fd5b5060975460ff1661033a565b34801561061d57600080fd5b506104b061062c366004613466565b611753565b34801561063d57600080fd5b506102e561064c366004613466565b61010e6020526000908152604090205481565b34801561066b57600080fd5b506104b061183a565b34801561068057600080fd5b5061010154610396906001600160a01b031681565b3480156106a157600080fd5b506102e561010c5481565b3480156106b857600080fd5b506104b061186e565b3480156106cd57600080fd5b5060c9546001600160a01b0316610396565b3480156106eb57600080fd5b5061030d6118c3565b34801561070057600080fd5b506102e56101095481565b34801561071757600080fd5b5061033a6107263660046135ff565b6118d0565b34801561073757600080fd5b5061074b610746366004613687565b611aa1565b6040516102ef9190613723565b34801561076457600080fd5b50610795610773366004613466565b6101136020526000908152604090208054600182015460029092015490919083565b604080519384526020840192909252908201526060016102ef565b3480156107bc57600080fd5b506104b06107cb366004613466565b611cfb565b3480156107dc57600080fd5b506102e56101085481565b3480156107f357600080fd5b506104b06108023660046136a0565b611da7565b34801561081357600080fd5b506102e56101055481565b34801561082a57600080fd5b5061033a610839366004613466565b6101126020526000908152604090205460ff1681565b34801561085b57600080fd5b506104b061086a3660046134f0565b611ead565b34801561087b57600080fd5b506102e56101075481565b34801561089257600080fd5b506104b06108a1366004613629565b6120a7565b3480156108b257600080fd5b506102e56108c1366004613481565b61010f60209081526000928352604080842090915290825290205481565b3480156108eb57600080fd5b506104b06108fa366004613466565b6121bc565b34801561090b57600080fd5b506104b061091a366004613466565b612269565b34801561092b57600080fd5b506104b061093a366004613466565b612301565b60fb805461094c906139d3565b80601f0160208091040260200160405190810160405280929190818152602001828054610978906139d3565b80156109c55780601f1061099a576101008083540402835291602001916109c5565b820191906000526020600020905b8154815290600101906020018083116109a857829003601f168201915b505050505081565b60006109db60975460ff1690565b15610a015760405162461bcd60e51b81526004016109f890613867565b60405180910390fd5b33600081815261010f602090815260408083206001600160a01b03881680855290835292819020869055518581529192917f8c5be1e5ebec7d5bd14f71427d1e84f3dd0314c0f7b2291e5b200ac8c7c3b925910160405180910390a35060015b92915050565b6000610a7560975460ff1690565b15610a925760405162461bcd60e51b81526004016109f890613867565b610108544211610ad85760405162461bcd60e51b815260206004820152601160248201527010db185a5b481b9bdd081cdd185c9d1959607a1b60448201526064016109f8565b610107544210610b1e5760405162461bcd60e51b815260206004820152601160248201527021b630b4b6903832b934b7b21037bb32b960791b60448201526064016109f8565b610b27336123ae565b3360009081526101136020526040902060010154610b7a5760405162461bcd60e51b815260206004820152601060248201526f0557365722072657761726420697320360841b60448201526064016109f8565b336000818152610113602052604080822060010180549290555163a9059cbb60e01b815260048101929092526024820181905290309063a9059cbb90604401602060405180830381600087803b158015610bd357600080fd5b505af1158015610be7573d6000803e3d6000fd5b505050506040513d601f19601f82011682018060405250810190610c0b9190613665565b50600191505090565b6101008181548110610c2557600080fd5b6000918252602090912001546001600160a01b0316905081565b6000610c4d60975460ff1690565b15610c6a5760405162461bcd60e51b81526004016109f890613867565b6001600160a01b038416600090815261010e6020526040902054821115610ca35760405162461bcd60e51b81526004016109f89061383b565b6001600160a01b038416600090815261010f60209081526040808320338452909152902054821115610d0e5760405162461bcd60e51b81526020600482015260146024820152734e6f7420656e6f75676820616c6c6f77616e636560601b60448201526064016109f8565b6001600160a01b0383166000908152610111602052604090205460ff1680610d465750336000908152610112602052604090205460ff165b15610e30576001600160a01b038416600090815261010f6020908152604080832033845290915281208054849290610d7f908490613990565b90915550610d8f90508484612922565b6001600160a01b038416600090815261010e602052604081208054849290610db8908490613990565b90915550506001600160a01b038316600090815261010e602052604081208054849290610de6908490613937565b92505081905550826001600160a01b0316846001600160a01b0316600080516020613aa983398151915284604051610e2091815260200190565b60405180910390a3506001610f24565b6001600160a01b038416600090815261010f6020908152604080832033845290915281208054849290610e64908490613990565b90915550610e7490508484612922565b6000610e808386612934565b6001600160a01b038616600090815261010e6020526040812080549293508392909190610eae908490613990565b90915550506001600160a01b038416600090815261010e602052604081208054839290610edc908490613937565b92505081905550836001600160a01b0316856001600160a01b0316600080516020613aa983398151915283604051610f1691815260200190565b60405180910390a360019150505b9392505050565b60c9546001600160a01b03163314610f555760405162461bcd60e51b81526004016109f890613902565b610101546001600160a01b0382811691161415610fb45760405162461bcd60e51b815260206004820152601a60248201527f53616d6520776974682070726576696f7573206164647265737300000000000060448201526064016109f8565b61010180546001600160a01b0319166001600160a01b0392909216919091179055565b306001600160a01b037f00000000000000000000000000000000000000000000000000000000000000001614156110205760405162461bcd60e51b81526004016109f8906137a3565b7f00000000000000000000000000000000000000000000000000000000000000006001600160a01b0316611052612981565b6001600160a01b0316146110785760405162461bcd60e51b81526004016109f8906137ef565b611081816129af565b6040805160008082526020820190925261109d918391906129d9565b50565b60c9546001600160a01b031633146110ca5760405162461bcd60e51b81526004016109f890613902565b6001600160a01b0381166000908152610112602052604090205460ff16156111285760405162461bcd60e51b81526020600482015260116024820152705768696c6973746564204164647265737360781b60448201526064016109f8565b6001600160a01b0316600090815261011260205260409020805460ff19166001179055565b60975460ff166111965760405162461bcd60e51b815260206004820152601460248201527314185d5cd8589b194e881b9bdd081c185d5cd95960621b60448201526064016109f8565b60c9546001600160a01b031633146111c05760405162461bcd60e51b81526004016109f890613902565b6111c8612b24565b565b60975460ff16156111ed5760405162461bcd60e51b81526004016109f890613867565b336000908152610110602052604090205460ff166112395760405162461bcd60e51b81526020600482015260096024820152682737ba1020b236b4b760b91b60448201526064016109f8565b6001600160a01b03821661125f5760405162461bcd60e51b81526004016109f890613891565b611268826123ae565b6001600160a01b038216600090815261010e602052604081208054839290611291908490613937565b925050819055508060fd60008282546112aa9190613937565b90915550506040518181526001600160a01b038316906000907fab8530f87dc9b59234c4623bf917212bb2536d647574c8e7e5da92c2ede0c9f89060200160405180910390a35050565b60975460ff16156113175760405162461bcd60e51b81526004016109f890613867565b806113345760405162461bcd60e51b81526004016109f890613891565b33600090815261010e60205260409020548111156113645760405162461bcd60e51b81526004016109f89061383b565b61136d336123ae565b33600090815261010e60205260408120805483929061138d908490613990565b925050819055508060fd60008282546113a69190613990565b909155505060405181815233907fcc16f5dbb4873280815c1ee09dbd06736cffcc184412cf7a71a0fdb75d397ca59060200160405180910390a250565b336000908152610110602052604090205460ff1661142f5760405162461bcd60e51b81526020600482015260096024820152682737ba1020b236b4b760b91b60448201526064016109f8565b4285116114775760405162461bcd60e51b81526020600482015260166024820152754c657373207468616e2063757272656e742074696d6560501b60448201526064016109f8565b8484116114bd5760405162461bcd60e51b81526020600482015260146024820152734c657373207468616e2073746172742074696d6560601b60448201526064016109f8565b600082116114fb5760405162461bcd60e51b815260206004820152600b60248201526a04c657373207468616e20360ac1b60448201526064016109f8565b60008111801561150c575060648111155b6115585760405162461bcd60e51b815260206004820152601c60248201527f4c657373207468616e2030206f72204d6f7265207468616e203130300000000060448201526064016109f8565b30600090815261010e60205260409020548311156115b15760405162461bcd60e51b81526020600482015260166024820152754d6f7265207468616e20706f6f6c2062616c616e636560501b60448201526064016109f8565b60fd5461010d5561010854156115ca576101085461010c555b61010991909155610108939093556101079190915561010b9190915561010a55565b60c9546001600160a01b031633146116165760405162461bcd60e51b81526004016109f890613902565b6001600160a01b0381166000908152610112602052604090205460ff166116775760405162461bcd60e51b81526020600482015260156024820152744e6f6e207768696c6973746564204164647265737360581b60448201526064016109f8565b6001600160a01b0316600090815261011260205260409020805460ff19169055565b306001600160a01b037f00000000000000000000000000000000000000000000000000000000000000001614156116e25760405162461bcd60e51b81526004016109f8906137a3565b7f00000000000000000000000000000000000000000000000000000000000000006001600160a01b0316611714612981565b6001600160a01b03161461173a5760405162461bcd60e51b81526004016109f8906137ef565b611743826129af565b61174f828260016129d9565b5050565b60c9546001600160a01b0316331461177d5760405162461bcd60e51b81526004016109f890613902565b6001600160a01b0381166000908152610110602052604090205460ff16156117d25760405162461bcd60e51b815260206004820152600860248201526724b99030b236b4b760c11b60448201526064016109f8565b6001600160a01b0316600081815261011060205260408120805460ff19166001908117909155610100805491820181559091527f45e010b9ae401e2eb71529478da8bd513a9bdc2d095a111e324f5b95c09ed87b0180546001600160a01b0319169091179055565b60c9546001600160a01b031633146118645760405162461bcd60e51b81526004016109f890613902565b6111c86000612bb7565b60975460ff16156118915760405162461bcd60e51b81526004016109f890613867565b60c9546001600160a01b031633146118bb5760405162461bcd60e51b81526004016109f890613902565b6111c8612c09565b60fc805461094c906139d3565b60006118de60975460ff1690565b156118fb5760405162461bcd60e51b81526004016109f890613867565b33600090815261010e602052604090205482111561192b5760405162461bcd60e51b81526004016109f89061383b565b6001600160a01b0383166000908152610111602052604090205460ff16806119635750336000908152610112602052604090205460ff165b156119fb576119723384612922565b33600090815261010e602052604081208054849290611992908490613990565b90915550506001600160a01b038316600090815261010e6020526040812080548492906119c0908490613937565b90915550506040518281526001600160a01b038416903390600080516020613aa98339815191529060200160405180910390a3506001610a61565b611a053384612922565b6000611a118333612934565b33600090815261010e6020526040812080549293508392909190611a36908490613990565b90915550506001600160a01b038416600090815261010e602052604081208054839290611a64908490613937565b90915550506040518181526001600160a01b038516903390600080516020613aa98339815191529060200160405180910390a36001915050610a61565b60c9546060906001600160a01b03163314611ace5760405162461bcd60e51b81526004016109f890613902565b60006101008381548110611ae457611ae4613a55565b600091825260209091200154610100546001600160a01b0390911691508310611b4f5760405162461bcd60e51b815260206004820152601860248201527f496e707574206f7665722061646d696e73206c656e677468000000000000000060448201526064016109f8565b6001600160a01b0381166000908152610110602052604090205460ff16611ba75760405162461bcd60e51b815260206004820152600c60248201526b2737ba1030b71030b236b4b760a11b60448201526064016109f8565b825b61010054611bb990600190613990565b811015611c4657610100611bce826001613937565b81548110611bde57611bde613a55565b60009182526020909120015461010080546001600160a01b039092169183908110611c0b57611c0b613a55565b600091825260209091200180546001600160a01b0319166001600160a01b039290921691909117905580611c3e81613a0e565b915050611ba9565b50610100805480611c5957611c59613a3f565b60008281526020808220830160001990810180546001600160a01b03191690559092019092556001600160a01b03831682526101108152604091829020805460ff1916905561010080548351818402810184019094528084529091830182828015611ced57602002820191906000526020600020905b81546001600160a01b03168152600190910190602001808311611ccf575b50505050509150505b919050565b60c9546001600160a01b03163314611d255760405162461bcd60e51b81526004016109f890613902565b610102546001600160a01b0382811691161415611d845760405162461bcd60e51b815260206004820152601a60248201527f53616d6520776974682070726576696f7573206164647265737300000000000060448201526064016109f8565b61010280546001600160a01b0319166001600160a01b0392909216919091179055565b60c9546001600160a01b03163314611dd15760405162461bcd60e51b81526004016109f890613902565b60648311158015611de0575060015b8015611ded575060648211155b8015611df7575060015b8015611e04575060648111155b611e415760405162461bcd60e51b815260206004820152600e60248201526d025203c2030206f72203e203130360941b60448201526064016109f8565b606481611e4e8486613937565b611e589190613937565b1115611e9c5760405162461bcd60e51b81526020600482015260136024820152720546f74616c206d6f7265207468616e2031303606c1b60448201526064016109f8565b610105929092556101045561010355565b600054610100900460ff1680611ec6575060005460ff16155b611ee25760405162461bcd60e51b81526004016109f8906138b4565b600054610100900460ff16158015611f04576000805461ffff19166101011790555b6001600160a01b038516611f2a5760405162461bcd60e51b81526004016109f890613891565b60408051808201909152600b8082526a282aa929a2902a37b5b2b760a91b6020909201918252611f5c9160fb916133b6565b5060408051808201909152600580825264505552534560d81b6020909201918252611f899160fc916133b6565b506bcecb8f27f4200f3a0000000060fd5560fe805460ff1916601217905569043c33c193756480000060ff5561010180546001600160a01b0387166001600160a01b03199182161790915561010280549091163017905561010384905561010483905561010582905562015180610106554261010c55612007612c61565b61200f612cdc565b612017612d43565b60fd546001600160a01b038716600090815261010e602052604090205561203d866123ae565b856001600160a01b031660006001600160a01b03167fab8530f87dc9b59234c4623bf917212bb2536d647574c8e7e5da92c2ede0c9f860fd5460405161208591815260200190565b60405180910390a3801561209f576000805461ff00191690555b505050505050565b60975460ff16156120ca5760405162461bcd60e51b81526004016109f890613867565b60c9546001600160a01b031633146120f45760405162461bcd60e51b81526004016109f890613902565b6001600160a01b03811661211a5760405162461bcd60e51b81526004016109f890613891565b6001600160a01b03831630141561213457612134816123ae565b60405163a9059cbb60e01b81526001600160a01b0382811660048301526024820184905284169063a9059cbb90604401602060405180830381600087803b15801561217e57600080fd5b505af1158015612192573d6000803e3d6000fd5b505050506040513d601f19601f820116820180604052508101906121b69190613665565b50505050565b60c9546001600160a01b031633146121e65760405162461bcd60e51b81526004016109f890613902565b6001600160a01b0381166000908152610111602052604090205460ff166122475760405162461bcd60e51b81526020600482015260156024820152744e6f6e207768696c6973746564204164647265737360581b60448201526064016109f8565b6001600160a01b0316600090815261011160205260409020805460ff19169055565b60c9546001600160a01b031633146122935760405162461bcd60e51b81526004016109f890613902565b6001600160a01b0381166122f85760405162461bcd60e51b815260206004820152602660248201527f4f776e61626c653a206e6577206f776e657220697320746865207a65726f206160448201526564647265737360d01b60648201526084016109f8565b61109d81612bb7565b60c9546001600160a01b0316331461232b5760405162461bcd60e51b81526004016109f890613902565b6001600160a01b0381166000908152610111602052604090205460ff16156123895760405162461bcd60e51b81526020600482015260116024820152705768696c6973746564204164647265737360781b60448201526064016109f8565b6001600160a01b0316600090815261011160205260409020805460ff19166001179055565b6001600160a01b0381166000908152610113602052604090206002015461249057610108546124345760006101065461010c54426123ec9190613990565b6123f6919061394f565b90506124058162015180613971565b61010c546124139190613937565b6001600160a01b038316600090815261011360205260409020600201555050565b610108544210156124545760006101065461010c54426123ec9190613990565b60006101065461010854426124699190613990565b612473919061394f565b90506124828162015180613971565b610108546124139190613937565b610108544210156126385761010c546001600160a01b03821660009081526101136020526040902060020154101561254d5760006101065461010c54426124d79190613990565b6124e1919061394f565b6001600160a01b038316600090815261010e60205260408120549192509061250a908390613971565b90506125198262015180613971565b61010c546125279190613937565b6001600160a01b0384166000908152610113602052604090206002810191909155555050565b610106546001600160a01b0382166000908152610113602052604081206002015490919061257b9042613990565b612585919061394f565b90506001811061174f576001600160a01b038216600090815261010e60205260408120546125b4908390613971565b90506125c38262015180613971565b6001600160a01b03841660009081526101136020526040812060020180549091906125ef908490613937565b90915550506001600160a01b03831660009081526101136020526040902054612619908290613937565b6001600160a01b03841660009081526101136020526040902055505050565b61010854421061109d5761010c546001600160a01b03821660009081526101136020526040902060020154101561275b5760006101065461010c54610108546126819190613990565b61268b919061394f565b6001600160a01b038316600090815261010e6020526040812054919250906126b4908390613971565b6001600160a01b038416600090815261011360205260408120556101095461010d5461010b5461010a54939450612710936126ef9086613971565b6126f99190613971565b612704906064613971565b61270e919061394f565b612718919061394f565b612722919061394f565b6001600160a01b038416600090815261011360205260409020600181019190915561010854600290910155612756836123ae565b505050565b61010c546001600160a01b03821660009081526101136020526040902060020154108015906127a85750610108546001600160a01b03821660009081526101136020526040902060020154105b1561254d57610106546001600160a01b03821660009081526101136020526040812060020154610108549192916127df9190613990565b6127e9919061394f565b9050600181106128e3576001600160a01b038216600090815261010e6020526040812054612818908390613971565b6001600160a01b0384166000908152610113602052604081205491925090612841908390613937565b6001600160a01b038516600090815261011360205260408120556101095461010d5461010b5461010a549394506127109361287c9086613971565b6128869190613971565b612891906064613971565b61289b919061394f565b6128a5919061394f565b6128af919061394f565b6001600160a01b0385166000908152610113602052604090206001810191909155610108546002909101556121b6846123ae565b6001600160a01b03821660009081526101136020526040812080549190556101095461010d5461010b5461010a54612710939291906126ef9086613971565b61292b826123ae565b61174f816123ae565b60008080808061294387612daa565b9194509250905061295686848484612e45565b8082612962858a613990565b61296c9190613990565b6129769190613990565b979650505050505050565b7f360894a13ba1a3210667c828492db98dca3e2076cc3735a920a3ca505d382bbc546001600160a01b031690565b60c9546001600160a01b0316331461109d5760405162461bcd60e51b81526004016109f890613902565b60006129e3612981565b90506129ee8461306e565b6000835111806129fb5750815b15612a0c57612a0a8484613113565b505b7f4910fdfa16fed3260ed0e7147f7cc6da11a60208b5b9406d12a635614ffd9143805460ff16612b1d57805460ff191660011781556040516001600160a01b0383166024820152612a8b90869060440160408051601f198184030181529190526020810180516001600160e01b0316631b2ce7f360e11b179052613113565b50805460ff19168155612a9c612981565b6001600160a01b0316826001600160a01b031614612b145760405162461bcd60e51b815260206004820152602f60248201527f45524331393637557067726164653a207570677261646520627265616b73206660448201526e75727468657220757067726164657360881b60648201526084016109f8565b612b1d856131fe565b5050505050565b60975460ff16612b6d5760405162461bcd60e51b815260206004820152601460248201527314185d5cd8589b194e881b9bdd081c185d5cd95960621b60448201526064016109f8565b6097805460ff191690557f5db9ee0a495bf2e6ff9c91a7834c1ba4fdd244a5e8aa4e537bd38aeae4b073aa335b6040516001600160a01b03909116815260200160405180910390a1565b60c980546001600160a01b038381166001600160a01b0319831681179093556040519116919082907f8be0079c531659141344cd1fd0a4f28419497f9722a3daafe3b4186f6b6457e090600090a35050565b60975460ff1615612c2c5760405162461bcd60e51b81526004016109f890613867565b6097805460ff191660011790557f62e78cea01bee320cd4e420270b5ea74000d11b0c9f74754ebdbfc544b05a258612b9a3390565b600054610100900460ff1680612c7a575060005460ff16155b612c965760405162461bcd60e51b81526004016109f8906138b4565b600054610100900460ff16158015612cb8576000805461ffff19166101011790555b612cc061323e565b612cc86132a8565b801561109d576000805461ff001916905550565b600054610100900460ff1680612cf5575060005460ff16155b612d115760405162461bcd60e51b81526004016109f8906138b4565b600054610100900460ff16158015612d33576000805461ffff19166101011790555b612d3b61323e565b612cc861331d565b600054610100900460ff1680612d5c575060005460ff16155b612d785760405162461bcd60e51b81526004016109f8906138b4565b600054610100900460ff16158015612d9a576000805461ffff19166101011790555b612da261323e565b612cc861323e565b60008060008060008060ff5460fd541115612e385760646101035488612dd09190613971565b612dda919061394f565b925060646101045488612ded9190613971565b612df7919061394f565b915060646101055488612e0a9190613971565b612e14919061394f565b9050600060ff5460fd54612e289190613990565b905080841115612e36578093505b505b9196909550909350915050565b6001600160a01b038416612e6b5760405162461bcd60e51b81526004016109f890613891565b6001600160a01b038416600090815261010e60205260408120549082612e918587613937565b612e9b9190613937565b905080821015612ebd5760405162461bcd60e51b81526004016109f89061383b565b6001600160a01b038616600090815261010e602052604081208054879290612ee6908490613990565b90915550506001600160a01b038616600090815261010e602052604081208054869290612f14908490613990565b90915550506001600160a01b038616600090815261010e602052604081208054859290612f42908490613990565b925050819055508460fd6000828254612f5b9190613990565b9091555050610101546001600160a01b0316600090815261010e602052604081208054869290612f8c908490613937565b9091555050610102546001600160a01b0316600090815261010e602052604081208054859290612fbd908490613937565b90915550506040518581526001600160a01b038716907fcc16f5dbb4873280815c1ee09dbd06736cffcc184412cf7a71a0fdb75d397ca59060200160405180910390a2610101546040518581526001600160a01b03909116903390600080516020613aa98339815191529060200160405180910390a3610102546040518481526001600160a01b03909116903390600080516020613aa98339815191529060200160405180910390a3505050505050565b803b6130d25760405162461bcd60e51b815260206004820152602d60248201527f455243313936373a206e657720696d706c656d656e746174696f6e206973206e60448201526c1bdd08184818dbdb9d1c9858dd609a1b60648201526084016109f8565b7f360894a13ba1a3210667c828492db98dca3e2076cc3735a920a3ca505d382bbc80546001600160a01b0319166001600160a01b0392909216919091179055565b6060823b6131725760405162461bcd60e51b815260206004820152602660248201527f416464726573733a2064656c65676174652063616c6c20746f206e6f6e2d636f6044820152651b9d1c9858dd60d21b60648201526084016109f8565b600080846001600160a01b03168460405161318d9190613707565b600060405180830381855af49150503d80600081146131c8576040519150601f19603f3d011682016040523d82523d6000602084013e6131cd565b606091505b50915091506131f58282604051806060016040528060278152602001613a826027913961337d565b95945050505050565b6132078161306e565b6040516001600160a01b038216907fbc7cd75a20ee27fd9adebab32041f755214dbc6bffa90cc0225b39da2e5c2d3b90600090a250565b600054610100900460ff1680613257575060005460ff16155b6132735760405162461bcd60e51b81526004016109f8906138b4565b600054610100900460ff16158015612cc8576000805461ffff1916610101179055801561109d576000805461ff001916905550565b600054610100900460ff16806132c1575060005460ff16155b6132dd5760405162461bcd60e51b81526004016109f8906138b4565b600054610100900460ff161580156132ff576000805461ffff19166101011790555b6097805460ff19169055801561109d576000805461ff001916905550565b600054610100900460ff1680613336575060005460ff16155b6133525760405162461bcd60e51b81526004016109f8906138b4565b600054610100900460ff16158015613374576000805461ffff19166101011790555b612cc833612bb7565b6060831561338c575081610f24565b82511561339c5782518084602001fd5b8160405162461bcd60e51b81526004016109f89190613770565b8280546133c2906139d3565b90600052602060002090601f0160209004810192826133e4576000855561342a565b82601f106133fd57805160ff191683800117855561342a565b8280016001018555821561342a579182015b8281111561342a57825182559160200191906001019061340f565b5061343692915061343a565b5090565b5b80821115613436576000815560010161343b565b80356001600160a01b0381168114611cf657600080fd5b60006020828403121561347857600080fd5b610f248261344f565b6000806040838503121561349457600080fd5b61349d8361344f565b91506134ab6020840161344f565b90509250929050565b6000806000606084860312156134c957600080fd5b6134d28461344f565b92506134e06020850161344f565b9150604084013590509250925092565b600080600080600060a0868803121561350857600080fd5b6135118661344f565b945061351f6020870161344f565b94979496505050506040830135926060810135926080909101359150565b6000806040838503121561355057600080fd5b6135598361344f565b9150602083013567ffffffffffffffff8082111561357657600080fd5b818501915085601f83011261358a57600080fd5b81358181111561359c5761359c613a6b565b604051601f8201601f19908116603f011681019083821181831017156135c4576135c4613a6b565b816040528281528860208487010111156135dd57600080fd5b8260208601602083013760006020848301015280955050505050509250929050565b6000806040838503121561361257600080fd5b61361b8361344f565b946020939093013593505050565b60008060006060848603121561363e57600080fd5b6136478461344f565b92506020840135915061365c6040850161344f565b90509250925092565b60006020828403121561367757600080fd5b81518015158114610f2457600080fd5b60006020828403121561369957600080fd5b5035919050565b6000806000606084860312156136b557600080fd5b505081359360208301359350604090920135919050565b600080600080600060a086880312156136e457600080fd5b505083359560208501359550604085013594606081013594506080013592509050565b600082516137198184602087016139a7565b9190910192915050565b6020808252825182820181905260009190848201906040850190845b818110156137645783516001600160a01b03168352928401929184019160010161373f565b50909695505050505050565b602081526000825180602084015261378f8160408501602087016139a7565b601f01601f19169190910160400192915050565b6020808252602c908201527f46756e6374696f6e206d7573742062652063616c6c6564207468726f7567682060408201526b19195b1959d85d1958d85b1b60a21b606082015260800190565b6020808252602c908201527f46756e6374696f6e206d7573742062652063616c6c6564207468726f7567682060408201526b6163746976652070726f787960a01b606082015260800190565b6020808252601290820152714e6f7420656e6f7567682062616c616e636560701b604082015260600190565b60208082526010908201526f14185d5cd8589b194e881c185d5cd95960821b604082015260600190565b60208082526009908201526830206164647265737360b81b604082015260600190565b6020808252602e908201527f496e697469616c697a61626c653a20636f6e747261637420697320616c72656160408201526d191e481a5b9a5d1a585b1a5e995960921b606082015260800190565b6020808252818101527f4f776e61626c653a2063616c6c6572206973206e6f7420746865206f776e6572604082015260600190565b6000821982111561394a5761394a613a29565b500190565b60008261396c57634e487b7160e01b600052601260045260246000fd5b500490565b600081600019048311821515161561398b5761398b613a29565b500290565b6000828210156139a2576139a2613a29565b500390565b60005b838110156139c25781810151838201526020016139aa565b838111156121b65750506000910152565b600181811c908216806139e757607f821691505b60208210811415613a0857634e487b7160e01b600052602260045260246000fd5b50919050565b6000600019821415613a2257613a22613a29565b5060010190565b634e487b7160e01b600052601160045260246000fd5b634e487b7160e01b600052603160045260246000fd5b634e487b7160e01b600052603260045260246000fd5b634e487b7160e01b600052604160045260246000fdfe416464726573733a206c6f772d6c6576656c2064656c65676174652063616c6c206661696c6564ddf252ad1be2c89b69c2b068fc378daa952ba7f163c4a11628f55a4df523b3efa2646970667358221220b3499c2adae22224625b1f9e6c5b45c313e3c6f1b703e592c90513e891aed2ba64736f6c63430008070033",
  "immutableReferences": {
    "3667": [
      {
        "length": 32,
        "start": 4066
      },
      {
        "length": 32,
        "start": 4130
      },
      {
        "length": 32,
        "start": 5796
      },
      {
        "length": 32,
        "start": 5860
      }
    ]
  },
  "source": "// SPDX-License-Identifier: UNLICENSED\r\n\r\npragma solidity ^0.8.0;\r\n\r\nimport \"@openzeppelin/contracts-upgradeable/proxy/utils/Initializable.sol\";\r\nimport \"@openzeppelin/contracts-upgradeable/proxy/utils/UUPSUpgradeable.sol\";\r\nimport \"@openzeppelin/contracts-upgradeable/security/PausableUpgradeable.sol\";\r\nimport \"@openzeppelin/contracts-upgradeable/access/OwnableUpgradeable.sol\";\r\nimport \"@openzeppelin/contracts/token/ERC20/IERC20.sol\";\r\n\r\nabstract contract ERC20Interface {\r\n\r\n    function transfer(address to, uint tokens) public virtual returns (bool success);\r\n\r\n    function transferFrom(address from, address to, uint tokens) public virtual returns (bool success);\r\n\r\n}\r\n\r\ncontract PurseTokenUpgradable is Initializable, UUPSUpgradeable, PausableUpgradeable, OwnableUpgradeable {\r\n\r\n    string public name;\r\n    string public symbol;\r\n    uint256 public totalSupply;\r\n    uint8 public decimals;\r\n    uint256 private minimumSupply;\r\n    address[] public admins;\r\n    address public liqPool;\r\n    address public disPool;\r\n    uint256 public burnPercent;\r\n    uint256 public liqPercent;\r\n    uint256 public disPercent;\r\n    \r\n    uint256 public _averageInterval;\r\n    uint256 public _getRewardEndTime;\r\n    uint256 public _getRewardStartTime;\r\n    uint256 public _numOfDaysPerMth;\r\n    uint256 public _monthlyDistributePr;\r\n    uint256 public _percentageDistribute;\r\n    uint256 public _lastRewardStartTime;\r\n    uint256 public _totalSupply;\r\n\r\n    mapping(address => uint256) public balanceOf;\r\n    mapping(address => mapping(address => uint256)) public allowance;\r\n    mapping(address => bool) public isAdmin;\r\n    mapping(address => bool) public isWhitelistedTo;\r\n    mapping(address => bool) public isWhitelistedFrom;\r\n    mapping(address => AccAmount) public accAmount;\r\n\r\n    struct AccAmount {\r\n        uint256 amount;\r\n        uint256 accReward;\r\n        uint256 lastUpdateTime;\r\n    }\r\n\r\n    event Transfer(address indexed _from, address indexed _to, uint256 _value);\r\n    event Burn(address indexed _from, uint256 _value);\r\n    event Mint(address indexed _from, address indexed _to, uint256 _value);\r\n    event Approval(address indexed _owner, address indexed _spender, uint256 _value);\r\n\r\n    modifier onlyAdmin() {\r\n        require(isAdmin[msg.sender], \"Not Admin\");\r\n        _;\r\n    }\r\n\r\n    function transfer(address _to, uint256 _value) public whenNotPaused returns (bool success)\r\n    {\r\n        require(balanceOf[msg.sender] >= _value, \"Not enough balance\");\r\n        if (isWhitelistedTo[_to] || isWhitelistedFrom[msg.sender]) {\r\n            updateAccumulateBalanceTransaction(msg.sender, _to); \r\n            balanceOf[msg.sender] -= _value;\r\n            balanceOf[_to] += _value;\r\n            \r\n           \r\n            emit Transfer(msg.sender, _to, _value);\r\n            return true;\r\n        } else {\r\n            updateAccumulateBalanceTransaction(msg.sender, _to);\r\n            uint256 transferValue = _partialBurn(_value, msg.sender);\r\n            balanceOf[msg.sender] -= transferValue;\r\n            balanceOf[_to] += transferValue;\r\n            \r\n\r\n            emit Transfer(msg.sender, _to, transferValue);\r\n            return true;\r\n        }\r\n    }\r\n    \r\n    function approve(address _spender, uint256 _value) public whenNotPaused returns (bool success)\r\n    {\r\n        allowance[msg.sender][_spender] = _value;\r\n        emit Approval(msg.sender, _spender, _value);\r\n        return true;\r\n    }\r\n\r\n    function transferFrom(address _from, address _to, uint256 _value) public whenNotPaused returns (bool success) {\r\n        require(_value <= balanceOf[_from], \"Not enough balance\");\r\n        require(_value <= allowance[_from][msg.sender], \"Not enough allowance\");\r\n        if (isWhitelistedTo[_to] || isWhitelistedFrom[msg.sender]) {\r\n            allowance[_from][msg.sender] -= _value;\r\n            updateAccumulateBalanceTransaction(_from, _to);\r\n            balanceOf[_from] -= _value;\r\n            balanceOf[_to] += _value;\r\n            \r\n            emit Transfer(_from, _to, _value);\r\n            return true;\r\n        } else {\r\n            allowance[_from][msg.sender] -= _value;\r\n            updateAccumulateBalanceTransaction(_from, _to);\r\n            uint256 transferValue = _partialBurn(_value, _from);\r\n            balanceOf[_from] -= transferValue;\r\n            balanceOf[_to] += transferValue;\r\n\r\n            emit Transfer(_from, _to, transferValue);\r\n            return true;\r\n        }\r\n    }\r\n\r\n    function mint(address _account, uint256 _amount) public whenNotPaused onlyAdmin {\r\n        require(_account != address(0), \"0 address\");\r\n        updateAccumulateBalance(_account); \r\n        balanceOf[_account] += _amount;\r\n\r\n        totalSupply += _amount;\r\n        emit Mint(address(0), _account, _amount);\r\n    }\r\n\r\n    function burn(uint256 _amount) public whenNotPaused {\r\n        require(_amount != 0, \"0 address\");\r\n        require(balanceOf[msg.sender] >= _amount, \"Not enough balance\");\r\n        updateAccumulateBalance(msg.sender); \r\n        balanceOf[msg.sender] -= _amount;\r\n        totalSupply -= _amount;\r\n        emit Burn(msg.sender, _amount);\r\n    }\r\n    \r\n    function updateAccumulateBalance(address _holder) private {\r\n        if (accAmount[_holder].lastUpdateTime == 0) {\r\n            if (_getRewardStartTime == 0) {\r\n                uint256 interval = (block.timestamp - _lastRewardStartTime)/ _averageInterval;\r\n                accAmount[_holder].lastUpdateTime = _lastRewardStartTime + (interval * 86400);   //1 day = 86400 seconds\r\n            } else {\r\n                if (block.timestamp < _getRewardStartTime) {\r\n                    uint256 interval = (block.timestamp - _lastRewardStartTime)/ _averageInterval;\r\n                    accAmount[_holder].lastUpdateTime = _lastRewardStartTime + (interval * 86400);   //1 day = 86400 seconds\r\n                } else {\r\n                    uint256 interval = (block.timestamp - _getRewardStartTime)/ _averageInterval;\r\n                    accAmount[_holder].lastUpdateTime = _getRewardStartTime + (interval * 86400);\r\n                }\r\n            } \r\n        } \r\n        else if (block.timestamp < _getRewardStartTime) {\r\n            if (accAmount[_holder].lastUpdateTime < _lastRewardStartTime) {\r\n                uint256 interval = (block.timestamp - _lastRewardStartTime)/ _averageInterval;\r\n                uint256 accumulateAmount = balanceOf[_holder] * interval;\r\n                accAmount[_holder].lastUpdateTime = _lastRewardStartTime + (interval * 86400);   //1 day = 86400 seconds\r\n                accAmount[_holder].amount = accumulateAmount;     \r\n            } \r\n            else {\r\n            uint256 interval = (block.timestamp - accAmount[_holder].lastUpdateTime)/ _averageInterval;\r\n                if (interval >= 1) {\r\n                    uint256 accumulateAmount = balanceOf[_holder] * interval;\r\n                    accAmount[_holder].lastUpdateTime += (interval * 86400);\r\n                    accAmount[_holder].amount = accAmount[_holder].amount + accumulateAmount;                     \r\n                }\r\n            }\r\n        } \r\n        else if(block.timestamp >= _getRewardStartTime) {\r\n            if (accAmount[_holder].lastUpdateTime < _lastRewardStartTime) {\r\n                uint256 interval = (_getRewardStartTime - _lastRewardStartTime)/ _averageInterval;\r\n                uint256 lastmonthAccAmount = balanceOf[_holder] * interval;\r\n                accAmount[_holder].amount = 0;\r\n                accAmount[_holder].accReward = lastmonthAccAmount * _monthlyDistributePr * _percentageDistribute * 100 / _totalSupply / _numOfDaysPerMth / 10000;\r\n                accAmount[_holder].lastUpdateTime = _getRewardStartTime;\r\n                updateAccumulateBalance(_holder);\r\n            } \r\n            else if (accAmount[_holder].lastUpdateTime >= _lastRewardStartTime && accAmount[_holder].lastUpdateTime < _getRewardStartTime) {\r\n                uint256 interval = (_getRewardStartTime - accAmount[_holder].lastUpdateTime)/ _averageInterval;\r\n                if (interval >= 1) {\r\n                    uint256 accumulateAmount = balanceOf[_holder] * interval;\r\n                    uint256 lastmonthAccAmount = accAmount[_holder].amount + accumulateAmount; \r\n                    accAmount[_holder].amount = 0;\r\n                    accAmount[_holder].accReward = lastmonthAccAmount * _monthlyDistributePr * _percentageDistribute * 100 / _totalSupply / _numOfDaysPerMth / 10000;\r\n                    accAmount[_holder].lastUpdateTime = _getRewardStartTime;\r\n                    updateAccumulateBalance(_holder);\r\n                } \r\n                else {\r\n                    uint256 lastmonthAccAmount = accAmount[_holder].amount;\r\n                    accAmount[_holder].amount = 0;\r\n                    accAmount[_holder].accReward = lastmonthAccAmount * _monthlyDistributePr * _percentageDistribute * 100 / _totalSupply / _numOfDaysPerMth / 10000;\r\n                    accAmount[_holder].lastUpdateTime = _getRewardStartTime;\r\n                    updateAccumulateBalance(_holder);\r\n                }\r\n            } \r\n            else {\r\n                uint256 interval = (block.timestamp - accAmount[_holder].lastUpdateTime)/ _averageInterval;\r\n                if (interval >= 1) {\r\n                    uint256 accumulateAmount = balanceOf[_holder] * interval;\r\n                    accAmount[_holder].lastUpdateTime += (interval * 86400);\r\n                    accAmount[_holder].amount = accAmount[_holder].amount + accumulateAmount;                     \r\n                }\r\n            }\r\n        }\r\n    }\r\n    \r\n    \r\n    \r\n    function updateAccumulateBalanceTransaction(address _from, address _to) private {\r\n        updateAccumulateBalance(_from);\r\n        updateAccumulateBalance(_to);\r\n    }\r\n\r\n    function claimDistributionPurse() public whenNotPaused returns(bool success) {\r\n        require(block.timestamp > _getRewardStartTime, \"Claim not started\");\r\n        require(block.timestamp < _getRewardEndTime, \"Claim period over\"); \r\n\r\n        updateAccumulateBalance(msg.sender);\r\n        require(accAmount[msg.sender].accReward > 0, \"User reward is 0\");\r\n        uint256 claimAmount = accAmount[msg.sender].accReward;\r\n        accAmount[msg.sender].accReward = 0;\r\n\r\n        ERC20Interface(address(this)).transfer(msg.sender, claimAmount);\r\n        return true;\r\n    }\r\n    \r\n    function activateClaimMonthly(uint256 _rewardStartTime, uint256 _rewardEndTime, uint256 _monthlyDisPr, uint256 _numOfDays, uint256 _percentage) public onlyAdmin {\r\n        require(_rewardStartTime > block.timestamp, \"Less than current time\");\r\n        require(_rewardEndTime > _rewardStartTime, \"Less than start time\");\r\n        require(_numOfDays > 0, \"Less than 0\");\r\n        require(_percentage > 0 && _percentage <= 100, \"Less than 0 or More than 100\");\r\n        require(_monthlyDisPr <= balanceOf[address(this)], \"More than pool balance\");\r\n        \r\n        _totalSupply = totalSupply;\r\n        if (_getRewardStartTime != 0) {\r\n            _lastRewardStartTime = _getRewardStartTime;\r\n        }\r\n        // _lastRewardStartTime = _getRewardStartTime;\r\n        _numOfDaysPerMth = _numOfDays;\r\n        _getRewardStartTime = _rewardStartTime;\r\n        _getRewardEndTime = _rewardEndTime;\r\n        _percentageDistribute = _percentage;\r\n        _monthlyDistributePr = _monthlyDisPr;\r\n    }\r\n\r\n    function _partialBurn(uint256 _amount, address _from) internal returns (uint256) {\r\n        uint256 transferAmount = 0;\r\n        uint256 burnAmount;\r\n        uint256 liqAmount;\r\n        uint256 disAmount;\r\n        (\r\n            burnAmount,\r\n            liqAmount,\r\n            disAmount\r\n        ) = _calculateDeductAmount(_amount);\r\n\r\n        if (burnAmount >= 0 || liqAmount >= 0 || disAmount >= 0) {\r\n            burnPrivate(_from, burnAmount, liqAmount, disAmount);\r\n        }\r\n        transferAmount = _amount - burnAmount - liqAmount - disAmount;\r\n\r\n        return transferAmount;\r\n    }\r\n\r\n    function _calculateDeductAmount(uint256 _amount) internal view returns (uint256, uint256, uint256) {\r\n        uint256 burnAmount;\r\n        uint256 liqAmount;\r\n        uint256 disAmount;\r\n\r\n        if (totalSupply > minimumSupply) {\r\n            burnAmount = (_amount * burnPercent) / 100;\r\n            liqAmount = (_amount * liqPercent) / 100;\r\n            disAmount = (_amount * disPercent) / 100;\r\n            uint256 availableBurn = totalSupply - minimumSupply;\r\n            if (burnAmount > availableBurn) {\r\n                burnAmount = availableBurn;\r\n            }\r\n        }\r\n        return (burnAmount, liqAmount, disAmount);\r\n    }\r\n\r\n    function burnPrivate( address _account, uint256 _burnAmount, uint256 _liqAmount, uint256 _disAmount) private {\r\n        require(_account != address(0), \"0 address\");\r\n        uint256 accountBalance = balanceOf[_account];\r\n        uint256 deductAmount = _burnAmount + _liqAmount + _disAmount;\r\n        require(accountBalance >= deductAmount, \"Not enough balance\");\r\n        balanceOf[_account] -= _burnAmount;\r\n        balanceOf[_account] -= _liqAmount;\r\n        balanceOf[_account] -= _disAmount;\r\n\r\n        totalSupply -= _burnAmount;\r\n        // updateAccumulateBalanceTransaction(disPool, liqPool); \r\n        balanceOf[liqPool] += _liqAmount;\r\n        balanceOf[disPool] += _disAmount;\r\n\r\n        emit Burn(_account, _burnAmount);\r\n        emit Transfer(msg.sender, liqPool, _liqAmount);\r\n        emit Transfer(msg.sender, disPool, _disAmount);\r\n    }\r\n    \r\n    function updateLPoolAdd(address _newLPool) public onlyOwner {\r\n        require(_newLPool != liqPool, \"Same with previous address\");\r\n\r\n        liqPool = _newLPool;\r\n    }\r\n\r\n    function updateDPoolAdd(address _newDPool) public onlyOwner {\r\n        require(_newDPool != disPool, \"Same with previous address\");\r\n\r\n        disPool = _newDPool;\r\n    }\r\n    \r\n    function updatePercent(uint256 _newDisPercent, uint256 _newLiqPercent, uint256 _newBurnPercent) public onlyOwner {\r\n        require(_newDisPercent >= 0 && _newDisPercent <= 100 && _newLiqPercent >= 0 && _newLiqPercent <= 100 && _newBurnPercent >= 0 && _newBurnPercent <= 100, \"% < 0 or > 100\");\r\n        require(_newDisPercent + _newLiqPercent + _newBurnPercent <= 100, \"Total more than 100\");\r\n        \r\n        disPercent = _newDisPercent;\r\n        liqPercent = _newLiqPercent;\r\n        burnPercent = _newBurnPercent;\r\n    }\r\n\r\n    function addAdmin(address newAdmin) public onlyOwner{\r\n        require(!isAdmin[newAdmin], \"Is admin\");\r\n\r\n        isAdmin[newAdmin] = true;\r\n        admins.push(newAdmin);\r\n    }\r\n\r\n    function removeAdmin(uint index) public onlyOwner returns (address[] memory){\r\n        address removeOwner = admins[index];\r\n        require(index < admins.length, \"Input over admins length\");\r\n        require(isAdmin[removeOwner], \"Not an admin\");\r\n        \r\n        for (uint i = index; i<admins.length-1; i++){\r\n            admins[i] = admins[i+1];\r\n        }\r\n        admins.pop();\r\n\r\n        isAdmin[removeOwner] = false;\r\n        return admins;\r\n    }\r\n    \r\n    function transferERCToken(address token, uint256 amount, address _to) public whenNotPaused onlyOwner{\r\n        require(_to != address(0), \"0 address\");\r\n        if (token == address(this)) {\r\n            updateAccumulateBalance(_to);\r\n            ERC20Interface(token).transfer(_to, amount);\r\n        } else {\r\n            ERC20Interface(token).transfer(_to, amount);          \r\n        }\r\n    } \r\n\r\n    function pause() public whenNotPaused onlyOwner {\r\n        _pause();\r\n    }\r\n\r\n    function unpause() public whenPaused onlyOwner {\r\n        _unpause();\r\n    }\r\n    \r\n    function setWhitelistedTo(address newWhitelist) public onlyOwner {\r\n        require(!isWhitelistedTo[newWhitelist], \"Whilisted Address\");\r\n\r\n        isWhitelistedTo[newWhitelist] = true;\r\n    }\r\n\r\n    function removeWhitelistedTo(address newWhitelist) public onlyOwner {\r\n        require(isWhitelistedTo[newWhitelist], \"Non whilisted Address\");\r\n\r\n        isWhitelistedTo[newWhitelist] = false;\r\n    }\r\n\r\n    function setWhitelistedFrom(address newWhitelist) public onlyOwner {\r\n        require(!isWhitelistedFrom[newWhitelist], \"Whilisted Address\");\r\n\r\n        isWhitelistedFrom[newWhitelist] = true;\r\n    }\r\n\r\n    function removeWhitelistedFrom(address newWhitelist) public onlyOwner {\r\n        require(isWhitelistedFrom[newWhitelist], \"Non whilisted Address\");\r\n\r\n        isWhitelistedFrom[newWhitelist] = false;\r\n    }\r\n\r\n    function _authorizeUpgrade(address) internal override onlyOwner {}\r\n\r\n    function initialize(\r\n        address _to,\r\n        address _lPool,\r\n        uint256 _burnPercent,\r\n        uint256 _liqPercent,\r\n        uint256 _disPercent\r\n    ) public initializer {\r\n        require(_lPool != address(0), \"0 address\");\r\n        require(_burnPercent >= 0, \"Percentage is 0\");\r\n        require(_liqPercent >= 0, \"Percentage is 0\");\r\n        require(_disPercent >= 0, \"Percentage is 0\");\r\n\r\n        name = \"PURSE Token\";\r\n        symbol = \"PURSE\";\r\n        totalSupply = 64000000000 * (10**18); // 64 billion tokens\r\n        decimals = 18;\r\n        minimumSupply = 20000 * (10**18);\r\n\r\n        liqPool = _lPool;\r\n        disPool = address(this);\r\n        burnPercent = _burnPercent;\r\n        liqPercent = _liqPercent;\r\n        disPercent = _disPercent;\r\n        _averageInterval = 1 days;       // update to 1 days in mainnet(prod)\r\n        _lastRewardStartTime = block.timestamp;\r\n        __Pausable_init();\r\n        __Ownable_init();\r\n        __UUPSUpgradeable_init();\r\n        \r\n        balanceOf[_to] = totalSupply;\r\n        updateAccumulateBalance(_to); \r\n        emit Mint(address(0), _to, totalSupply);\r\n    }\r\n}",
  "sourcePath": "C:/Users/cheek/Desktop/Developer doc/Visual Studio Code/PundiX/lpTokenRestakingFarm/src/contracts/PurseTokenUpgradable.sol",
  "compiler": {
    "name": "solc",
    "version": "0.8.7+commit.e28d00a7.Emscripten.clang"
  },
  "schemaVersion": "3.2.3",
  "updatedAt": "2021-10-19T02:08:50.089Z",
  "networkType": "ethereum",
  "devdoc": {
    "kind": "dev",
    "methods": {
      "owner()": {
        "details": "Returns the address of the current owner."
      },
      "paused()": {
        "details": "Returns true if the contract is paused, and false otherwise."
      },
      "renounceOwnership()": {
        "details": "Leaves the contract without owner. It will not be possible to call `onlyOwner` functions anymore. Can only be called by the current owner. NOTE: Renouncing ownership will leave the contract without an owner, thereby removing any functionality that is only available to the owner."
      },
      "transferOwnership(address)": {
        "details": "Transfers ownership of the contract to a new account (`newOwner`). Can only be called by the current owner."
      },
      "upgradeTo(address)": {
        "details": "Upgrade the implementation of the proxy to `newImplementation`. Calls {_authorizeUpgrade}. Emits an {Upgraded} event."
      },
      "upgradeToAndCall(address,bytes)": {
        "details": "Upgrade the implementation of the proxy to `newImplementation`, and subsequently execute the function call encoded in `data`. Calls {_authorizeUpgrade}. Emits an {Upgraded} event."
      }
    },
    "version": 1
  },
  "userdoc": {
    "kind": "user",
    "methods": {},
    "version": 1
  }
}