{
  "contractName": "RestakingFarm",
  "abi": [
    {
      "inputs": [
        {
          "internalType": "contract PurseToken",
          "name": "_purseToken",
          "type": "address"
        },
        {
          "internalType": "uint256",
          "name": "_capMintToken",
          "type": "uint256"
        }
      ],
      "stateMutability": "nonpayable",
      "type": "constructor"
    },
    {
      "anonymous": false,
      "inputs": [
        {
          "indexed": true,
          "internalType": "address",
          "name": "owner",
          "type": "address"
        },
        {
          "indexed": true,
          "internalType": "contract IERC20",
          "name": "lpToken",
          "type": "address"
        },
        {
          "indexed": false,
          "internalType": "uint256",
          "name": "pursePerBlock",
          "type": "uint256"
        },
        {
          "indexed": false,
          "internalType": "uint256",
          "name": "bonusMultiplier",
          "type": "uint256"
        },
        {
          "indexed": false,
          "internalType": "uint256",
          "name": "startBlock",
          "type": "uint256"
        }
      ],
      "name": "AddNewPool",
      "type": "event"
    },
    {
      "anonymous": false,
      "inputs": [
        {
          "indexed": true,
          "internalType": "address",
          "name": "user",
          "type": "address"
        },
        {
          "indexed": false,
          "internalType": "uint256",
          "name": "amount",
          "type": "uint256"
        }
      ],
      "name": "ClaimReward",
      "type": "event"
    },
    {
      "anonymous": false,
      "inputs": [
        {
          "indexed": true,
          "internalType": "address",
          "name": "user",
          "type": "address"
        },
        {
          "indexed": false,
          "internalType": "uint256",
          "name": "amount",
          "type": "uint256"
        }
      ],
      "name": "Deposit",
      "type": "event"
    },
    {
      "anonymous": false,
      "inputs": [
        {
          "indexed": true,
          "internalType": "address",
          "name": "user",
          "type": "address"
        },
        {
          "indexed": true,
          "internalType": "uint256",
          "name": "pid",
          "type": "uint256"
        },
        {
          "indexed": false,
          "internalType": "uint256",
          "name": "amount",
          "type": "uint256"
        }
      ],
      "name": "EmergencyWithdraw",
      "type": "event"
    },
    {
      "anonymous": false,
      "inputs": [
        {
          "indexed": true,
          "internalType": "address",
          "name": "previousOwner",
          "type": "address"
        },
        {
          "indexed": true,
          "internalType": "address",
          "name": "newOwner",
          "type": "address"
        }
      ],
      "name": "OwnershipTransferred",
      "type": "event"
    },
    {
      "anonymous": false,
      "inputs": [
        {
          "indexed": true,
          "internalType": "address",
          "name": "owner",
          "type": "address"
        },
        {
          "indexed": true,
          "internalType": "uint256",
          "name": "pid",
          "type": "uint256"
        },
        {
          "indexed": false,
          "internalType": "uint256",
          "name": "pursePerBlock",
          "type": "uint256"
        },
        {
          "indexed": false,
          "internalType": "uint256",
          "name": "bonusMultiplier",
          "type": "uint256"
        }
      ],
      "name": "UpdatePoolReward",
      "type": "event"
    },
    {
      "anonymous": false,
      "inputs": [
        {
          "indexed": true,
          "internalType": "address",
          "name": "user",
          "type": "address"
        },
        {
          "indexed": false,
          "internalType": "uint256",
          "name": "amount",
          "type": "uint256"
        }
      ],
      "name": "Withdraw",
      "type": "event"
    },
    {
      "inputs": [],
      "name": "capMintToken",
      "outputs": [
        {
          "internalType": "uint256",
          "name": "",
          "type": "uint256"
        }
      ],
      "stateMutability": "view",
      "type": "function",
      "constant": true
    },
    {
      "inputs": [],
      "name": "name",
      "outputs": [
        {
          "internalType": "string",
          "name": "",
          "type": "string"
        }
      ],
      "stateMutability": "view",
      "type": "function",
      "constant": true
    },
    {
      "inputs": [],
      "name": "owner",
      "outputs": [
        {
          "internalType": "address",
          "name": "",
          "type": "address"
        }
      ],
      "stateMutability": "view",
      "type": "function",
      "constant": true
    },
    {
      "inputs": [
        {
          "internalType": "address",
          "name": "",
          "type": "address"
        }
      ],
      "name": "poolId",
      "outputs": [
        {
          "internalType": "uint256",
          "name": "",
          "type": "uint256"
        }
      ],
      "stateMutability": "view",
      "type": "function",
      "constant": true
    },
    {
      "inputs": [
        {
          "internalType": "uint256",
          "name": "",
          "type": "uint256"
        }
      ],
      "name": "poolInfo",
      "outputs": [
        {
          "internalType": "contract IERC20",
          "name": "lpToken",
          "type": "address"
        },
        {
          "internalType": "uint256",
          "name": "pursePerBlock",
          "type": "uint256"
        },
        {
          "internalType": "uint256",
          "name": "bonusMultiplier",
          "type": "uint256"
        },
        {
          "internalType": "uint256",
          "name": "lastRewardBlock",
          "type": "uint256"
        },
        {
          "internalType": "uint256",
          "name": "accPursePerShare",
          "type": "uint256"
        },
        {
          "internalType": "uint256",
          "name": "startBlock",
          "type": "uint256"
        }
      ],
      "stateMutability": "view",
      "type": "function",
      "constant": true
    },
    {
      "inputs": [],
      "name": "purseToken",
      "outputs": [
        {
          "internalType": "contract PurseToken",
          "name": "",
          "type": "address"
        }
      ],
      "stateMutability": "view",
      "type": "function",
      "constant": true
    },
    {
      "inputs": [],
      "name": "renounceOwnership",
      "outputs": [],
      "stateMutability": "nonpayable",
      "type": "function"
    },
    {
      "inputs": [],
      "name": "totalMintToken",
      "outputs": [
        {
          "internalType": "uint256",
          "name": "",
          "type": "uint256"
        }
      ],
      "stateMutability": "view",
      "type": "function",
      "constant": true
    },
    {
      "inputs": [
        {
          "internalType": "address",
          "name": "newOwner",
          "type": "address"
        }
      ],
      "name": "transferOwnership",
      "outputs": [],
      "stateMutability": "nonpayable",
      "type": "function"
    },
    {
      "inputs": [
        {
          "internalType": "uint256",
          "name": "",
          "type": "uint256"
        },
        {
          "internalType": "address",
          "name": "",
          "type": "address"
        }
      ],
      "name": "userInfo",
      "outputs": [
        {
          "internalType": "uint256",
          "name": "amount",
          "type": "uint256"
        },
        {
          "internalType": "uint256",
          "name": "rewardDebt",
          "type": "uint256"
        }
      ],
      "stateMutability": "view",
      "type": "function",
      "constant": true
    },
    {
      "inputs": [],
      "name": "poolLength",
      "outputs": [
        {
          "internalType": "uint256",
          "name": "",
          "type": "uint256"
        }
      ],
      "stateMutability": "view",
      "type": "function",
      "constant": true
    },
    {
      "inputs": [
        {
          "internalType": "contract IERC20",
          "name": "_lpToken",
          "type": "address"
        },
        {
          "internalType": "uint256",
          "name": "_pursePerBlock",
          "type": "uint256"
        },
        {
          "internalType": "uint256",
          "name": "_bonusMultiplier",
          "type": "uint256"
        },
        {
          "internalType": "uint256",
          "name": "_startBlock",
          "type": "uint256"
        }
      ],
      "name": "add",
      "outputs": [],
      "stateMutability": "nonpayable",
      "type": "function"
    },
    {
      "inputs": [
        {
          "internalType": "uint256",
          "name": "_pid",
          "type": "uint256"
        },
        {
          "internalType": "uint256",
          "name": "_pursePerBlock",
          "type": "uint256"
        },
        {
          "internalType": "uint256",
          "name": "_bonusMultiplier",
          "type": "uint256"
        }
      ],
      "name": "set",
      "outputs": [],
      "stateMutability": "nonpayable",
      "type": "function"
    },
    {
      "inputs": [
        {
          "internalType": "uint256",
          "name": "_from",
          "type": "uint256"
        },
        {
          "internalType": "uint256",
          "name": "_to",
          "type": "uint256"
        }
      ],
      "name": "getMultiplier",
      "outputs": [
        {
          "internalType": "uint256",
          "name": "",
          "type": "uint256"
        }
      ],
      "stateMutability": "pure",
      "type": "function",
      "constant": true
    },
    {
      "inputs": [
        {
          "internalType": "uint256",
          "name": "_pid",
          "type": "uint256"
        }
      ],
      "name": "updatePool",
      "outputs": [],
      "stateMutability": "nonpayable",
      "type": "function"
    },
    {
      "inputs": [
        {
          "internalType": "uint256",
          "name": "_pid",
          "type": "uint256"
        },
        {
          "internalType": "uint256",
          "name": "_amount",
          "type": "uint256"
        }
      ],
      "name": "deposit",
      "outputs": [],
      "stateMutability": "nonpayable",
      "type": "function"
    },
    {
      "inputs": [
        {
          "internalType": "uint256",
          "name": "_pid",
          "type": "uint256"
        },
        {
          "internalType": "uint256",
          "name": "_amount",
          "type": "uint256"
        }
      ],
      "name": "withdraw",
      "outputs": [],
      "stateMutability": "nonpayable",
      "type": "function"
    },
    {
      "inputs": [
        {
          "internalType": "uint256",
          "name": "_pid",
          "type": "uint256"
        }
      ],
      "name": "claimReward",
      "outputs": [],
      "stateMutability": "nonpayable",
      "type": "function"
    },
    {
      "inputs": [
        {
          "internalType": "uint256",
          "name": "_newCap",
          "type": "uint256"
        }
      ],
      "name": "capMintTokenUpdate",
      "outputs": [],
      "stateMutability": "nonpayable",
      "type": "function"
    },
    {
      "inputs": [
        {
          "internalType": "uint256",
          "name": "_pid",
          "type": "uint256"
        }
      ],
      "name": "emergencyWithdraw",
      "outputs": [],
      "stateMutability": "nonpayable",
      "type": "function"
    },
    {
      "inputs": [
        {
          "internalType": "address",
          "name": "token",
          "type": "address"
        },
        {
          "internalType": "uint256",
          "name": "amount",
          "type": "uint256"
        },
        {
          "internalType": "address",
          "name": "_to",
          "type": "address"
        }
      ],
      "name": "returnAnyToken",
      "outputs": [],
      "stateMutability": "nonpayable",
      "type": "function"
    },
    {
      "inputs": [
        {
          "internalType": "uint256",
          "name": "_pid",
          "type": "uint256"
        },
        {
          "internalType": "address",
          "name": "_user",
          "type": "address"
        }
      ],
      "name": "pendingReward",
      "outputs": [
        {
          "internalType": "uint256",
          "name": "",
          "type": "uint256"
        }
      ],
      "stateMutability": "view",
      "type": "function",
      "constant": true
    }
  ],
  "bytecode": "0x60c0604052600d60808190527f52657374616b696e674661726d0000000000000000000000000000000000000060a0908152620000409160019190620000f6565b503480156200004e57600080fd5b5060405162001d9438038062001d9483398101604081905262000071916200019c565b6200007c33620000a6565b600280546001600160a01b0319166001600160a01b0393909316929092179091556005556200022e565b600080546001600160a01b038381166001600160a01b0319831681178455604051919092169283917f8be0079c531659141344cd1fd0a4f28419497f9722a3daafe3b4186f6b6457e09190a35050565b8280546200010490620001d8565b90600052602060002090601f01602090048101928262000128576000855562000173565b82601f106200014357805160ff191683800117855562000173565b8280016001018555821562000173579182015b828111156200017357825182559160200191906001019062000156565b506200018192915062000185565b5090565b5b8082111562000181576000815560010162000186565b60008060408385031215620001b057600080fd5b82516001600160a01b0381168114620001c857600080fd5b6020939093015192949293505050565b600181811c90821680620001ed57607f821691505b6020821081141562000228577f4e487b7100000000000000000000000000000000000000000000000000000000600052602260045260246000fd5b50919050565b611b56806200023e6000396000f3fe608060405234801561001057600080fd5b50600436106101425760003560e01c80638da5cb5b116100b8578063ae169a501161007c578063ae169a50146102ef578063c237e32614610302578063e2bbb15814610315578063e2d16c4414610328578063f2fde38b14610331578063ff51a2721461034457600080fd5b80638da5cb5b146102685780638dbb1e3a1461027957806393f1a40b1461028c57806398969e82146102d3578063ac854ac5146102e657600080fd5b806343b0e8df1161010a57806343b0e8df146101e9578063441a3e70146101fc57806351bf16ef1461020f57806351eb05a61461023a5780635312ea8e1461024d578063715018a61461026057600080fd5b806306fdde0314610147578063081e3eda146101655780631526fe27146101775780632df2fb73146101c157806337c5a556146101d6575b600080fd5b61014f610364565b60405161015c9190611976565b60405180910390f35b6003545b60405190815260200161015c565b61018a6101853660046118aa565b6103f2565b604080516001600160a01b0390971687526020870195909552938501929092526060840152608083015260a082015260c00161015c565b6101d46101cf36600461186f565b610442565b005b6101d46101e43660046118aa565b6106aa565b6101d46101f736600461192e565b6106d9565b6101d461020a36600461190c565b61079c565b600254610222906001600160a01b031681565b6040516001600160a01b03909116815260200161015c565b6101d46102483660046118aa565b6109ae565b6101d461025b3660046118aa565b610c3b565b6101d4610cdd565b6000546001600160a01b0316610222565b61016961028736600461190c565b610d13565b6102be61029a3660046118dc565b60076020908152600092835260408084209091529082529020805460019091015482565b6040805192835260208301919091520161015c565b6101696102e13660046118dc565b610d26565b61016960055481565b6101d46102fd3660046118aa565b610ec2565b6101d461031036600461180b565b611062565b6101d461032336600461190c565b6110fb565b61016960045481565b6101d461033f3660046117ee565b6112d1565b6101696103523660046117ee565b60066020526000908152604090205481565b6001805461037190611aa4565b80601f016020809104026020016040519081016040528092919081815260200182805461039d90611aa4565b80156103ea5780601f106103bf576101008083540402835291602001916103ea565b820191906000526020600020905b8154815290600101906020018083116103cd57829003601f168201915b505050505081565b6003818154811061040257600080fd5b60009182526020909120600690910201805460018201546002830154600384015460048501546005909501546001600160a01b0390941695509193909286565b6000546001600160a01b031633146104755760405162461bcd60e51b815260040161046c906119d3565b60405180910390fd5b6001600160a01b038416600090815260066020526040902054156104e65760405162461bcd60e51b815260206004820152602260248201527f4661726d65723a3a6164643a206c7020697320616c726561647920696e20706f6044820152611bdb60f21b606482015260840161046c565b60008143116104f557816104f7565b435b600354909150610508906001611a08565b6001600160a01b03868116600081815260066020818152604080842096909655855160c0810187528481528082018b81528188018b815260608084018b81526080850188815260a086018e8152600380546001810182559a5295517fc2575a0e9e593c00f959f8c92f12db2869c3395a3b0502d05e2516446f71f85b9990980298890180546001600160a01b03191698909b169790971790995591517fc2575a0e9e593c00f959f8c92f12db2869c3395a3b0502d05e2516446f71f85c870155517fc2575a0e9e593c00f959f8c92f12db2869c3395a3b0502d05e2516446f71f85d86015595517fc2575a0e9e593c00f959f8c92f12db2869c3395a3b0502d05e2516446f71f85e85015591517fc2575a0e9e593c00f959f8c92f12db2869c3395a3b0502d05e2516446f71f85f84015590517fc2575a0e9e593c00f959f8c92f12db2869c3395a3b0502d05e2516446f71f8609092019190915583518881529081018790529283018590529133917f2474bccb27f5e5e41c50b70eb93dac4cf5e7ba77949576a24c670ebeab2b5f2f91015b60405180910390a35050505050565b6000546001600160a01b031633146106d45760405162461bcd60e51b815260040161046c906119d3565b600555565b6000546001600160a01b031633146107035760405162461bcd60e51b815260040161046c906119d3565b600354839081106107265760405162461bcd60e51b815260040161046c906119a9565b60006003858154811061073b5761073b611af5565b90600052602060002090600602019050610754856109ae565b60018101849055600281018390556040805185815260208101859052869133917fb723f8f6505fc383fcab094d999dd9cd624d9e53a8fd017fd4d0d2906f6de95d910161069b565b600354829081106107bf5760405162461bcd60e51b815260040161046c906119a9565b6000600384815481106107d4576107d4611af5565b6000918252602080832087845260078252604080852033865290925292208054600690920290920192508411156108425760405162461bcd60e51b81526020600482015260126024820152711dda5d1a191c985dce881b9bdd0819dbdbd960721b604482015260640161046c565b61084b856109ae565b6000816001015464e8d4a510008460040154846000015461086c9190611a42565b6108769190611a20565b6108809190611a61565b6002546040516370a0823160e01b81523060048201529192506000916001600160a01b03909116906370a082319060240160206040518083038186803b1580156108c957600080fd5b505afa1580156108dd573d6000803e3d6000fd5b505050506040513d601f19601f8201168201806040525081019061090191906118c3565b90508082111561090f578091505b811561091f5761091f338361136c565b851561094a578254610932908790611a61565b8355835461094a906001600160a01b031633886114b8565b6004840154835464e8d4a510009161096191611a42565b61096b9190611a20565b600184015560405186815233907f884edad9ce6fa2440d8a54cc123490eb96d2768479d49ff9c7366125a94243649060200160405180910390a250505050505050565b600354819081106109d15760405162461bcd60e51b815260040161046c906119a9565b6000600383815481106109e6576109e6611af5565b9060005260206000209060060201905080600301544311610a0657505050565b80546040516370a0823160e01b81523060048201526000916001600160a01b0316906370a082319060240160206040518083038186803b158015610a4957600080fd5b505afa158015610a5d573d6000803e3d6000fd5b505050506040513d601f19601f82011682018060405250810190610a8191906118c3565b905080610a945750436003909101555050565b6000610aa4836003015443610d13565b905060008360020154846001015483610abd9190611a42565b610ac79190611a42565b90506005546004541015610bfc5760055481600454610ae69190611a08565b10610b80576000600454600554610afd9190611a61565b90508060046000828254610b119190611a08565b90915550506002546040516340c10f1960e01b8152306004820152602481018390526001600160a01b03909116906340c10f1990604401600060405180830381600087803b158015610b6257600080fd5b505af1158015610b76573d6000803e3d6000fd5b5050505050610bfc565b8060046000828254610b929190611a08565b90915550506002546040516340c10f1960e01b8152306004820152602481018390526001600160a01b03909116906340c10f1990604401600060405180830381600087803b158015610be357600080fd5b505af1158015610bf7573d6000803e3d6000fd5b505050505b82610c0c8264e8d4a51000611a42565b610c169190611a20565b8460040154610c259190611a08565b6004850155505043600390920191909155505050565b600060038281548110610c5057610c50611af5565b600091825260208083208584526007825260408085203380875293528420805485825560018201959095556006909302018054909450919291610ca0916001600160a01b039190911690836114b8565b604051818152849033907fbb757047c2b5f3974fe26b7c10f732e7bce710b0952a71082702781e62ae05959060200160405180910390a350505050565b6000546001600160a01b03163314610d075760405162461bcd60e51b815260040161046c906119d3565b610d11600061151b565b565b6000610d1f8383611a61565b9392505050565b60035460009083908110610d4c5760405162461bcd60e51b815260040161046c906119a9565b600060038581548110610d6157610d61611af5565b600091825260208083208884526007825260408085206001600160a01b038a811687529352808520600460069590950290920184810154815492516370a0823160e01b8152309681019690965290965091949193919216906370a082319060240160206040518083038186803b158015610dda57600080fd5b505afa158015610dee573d6000803e3d6000fd5b505050506040513d601f19601f82011682018060405250810190610e1291906118c3565b90506000846003015443118015610e2857508115155b15610e8857610e3b856003015443610d13565b905060008560020154866001015483610e549190611a42565b610e5e9190611a42565b905082610e708264e8d4a51000611a42565b610e7a9190611a20565b610e849085611a08565b9350505b6001840154845464e8d4a5100090610ea1908690611a42565b610eab9190611a20565b610eb59190611a61565b9998505050505050505050565b60035481908110610ee55760405162461bcd60e51b815260040161046c906119a9565b600060038381548110610efa57610efa611af5565b60009182526020808320868452600782526040808520338652909252922060069091029091019150610f2b846109ae565b6000816001015464e8d4a5100084600401548460000154610f4c9190611a42565b610f569190611a20565b610f609190611a61565b6002546040516370a0823160e01b81523060048201529192506000916001600160a01b03909116906370a082319060240160206040518083038186803b158015610fa957600080fd5b505afa158015610fbd573d6000803e3d6000fd5b505050506040513d601f19601f82011682018060405250810190610fe191906118c3565b905080821115610fef578091505b8115610fff57610fff338361136c565b6004840154835464e8d4a510009161101691611a42565b6110209190611a20565b600184015560405182815233907fba8de60c3403ec381d1d484652ea1980e3c3e56359195c92525bff4ce47ad98e9060200160405180910390a2505050505050565b6000546001600160a01b0316331461108c5760405162461bcd60e51b815260040161046c906119d3565b6001600160a01b0381166110e25760405162461bcd60e51b815260206004820152601860248201527f73656e6420746f20746865207a65726f20616464726573730000000000000000604482015260640161046c565b6110f66001600160a01b03841682846114b8565b505050565b6003548290811061111e5760405162461bcd60e51b815260040161046c906119a9565b60006003848154811061113357611133611af5565b60009182526020808320878452600782526040808520338652909252922060069091029091019150611164856109ae565b805415611242576000816001015464e8d4a510008460040154846000015461118c9190611a42565b6111969190611a20565b6111a09190611a61565b6002546040516370a0823160e01b81523060048201529192506000916001600160a01b03909116906370a082319060240160206040518083038186803b1580156111e957600080fd5b505afa1580156111fd573d6000803e3d6000fd5b505050506040513d601f19601f8201168201806040525081019061122191906118c3565b90508082111561122f578091505b811561123f5761123f338361136c565b50505b831561126f57815461125f906001600160a01b031633308761156b565b805461126c908590611a08565b81555b6004820154815464e8d4a510009161128691611a42565b6112909190611a20565b600182015560405184815233907fe1fffcc4923d04b559f4d29a8bfc6cda04eb5b0d3c460751c2402c5c5cc9109c9060200160405180910390a25050505050565b6000546001600160a01b031633146112fb5760405162461bcd60e51b815260040161046c906119d3565b6001600160a01b0381166113605760405162461bcd60e51b815260206004820152602660248201527f4f776e61626c653a206e6577206f776e657220697320746865207a65726f206160448201526564647265737360d01b606482015260840161046c565b6113698161151b565b50565b6002546040516370a0823160e01b81523060048201526000916001600160a01b0316906370a082319060240160206040518083038186803b1580156113b057600080fd5b505afa1580156113c4573d6000803e3d6000fd5b505050506040513d601f19601f820116820180604052508101906113e891906118c3565b90508082111561147f5760025460405163a9059cbb60e01b81526001600160a01b038581166004830152602482018490529091169063a9059cbb906044015b602060405180830381600087803b15801561144157600080fd5b505af1158015611455573d6000803e3d6000fd5b505050506040513d601f19601f82011682018060405250810190611479919061184d565b50505050565b60025460405163a9059cbb60e01b81526001600160a01b038581166004830152602482018590529091169063a9059cbb90604401611427565b6040516001600160a01b0383166024820152604481018290526110f690849063a9059cbb60e01b906064015b60408051601f198184030181529190526020810180516001600160e01b03166001600160e01b0319909316929092179091526115a3565b600080546001600160a01b038381166001600160a01b0319831681178455604051919092169283917f8be0079c531659141344cd1fd0a4f28419497f9722a3daafe3b4186f6b6457e09190a35050565b6040516001600160a01b03808516602483015283166044820152606481018290526114799085906323b872dd60e01b906084016114e4565b60006115f8826040518060400160405280602081526020017f5361666545524332303a206c6f772d6c6576656c2063616c6c206661696c6564815250856001600160a01b03166116759092919063ffffffff16565b8051909150156110f65780806020019051810190611616919061184d565b6110f65760405162461bcd60e51b815260206004820152602a60248201527f5361666545524332303a204552433230206f7065726174696f6e20646964206e6044820152691bdd081cdd58d8d9595960b21b606482015260840161046c565b6060611684848460008561168c565b949350505050565b606030318311156116ee5760405162461bcd60e51b815260206004820152602660248201527f416464726573733a20696e73756666696369656e742062616c616e636520666f6044820152651c8818d85b1b60d21b606482015260840161046c565b843b61173c5760405162461bcd60e51b815260206004820152601d60248201527f416464726573733a2063616c6c20746f206e6f6e2d636f6e7472616374000000604482015260640161046c565b600080866001600160a01b03168587604051611758919061195a565b60006040518083038185875af1925050503d8060008114611795576040519150601f19603f3d011682016040523d82523d6000602084013e61179a565b606091505b50915091506117aa8282866117b5565b979650505050505050565b606083156117c4575081610d1f565b8251156117d45782518084602001fd5b8160405162461bcd60e51b815260040161046c9190611976565b60006020828403121561180057600080fd5b8135610d1f81611b0b565b60008060006060848603121561182057600080fd5b833561182b81611b0b565b925060208401359150604084013561184281611b0b565b809150509250925092565b60006020828403121561185f57600080fd5b81518015158114610d1f57600080fd5b6000806000806080858703121561188557600080fd5b843561189081611b0b565b966020860135965060408601359560600135945092505050565b6000602082840312156118bc57600080fd5b5035919050565b6000602082840312156118d557600080fd5b5051919050565b600080604083850312156118ef57600080fd5b82359150602083013561190181611b0b565b809150509250929050565b6000806040838503121561191f57600080fd5b50508035926020909101359150565b60008060006060848603121561194357600080fd5b505081359360208301359350604090920135919050565b6000825161196c818460208701611a78565b9190910192915050565b6020815260008251806020840152611995816040850160208701611a78565b601f01601f19169190910160400192915050565b60208082526010908201526f141bdbdb081b9bdd08195e1a5cdd195960821b604082015260600190565b6020808252818101527f4f776e61626c653a2063616c6c6572206973206e6f7420746865206f776e6572604082015260600190565b60008219821115611a1b57611a1b611adf565b500190565b600082611a3d57634e487b7160e01b600052601260045260246000fd5b500490565b6000816000190483118215151615611a5c57611a5c611adf565b500290565b600082821015611a7357611a73611adf565b500390565b60005b83811015611a93578181015183820152602001611a7b565b838111156114795750506000910152565b600181811c90821680611ab857607f821691505b60208210811415611ad957634e487b7160e01b600052602260045260246000fd5b50919050565b634e487b7160e01b600052601160045260246000fd5b634e487b7160e01b600052603260045260246000fd5b6001600160a01b038116811461136957600080fdfea2646970667358221220668db3f088d63529454ebc4af8656b41ab9389598cbcfb9d19ad980537f2c1a664736f6c63430008070033",
  "immutableReferences": {},
  "source": "// SPDX-License-Identifier: UNLICENSED\r\n\r\npragma solidity ^0.8.0;\r\n\r\nimport \"@openzeppelin/contracts/access/Ownable.sol\";\r\nimport \"@openzeppelin/contracts/token/ERC20/IERC20.sol\";\r\nimport \"@openzeppelin/contracts/token/ERC20/utils/SafeERC20.sol\";\r\n \r\ninterface PurseToken {\r\n\r\n    function transfer(address to, uint tokens) external  returns (bool success);\r\n\r\n    function mint(address to, uint tokens) external;\r\n\r\n    function transferFrom(address from, address to, uint tokens) external  returns (bool success);\r\n\r\n    function balanceOf(address tokenOwner) external view returns (uint balance);\r\n\r\n}\r\n\r\ncontract RestakingFarm is Ownable{\r\n    using SafeERC20 for IERC20;\r\n\r\n    // ---Contract Variables---\r\n    string public name = \"RestakingFarm\";\r\n\r\n    // Userinfo\r\n    struct UserInfo {\r\n        uint256 amount;     // How many LP tokens the user has provided.\r\n        uint256 rewardDebt; // Reward debt. See explanation below.\r\n        //\r\n        // We do some fancy math here. Basically, any point in time, the amount of PURSEs\r\n        // entitled to a user but is pending to be distributed is:\r\n        //\r\n        //   pending reward = (user.amount * pool.accPursePerShare) - user.rewardDebt\r\n        //\r\n        // Whenever a user deposits or withdraws LP tokens to a pool. Here's what happens:\r\n        //   1. The pool's `accPursePerShare` (and `lastRewardBlock`) gets updated.\r\n        //   2. User receives the pending reward sent to his/her address.\r\n        //   3. User's `amount` gets updated.\r\n        //   4. User's `rewardDebt` gets updated.\r\n    }\r\n    \r\n    // Info of each pool.\r\n    struct PoolInfo {\r\n        IERC20 lpToken;           // Address of LP token contract.\r\n        uint256 pursePerBlock;\r\n        uint256 bonusMultiplier;\r\n        uint256 lastRewardBlock;  // Last block number that PURSEs distribution occurs.\r\n        uint256 accPursePerShare; // Accumulated PURSEs per share, times 1e12. See below.\r\n        uint256 startBlock;\r\n    }\r\n\r\n    // The PURSE TOKEN!\r\n    PurseToken public purseToken;\r\n    PoolInfo[] public poolInfo;\r\n    uint256 public totalMintToken;    \r\n    uint256 public capMintToken;\r\n    mapping(address => uint256) public poolId;  // poolId count from 1, need to subtract by 1 before using with variable poolInfo\r\n\r\n    // Info of each user that stakes LP tokens.\r\n    mapping (uint256 => mapping (address => UserInfo)) public userInfo;\r\n\r\n    event Deposit(address indexed user, uint256 amount);\r\n    event Withdraw(address indexed user, uint256 amount);\r\n    event AddNewPool(address indexed owner, IERC20 indexed lpToken, uint256 pursePerBlock, uint256 bonusMultiplier, uint256 startBlock);\r\n    event UpdatePoolReward(address indexed owner, uint256 indexed pid, uint256 pursePerBlock, uint256 bonusMultiplier);\r\n    event ClaimReward(address indexed user, uint256 amount);\r\n    event EmergencyWithdraw(address indexed user, uint256 indexed pid, uint256 amount);\r\n\r\n    modifier poolExist(uint256 _pid) {\r\n        require( _pid < poolInfo.length, \"Pool not existed\");\r\n        _;\r\n    }\r\n\r\n    constructor(\r\n        PurseToken _purseToken,\r\n        uint256 _capMintToken\r\n    ) {\r\n        purseToken = _purseToken;\r\n        capMintToken = _capMintToken;\r\n        }    \r\n\r\n    function poolLength() external view returns (uint256) {\r\n        return poolInfo.length;\r\n    }\r\n    // Add a new lp to the pool. Can only be called by the owner.\r\n    function add(IERC20 _lpToken, uint256 _pursePerBlock, uint256 _bonusMultiplier, uint256 _startBlock) public onlyOwner {\r\n        require(poolId[address(_lpToken)] == 0, \"Farmer::add: lp is already in pool\");\r\n        uint256 lastRewardBlock = block.number > _startBlock ? block.number : _startBlock;\r\n        poolId[address(_lpToken)] = poolInfo.length + 1;\r\n        poolInfo.push(PoolInfo({\r\n            lpToken: _lpToken,\r\n            pursePerBlock : _pursePerBlock,\r\n            bonusMultiplier: _bonusMultiplier,\r\n            lastRewardBlock: lastRewardBlock,\r\n            accPursePerShare: 0,\r\n            startBlock: _startBlock\r\n        }));\r\n        emit AddNewPool(msg.sender, _lpToken, _pursePerBlock, _bonusMultiplier, _startBlock);\r\n    }\r\n\r\n    // Update the given pool's PURSE _pursePerBlock. Can only be called by the owner.\r\n    function set(uint256 _pid, uint256 _pursePerBlock, uint256 _bonusMultiplier) public onlyOwner poolExist(_pid){\r\n        PoolInfo storage pool = poolInfo[_pid];\r\n        updatePool(_pid);\r\n        pool.pursePerBlock = _pursePerBlock;\r\n        pool.bonusMultiplier= _bonusMultiplier;\r\n        emit UpdatePoolReward(msg.sender, _pid, _pursePerBlock, _bonusMultiplier );\r\n    }\r\n\r\n    // Return reward multiplier over the given _from to _to block.\r\n    function getMultiplier(uint256 _from, uint256 _to) public pure returns (uint256) {\r\n        return _to-_from;\r\n    }\r\n\r\n    // Update reward variables of the given pool to be up-to-date.\r\n    function updatePool(uint256 _pid) public poolExist(_pid){\r\n        PoolInfo storage pool = poolInfo[_pid];\r\n        if (block.number <= pool.lastRewardBlock) {\r\n            return;\r\n        }\r\n        uint256 lpSupply = pool.lpToken.balanceOf(address(this));\r\n        if (lpSupply == 0) {\r\n            pool.lastRewardBlock = block.number;\r\n            return;\r\n        }\r\n        uint256 multiplier = getMultiplier(pool.lastRewardBlock, block.number);\r\n        uint256 purseReward = multiplier*pool.pursePerBlock*pool.bonusMultiplier;\r\n        if (totalMintToken < capMintToken) {\r\n            if (totalMintToken + purseReward >= capMintToken) {\r\n                uint256 PurseCanMint = capMintToken-totalMintToken;\r\n                totalMintToken += PurseCanMint;\r\n                purseToken.mint(address(this), PurseCanMint);\r\n            } else {\r\n                totalMintToken += purseReward;\r\n                purseToken.mint(address(this), purseReward);\r\n            }\r\n        }\r\n        pool.accPursePerShare = pool.accPursePerShare+(purseReward*1e12/lpSupply);\r\n        pool.lastRewardBlock = block.number;\r\n    }\r\n\r\n    // Deposit LP tokens to Restaking Pool for Purse allocation.\r\n    function deposit(uint256 _pid, uint256 _amount) public poolExist(_pid) {        \r\n        PoolInfo storage pool = poolInfo[_pid];\r\n        UserInfo storage user = userInfo[_pid][msg.sender];\r\n        updatePool(_pid);\r\n\r\n        if (user.amount > 0) {\r\n            uint256 pending = user.amount*pool.accPursePerShare/1e12-user.rewardDebt;\r\n            uint256 farmBal = purseToken.balanceOf(address(this));\r\n\r\n            if (pending > farmBal) {\r\n                pending = farmBal;\r\n            }\r\n            if(pending > 0) {\r\n                safePurseTransfer(msg.sender, pending);\r\n            }\r\n        }\r\n        if (_amount > 0) {\r\n            pool.lpToken.safeTransferFrom(address(msg.sender), address(this), _amount);\r\n            user.amount = user.amount+_amount;\r\n        }\r\n        user.rewardDebt = user.amount*pool.accPursePerShare/1e12;\r\n        emit Deposit(msg.sender, _amount);\r\n    }\r\n\r\n    // Withdraw LP tokens from MasterChef.\r\n    function withdraw(uint256 _pid, uint256 _amount) public poolExist(_pid){\r\n\r\n        PoolInfo storage pool = poolInfo[_pid];\r\n        UserInfo storage user = userInfo[_pid][msg.sender];\r\n        require(user.amount >= _amount, \"withdraw: not good\");\r\n\r\n        updatePool(_pid);\r\n        uint256 pending = user.amount*pool.accPursePerShare/1e12-user.rewardDebt;\r\n        uint256 farmBal = purseToken.balanceOf(address(this));\r\n\r\n        if (pending > farmBal) {\r\n            pending = farmBal;\r\n        }\r\n\r\n        if(pending > 0) {\r\n            safePurseTransfer(msg.sender, pending);\r\n        }\r\n        if(_amount > 0) {\r\n            user.amount = user.amount-_amount;\r\n            pool.lpToken.safeTransfer(address(msg.sender), _amount);\r\n        }\r\n        user.rewardDebt = user.amount*pool.accPursePerShare/1e12;\r\n        emit Withdraw(msg.sender, _amount);\r\n    }\r\n\r\n    // Harvest reward tokens from pool.\r\n    function claimReward(uint256 _pid) public poolExist(_pid){\r\n\r\n        PoolInfo storage pool = poolInfo[_pid];\r\n        UserInfo storage user = userInfo[_pid][msg.sender];\r\n\r\n        updatePool(_pid);\r\n        uint256 pending = user.amount*pool.accPursePerShare/1e12-user.rewardDebt;\r\n        uint256 farmBal = purseToken.balanceOf(address(this));\r\n\r\n        if (pending > farmBal) {\r\n            pending = farmBal;\r\n        }\r\n\r\n        if(pending > 0) {\r\n            safePurseTransfer(msg.sender, pending);\r\n        }\r\n        user.rewardDebt = user.amount*pool.accPursePerShare/1e12;\r\n\r\n        emit ClaimReward(msg.sender, pending);\r\n    }\r\n\r\n    function capMintTokenUpdate (uint256 _newCap) public onlyOwner {\r\n        capMintToken = _newCap;\r\n    }\r\n\r\n    // Safe purse transfer function, just in case if rounding error causes pool to not have enough PURSEs.\r\n    function safePurseTransfer(address _to, uint256 _amount) internal {\r\n        uint256 purseBal = purseToken.balanceOf(address(this));\r\n        if (_amount > purseBal) {\r\n            purseToken.transfer(_to, purseBal);\r\n        } else {\r\n            purseToken.transfer(_to, _amount);\r\n        }\r\n    }\r\n\r\n    // Withdraw without caring about rewards. EMERGENCY ONLY.\r\n    function emergencyWithdraw(uint256 _pid) public {\r\n        PoolInfo storage pool = poolInfo[_pid];\r\n        UserInfo storage user = userInfo[_pid][msg.sender];\r\n        uint256 amount = user.amount;\r\n        user.amount = 0;\r\n        user.rewardDebt = 0;\r\n        pool.lpToken.safeTransfer(address(msg.sender), amount);\r\n        emit EmergencyWithdraw(msg.sender, _pid, amount);\r\n    }\r\n\r\n    // Return any token function, just in case if any user transfer token into the smart contract. \r\n    function returnAnyToken(address token, uint256 amount, address _to) public onlyOwner{\r\n        require(_to != address(0), \"send to the zero address\");\r\n        IERC20(token).safeTransfer(_to, amount);\r\n    }\r\n\r\n     // View function to see pending PURSEs on frontend.\r\n    function pendingReward(uint256 _pid, address _user) external view poolExist(_pid) returns (uint256) {\r\n        PoolInfo storage pool = poolInfo[_pid];\r\n        UserInfo storage user = userInfo[_pid][_user];\r\n        uint256 accPursePerShare = pool.accPursePerShare;\r\n        uint256 lpSupply = pool.lpToken.balanceOf(address(this));\r\n        uint256 multiplier;\r\n        if (block.number > pool.lastRewardBlock && lpSupply != 0) {\r\n            multiplier = getMultiplier(pool.lastRewardBlock, block.number);\r\n            uint256 purseReward = multiplier*pool.pursePerBlock*pool.bonusMultiplier;\r\n            accPursePerShare = accPursePerShare+(purseReward*(1e12)/lpSupply);\r\n        }\r\n        return (user.amount*(accPursePerShare)/(1e12)-(user.rewardDebt));\r\n    }\r\n}",
  "sourcePath": "C:/Users/cheek/Desktop/Developer doc/Visual Studio Code/PundiX/lpTokenRestakingFarm/src/contracts/RestakingFarm.sol",
  "compiler": {
    "name": "solc",
    "version": "0.8.7+commit.e28d00a7.Emscripten.clang"
  },
  "schemaVersion": "3.2.3",
  "updatedAt": "2021-11-17T03:25:03.592Z",
  "networkType": "ethereum",
  "devdoc": {
    "kind": "dev",
    "methods": {
      "owner()": {
        "details": "Returns the address of the current owner."
      },
      "renounceOwnership()": {
        "details": "Leaves the contract without owner. It will not be possible to call `onlyOwner` functions anymore. Can only be called by the current owner. NOTE: Renouncing ownership will leave the contract without an owner, thereby removing any functionality that is only available to the owner."
      },
      "transferOwnership(address)": {
        "details": "Transfers ownership of the contract to a new account (`newOwner`). Can only be called by the current owner."
      }
    },
    "version": 1
  },
  "userdoc": {
    "kind": "user",
    "methods": {},
    "version": 1
  }
}