{
  "contractName": "RestakingFarm",
  "abi": [
    {
      "inputs": [
        {
          "internalType": "contract PurseToken",
          "name": "_purseToken",
          "type": "address"
        },
        {
          "internalType": "uint256",
          "name": "_capMintToken",
          "type": "uint256"
        }
      ],
      "stateMutability": "nonpayable",
      "type": "constructor"
    },
    {
      "anonymous": false,
      "inputs": [
        {
          "indexed": true,
          "internalType": "address",
          "name": "owner",
          "type": "address"
        },
        {
          "indexed": true,
          "internalType": "contract IERC20",
          "name": "lpToken",
          "type": "address"
        },
        {
          "indexed": false,
          "internalType": "uint256",
          "name": "pursePerBlock",
          "type": "uint256"
        },
        {
          "indexed": false,
          "internalType": "uint256",
          "name": "bonusMultiplier",
          "type": "uint256"
        },
        {
          "indexed": false,
          "internalType": "uint256",
          "name": "startBlock",
          "type": "uint256"
        }
      ],
      "name": "AddNewPool",
      "type": "event"
    },
    {
      "anonymous": false,
      "inputs": [
        {
          "indexed": true,
          "internalType": "address",
          "name": "user",
          "type": "address"
        },
        {
          "indexed": false,
          "internalType": "uint256",
          "name": "amount",
          "type": "uint256"
        }
      ],
      "name": "ClaimReward",
      "type": "event"
    },
    {
      "anonymous": false,
      "inputs": [
        {
          "indexed": true,
          "internalType": "address",
          "name": "user",
          "type": "address"
        },
        {
          "indexed": false,
          "internalType": "uint256",
          "name": "amount",
          "type": "uint256"
        }
      ],
      "name": "Deposit",
      "type": "event"
    },
    {
      "anonymous": false,
      "inputs": [
        {
          "indexed": true,
          "internalType": "address",
          "name": "user",
          "type": "address"
        },
        {
          "indexed": true,
          "internalType": "contract IERC20",
          "name": "lpToken",
          "type": "address"
        },
        {
          "indexed": false,
          "internalType": "uint256",
          "name": "amount",
          "type": "uint256"
        }
      ],
      "name": "EmergencyWithdraw",
      "type": "event"
    },
    {
      "anonymous": false,
      "inputs": [
        {
          "indexed": true,
          "internalType": "address",
          "name": "previousOwner",
          "type": "address"
        },
        {
          "indexed": true,
          "internalType": "address",
          "name": "newOwner",
          "type": "address"
        }
      ],
      "name": "OwnershipTransferred",
      "type": "event"
    },
    {
      "anonymous": false,
      "inputs": [
        {
          "indexed": true,
          "internalType": "address",
          "name": "owner",
          "type": "address"
        },
        {
          "indexed": true,
          "internalType": "contract IERC20",
          "name": "lpToken",
          "type": "address"
        },
        {
          "indexed": false,
          "internalType": "uint256",
          "name": "bonusMultiplier",
          "type": "uint256"
        }
      ],
      "name": "UpdatePoolMultiplier",
      "type": "event"
    },
    {
      "anonymous": false,
      "inputs": [
        {
          "indexed": true,
          "internalType": "address",
          "name": "owner",
          "type": "address"
        },
        {
          "indexed": true,
          "internalType": "contract IERC20",
          "name": "lpToken",
          "type": "address"
        },
        {
          "indexed": false,
          "internalType": "uint256",
          "name": "pursePerBlock",
          "type": "uint256"
        }
      ],
      "name": "UpdatePoolReward",
      "type": "event"
    },
    {
      "anonymous": false,
      "inputs": [
        {
          "indexed": true,
          "internalType": "address",
          "name": "user",
          "type": "address"
        },
        {
          "indexed": false,
          "internalType": "uint256",
          "name": "amount",
          "type": "uint256"
        }
      ],
      "name": "Withdraw",
      "type": "event"
    },
    {
      "inputs": [],
      "name": "capMintToken",
      "outputs": [
        {
          "internalType": "uint256",
          "name": "",
          "type": "uint256"
        }
      ],
      "stateMutability": "view",
      "type": "function"
    },
    {
      "inputs": [],
      "name": "name",
      "outputs": [
        {
          "internalType": "string",
          "name": "",
          "type": "string"
        }
      ],
      "stateMutability": "view",
      "type": "function"
    },
    {
      "inputs": [],
      "name": "owner",
      "outputs": [
        {
          "internalType": "address",
          "name": "",
          "type": "address"
        }
      ],
      "stateMutability": "view",
      "type": "function"
    },
    {
      "inputs": [
        {
          "internalType": "contract IERC20",
          "name": "",
          "type": "address"
        }
      ],
      "name": "poolInfo",
      "outputs": [
        {
          "internalType": "contract IERC20",
          "name": "lpToken",
          "type": "address"
        },
        {
          "internalType": "uint256",
          "name": "pursePerBlock",
          "type": "uint256"
        },
        {
          "internalType": "uint256",
          "name": "bonusMultiplier",
          "type": "uint256"
        },
        {
          "internalType": "uint256",
          "name": "lastRewardBlock",
          "type": "uint256"
        },
        {
          "internalType": "uint256",
          "name": "accPursePerShare",
          "type": "uint256"
        },
        {
          "internalType": "uint256",
          "name": "startBlock",
          "type": "uint256"
        }
      ],
      "stateMutability": "view",
      "type": "function"
    },
    {
      "inputs": [
        {
          "internalType": "uint256",
          "name": "",
          "type": "uint256"
        }
      ],
      "name": "poolTokenList",
      "outputs": [
        {
          "internalType": "contract IERC20",
          "name": "",
          "type": "address"
        }
      ],
      "stateMutability": "view",
      "type": "function"
    },
    {
      "inputs": [],
      "name": "purseToken",
      "outputs": [
        {
          "internalType": "contract PurseToken",
          "name": "",
          "type": "address"
        }
      ],
      "stateMutability": "view",
      "type": "function"
    },
    {
      "inputs": [],
      "name": "renounceOwnership",
      "outputs": [],
      "stateMutability": "nonpayable",
      "type": "function"
    },
    {
      "inputs": [],
      "name": "totalMintToken",
      "outputs": [
        {
          "internalType": "uint256",
          "name": "",
          "type": "uint256"
        }
      ],
      "stateMutability": "view",
      "type": "function"
    },
    {
      "inputs": [
        {
          "internalType": "address",
          "name": "newOwner",
          "type": "address"
        }
      ],
      "name": "transferOwnership",
      "outputs": [],
      "stateMutability": "nonpayable",
      "type": "function"
    },
    {
      "inputs": [
        {
          "internalType": "contract IERC20",
          "name": "",
          "type": "address"
        },
        {
          "internalType": "address",
          "name": "",
          "type": "address"
        }
      ],
      "name": "userInfo",
      "outputs": [
        {
          "internalType": "uint256",
          "name": "amount",
          "type": "uint256"
        },
        {
          "internalType": "uint256",
          "name": "rewardDebt",
          "type": "uint256"
        }
      ],
      "stateMutability": "view",
      "type": "function"
    },
    {
      "inputs": [],
      "name": "poolLength",
      "outputs": [
        {
          "internalType": "uint256",
          "name": "",
          "type": "uint256"
        }
      ],
      "stateMutability": "view",
      "type": "function"
    },
    {
      "inputs": [
        {
          "internalType": "contract IERC20",
          "name": "_lpToken",
          "type": "address"
        },
        {
          "internalType": "uint256",
          "name": "_pursePerBlock",
          "type": "uint256"
        },
        {
          "internalType": "uint256",
          "name": "_bonusMultiplier",
          "type": "uint256"
        },
        {
          "internalType": "uint256",
          "name": "_startBlock",
          "type": "uint256"
        }
      ],
      "name": "add",
      "outputs": [],
      "stateMutability": "nonpayable",
      "type": "function"
    },
    {
      "inputs": [
        {
          "internalType": "contract IERC20",
          "name": "_lpToken",
          "type": "address"
        },
        {
          "internalType": "uint256",
          "name": "_pursePerBlock",
          "type": "uint256"
        }
      ],
      "name": "setPurseReward",
      "outputs": [],
      "stateMutability": "nonpayable",
      "type": "function"
    },
    {
      "inputs": [
        {
          "internalType": "contract IERC20",
          "name": "_lpToken",
          "type": "address"
        },
        {
          "internalType": "uint256",
          "name": "_bonusMultiplier",
          "type": "uint256"
        }
      ],
      "name": "setBonusMultiplier",
      "outputs": [],
      "stateMutability": "nonpayable",
      "type": "function"
    },
    {
      "inputs": [
        {
          "internalType": "uint256",
          "name": "_from",
          "type": "uint256"
        },
        {
          "internalType": "uint256",
          "name": "_to",
          "type": "uint256"
        }
      ],
      "name": "getMultiplier",
      "outputs": [
        {
          "internalType": "uint256",
          "name": "",
          "type": "uint256"
        }
      ],
      "stateMutability": "pure",
      "type": "function"
    },
    {
      "inputs": [
        {
          "internalType": "contract IERC20",
          "name": "_lpToken",
          "type": "address"
        }
      ],
      "name": "updatePool",
      "outputs": [],
      "stateMutability": "nonpayable",
      "type": "function"
    },
    {
      "inputs": [
        {
          "internalType": "contract IERC20",
          "name": "_lpToken",
          "type": "address"
        },
        {
          "internalType": "uint256",
          "name": "_amount",
          "type": "uint256"
        }
      ],
      "name": "deposit",
      "outputs": [],
      "stateMutability": "nonpayable",
      "type": "function"
    },
    {
      "inputs": [
        {
          "internalType": "contract IERC20",
          "name": "_lpToken",
          "type": "address"
        },
        {
          "internalType": "uint256",
          "name": "_amount",
          "type": "uint256"
        }
      ],
      "name": "withdraw",
      "outputs": [],
      "stateMutability": "nonpayable",
      "type": "function"
    },
    {
      "inputs": [
        {
          "internalType": "contract IERC20",
          "name": "_lpToken",
          "type": "address"
        }
      ],
      "name": "claimReward",
      "outputs": [],
      "stateMutability": "nonpayable",
      "type": "function"
    },
    {
      "inputs": [
        {
          "internalType": "uint256",
          "name": "_newCap",
          "type": "uint256"
        }
      ],
      "name": "capMintTokenUpdate",
      "outputs": [],
      "stateMutability": "nonpayable",
      "type": "function"
    },
    {
      "inputs": [
        {
          "internalType": "contract IERC20",
          "name": "_lpToken",
          "type": "address"
        }
      ],
      "name": "emergencyWithdraw",
      "outputs": [],
      "stateMutability": "nonpayable",
      "type": "function"
    },
    {
      "inputs": [
        {
          "internalType": "address",
          "name": "token",
          "type": "address"
        },
        {
          "internalType": "uint256",
          "name": "amount",
          "type": "uint256"
        },
        {
          "internalType": "address",
          "name": "_to",
          "type": "address"
        }
      ],
      "name": "returnAnyToken",
      "outputs": [],
      "stateMutability": "nonpayable",
      "type": "function"
    },
    {
      "inputs": [
        {
          "internalType": "contract IERC20",
          "name": "_lpToken",
          "type": "address"
        },
        {
          "internalType": "address",
          "name": "_user",
          "type": "address"
        }
      ],
      "name": "pendingReward",
      "outputs": [
        {
          "internalType": "uint256",
          "name": "",
          "type": "uint256"
        }
      ],
      "stateMutability": "view",
      "type": "function"
    }
  ],
  "bytecode": "0x60c0604052600d60808190527f52657374616b696e674661726d0000000000000000000000000000000000000060a0908152620000409160019190620000f6565b503480156200004e57600080fd5b5060405162001f2138038062001f2183398101604081905262000071916200019c565b6200007c33620000a6565b600280546001600160a01b0319166001600160a01b0393909316929092179091556004556200022e565b600080546001600160a01b038381166001600160a01b0319831681178455604051919092169283917f8be0079c531659141344cd1fd0a4f28419497f9722a3daafe3b4186f6b6457e09190a35050565b8280546200010490620001d8565b90600052602060002090601f01602090048101928262000128576000855562000173565b82601f106200014357805160ff191683800117855562000173565b8280016001018555821562000173579182015b828111156200017357825182559160200191906001019062000156565b506200018192915062000185565b5090565b5b8082111562000181576000815560010162000186565b60008060408385031215620001b057600080fd5b82516001600160a01b0381168114620001c857600080fd5b6020939093015192949293505050565b600181811c90821680620001ed57607f821691505b6020821081141562000228577f4e487b7100000000000000000000000000000000000000000000000000000000600052602260045260246000fd5b50919050565b611ce3806200023e6000396000f3fe608060405234801561001057600080fd5b506004361061014d5760003560e01c8063715018a6116100c3578063ac854ac51161007c578063ac854ac514610351578063c237e3261461035a578063d279c1911461036d578063e2d16c4414610380578063f2fde38b14610389578063f3fef3a31461039c57600080fd5b8063715018a61461027b5780637b46c54f146102835780638da5cb5b146102965780638dbb1e3a146102a75780639a7b5f11146102ba5780639ced7e761461033e57600080fd5b806337c5a5561161011557806337c5a5561461020957806347e7ef241461021c57806351bf16ef1461022f57806352cd3dd9146102425780636692caee146102555780636ff1c9bc1461026857600080fd5b806306fdde0314610152578063081e3eda146101705780630f208beb146101825780630fe79ee4146101c95780632df2fb73146101f4575b600080fd5b61015a6103af565b6040516101679190611b1b565b60405180910390f35b6005545b604051908152602001610167565b6101b4610190366004611a0b565b60076020908152600092835260408084209091529082529020805460019091015482565b60408051928352602083019190915201610167565b6101dc6101d7366004611aab565b61043d565b6040516001600160a01b039091168152602001610167565b610207610202366004611a70565b610467565b005b610207610217366004611aab565b61067b565b61020761022a366004611a44565b6106aa565b6002546101dc906001600160a01b031681565b610207610250366004611a44565b61083b565b610207610263366004611a44565b610955565b61020761027636600461198a565b610a69565b610207610b7a565b61020761029136600461198a565b610bb0565b6000546001600160a01b03166101dc565b6101746102b5366004611add565b610e46565b6103076102c836600461198a565b6006602052600090815260409020805460018201546002830154600384015460048501546005909501546001600160a01b039094169492939192909186565b604080516001600160a01b0390971687526020870195909552938501929092526060840152608083015260a082015260c001610167565b61017461034c366004611a0b565b610e59565b61017460045481565b6102076103683660046119a7565b611100565b61020761037b36600461198a565b611199565b61017460035481565b61020761039736600461198a565b6112e5565b6102076103aa366004611a44565b611380565b600180546103bc90611c47565b80601f01602080910402602001604051908101604052809291908181526020018280546103e890611c47565b80156104355780601f1061040a57610100808354040283529160200191610435565b820191906000526020600020905b81548152906001019060200180831161041857829003601f168201915b505050505081565b6005818154811061044d57600080fd5b6000918252602090912001546001600160a01b0316905081565b6000546001600160a01b0316331461049a5760405162461bcd60e51b815260040161049190611b76565b60405180910390fd5b6001600160a01b0384166104f05760405162461bcd60e51b815260206004820152601d60248201527f4661726d65723a3a6164643a20696e76616c6964206c7020746f6b656e0000006044820152606401610491565b6001600160a01b0384811660009081526006602052604090205416156105635760405162461bcd60e51b815260206004820152602260248201527f4661726d65723a3a6164643a206c7020697320616c726561647920696e20706f6044820152611bdb60f21b6064820152608401610491565b60008143116105725781610574565b435b6040805160c0810182526001600160a01b0388811680835260208084018a81528486018a8152606080870189815260006080890181815260a08a018e8152888352600688528b83209a518b549a166001600160a01b03199a8b16178b5595516001808c0191909155945160028b0155915160038a015590516004890155925160059788015586549182018755959091527f036b6384b5eca791c62761152d0c79bb0604c104a5fb6f4eb0703f3154bb3db001805490931682179092558351898152918201889052928101869052929350909133917f2474bccb27f5e5e41c50b70eb93dac4cf5e7ba77949576a24c670ebeab2b5f2f91015b60405180910390a35050505050565b6000546001600160a01b031633146106a55760405162461bcd60e51b815260040161049190611b76565b600455565b6001600160a01b038083166000908152600660205260409020548391166106e35760405162461bcd60e51b815260040161049190611b4e565b600082116107275760405162461bcd60e51b815260206004820152601160248201527011195c1bdcda5d0e881b9bdd0819dbdbd9607a1b6044820152606401610491565b6001600160a01b03831660009081526006602090815260408083206007835281842033855290925290912061075b85610bb0565b8054156107ab576000816001015464e8d4a51000846004015484600001546107839190611be5565b61078d9190611bc3565b6107979190611c04565b905080156107a9576107a93382611508565b505b83156107d85781546107c8906001600160a01b0316333087611654565b80546107d5908590611bab565b81555b6004820154815464e8d4a51000916107ef91611be5565b6107f99190611bc3565b600182015560405184815233907fe1fffcc4923d04b559f4d29a8bfc6cda04eb5b0d3c460751c2402c5c5cc9109c906020015b60405180910390a25050505050565b6000546001600160a01b031633146108655760405162461bcd60e51b815260040161049190611b76565b6001600160a01b0380831660009081526006602052604090205483911661089e5760405162461bcd60e51b815260040161049190611b4e565b6001600160a01b038316600090815260066020526040902060018101548314156108fe5760405162461bcd60e51b815260206004820152601160248201527014d85b5948141d5c9cd94814995dd85c99607a1b6044820152606401610491565b61090784610bb0565b600181018390556040518381526001600160a01b0385169033907f6bd9b567b3baf7b1a1460bd971aa6646c2b816470a2000fac19e3982e78730be906020015b60405180910390a350505050565b6000546001600160a01b0316331461097f5760405162461bcd60e51b815260040161049190611b76565b6001600160a01b038083166000908152600660205260409020548391166109b85760405162461bcd60e51b815260040161049190611b4e565b6001600160a01b03831660009081526006602052604090206002810154831415610a1c5760405162461bcd60e51b815260206004820152601560248201527429b0b6b2903137b73ab99036bab63a34b83634b2b960591b6044820152606401610491565b610a2584610bb0565b600281018390556040518381526001600160a01b0385169033907ff54770bce888996c0b4b161ce489bbb5b9c51b6b5ed08d49ef69f308dd2403bf90602001610947565b6001600160a01b03808216600090815260066020526040902054829116610aa25760405162461bcd60e51b815260040161049190611b4e565b6001600160a01b0382166000908152600660209081526040808320600783528184203385529092529091208054610b1b5760405162461bcd60e51b815260206004820152601c60248201527f456d657267656e63792057697468647261773a206e6f7420676f6f64000000006044820152606401610491565b8054600080835560018301558254610b3d906001600160a01b031633836116bf565b6040518181526001600160a01b0386169033907ff24ef89f38eadc1bde50701ad6e4d6d11a2dc24f7cf834a486991f38833285049060200161066c565b6000546001600160a01b03163314610ba45760405162461bcd60e51b815260040161049190611b76565b610bae60006116ef565b565b6001600160a01b03808216600090815260066020526040902054829116610be95760405162461bcd60e51b815260040161049190611b4e565b6001600160a01b038216600090815260066020526040902060038101544311610c1157505050565b80546040516370a0823160e01b81523060048201526000916001600160a01b0316906370a082319060240160206040518083038186803b158015610c5457600080fd5b505afa158015610c68573d6000803e3d6000fd5b505050506040513d601f19601f82011682018060405250810190610c8c9190611ac4565b905080610c9f5750436003909101555050565b6000610caf836003015443610e46565b905060008360020154846001015483610cc89190611be5565b610cd29190611be5565b90506004546003541015610e075760045481600354610cf19190611bab565b10610d8b576000600354600454610d089190611c04565b90508060036000828254610d1c9190611bab565b90915550506002546040516340c10f1960e01b8152306004820152602481018390526001600160a01b03909116906340c10f1990604401600060405180830381600087803b158015610d6d57600080fd5b505af1158015610d81573d6000803e3d6000fd5b5050505050610e07565b8060036000828254610d9d9190611bab565b90915550506002546040516340c10f1960e01b8152306004820152602481018390526001600160a01b03909116906340c10f1990604401600060405180830381600087803b158015610dee57600080fd5b505af1158015610e02573d6000803e3d6000fd5b505050505b82610e178264e8d4a51000611be5565b610e219190611bc3565b8460040154610e309190611bab565b6004850155505043600390920191909155505050565b6000610e528383611c04565b9392505050565b6001600160a01b038083166000908152600660205260408120549091849116610e945760405162461bcd60e51b815260040161049190611b4e565b6001600160a01b038481166000818152600660209081526040808320815160c08101835281548716815260018083015482860152600283015482850152600383015460608301526004808401546080840190815260059094015460a0840152968652600785528386208b8916875285528386208451808601865281548152910154948101949094529051815192516370a0823160e01b815230968101969096529095929490939291909116906370a082319060240160206040518083038186803b158015610f6157600080fd5b505afa158015610f75573d6000803e3d6000fd5b505050506040513d601f19601f82011682018060405250810190610f999190611ac4565b6002546040516370a0823160e01b81523060048201529192506000916001600160a01b03909116906370a082319060240160206040518083038186803b158015610fe257600080fd5b505afa158015610ff6573d6000803e3d6000fd5b505050506040513d601f19601f8201168201806040525081019061101a9190611ac4565b9050600060035460045461102e9190611c04565b9050600061103c8284611bab565b9050600087606001514311801561105257508415155b156110b257611065886060015143610e46565b90506000886040015189602001518361107e9190611be5565b6110889190611be5565b90508561109a8264e8d4a51000611be5565b6110a49190611bc3565b6110ae9088611bab565b9650505b6000876020015164e8d4a51000888a600001516110cf9190611be5565b6110d99190611bc3565b6110e39190611c04565b9050828111156110f05750815b9c9b505050505050505050505050565b6000546001600160a01b0316331461112a5760405162461bcd60e51b815260040161049190611b76565b6001600160a01b0381166111805760405162461bcd60e51b815260206004820152601860248201527f73656e6420746f20746865207a65726f206164647265737300000000000000006044820152606401610491565b6111946001600160a01b03841682846116bf565b505050565b6001600160a01b038082166000908152600660205260409020548291166111d25760405162461bcd60e51b815260040161049190611b4e565b6001600160a01b038216600090815260066020908152604080832060078352818420338552909252909120805461123d5760405162461bcd60e51b815260206004820152600f60248201526e10db185a5b4e881b9bdd0819dbdbd9608a1b6044820152606401610491565b61124684610bb0565b6000816001015464e8d4a51000846004015484600001546112679190611be5565b6112719190611bc3565b61127b9190611c04565b9050801561128d5761128d3382611508565b6004830154825464e8d4a51000916112a491611be5565b6112ae9190611bc3565b600183015560405181815233907fba8de60c3403ec381d1d484652ea1980e3c3e56359195c92525bff4ce47ad98e9060200161082c565b6000546001600160a01b0316331461130f5760405162461bcd60e51b815260040161049190611b76565b6001600160a01b0381166113745760405162461bcd60e51b815260206004820152602660248201527f4f776e61626c653a206e6577206f776e657220697320746865207a65726f206160448201526564647265737360d01b6064820152608401610491565b61137d816116ef565b50565b6001600160a01b038083166000908152600660205260409020548391166113b95760405162461bcd60e51b815260040161049190611b4e565b6001600160a01b038316600090815260066020908152604080832060078352818420338552909252909120805484111561142a5760405162461bcd60e51b81526020600482015260126024820152711dda5d1a191c985dce881b9bdd0819dbdbd960721b6044820152606401610491565b61143385610bb0565b6000816001015464e8d4a51000846004015484600001546114549190611be5565b61145e9190611bc3565b6114689190611c04565b9050801561147a5761147a3382611508565b84156114a557815461148d908690611c04565b825582546114a5906001600160a01b031633876116bf565b6004830154825464e8d4a51000916114bc91611be5565b6114c69190611bc3565b600183015560405185815233907f884edad9ce6fa2440d8a54cc123490eb96d2768479d49ff9c7366125a94243649060200160405180910390a2505050505050565b6002546040516370a0823160e01b81523060048201526000916001600160a01b0316906370a082319060240160206040518083038186803b15801561154c57600080fd5b505afa158015611560573d6000803e3d6000fd5b505050506040513d601f19601f820116820180604052508101906115849190611ac4565b90508082111561161b5760025460405163a9059cbb60e01b81526001600160a01b038581166004830152602482018490529091169063a9059cbb906044015b602060405180830381600087803b1580156115dd57600080fd5b505af11580156115f1573d6000803e3d6000fd5b505050506040513d601f19601f8201168201806040525081019061161591906119e9565b50505050565b60025460405163a9059cbb60e01b81526001600160a01b038581166004830152602482018590529091169063a9059cbb906044016115c3565b6040516001600160a01b03808516602483015283166044820152606481018290526116159085906323b872dd60e01b906084015b60408051601f198184030181529190526020810180516001600160e01b03166001600160e01b03199093169290921790915261173f565b6040516001600160a01b03831660248201526044810182905261119490849063a9059cbb60e01b90606401611688565b600080546001600160a01b038381166001600160a01b0319831681178455604051919092169283917f8be0079c531659141344cd1fd0a4f28419497f9722a3daafe3b4186f6b6457e09190a35050565b6000611794826040518060400160405280602081526020017f5361666545524332303a206c6f772d6c6576656c2063616c6c206661696c6564815250856001600160a01b03166118119092919063ffffffff16565b80519091501561119457808060200190518101906117b291906119e9565b6111945760405162461bcd60e51b815260206004820152602a60248201527f5361666545524332303a204552433230206f7065726174696f6e20646964206e6044820152691bdd081cdd58d8d9595960b21b6064820152608401610491565b60606118208484600085611828565b949350505050565b6060303183111561188a5760405162461bcd60e51b815260206004820152602660248201527f416464726573733a20696e73756666696369656e742062616c616e636520666f6044820152651c8818d85b1b60d21b6064820152608401610491565b843b6118d85760405162461bcd60e51b815260206004820152601d60248201527f416464726573733a2063616c6c20746f206e6f6e2d636f6e74726163740000006044820152606401610491565b600080866001600160a01b031685876040516118f49190611aff565b60006040518083038185875af1925050503d8060008114611931576040519150601f19603f3d011682016040523d82523d6000602084013e611936565b606091505b5091509150611946828286611951565b979650505050505050565b60608315611960575081610e52565b8251156119705782518084602001fd5b8160405162461bcd60e51b81526004016104919190611b1b565b60006020828403121561199c57600080fd5b8135610e5281611c98565b6000806000606084860312156119bc57600080fd5b83356119c781611c98565b92506020840135915060408401356119de81611c98565b809150509250925092565b6000602082840312156119fb57600080fd5b81518015158114610e5257600080fd5b60008060408385031215611a1e57600080fd5b8235611a2981611c98565b91506020830135611a3981611c98565b809150509250929050565b60008060408385031215611a5757600080fd5b8235611a6281611c98565b946020939093013593505050565b60008060008060808587031215611a8657600080fd5b8435611a9181611c98565b966020860135965060408601359560600135945092505050565b600060208284031215611abd57600080fd5b5035919050565b600060208284031215611ad657600080fd5b5051919050565b60008060408385031215611af057600080fd5b50508035926020909101359150565b60008251611b11818460208701611c1b565b9190910192915050565b6020815260008251806020840152611b3a816040850160208701611c1b565b601f01601f19169190910160400192915050565b6020808252600e908201526d141bdbdb081b9bdd08195e1a5cdd60921b604082015260600190565b6020808252818101527f4f776e61626c653a2063616c6c6572206973206e6f7420746865206f776e6572604082015260600190565b60008219821115611bbe57611bbe611c82565b500190565b600082611be057634e487b7160e01b600052601260045260246000fd5b500490565b6000816000190483118215151615611bff57611bff611c82565b500290565b600082821015611c1657611c16611c82565b500390565b60005b83811015611c36578181015183820152602001611c1e565b838111156116155750506000910152565b600181811c90821680611c5b57607f821691505b60208210811415611c7c57634e487b7160e01b600052602260045260246000fd5b50919050565b634e487b7160e01b600052601160045260246000fd5b6001600160a01b038116811461137d57600080fdfea2646970667358221220d8b0674d921cbbbff6036ba797f84b2dbbaa2763ccd7be8fac3b1daa3052b6fa64736f6c63430008070033",
  "immutableReferences": {},
  "source": "// SPDX-License-Identifier: UNLICENSED\r\n\r\npragma solidity ^0.8.0;\r\n\r\nimport \"@openzeppelin/contracts/access/Ownable.sol\";\r\nimport \"@openzeppelin/contracts/token/ERC20/IERC20.sol\";\r\nimport \"@openzeppelin/contracts/token/ERC20/utils/SafeERC20.sol\";\r\n \r\ninterface PurseToken {\r\n\r\n    function transfer(address to, uint tokens) external  returns (bool success);\r\n\r\n    function mint(address to, uint tokens) external;\r\n\r\n    function transferFrom(address from, address to, uint tokens) external  returns (bool success);\r\n\r\n    function balanceOf(address tokenOwner) external view returns (uint balance);\r\n\r\n}\r\n\r\ncontract RestakingFarm is Ownable{\r\n    using SafeERC20 for IERC20;\r\n\r\n    // ---Contract Variables---\r\n    string public name = \"RestakingFarm\";\r\n\r\n    // Userinfo\r\n    struct UserInfo {\r\n        uint256 amount;     // How many LP tokens the user has provided.\r\n        uint256 rewardDebt; // Reward debt. See explanation below.\r\n        //\r\n        // We do some fancy math here. Basically, any point in time, the amount of PURSEs\r\n        // entitled to a user but is pending to be distributed is:\r\n        //\r\n        //   pending reward = (user.amount * pool.accPursePerShare) - user.rewardDebt\r\n        //\r\n        // Whenever a user deposits or withdraws LP tokens to a pool. Here's what happens:\r\n        //   1. The pool's `accPursePerShare` (and `lastRewardBlock`) gets updated.\r\n        //   2. User receives the pending reward sent to his/her address.\r\n        //   3. User's `amount` gets updated.\r\n        //   4. User's `rewardDebt` gets updated.\r\n    }\r\n    \r\n    // Info of each pool.\r\n    struct PoolInfo {\r\n        IERC20 lpToken;           // Address of LP token contract.\r\n        uint256 pursePerBlock;\r\n        uint256 bonusMultiplier;\r\n        uint256 lastRewardBlock;  // Last block number that PURSEs distribution occurs.\r\n        uint256 accPursePerShare; // Accumulated PURSEs per share, times 1e12. See below.\r\n        uint256 startBlock;\r\n    }\r\n\r\n    // The PURSE TOKEN!\r\n    PurseToken public purseToken;\r\n    uint256 public totalMintToken;    \r\n    uint256 public capMintToken;\r\n    IERC20[] public poolTokenList;\r\n    mapping(IERC20 => PoolInfo) public poolInfo;\r\n\r\n    // Info of each user that stakes LP tokens.\r\n    mapping (IERC20 => mapping (address => UserInfo)) public userInfo;\r\n\r\n    event Deposit(address indexed user, uint256 amount);\r\n    event Withdraw(address indexed user, uint256 amount);\r\n    event AddNewPool(address indexed owner, IERC20 indexed lpToken, uint256 pursePerBlock, uint256 bonusMultiplier, uint256 startBlock);\r\n    event UpdatePoolReward(address indexed owner, IERC20 indexed lpToken, uint256 pursePerBlock);\r\n    event UpdatePoolMultiplier(address indexed owner, IERC20 indexed lpToken, uint256 bonusMultiplier);\r\n    event ClaimReward(address indexed user, uint256 amount);\r\n    event EmergencyWithdraw(address indexed user, IERC20 indexed lpToken, uint256 amount);\r\n\r\n    modifier poolExist(IERC20 _lpToken) {\r\n        require( poolInfo[(_lpToken)].lpToken != IERC20(address(0)), \"Pool not exist\");\r\n        _;\r\n    }\r\n\r\n    constructor(\r\n        PurseToken _purseToken,\r\n        uint256 _capMintToken\r\n    ) {\r\n        purseToken = _purseToken;\r\n        capMintToken = _capMintToken;\r\n        }    \r\n\r\n    function poolLength() external view returns (uint256) {\r\n        return poolTokenList.length;\r\n    }\r\n\r\n    // Add a new lp to the pool. Can only be called by the owner.\r\n    function add(IERC20 _lpToken, uint256 _pursePerBlock, uint256 _bonusMultiplier, uint256 _startBlock) public onlyOwner {\r\n        require(_lpToken != IERC20(address(0)), \"Farmer::add: invalid lp token\");\r\n        require(poolInfo[_lpToken].lpToken == IERC20(address(0)), \"Farmer::add: lp is already in pool\");\r\n        uint256 lastRewardBlock = block.number > _startBlock ? block.number : _startBlock;\r\n        poolInfo[(_lpToken)] = PoolInfo({\r\n            lpToken: _lpToken,\r\n            pursePerBlock : _pursePerBlock,\r\n            bonusMultiplier: _bonusMultiplier,\r\n            lastRewardBlock: lastRewardBlock,\r\n            accPursePerShare: 0,\r\n            startBlock: _startBlock\r\n        });\r\n        poolTokenList.push(_lpToken);\r\n        emit AddNewPool(msg.sender, _lpToken, _pursePerBlock, _bonusMultiplier, _startBlock);\r\n    }\r\n\r\n    // Update the given pool's PURSE _pursePerBlock. Can only be called by the owner.\r\n    function setPurseReward(IERC20 _lpToken, uint256 _pursePerBlock) public onlyOwner poolExist(_lpToken){        \r\n        PoolInfo storage pool = poolInfo[_lpToken];\r\n        require(pool.pursePerBlock != _pursePerBlock, \"Same Purse Reward\");\r\n        updatePool(_lpToken);\r\n        pool.pursePerBlock = _pursePerBlock;\r\n        emit UpdatePoolReward(msg.sender, _lpToken, _pursePerBlock);\r\n    }\r\n\r\n    // Update the given pool's PURSE _bonusMultiplier. Can only be called by the owner.\r\n    function setBonusMultiplier(IERC20 _lpToken, uint256 _bonusMultiplier) public onlyOwner poolExist(_lpToken){        \r\n        PoolInfo storage pool = poolInfo[_lpToken];\r\n        require(pool.bonusMultiplier != _bonusMultiplier, \"Same bonus multiplier\");\r\n        updatePool(_lpToken);\r\n        pool.bonusMultiplier= _bonusMultiplier;\r\n        emit UpdatePoolMultiplier(msg.sender, _lpToken, _bonusMultiplier );\r\n    }\r\n\r\n    // Return reward multiplier over the given _from to _to block.\r\n    function getMultiplier(uint256 _from, uint256 _to) public pure returns (uint256) {\r\n        return _to-_from;\r\n    }\r\n\r\n    // Update reward variables of the given pool to be up-to-date.\r\n    function updatePool(IERC20 _lpToken) public poolExist(_lpToken){\r\n        PoolInfo storage pool = poolInfo[_lpToken];\r\n        if (block.number <= pool.lastRewardBlock) {\r\n            return;\r\n        }\r\n        uint256 lpSupply = pool.lpToken.balanceOf(address(this));\r\n        if (lpSupply == 0) {\r\n            pool.lastRewardBlock = block.number;\r\n            return;\r\n        }\r\n        uint256 multiplier = getMultiplier(pool.lastRewardBlock, block.number);\r\n        uint256 purseReward = multiplier*pool.pursePerBlock*pool.bonusMultiplier;\r\n        if (totalMintToken < capMintToken) {\r\n            if (totalMintToken + purseReward >= capMintToken) {\r\n                uint256 PurseCanMint = capMintToken-totalMintToken;\r\n                totalMintToken += PurseCanMint;\r\n                purseToken.mint(address(this), PurseCanMint);\r\n            } else {\r\n                totalMintToken += purseReward;\r\n                purseToken.mint(address(this), purseReward);\r\n            }\r\n        }\r\n        pool.accPursePerShare = pool.accPursePerShare+(purseReward*1e12/lpSupply);\r\n        pool.lastRewardBlock = block.number;\r\n    }\r\n\r\n    // Deposit LP tokens to Restaking Pool for Purse allocation.\r\n    function deposit(IERC20 _lpToken, uint256 _amount) public poolExist(_lpToken) {     \r\n        require(_amount > 0, \"Deposit: not good\");\r\n        PoolInfo storage pool = poolInfo[_lpToken];\r\n        UserInfo storage user = userInfo[_lpToken][msg.sender];\r\n        updatePool(_lpToken);\r\n\r\n        if (user.amount > 0) {\r\n            uint256 pending = user.amount*pool.accPursePerShare/1e12-user.rewardDebt;\r\n\r\n            if(pending > 0) {\r\n                safePurseTransfer(msg.sender, pending);\r\n            }\r\n        }\r\n        if (_amount > 0) {\r\n            pool.lpToken.safeTransferFrom(address(msg.sender), address(this), _amount);\r\n            user.amount = user.amount+_amount;\r\n        }\r\n        user.rewardDebt = user.amount*pool.accPursePerShare/1e12;\r\n        emit Deposit(msg.sender, _amount);\r\n    }\r\n\r\n    // Withdraw LP tokens from MasterChef.\r\n    function withdraw(IERC20 _lpToken, uint256 _amount) public poolExist(_lpToken){\r\n\r\n        PoolInfo storage pool = poolInfo[_lpToken];\r\n        UserInfo storage user = userInfo[_lpToken][msg.sender];\r\n        require(user.amount >= _amount, \"withdraw: not good\");\r\n\r\n        updatePool(_lpToken);\r\n        uint256 pending = user.amount*pool.accPursePerShare/1e12-user.rewardDebt;\r\n\r\n        if(pending > 0) {\r\n            safePurseTransfer(msg.sender, pending);\r\n        }\r\n        if(_amount > 0) {\r\n            user.amount = user.amount-_amount;\r\n            pool.lpToken.safeTransfer(address(msg.sender), _amount);\r\n        }\r\n        user.rewardDebt = user.amount*pool.accPursePerShare/1e12;\r\n        emit Withdraw(msg.sender, _amount);\r\n    }\r\n\r\n    // Harvest reward tokens from pool.\r\n    function claimReward(IERC20 _lpToken) public poolExist(_lpToken){\r\n\r\n        PoolInfo storage pool = poolInfo[_lpToken];\r\n        UserInfo storage user = userInfo[_lpToken][msg.sender];\r\n        require(user.amount > 0, \"Claim: not good\");\r\n\r\n        updatePool(_lpToken);\r\n        uint256 pending = user.amount*pool.accPursePerShare/1e12-user.rewardDebt;\r\n\r\n        if(pending > 0) {\r\n            safePurseTransfer(msg.sender, pending);\r\n        }\r\n        user.rewardDebt = user.amount*pool.accPursePerShare/1e12;\r\n\r\n        emit ClaimReward(msg.sender, pending);\r\n    }\r\n\r\n    function capMintTokenUpdate (uint256 _newCap) public onlyOwner {\r\n        capMintToken = _newCap;\r\n    }\r\n\r\n    // Safe purse transfer function, just in case if rounding error causes pool to not have enough PURSEs.\r\n    function safePurseTransfer(address _to, uint256 _amount) internal {\r\n        uint256 purseBal = purseToken.balanceOf(address(this));\r\n        if (_amount > purseBal) {\r\n            purseToken.transfer(_to, purseBal);\r\n        } else {\r\n            purseToken.transfer(_to, _amount);\r\n        }\r\n    }\r\n\r\n    // Withdraw without caring about rewards. EMERGENCY ONLY.\r\n    function emergencyWithdraw(IERC20 _lpToken) public poolExist(_lpToken) {\r\n        PoolInfo storage pool = poolInfo[_lpToken];\r\n        UserInfo storage user = userInfo[_lpToken][msg.sender];\r\n        require(user.amount > 0, \"Emergency Withdraw: not good\");\r\n        uint256 amount = user.amount;\r\n        user.amount = 0;\r\n        user.rewardDebt = 0;\r\n        pool.lpToken.safeTransfer(address(msg.sender), amount);\r\n        emit EmergencyWithdraw(msg.sender, _lpToken, amount);\r\n    }\r\n\r\n    // Return any token function, just in case if any user transfer token into the smart contract. \r\n    function returnAnyToken(address token, uint256 amount, address _to) public onlyOwner{\r\n        require(_to != address(0), \"send to the zero address\");\r\n        IERC20(token).safeTransfer(_to, amount);\r\n    }\r\n\r\n     // View function to see pending PURSEs on frontend.\r\n    function pendingReward(IERC20 _lpToken, address _user) external view poolExist(_lpToken) returns (uint256) {\r\n        PoolInfo memory pool = poolInfo[_lpToken];\r\n        UserInfo memory user = userInfo[_lpToken][_user];\r\n        uint256 accPursePerShare = pool.accPursePerShare;\r\n        uint256 lpSupply = pool.lpToken.balanceOf(address(this));\r\n        uint256 purseBal = purseToken.balanceOf(address(this));\r\n        uint256 pendingPurseMint = capMintToken - totalMintToken;\r\n        uint256 totalPurseSupply = purseBal + pendingPurseMint;\r\n        uint256 multiplier;\r\n        if (block.number > pool.lastRewardBlock && lpSupply != 0) {\r\n            multiplier = getMultiplier(pool.lastRewardBlock, block.number);\r\n            uint256 purseReward = multiplier*pool.pursePerBlock*pool.bonusMultiplier;\r\n            accPursePerShare = accPursePerShare+(purseReward*(1e12)/lpSupply);\r\n        }\r\n        uint256 pending = user.amount*(accPursePerShare)/(1e12)-(user.rewardDebt);\r\n\r\n        if (pending > totalPurseSupply) {\r\n            pending = totalPurseSupply;\r\n        }\r\n\r\n        return (pending);\r\n    }\r\n}",
  "sourcePath": "C:/Users/cheek/Desktop/Developer doc/Visual Studio Code/PundiX/lpTokenRestakingFarm/src/contracts/RestakingFarm.sol",
  "compiler": {
    "name": "solc",
    "version": "0.8.7+commit.e28d00a7.Emscripten.clang"
  },
  "schemaVersion": "3.3.4",
  "updatedAt": "2021-11-22T09:28:37.296Z",
  "devdoc": {
    "kind": "dev",
    "methods": {
      "owner()": {
        "details": "Returns the address of the current owner."
      },
      "renounceOwnership()": {
        "details": "Leaves the contract without owner. It will not be possible to call `onlyOwner` functions anymore. Can only be called by the current owner. NOTE: Renouncing ownership will leave the contract without an owner, thereby removing any functionality that is only available to the owner."
      },
      "transferOwnership(address)": {
        "details": "Transfers ownership of the contract to a new account (`newOwner`). Can only be called by the current owner."
      }
    },
    "version": 1
  },
  "userdoc": {
    "kind": "user",
    "methods": {},
    "version": 1
  }
}