{
  "contractName": "RestakingFarm",
  "abi": [
    {
      "anonymous": false,
      "inputs": [
        {
          "indexed": true,
          "internalType": "address",
          "name": "owner",
          "type": "address"
        },
        {
          "indexed": true,
          "internalType": "contract IERC20Upgradeable",
          "name": "lpToken",
          "type": "address"
        },
        {
          "indexed": false,
          "internalType": "uint256",
          "name": "pursePerBlock",
          "type": "uint256"
        },
        {
          "indexed": false,
          "internalType": "uint256",
          "name": "bonusMultiplier",
          "type": "uint256"
        },
        {
          "indexed": false,
          "internalType": "uint256",
          "name": "startBlock",
          "type": "uint256"
        }
      ],
      "name": "AddNewPool",
      "type": "event"
    },
    {
      "anonymous": false,
      "inputs": [
        {
          "indexed": false,
          "internalType": "address",
          "name": "previousAdmin",
          "type": "address"
        },
        {
          "indexed": false,
          "internalType": "address",
          "name": "newAdmin",
          "type": "address"
        }
      ],
      "name": "AdminChanged",
      "type": "event"
    },
    {
      "anonymous": false,
      "inputs": [
        {
          "indexed": true,
          "internalType": "address",
          "name": "beacon",
          "type": "address"
        }
      ],
      "name": "BeaconUpgraded",
      "type": "event"
    },
    {
      "anonymous": false,
      "inputs": [
        {
          "indexed": true,
          "internalType": "address",
          "name": "user",
          "type": "address"
        },
        {
          "indexed": false,
          "internalType": "uint256",
          "name": "amount",
          "type": "uint256"
        }
      ],
      "name": "ClaimReward",
      "type": "event"
    },
    {
      "anonymous": false,
      "inputs": [
        {
          "indexed": true,
          "internalType": "address",
          "name": "user",
          "type": "address"
        },
        {
          "indexed": false,
          "internalType": "uint256",
          "name": "amount",
          "type": "uint256"
        }
      ],
      "name": "Deposit",
      "type": "event"
    },
    {
      "anonymous": false,
      "inputs": [
        {
          "indexed": true,
          "internalType": "address",
          "name": "user",
          "type": "address"
        },
        {
          "indexed": true,
          "internalType": "contract IERC20Upgradeable",
          "name": "lpToken",
          "type": "address"
        },
        {
          "indexed": false,
          "internalType": "uint256",
          "name": "amount",
          "type": "uint256"
        }
      ],
      "name": "EmergencyWithdraw",
      "type": "event"
    },
    {
      "anonymous": false,
      "inputs": [
        {
          "indexed": true,
          "internalType": "address",
          "name": "previousOwner",
          "type": "address"
        },
        {
          "indexed": true,
          "internalType": "address",
          "name": "newOwner",
          "type": "address"
        }
      ],
      "name": "OwnershipTransferred",
      "type": "event"
    },
    {
      "anonymous": false,
      "inputs": [
        {
          "indexed": false,
          "internalType": "address",
          "name": "account",
          "type": "address"
        }
      ],
      "name": "Paused",
      "type": "event"
    },
    {
      "anonymous": false,
      "inputs": [
        {
          "indexed": false,
          "internalType": "address",
          "name": "account",
          "type": "address"
        }
      ],
      "name": "Unpaused",
      "type": "event"
    },
    {
      "anonymous": false,
      "inputs": [
        {
          "indexed": true,
          "internalType": "address",
          "name": "owner",
          "type": "address"
        },
        {
          "indexed": true,
          "internalType": "contract IERC20Upgradeable",
          "name": "lpToken",
          "type": "address"
        },
        {
          "indexed": false,
          "internalType": "uint256",
          "name": "bonusMultiplier",
          "type": "uint256"
        }
      ],
      "name": "UpdatePoolMultiplier",
      "type": "event"
    },
    {
      "anonymous": false,
      "inputs": [
        {
          "indexed": true,
          "internalType": "address",
          "name": "owner",
          "type": "address"
        },
        {
          "indexed": true,
          "internalType": "contract IERC20Upgradeable",
          "name": "lpToken",
          "type": "address"
        },
        {
          "indexed": false,
          "internalType": "uint256",
          "name": "pursePerBlock",
          "type": "uint256"
        }
      ],
      "name": "UpdatePoolReward",
      "type": "event"
    },
    {
      "anonymous": false,
      "inputs": [
        {
          "indexed": true,
          "internalType": "address",
          "name": "implementation",
          "type": "address"
        }
      ],
      "name": "Upgraded",
      "type": "event"
    },
    {
      "anonymous": false,
      "inputs": [
        {
          "indexed": true,
          "internalType": "address",
          "name": "user",
          "type": "address"
        },
        {
          "indexed": false,
          "internalType": "uint256",
          "name": "amount",
          "type": "uint256"
        }
      ],
      "name": "Withdraw",
      "type": "event"
    },
    {
      "inputs": [],
      "name": "capMintToken",
      "outputs": [
        {
          "internalType": "uint256",
          "name": "",
          "type": "uint256"
        }
      ],
      "stateMutability": "view",
      "type": "function",
      "constant": true
    },
    {
      "inputs": [],
      "name": "name",
      "outputs": [
        {
          "internalType": "string",
          "name": "",
          "type": "string"
        }
      ],
      "stateMutability": "view",
      "type": "function",
      "constant": true
    },
    {
      "inputs": [],
      "name": "owner",
      "outputs": [
        {
          "internalType": "address",
          "name": "",
          "type": "address"
        }
      ],
      "stateMutability": "view",
      "type": "function",
      "constant": true
    },
    {
      "inputs": [],
      "name": "paused",
      "outputs": [
        {
          "internalType": "bool",
          "name": "",
          "type": "bool"
        }
      ],
      "stateMutability": "view",
      "type": "function",
      "constant": true
    },
    {
      "inputs": [
        {
          "internalType": "contract IERC20Upgradeable",
          "name": "",
          "type": "address"
        }
      ],
      "name": "poolInfo",
      "outputs": [
        {
          "internalType": "contract IERC20Upgradeable",
          "name": "lpToken",
          "type": "address"
        },
        {
          "internalType": "uint256",
          "name": "pursePerBlock",
          "type": "uint256"
        },
        {
          "internalType": "uint256",
          "name": "bonusMultiplier",
          "type": "uint256"
        },
        {
          "internalType": "uint256",
          "name": "lastRewardBlock",
          "type": "uint256"
        },
        {
          "internalType": "uint256",
          "name": "accPursePerShare",
          "type": "uint256"
        },
        {
          "internalType": "uint256",
          "name": "startBlock",
          "type": "uint256"
        }
      ],
      "stateMutability": "view",
      "type": "function",
      "constant": true
    },
    {
      "inputs": [
        {
          "internalType": "uint256",
          "name": "",
          "type": "uint256"
        }
      ],
      "name": "poolTokenList",
      "outputs": [
        {
          "internalType": "contract IERC20Upgradeable",
          "name": "",
          "type": "address"
        }
      ],
      "stateMutability": "view",
      "type": "function",
      "constant": true
    },
    {
      "inputs": [],
      "name": "purseToken",
      "outputs": [
        {
          "internalType": "contract PurseToken",
          "name": "",
          "type": "address"
        }
      ],
      "stateMutability": "view",
      "type": "function",
      "constant": true
    },
    {
      "inputs": [],
      "name": "renounceOwnership",
      "outputs": [],
      "stateMutability": "nonpayable",
      "type": "function"
    },
    {
      "inputs": [],
      "name": "totalMintToken",
      "outputs": [
        {
          "internalType": "uint256",
          "name": "",
          "type": "uint256"
        }
      ],
      "stateMutability": "view",
      "type": "function",
      "constant": true
    },
    {
      "inputs": [
        {
          "internalType": "address",
          "name": "newOwner",
          "type": "address"
        }
      ],
      "name": "transferOwnership",
      "outputs": [],
      "stateMutability": "nonpayable",
      "type": "function"
    },
    {
      "inputs": [
        {
          "internalType": "address",
          "name": "newImplementation",
          "type": "address"
        }
      ],
      "name": "upgradeTo",
      "outputs": [],
      "stateMutability": "nonpayable",
      "type": "function"
    },
    {
      "inputs": [
        {
          "internalType": "address",
          "name": "newImplementation",
          "type": "address"
        },
        {
          "internalType": "bytes",
          "name": "data",
          "type": "bytes"
        }
      ],
      "name": "upgradeToAndCall",
      "outputs": [],
      "stateMutability": "payable",
      "type": "function",
      "payable": true
    },
    {
      "inputs": [
        {
          "internalType": "contract IERC20Upgradeable",
          "name": "",
          "type": "address"
        },
        {
          "internalType": "address",
          "name": "",
          "type": "address"
        }
      ],
      "name": "userInfo",
      "outputs": [
        {
          "internalType": "uint256",
          "name": "amount",
          "type": "uint256"
        },
        {
          "internalType": "uint256",
          "name": "rewardDebt",
          "type": "uint256"
        }
      ],
      "stateMutability": "view",
      "type": "function",
      "constant": true
    },
    {
      "inputs": [],
      "name": "poolLength",
      "outputs": [
        {
          "internalType": "uint256",
          "name": "",
          "type": "uint256"
        }
      ],
      "stateMutability": "view",
      "type": "function",
      "constant": true
    },
    {
      "inputs": [
        {
          "internalType": "contract IERC20Upgradeable",
          "name": "_lpToken",
          "type": "address"
        },
        {
          "internalType": "uint256",
          "name": "_pursePerBlock",
          "type": "uint256"
        },
        {
          "internalType": "uint256",
          "name": "_bonusMultiplier",
          "type": "uint256"
        },
        {
          "internalType": "uint256",
          "name": "_startBlock",
          "type": "uint256"
        }
      ],
      "name": "add",
      "outputs": [],
      "stateMutability": "nonpayable",
      "type": "function"
    },
    {
      "inputs": [
        {
          "internalType": "contract IERC20Upgradeable",
          "name": "_lpToken",
          "type": "address"
        },
        {
          "internalType": "uint256",
          "name": "_pursePerBlock",
          "type": "uint256"
        }
      ],
      "name": "setPurseReward",
      "outputs": [],
      "stateMutability": "nonpayable",
      "type": "function"
    },
    {
      "inputs": [
        {
          "internalType": "contract IERC20Upgradeable",
          "name": "_lpToken",
          "type": "address"
        },
        {
          "internalType": "uint256",
          "name": "_bonusMultiplier",
          "type": "uint256"
        }
      ],
      "name": "setBonusMultiplier",
      "outputs": [],
      "stateMutability": "nonpayable",
      "type": "function"
    },
    {
      "inputs": [
        {
          "internalType": "uint256",
          "name": "_from",
          "type": "uint256"
        },
        {
          "internalType": "uint256",
          "name": "_to",
          "type": "uint256"
        }
      ],
      "name": "getMultiplier",
      "outputs": [
        {
          "internalType": "uint256",
          "name": "",
          "type": "uint256"
        }
      ],
      "stateMutability": "pure",
      "type": "function",
      "constant": true
    },
    {
      "inputs": [
        {
          "internalType": "contract IERC20Upgradeable",
          "name": "_lpToken",
          "type": "address"
        }
      ],
      "name": "updatePool",
      "outputs": [],
      "stateMutability": "nonpayable",
      "type": "function"
    },
    {
      "inputs": [
        {
          "internalType": "contract IERC20Upgradeable",
          "name": "_lpToken",
          "type": "address"
        },
        {
          "internalType": "uint256",
          "name": "_amount",
          "type": "uint256"
        }
      ],
      "name": "deposit",
      "outputs": [],
      "stateMutability": "nonpayable",
      "type": "function"
    },
    {
      "inputs": [
        {
          "internalType": "contract IERC20Upgradeable",
          "name": "_lpToken",
          "type": "address"
        },
        {
          "internalType": "uint256",
          "name": "_amount",
          "type": "uint256"
        }
      ],
      "name": "withdraw",
      "outputs": [],
      "stateMutability": "nonpayable",
      "type": "function"
    },
    {
      "inputs": [
        {
          "internalType": "contract IERC20Upgradeable",
          "name": "_lpToken",
          "type": "address"
        }
      ],
      "name": "claimReward",
      "outputs": [],
      "stateMutability": "nonpayable",
      "type": "function"
    },
    {
      "inputs": [
        {
          "internalType": "uint256",
          "name": "_newCap",
          "type": "uint256"
        }
      ],
      "name": "capMintTokenUpdate",
      "outputs": [],
      "stateMutability": "nonpayable",
      "type": "function"
    },
    {
      "inputs": [
        {
          "internalType": "contract IERC20Upgradeable",
          "name": "_lpToken",
          "type": "address"
        }
      ],
      "name": "emergencyWithdraw",
      "outputs": [],
      "stateMutability": "nonpayable",
      "type": "function"
    },
    {
      "inputs": [
        {
          "internalType": "address",
          "name": "token",
          "type": "address"
        },
        {
          "internalType": "uint256",
          "name": "amount",
          "type": "uint256"
        },
        {
          "internalType": "address",
          "name": "_to",
          "type": "address"
        }
      ],
      "name": "recoverToken",
      "outputs": [],
      "stateMutability": "nonpayable",
      "type": "function"
    },
    {
      "inputs": [
        {
          "internalType": "contract IERC20Upgradeable",
          "name": "_lpToken",
          "type": "address"
        },
        {
          "internalType": "address",
          "name": "_user",
          "type": "address"
        }
      ],
      "name": "pendingReward",
      "outputs": [
        {
          "internalType": "uint256",
          "name": "",
          "type": "uint256"
        }
      ],
      "stateMutability": "view",
      "type": "function",
      "constant": true
    },
    {
      "inputs": [],
      "name": "pause",
      "outputs": [],
      "stateMutability": "nonpayable",
      "type": "function"
    },
    {
      "inputs": [],
      "name": "unpause",
      "outputs": [],
      "stateMutability": "nonpayable",
      "type": "function"
    },
    {
      "inputs": [
        {
          "internalType": "contract PurseToken",
          "name": "_purseToken",
          "type": "address"
        },
        {
          "internalType": "uint256",
          "name": "_capMintToken",
          "type": "uint256"
        }
      ],
      "name": "initialize",
      "outputs": [],
      "stateMutability": "nonpayable",
      "type": "function"
    }
  ],
  "bytecode": "0x60a06040523060601b60805234801561001757600080fd5b5060805160601c612c7161004b600039600081816108ce0152818161090e01528181610bfa0152610c3a0152612c716000f3fe6080604052600436106101c25760003560e01c80636ff1c9bc116100f75780639ced7e7611610095578063d279c19111610064578063d279c1911461057b578063e2d16c441461059b578063f2fde38b146105b1578063f3fef3a3146105d157600080fd5b80639ced7e7614610505578063ac854ac514610525578063cd6dc6871461053b578063d04323c51461055b57600080fd5b80638456cb59116100d15780638456cb59146104205780638da5cb5b146104355780638dbb1e3a146104535780639a7b5f111461047357600080fd5b80636ff1c9bc146103cb578063715018a6146103eb5780637b46c54f1461040057600080fd5b80633f4ba83a1161016457806351bf16ef1161013e57806351bf16ef1461034857806352cd3dd9146103685780635c975abb146103885780636692caee146103ab57600080fd5b80633f4ba83a1461030057806347e7ef24146103155780634f1ef2861461033557600080fd5b80630fe79ee4116101a05780630fe79ee4146102665780632df2fb731461029e5780633659cfe6146102c057806337c5a556146102e057600080fd5b806306fdde03146101c7578063081e3eda146101f25780630f208beb14610211575b600080fd5b3480156101d357600080fd5b506101dc6105f1565b6040516101e9919061295c565b60405180910390f35b3480156101fe57600080fd5b5060ff545b6040519081526020016101e9565b34801561021d57600080fd5b5061025161022c36600461284c565b6101016020908152600092835260408084209091529082529020805460019091015482565b604080519283526020830191909152016101e9565b34801561027257600080fd5b506102866102813660046128ec565b61067f565b6040516001600160a01b0390911681526020016101e9565b3480156102aa57600080fd5b506102be6102b93660046128b1565b6106a9565b005b3480156102cc57600080fd5b506102be6102db366004612707565b6108c3565b3480156102ec57600080fd5b506102be6102fb3660046128ec565b61098c565b34801561030c57600080fd5b506102be6109bb565b34801561032157600080fd5b506102be610330366004612885565b610a38565b6102be610343366004612724565b610bef565b34801561035457600080fd5b5060fc54610286906001600160a01b031681565b34801561037457600080fd5b506102be610383366004612885565b610ca9565b34801561039457600080fd5b5060c95460ff1660405190151581526020016101e9565b3480156103b757600080fd5b506102be6103c6366004612885565b610dc5565b3480156103d757600080fd5b506102be6103e6366004612707565b610edb565b3480156103f757600080fd5b506102be610fef565b34801561040c57600080fd5b506102be61041b366004612707565b611023565b34801561042c57600080fd5b506102be6112bb565b34801561044157600080fd5b506097546001600160a01b0316610286565b34801561045f57600080fd5b5061020361046e36600461291e565b611310565b34801561047f57600080fd5b506104ce61048e366004612707565b610100602052600090815260409020805460018201546002830154600384015460048501546005909501546001600160a01b039094169492939192909186565b604080516001600160a01b0390971687526020870195909552938501929092526060840152608083015260a082015260c0016101e9565b34801561051157600080fd5b5061020361052036600461284c565b611323565b34801561053157600080fd5b5061020360fe5481565b34801561054757600080fd5b506102be610556366004612885565b6115cd565b34801561056757600080fd5b506102be6105763660046127e8565b6116b8565b34801561058757600080fd5b506102be610596366004612707565b61174c565b3480156105a757600080fd5b5061020360fd5481565b3480156105bd57600080fd5b506102be6105cc366004612707565b6118be565b3480156105dd57600080fd5b506102be6105ec366004612885565b611956565b60fb80546105fe90612b98565b80601f016020809104026020016040519081016040528092919081815260200182805461062a90612b98565b80156106775780601f1061064c57610100808354040283529160200191610677565b820191906000526020600020905b81548152906001019060200180831161065a57829003601f168201915b505050505081565b60ff818154811061068f57600080fd5b6000918252602090912001546001600160a01b0316905081565b6097546001600160a01b031633146106dc5760405162461bcd60e51b81526004016106d390612ac7565b60405180910390fd5b6001600160a01b0384166107325760405162461bcd60e51b815260206004820152601d60248201527f4661726d65723a3a6164643a20696e76616c6964206c7020746f6b656e00000060448201526064016106d3565b6001600160a01b038481166000908152610100602052604090205416156107a65760405162461bcd60e51b815260206004820152602260248201527f4661726d65723a3a6164643a206c7020697320616c726561647920696e20706f6044820152611bdb60f21b60648201526084016106d3565b60008143116107b557816107b7565b435b6040805160c0810182526001600160a01b0388811680835260208084018a81528486018a8152606080870189815260006080890181815260a08a018e815288835261010088528b83209a518b549a166001600160a01b03199a8b16178b5595516001808c0191909155945160028b0155915160038a015590516004890155925160059097019690965560ff805491820181559091527fe08ec2af2cfc251225e1968fd6ca21e4044f129bffa95bac3503be8bdb30a36701805490931682179092558351898152918201889052928101869052929350909133917f2474bccb27f5e5e41c50b70eb93dac4cf5e7ba77949576a24c670ebeab2b5f2f91015b60405180910390a35050505050565b306001600160a01b037f000000000000000000000000000000000000000000000000000000000000000016141561090c5760405162461bcd60e51b81526004016106d39061298f565b7f00000000000000000000000000000000000000000000000000000000000000006001600160a01b031661093e611b04565b6001600160a01b0316146109645760405162461bcd60e51b81526004016106d3906129db565b61096d81611b32565b6040805160008082526020820190925261098991839190611b5c565b50565b6097546001600160a01b031633146109b65760405162461bcd60e51b81526004016106d390612ac7565b60fe55565b60c95460ff16610a045760405162461bcd60e51b815260206004820152601460248201527314185d5cd8589b194e881b9bdd081c185d5cd95960621b60448201526064016106d3565b6097546001600160a01b03163314610a2e5760405162461bcd60e51b81526004016106d390612ac7565b610a36611ca7565b565b60c95460ff1615610a5b5760405162461bcd60e51b81526004016106d390612a27565b6001600160a01b0380831660009081526101006020526040902054839116610a955760405162461bcd60e51b81526004016106d390612a9f565b60008211610ad95760405162461bcd60e51b815260206004820152601160248201527011195c1bdcda5d0e881b9bdd0819dbdbd9607a1b60448201526064016106d3565b6001600160a01b0383166000908152610100602090815260408083206101018352818420338552909252909120610b0f85611023565b805415610b5f576000816001015464e8d4a5100084600401548460000154610b379190612b36565b610b419190612b14565b610b4b9190612b55565b90508015610b5d57610b5d3382611d3a565b505b8315610b8c578154610b7c906001600160a01b0316333087611e86565b8054610b89908590612afc565b81555b6004820154815464e8d4a5100091610ba391612b36565b610bad9190612b14565b600182015560405184815233907fe1fffcc4923d04b559f4d29a8bfc6cda04eb5b0d3c460751c2402c5c5cc9109c906020015b60405180910390a25050505050565b306001600160a01b037f0000000000000000000000000000000000000000000000000000000000000000161415610c385760405162461bcd60e51b81526004016106d39061298f565b7f00000000000000000000000000000000000000000000000000000000000000006001600160a01b0316610c6a611b04565b6001600160a01b031614610c905760405162461bcd60e51b81526004016106d3906129db565b610c9982611b32565b610ca582826001611b5c565b5050565b6097546001600160a01b03163314610cd35760405162461bcd60e51b81526004016106d390612ac7565b6001600160a01b0380831660009081526101006020526040902054839116610d0d5760405162461bcd60e51b81526004016106d390612a9f565b6001600160a01b0383166000908152610100602052604090206001810154831415610d6e5760405162461bcd60e51b815260206004820152601160248201527014d85b5948141d5c9cd94814995dd85c99607a1b60448201526064016106d3565b610d7784611023565b600181018390556040518381526001600160a01b0385169033907f6bd9b567b3baf7b1a1460bd971aa6646c2b816470a2000fac19e3982e78730be906020015b60405180910390a350505050565b6097546001600160a01b03163314610def5760405162461bcd60e51b81526004016106d390612ac7565b6001600160a01b0380831660009081526101006020526040902054839116610e295760405162461bcd60e51b81526004016106d390612a9f565b6001600160a01b0383166000908152610100602052604090206002810154831415610e8e5760405162461bcd60e51b815260206004820152601560248201527429b0b6b2903137b73ab99036bab63a34b83634b2b960591b60448201526064016106d3565b610e9784611023565b600281018390556040518381526001600160a01b0385169033907ff54770bce888996c0b4b161ce489bbb5b9c51b6b5ed08d49ef69f308dd2403bf90602001610db7565b6001600160a01b0380821660009081526101006020526040902054829116610f155760405162461bcd60e51b81526004016106d390612a9f565b6001600160a01b03821660009081526101006020908152604080832061010183528184203385529092529091208054610f905760405162461bcd60e51b815260206004820152601c60248201527f456d657267656e63792057697468647261773a206e6f7420676f6f640000000060448201526064016106d3565b8054600080835560018301558254610fb2906001600160a01b03163383611ef1565b6040518181526001600160a01b0386169033907ff24ef89f38eadc1bde50701ad6e4d6d11a2dc24f7cf834a486991f3883328504906020016108b4565b6097546001600160a01b031633146110195760405162461bcd60e51b81526004016106d390612ac7565b610a366000611f21565b6001600160a01b038082166000908152610100602052604090205482911661105d5760405162461bcd60e51b81526004016106d390612a9f565b6001600160a01b0382166000908152610100602052604090206003810154431161108657505050565b80546040516370a0823160e01b81523060048201526000916001600160a01b0316906370a082319060240160206040518083038186803b1580156110c957600080fd5b505afa1580156110dd573d6000803e3d6000fd5b505050506040513d601f19601f820116820180604052508101906111019190612905565b9050806111145750436003909101555050565b6000611124836003015443611310565b90506000836002015484600101548361113d9190612b36565b6111479190612b36565b905060fe5460fd54101561127c5760fe548160fd546111669190612afc565b1061120057600060fd5460fe5461117d9190612b55565b90508060fd60008282546111919190612afc565b909155505060fc546040516340c10f1960e01b8152306004820152602481018390526001600160a01b03909116906340c10f1990604401600060405180830381600087803b1580156111e257600080fd5b505af11580156111f6573d6000803e3d6000fd5b505050505061127c565b8060fd60008282546112129190612afc565b909155505060fc546040516340c10f1960e01b8152306004820152602481018390526001600160a01b03909116906340c10f1990604401600060405180830381600087803b15801561126357600080fd5b505af1158015611277573d6000803e3d6000fd5b505050505b8261128c8264e8d4a51000612b36565b6112969190612b14565b84600401546112a59190612afc565b6004850155505043600390920191909155505050565b60c95460ff16156112de5760405162461bcd60e51b81526004016106d390612a27565b6097546001600160a01b031633146113085760405162461bcd60e51b81526004016106d390612ac7565b610a36611f73565b600061131c8383612b55565b9392505050565b6001600160a01b0380831660009081526101006020526040812054909184911661135f5760405162461bcd60e51b81526004016106d390612a9f565b6001600160a01b03848116600081815261010060209081526040808320815160c08101835281548716815260018083015482860152600283015482850152600383015460608301526004808401546080840190815260059094015460a084015296865261010185528386208b8916875285528386208451808601865281548152910154948101949094529051815192516370a0823160e01b815230968101969096529095929490939291909116906370a082319060240160206040518083038186803b15801561142e57600080fd5b505afa158015611442573d6000803e3d6000fd5b505050506040513d601f19601f820116820180604052508101906114669190612905565b60fc546040516370a0823160e01b81523060048201529192506000916001600160a01b03909116906370a082319060240160206040518083038186803b1580156114af57600080fd5b505afa1580156114c3573d6000803e3d6000fd5b505050506040513d601f19601f820116820180604052508101906114e79190612905565b9050600060fd5460fe546114fb9190612b55565b905060006115098284612afc565b9050600087606001514311801561151f57508415155b1561157f57611532886060015143611310565b90506000886040015189602001518361154b9190612b36565b6115559190612b36565b9050856115678264e8d4a51000612b36565b6115719190612b14565b61157b9088612afc565b9650505b6000876020015164e8d4a51000888a6000015161159c9190612b36565b6115a69190612b14565b6115b09190612b55565b9050828111156115bd5750815b9c9b505050505050505050505050565b600054610100900460ff16806115e6575060005460ff16155b6116025760405162461bcd60e51b81526004016106d390612a51565b600054610100900460ff16158015611624576000805461ffff19166101011790555b6040805180820190915260178082527f4c5020546f6b656e2052657374616b696e67204661726d00000000000000000060209092019182526116689160fb9161266e565b5060fc80546001600160a01b0319166001600160a01b03851617905560fe829055611691611fcb565b611699612046565b6116a16120ad565b80156116b3576000805461ff00191690555b505050565b6097546001600160a01b031633146116e25760405162461bcd60e51b81526004016106d390612ac7565b6001600160a01b0381166117385760405162461bcd60e51b815260206004820152601860248201527f73656e6420746f20746865207a65726f2061646472657373000000000000000060448201526064016106d3565b6116b36001600160a01b0384168284611ef1565b60c95460ff161561176f5760405162461bcd60e51b81526004016106d390612a27565b6001600160a01b03808216600090815261010060205260409020548291166117a95760405162461bcd60e51b81526004016106d390612a9f565b6001600160a01b038216600090815261010060209081526040808320610101835281842033855290925290912080546118165760405162461bcd60e51b815260206004820152600f60248201526e10db185a5b4e881b9bdd0819dbdbd9608a1b60448201526064016106d3565b61181f84611023565b6000816001015464e8d4a51000846004015484600001546118409190612b36565b61184a9190612b14565b6118549190612b55565b90508015611866576118663382611d3a565b6004830154825464e8d4a510009161187d91612b36565b6118879190612b14565b600183015560405181815233907fba8de60c3403ec381d1d484652ea1980e3c3e56359195c92525bff4ce47ad98e90602001610be0565b6097546001600160a01b031633146118e85760405162461bcd60e51b81526004016106d390612ac7565b6001600160a01b03811661194d5760405162461bcd60e51b815260206004820152602660248201527f4f776e61626c653a206e6577206f776e657220697320746865207a65726f206160448201526564647265737360d01b60648201526084016106d3565b61098981611f21565b60c95460ff16156119795760405162461bcd60e51b81526004016106d390612a27565b6001600160a01b03808316600090815261010060205260409020548391166119b35760405162461bcd60e51b81526004016106d390612a9f565b6001600160a01b03831660009081526101006020908152604080832061010183528184203385529092529091208054841115611a265760405162461bcd60e51b81526020600482015260126024820152711dda5d1a191c985dce881b9bdd0819dbdbd960721b60448201526064016106d3565b611a2f85611023565b6000816001015464e8d4a5100084600401548460000154611a509190612b36565b611a5a9190612b14565b611a649190612b55565b90508015611a7657611a763382611d3a565b8415611aa1578154611a89908690612b55565b82558254611aa1906001600160a01b03163387611ef1565b6004830154825464e8d4a5100091611ab891612b36565b611ac29190612b14565b600183015560405185815233907f884edad9ce6fa2440d8a54cc123490eb96d2768479d49ff9c7366125a94243649060200160405180910390a2505050505050565b7f360894a13ba1a3210667c828492db98dca3e2076cc3735a920a3ca505d382bbc546001600160a01b031690565b6097546001600160a01b031633146109895760405162461bcd60e51b81526004016106d390612ac7565b6000611b66611b04565b9050611b7184612114565b600083511180611b7e5750815b15611b8f57611b8d84846121b9565b505b7f4910fdfa16fed3260ed0e7147f7cc6da11a60208b5b9406d12a635614ffd9143805460ff16611ca057805460ff191660011781556040516001600160a01b0383166024820152611c0e90869060440160408051601f198184030181529190526020810180516001600160e01b0316631b2ce7f360e11b1790526121b9565b50805460ff19168155611c1f611b04565b6001600160a01b0316826001600160a01b031614611c975760405162461bcd60e51b815260206004820152602f60248201527f45524331393637557067726164653a207570677261646520627265616b73206660448201526e75727468657220757067726164657360881b60648201526084016106d3565b611ca0856122a4565b5050505050565b60c95460ff16611cf05760405162461bcd60e51b815260206004820152601460248201527314185d5cd8589b194e881b9bdd081c185d5cd95960621b60448201526064016106d3565b60c9805460ff191690557f5db9ee0a495bf2e6ff9c91a7834c1ba4fdd244a5e8aa4e537bd38aeae4b073aa335b6040516001600160a01b03909116815260200160405180910390a1565b60fc546040516370a0823160e01b81523060048201526000916001600160a01b0316906370a082319060240160206040518083038186803b158015611d7e57600080fd5b505afa158015611d92573d6000803e3d6000fd5b505050506040513d601f19601f82011682018060405250810190611db69190612905565b905080821115611e4d5760fc5460405163a9059cbb60e01b81526001600160a01b038581166004830152602482018490529091169063a9059cbb906044015b602060405180830381600087803b158015611e0f57600080fd5b505af1158015611e23573d6000803e3d6000fd5b505050506040513d601f19601f82011682018060405250810190611e47919061282a565b50505050565b60fc5460405163a9059cbb60e01b81526001600160a01b038581166004830152602482018590529091169063a9059cbb90604401611df5565b6040516001600160a01b0380851660248301528316604482015260648101829052611e479085906323b872dd60e01b906084015b60408051601f198184030181529190526020810180516001600160e01b03166001600160e01b0319909316929092179091526122e4565b6040516001600160a01b0383166024820152604481018290526116b390849063a9059cbb60e01b90606401611eba565b609780546001600160a01b038381166001600160a01b0319831681179093556040519116919082907f8be0079c531659141344cd1fd0a4f28419497f9722a3daafe3b4186f6b6457e090600090a35050565b60c95460ff1615611f965760405162461bcd60e51b81526004016106d390612a27565b60c9805460ff191660011790557f62e78cea01bee320cd4e420270b5ea74000d11b0c9f74754ebdbfc544b05a258611d1d3390565b600054610100900460ff1680611fe4575060005460ff16155b6120005760405162461bcd60e51b81526004016106d390612a51565b600054610100900460ff16158015612022576000805461ffff19166101011790555b61202a6123b6565b612032612420565b8015610989576000805461ff001916905550565b600054610100900460ff168061205f575060005460ff16155b61207b5760405162461bcd60e51b81526004016106d390612a51565b600054610100900460ff1615801561209d576000805461ffff19166101011790555b6120a56123b6565b612032612495565b600054610100900460ff16806120c6575060005460ff16155b6120e25760405162461bcd60e51b81526004016106d390612a51565b600054610100900460ff16158015612104576000805461ffff19166101011790555b61210c6123b6565b6120326123b6565b803b6121785760405162461bcd60e51b815260206004820152602d60248201527f455243313936373a206e657720696d706c656d656e746174696f6e206973206e60448201526c1bdd08184818dbdb9d1c9858dd609a1b60648201526084016106d3565b7f360894a13ba1a3210667c828492db98dca3e2076cc3735a920a3ca505d382bbc80546001600160a01b0319166001600160a01b0392909216919091179055565b6060823b6122185760405162461bcd60e51b815260206004820152602660248201527f416464726573733a2064656c65676174652063616c6c20746f206e6f6e2d636f6044820152651b9d1c9858dd60d21b60648201526084016106d3565b600080846001600160a01b0316846040516122339190612940565b600060405180830381855af49150503d806000811461226e576040519150601f19603f3d011682016040523d82523d6000602084013e612273565b606091505b509150915061229b8282604051806060016040528060278152602001612c15602791396124f5565b95945050505050565b6122ad81612114565b6040516001600160a01b038216907fbc7cd75a20ee27fd9adebab32041f755214dbc6bffa90cc0225b39da2e5c2d3b90600090a250565b6000612339826040518060400160405280602081526020017f5361666545524332303a206c6f772d6c6576656c2063616c6c206661696c6564815250856001600160a01b031661252e9092919063ffffffff16565b8051909150156116b35780806020019051810190612357919061282a565b6116b35760405162461bcd60e51b815260206004820152602a60248201527f5361666545524332303a204552433230206f7065726174696f6e20646964206e6044820152691bdd081cdd58d8d9595960b21b60648201526084016106d3565b600054610100900460ff16806123cf575060005460ff16155b6123eb5760405162461bcd60e51b81526004016106d390612a51565b600054610100900460ff16158015612032576000805461ffff19166101011790558015610989576000805461ff001916905550565b600054610100900460ff1680612439575060005460ff16155b6124555760405162461bcd60e51b81526004016106d390612a51565b600054610100900460ff16158015612477576000805461ffff19166101011790555b60c9805460ff191690558015610989576000805461ff001916905550565b600054610100900460ff16806124ae575060005460ff16155b6124ca5760405162461bcd60e51b81526004016106d390612a51565b600054610100900460ff161580156124ec576000805461ffff19166101011790555b61203233611f21565b6060831561250457508161131c565b8251156125145782518084602001fd5b8160405162461bcd60e51b81526004016106d3919061295c565b606061253d8484600085612545565b949350505050565b606030318311156125a75760405162461bcd60e51b815260206004820152602660248201527f416464726573733a20696e73756666696369656e742062616c616e636520666f6044820152651c8818d85b1b60d21b60648201526084016106d3565b843b6125f55760405162461bcd60e51b815260206004820152601d60248201527f416464726573733a2063616c6c20746f206e6f6e2d636f6e747261637400000060448201526064016106d3565b600080866001600160a01b031685876040516126119190612940565b60006040518083038185875af1925050503d806000811461264e576040519150601f19603f3d011682016040523d82523d6000602084013e612653565b606091505b50915091506126638282866124f5565b979650505050505050565b82805461267a90612b98565b90600052602060002090601f01602090048101928261269c57600085556126e2565b82601f106126b557805160ff19168380011785556126e2565b828001600101855582156126e2579182015b828111156126e25782518255916020019190600101906126c7565b506126ee9291506126f2565b5090565b5b808211156126ee57600081556001016126f3565b60006020828403121561271957600080fd5b813561131c81612bff565b6000806040838503121561273757600080fd5b823561274281612bff565b9150602083013567ffffffffffffffff8082111561275f57600080fd5b818501915085601f83011261277357600080fd5b81358181111561278557612785612be9565b604051601f8201601f19908116603f011681019083821181831017156127ad576127ad612be9565b816040528281528860208487010111156127c657600080fd5b8260208601602083013760006020848301015280955050505050509250929050565b6000806000606084860312156127fd57600080fd5b833561280881612bff565b925060208401359150604084013561281f81612bff565b809150509250925092565b60006020828403121561283c57600080fd5b8151801515811461131c57600080fd5b6000806040838503121561285f57600080fd5b823561286a81612bff565b9150602083013561287a81612bff565b809150509250929050565b6000806040838503121561289857600080fd5b82356128a381612bff565b946020939093013593505050565b600080600080608085870312156128c757600080fd5b84356128d281612bff565b966020860135965060408601359560600135945092505050565b6000602082840312156128fe57600080fd5b5035919050565b60006020828403121561291757600080fd5b5051919050565b6000806040838503121561293157600080fd5b50508035926020909101359150565b60008251612952818460208701612b6c565b9190910192915050565b602081526000825180602084015261297b816040850160208701612b6c565b601f01601f19169190910160400192915050565b6020808252602c908201527f46756e6374696f6e206d7573742062652063616c6c6564207468726f7567682060408201526b19195b1959d85d1958d85b1b60a21b606082015260800190565b6020808252602c908201527f46756e6374696f6e206d7573742062652063616c6c6564207468726f7567682060408201526b6163746976652070726f787960a01b606082015260800190565b60208082526010908201526f14185d5cd8589b194e881c185d5cd95960821b604082015260600190565b6020808252602e908201527f496e697469616c697a61626c653a20636f6e747261637420697320616c72656160408201526d191e481a5b9a5d1a585b1a5e995960921b606082015260800190565b6020808252600e908201526d141bdbdb081b9bdd08195e1a5cdd60921b604082015260600190565b6020808252818101527f4f776e61626c653a2063616c6c6572206973206e6f7420746865206f776e6572604082015260600190565b60008219821115612b0f57612b0f612bd3565b500190565b600082612b3157634e487b7160e01b600052601260045260246000fd5b500490565b6000816000190483118215151615612b5057612b50612bd3565b500290565b600082821015612b6757612b67612bd3565b500390565b60005b83811015612b87578181015183820152602001612b6f565b83811115611e475750506000910152565b600181811c90821680612bac57607f821691505b60208210811415612bcd57634e487b7160e01b600052602260045260246000fd5b50919050565b634e487b7160e01b600052601160045260246000fd5b634e487b7160e01b600052604160045260246000fd5b6001600160a01b038116811461098957600080fdfe416464726573733a206c6f772d6c6576656c2064656c65676174652063616c6c206661696c6564a26469706673582212207679d34d0221f4a3501478c6651d87d1f69e29ef7bdc640c540e432a9396551464736f6c63430008070033",
  "immutableReferences": {
    "4162": [
      {
        "length": 32,
        "start": 2254
      },
      {
        "length": 32,
        "start": 2318
      },
      {
        "length": 32,
        "start": 3066
      },
      {
        "length": 32,
        "start": 3130
      }
    ]
  },
  "source": "// SPDX-License-Identifier: UNLICENSED\r\n\r\npragma solidity ^0.8.0;\r\n\r\nimport \"@openzeppelin/contracts-upgradeable/access/OwnableUpgradeable.sol\";\r\nimport \"@openzeppelin/contracts-upgradeable/proxy/utils/Initializable.sol\";\r\nimport \"@openzeppelin/contracts-upgradeable/proxy/utils/UUPSUpgradeable.sol\";\r\nimport \"@openzeppelin/contracts-upgradeable/token/ERC20/IERC20Upgradeable.sol\";\r\nimport \"@openzeppelin/contracts-upgradeable/security/PausableUpgradeable.sol\";\r\nimport \"@openzeppelin/contracts-upgradeable/token/ERC20/utils/SafeERC20Upgradeable.sol\";\r\n \r\ninterface PurseToken {\r\n\r\n    function transfer(address to, uint tokens) external returns (bool success);\r\n\r\n    function mint(address to, uint tokens) external;\r\n\r\n    function transferFrom(address from, address to, uint tokens) external returns (bool success);\r\n\r\n    function balanceOf(address tokenOwner) external view returns (uint balance);\r\n\r\n}\r\n\r\ncontract RestakingFarm is Initializable, UUPSUpgradeable, OwnableUpgradeable, PausableUpgradeable {\r\n\r\n    using SafeERC20Upgradeable for IERC20Upgradeable;\r\n\r\n    // ---Contract Variables---\r\n    string public name;\r\n\r\n    // Userinfo\r\n    struct UserInfo {\r\n        uint256 amount;     // How many LP tokens the user has provided.\r\n        uint256 rewardDebt; // Reward debt. See explanation below.\r\n        //\r\n        // We do some fancy math here. Basically, any point in time, the amount of PURSEs\r\n        // entitled to a user but is pending to be distributed is:\r\n        //\r\n        //   pending reward = (user.amount * pool.accPursePerShare) - user.rewardDebt\r\n        //\r\n        // Whenever a user deposits or withdraws LP tokens to a pool. Here's what happens:\r\n        //   1. The pool's `accPursePerShare` (and `lastRewardBlock`) gets updated.\r\n        //   2. User receives the pending reward sent to his/her address.\r\n        //   3. User's `amount` gets updated.\r\n        //   4. User's `rewardDebt` gets updated.\r\n    }\r\n    \r\n    // Info of each pool.\r\n    struct PoolInfo {\r\n        IERC20Upgradeable lpToken;           // Address of LP token contract.\r\n        uint256 pursePerBlock;\r\n        uint256 bonusMultiplier;\r\n        uint256 lastRewardBlock;  // Last block number that PURSEs distribution occurs.\r\n        uint256 accPursePerShare; // Accumulated PURSEs per share, times 1e12. See below.\r\n        uint256 startBlock;\r\n    }\r\n\r\n    // The PURSE TOKEN!\r\n    PurseToken public purseToken;\r\n    uint256 public totalMintToken;    \r\n    uint256 public capMintToken;\r\n    IERC20Upgradeable[] public poolTokenList;\r\n    mapping(IERC20Upgradeable => PoolInfo) public poolInfo;\r\n\r\n    // Info of each user that stakes LP tokens.\r\n    mapping (IERC20Upgradeable => mapping (address => UserInfo)) public userInfo;\r\n\r\n    event Deposit(address indexed user, uint256 amount);\r\n    event Withdraw(address indexed user, uint256 amount);\r\n    event AddNewPool(address indexed owner, IERC20Upgradeable indexed lpToken, uint256 pursePerBlock, uint256 bonusMultiplier, uint256 startBlock);\r\n    event UpdatePoolReward(address indexed owner, IERC20Upgradeable indexed lpToken, uint256 pursePerBlock);\r\n    event UpdatePoolMultiplier(address indexed owner, IERC20Upgradeable indexed lpToken, uint256 bonusMultiplier);\r\n    event ClaimReward(address indexed user, uint256 amount);\r\n    event EmergencyWithdraw(address indexed user, IERC20Upgradeable indexed lpToken, uint256 amount);\r\n\r\n    modifier poolExist(IERC20Upgradeable _lpToken) {\r\n        require( poolInfo[(_lpToken)].lpToken != IERC20Upgradeable(address(0)), \"Pool not exist\");\r\n        _;\r\n    }  \r\n\r\n    function poolLength() external view returns (uint256) {\r\n        return poolTokenList.length;\r\n    }\r\n\r\n    // Add a new lp to the pool. Can only be called by the owner.\r\n    function add(IERC20Upgradeable _lpToken, uint256 _pursePerBlock, uint256 _bonusMultiplier, uint256 _startBlock) public onlyOwner {\r\n        require(_lpToken != IERC20Upgradeable(address(0)), \"Farmer::add: invalid lp token\");\r\n        require(poolInfo[_lpToken].lpToken == IERC20Upgradeable(address(0)), \"Farmer::add: lp is already in pool\");\r\n        uint256 lastRewardBlock = block.number > _startBlock ? block.number : _startBlock;\r\n        poolInfo[(_lpToken)] = PoolInfo({\r\n            lpToken: _lpToken,\r\n            pursePerBlock : _pursePerBlock,\r\n            bonusMultiplier: _bonusMultiplier,\r\n            lastRewardBlock: lastRewardBlock,\r\n            accPursePerShare: 0,\r\n            startBlock: _startBlock\r\n        });\r\n        poolTokenList.push(_lpToken);\r\n        emit AddNewPool(msg.sender, _lpToken, _pursePerBlock, _bonusMultiplier, _startBlock);\r\n    }\r\n\r\n    // Update the given pool's PURSE _pursePerBlock. Can only be called by the owner.\r\n    function setPurseReward(IERC20Upgradeable _lpToken, uint256 _pursePerBlock) public onlyOwner poolExist(_lpToken){        \r\n        PoolInfo storage pool = poolInfo[_lpToken];\r\n        require(pool.pursePerBlock != _pursePerBlock, \"Same Purse Reward\");\r\n        updatePool(_lpToken);\r\n        pool.pursePerBlock = _pursePerBlock;\r\n        emit UpdatePoolReward(msg.sender, _lpToken, _pursePerBlock);\r\n    }\r\n\r\n    // Update the given pool's PURSE _bonusMultiplier. Can only be called by the owner.\r\n    function setBonusMultiplier(IERC20Upgradeable _lpToken, uint256 _bonusMultiplier) public onlyOwner poolExist(_lpToken){        \r\n        PoolInfo storage pool = poolInfo[_lpToken];\r\n        require(pool.bonusMultiplier != _bonusMultiplier, \"Same bonus multiplier\");\r\n        updatePool(_lpToken);\r\n        pool.bonusMultiplier= _bonusMultiplier;\r\n        emit UpdatePoolMultiplier(msg.sender, _lpToken, _bonusMultiplier );\r\n    }\r\n\r\n    // Return reward multiplier over the given _from to _to block.\r\n    function getMultiplier(uint256 _from, uint256 _to) public pure returns (uint256) {\r\n        return _to-_from;\r\n    }\r\n\r\n    // Update reward variables of the given pool to be up-to-date.\r\n    function updatePool(IERC20Upgradeable _lpToken) public poolExist(_lpToken){\r\n        PoolInfo storage pool = poolInfo[_lpToken];\r\n        if (block.number <= pool.lastRewardBlock) {\r\n            return;\r\n        }\r\n        uint256 lpSupply = pool.lpToken.balanceOf(address(this));\r\n        if (lpSupply == 0) {\r\n            pool.lastRewardBlock = block.number;\r\n            return;\r\n        }\r\n        uint256 multiplier = getMultiplier(pool.lastRewardBlock, block.number);\r\n        uint256 purseReward = multiplier*pool.pursePerBlock*pool.bonusMultiplier;\r\n        if (totalMintToken < capMintToken) {\r\n            if (totalMintToken + purseReward >= capMintToken) {\r\n                uint256 PurseCanMint = capMintToken-totalMintToken;\r\n                totalMintToken += PurseCanMint;\r\n                purseToken.mint(address(this), PurseCanMint);\r\n            } else {\r\n                totalMintToken += purseReward;\r\n                purseToken.mint(address(this), purseReward);\r\n            }\r\n        }\r\n        pool.accPursePerShare = pool.accPursePerShare+(purseReward*1e12/lpSupply);\r\n        pool.lastRewardBlock = block.number;\r\n    }\r\n\r\n    // Deposit LP tokens to Restaking Pool for Purse allocation.\r\n    function deposit(IERC20Upgradeable _lpToken, uint256 _amount) public whenNotPaused poolExist(_lpToken) {     \r\n        require(_amount > 0, \"Deposit: not good\");\r\n        PoolInfo storage pool = poolInfo[_lpToken];\r\n        UserInfo storage user = userInfo[_lpToken][msg.sender];\r\n        updatePool(_lpToken);\r\n\r\n        if (user.amount > 0) {\r\n            uint256 pending = user.amount*pool.accPursePerShare/1e12-user.rewardDebt;\r\n\r\n            if(pending > 0) {\r\n                safePurseTransfer(msg.sender, pending);\r\n            }\r\n        }\r\n        if (_amount > 0) {\r\n            pool.lpToken.safeTransferFrom(address(msg.sender), address(this), _amount);\r\n            user.amount = user.amount+_amount;\r\n        }\r\n        user.rewardDebt = user.amount*pool.accPursePerShare/1e12;\r\n        emit Deposit(msg.sender, _amount);\r\n    }\r\n\r\n    // Withdraw LP tokens from MasterChef.\r\n    function withdraw(IERC20Upgradeable _lpToken, uint256 _amount) public whenNotPaused poolExist(_lpToken){\r\n\r\n        PoolInfo storage pool = poolInfo[_lpToken];\r\n        UserInfo storage user = userInfo[_lpToken][msg.sender];\r\n        require(user.amount >= _amount, \"withdraw: not good\");\r\n\r\n        updatePool(_lpToken);\r\n        uint256 pending = user.amount*pool.accPursePerShare/1e12-user.rewardDebt;\r\n\r\n        if(pending > 0) {\r\n            safePurseTransfer(msg.sender, pending);\r\n        }\r\n        if(_amount > 0) {\r\n            user.amount = user.amount-_amount;\r\n            pool.lpToken.safeTransfer(address(msg.sender), _amount);\r\n        }\r\n        user.rewardDebt = user.amount*pool.accPursePerShare/1e12;\r\n        emit Withdraw(msg.sender, _amount);\r\n    }\r\n\r\n    // Harvest reward tokens from pool.\r\n    function claimReward(IERC20Upgradeable _lpToken) public whenNotPaused poolExist(_lpToken){\r\n\r\n        PoolInfo storage pool = poolInfo[_lpToken];\r\n        UserInfo storage user = userInfo[_lpToken][msg.sender];\r\n        require(user.amount > 0, \"Claim: not good\");\r\n\r\n        updatePool(_lpToken);\r\n        uint256 pending = user.amount*pool.accPursePerShare/1e12-user.rewardDebt;\r\n\r\n        if(pending > 0) {\r\n            safePurseTransfer(msg.sender, pending);\r\n        }\r\n        user.rewardDebt = user.amount*pool.accPursePerShare/1e12;\r\n\r\n        emit ClaimReward(msg.sender, pending);\r\n    }\r\n\r\n    function capMintTokenUpdate (uint256 _newCap) public onlyOwner {\r\n        capMintToken = _newCap;\r\n    }\r\n\r\n    // Safe purse transfer function, just in case if rounding error causes pool to not have enough PURSEs.\r\n    function safePurseTransfer(address _to, uint256 _amount) internal {\r\n        uint256 purseBal = purseToken.balanceOf(address(this));\r\n        if (_amount > purseBal) {\r\n            purseToken.transfer(_to, purseBal);\r\n        } else {\r\n            purseToken.transfer(_to, _amount);\r\n        }\r\n    }\r\n\r\n    // Withdraw without caring about rewards. EMERGENCY ONLY.\r\n    function emergencyWithdraw(IERC20Upgradeable _lpToken) public poolExist(_lpToken) {\r\n        PoolInfo storage pool = poolInfo[_lpToken];\r\n        UserInfo storage user = userInfo[_lpToken][msg.sender];\r\n        require(user.amount > 0, \"Emergency Withdraw: not good\");\r\n        uint256 amount = user.amount;\r\n        user.amount = 0;\r\n        user.rewardDebt = 0;\r\n        pool.lpToken.safeTransfer(address(msg.sender), amount);\r\n        emit EmergencyWithdraw(msg.sender, _lpToken, amount);\r\n    }\r\n\r\n    // Recover any token function, just in case if any user transfer token into the smart contract. \r\n    function recoverToken(address token, uint256 amount, address _to) public onlyOwner{\r\n        require(_to != address(0), \"send to the zero address\");\r\n        IERC20Upgradeable(token).safeTransfer(_to, amount);\r\n    }\r\n\r\n     // View function to see pending PURSEs on frontend.\r\n    function pendingReward(IERC20Upgradeable _lpToken, address _user) external view poolExist(_lpToken) returns (uint256) {\r\n        PoolInfo memory pool = poolInfo[_lpToken];\r\n        UserInfo memory user = userInfo[_lpToken][_user];\r\n        uint256 accPursePerShare = pool.accPursePerShare;\r\n        uint256 lpSupply = pool.lpToken.balanceOf(address(this));\r\n        uint256 purseBal = purseToken.balanceOf(address(this));\r\n        uint256 pendingPurseMint = capMintToken - totalMintToken;\r\n        uint256 totalPurseSupply = purseBal + pendingPurseMint;\r\n        uint256 multiplier;\r\n        if (block.number > pool.lastRewardBlock && lpSupply != 0) {\r\n            multiplier = getMultiplier(pool.lastRewardBlock, block.number);\r\n            uint256 purseReward = multiplier*pool.pursePerBlock*pool.bonusMultiplier;\r\n            accPursePerShare = accPursePerShare+(purseReward*(1e12)/lpSupply);\r\n        }\r\n        uint256 pending = user.amount*(accPursePerShare)/(1e12)-(user.rewardDebt);\r\n\r\n        if (pending > totalPurseSupply) {\r\n            pending = totalPurseSupply;\r\n        }\r\n\r\n        return (pending);\r\n    }\r\n\r\n    function pause() public whenNotPaused onlyOwner {\r\n        _pause();\r\n    }\r\n\r\n    function unpause() public whenPaused onlyOwner {\r\n        _unpause();\r\n    }\r\n\r\n    function _authorizeUpgrade(address) internal override onlyOwner {}\r\n\r\n    function initialize(PurseToken _purseToken, uint256 _capMintToken) public initializer {\r\n        name = \"LP Token Restaking Farm\";\r\n        purseToken = _purseToken;\r\n        capMintToken = _capMintToken;\r\n        __Pausable_init();\r\n        __Ownable_init();\r\n        __UUPSUpgradeable_init();\r\n    }\r\n\r\n}",
  "sourcePath": "C:/Users/cheek/Desktop/Developer doc/Visual Studio Code/PundiX/lpTokenRestakingFarm/src/contracts/RestakingFarm.sol",
  "compiler": {
    "name": "solc",
    "version": "0.8.7+commit.e28d00a7.Emscripten.clang"
  },
  "schemaVersion": "3.2.3",
  "updatedAt": "2021-11-25T04:12:33.954Z",
  "networkType": "ethereum",
  "devdoc": {
    "kind": "dev",
    "methods": {
      "owner()": {
        "details": "Returns the address of the current owner."
      },
      "paused()": {
        "details": "Returns true if the contract is paused, and false otherwise."
      },
      "renounceOwnership()": {
        "details": "Leaves the contract without owner. It will not be possible to call `onlyOwner` functions anymore. Can only be called by the current owner. NOTE: Renouncing ownership will leave the contract without an owner, thereby removing any functionality that is only available to the owner."
      },
      "transferOwnership(address)": {
        "details": "Transfers ownership of the contract to a new account (`newOwner`). Can only be called by the current owner."
      },
      "upgradeTo(address)": {
        "details": "Upgrade the implementation of the proxy to `newImplementation`. Calls {_authorizeUpgrade}. Emits an {Upgraded} event."
      },
      "upgradeToAndCall(address,bytes)": {
        "details": "Upgrade the implementation of the proxy to `newImplementation`, and subsequently execute the function call encoded in `data`. Calls {_authorizeUpgrade}. Emits an {Upgraded} event."
      }
    },
    "version": 1
  },
  "userdoc": {
    "kind": "user",
    "methods": {},
    "version": 1
  }
}