{
  "contractName": "RestakingFarm",
  "abi": [
    {
      "inputs": [
        {
          "internalType": "contract PurseToken",
          "name": "_purseToken",
          "type": "address"
        },
        {
          "internalType": "uint256",
          "name": "_capMintToken",
          "type": "uint256"
        }
      ],
      "stateMutability": "nonpayable",
      "type": "constructor"
    },
    {
      "anonymous": false,
      "inputs": [
        {
          "indexed": true,
          "internalType": "address",
          "name": "owner",
          "type": "address"
        },
        {
          "indexed": true,
          "internalType": "contract IERC20",
          "name": "_lpToken",
          "type": "address"
        },
        {
          "indexed": false,
          "internalType": "uint256",
          "name": "_pursePerBlock",
          "type": "uint256"
        },
        {
          "indexed": false,
          "internalType": "uint256",
          "name": "_bonusMultiplier",
          "type": "uint256"
        },
        {
          "indexed": false,
          "internalType": "uint256",
          "name": "_startBlock",
          "type": "uint256"
        }
      ],
      "name": "AddNewPool",
      "type": "event"
    },
    {
      "anonymous": false,
      "inputs": [
        {
          "indexed": true,
          "internalType": "address",
          "name": "user",
          "type": "address"
        },
        {
          "indexed": false,
          "internalType": "uint256",
          "name": "amount",
          "type": "uint256"
        }
      ],
      "name": "ClaimReward",
      "type": "event"
    },
    {
      "anonymous": false,
      "inputs": [
        {
          "indexed": true,
          "internalType": "address",
          "name": "user",
          "type": "address"
        },
        {
          "indexed": false,
          "internalType": "uint256",
          "name": "amount",
          "type": "uint256"
        }
      ],
      "name": "Deposit",
      "type": "event"
    },
    {
      "anonymous": false,
      "inputs": [
        {
          "indexed": true,
          "internalType": "address",
          "name": "previousOwner",
          "type": "address"
        },
        {
          "indexed": true,
          "internalType": "address",
          "name": "newOwner",
          "type": "address"
        }
      ],
      "name": "OwnershipTransferred",
      "type": "event"
    },
    {
      "anonymous": false,
      "inputs": [
        {
          "indexed": true,
          "internalType": "address",
          "name": "owner",
          "type": "address"
        },
        {
          "indexed": true,
          "internalType": "uint256",
          "name": "_pid",
          "type": "uint256"
        },
        {
          "indexed": false,
          "internalType": "uint256",
          "name": "_pursePerBlock",
          "type": "uint256"
        },
        {
          "indexed": false,
          "internalType": "uint256",
          "name": "_bonusMultiplier",
          "type": "uint256"
        }
      ],
      "name": "UpdatePoolReward",
      "type": "event"
    },
    {
      "anonymous": false,
      "inputs": [
        {
          "indexed": true,
          "internalType": "address",
          "name": "user",
          "type": "address"
        },
        {
          "indexed": false,
          "internalType": "uint256",
          "name": "amount",
          "type": "uint256"
        }
      ],
      "name": "Withdraw",
      "type": "event"
    },
    {
      "inputs": [],
      "name": "capMintToken",
      "outputs": [
        {
          "internalType": "uint256",
          "name": "",
          "type": "uint256"
        }
      ],
      "stateMutability": "view",
      "type": "function",
      "constant": true
    },
    {
      "inputs": [],
      "name": "name",
      "outputs": [
        {
          "internalType": "string",
          "name": "",
          "type": "string"
        }
      ],
      "stateMutability": "view",
      "type": "function",
      "constant": true
    },
    {
      "inputs": [],
      "name": "owner",
      "outputs": [
        {
          "internalType": "address",
          "name": "",
          "type": "address"
        }
      ],
      "stateMutability": "view",
      "type": "function",
      "constant": true
    },
    {
      "inputs": [
        {
          "internalType": "address",
          "name": "",
          "type": "address"
        }
      ],
      "name": "poolId",
      "outputs": [
        {
          "internalType": "uint256",
          "name": "",
          "type": "uint256"
        }
      ],
      "stateMutability": "view",
      "type": "function",
      "constant": true
    },
    {
      "inputs": [
        {
          "internalType": "uint256",
          "name": "",
          "type": "uint256"
        }
      ],
      "name": "poolInfo",
      "outputs": [
        {
          "internalType": "contract IERC20",
          "name": "lpToken",
          "type": "address"
        },
        {
          "internalType": "uint256",
          "name": "pursePerBlock",
          "type": "uint256"
        },
        {
          "internalType": "uint256",
          "name": "bonusMultiplier",
          "type": "uint256"
        },
        {
          "internalType": "uint256",
          "name": "lastRewardBlock",
          "type": "uint256"
        },
        {
          "internalType": "uint256",
          "name": "accPursePerShare",
          "type": "uint256"
        },
        {
          "internalType": "uint256",
          "name": "startBlock",
          "type": "uint256"
        }
      ],
      "stateMutability": "view",
      "type": "function",
      "constant": true
    },
    {
      "inputs": [],
      "name": "purseToken",
      "outputs": [
        {
          "internalType": "contract PurseToken",
          "name": "",
          "type": "address"
        }
      ],
      "stateMutability": "view",
      "type": "function",
      "constant": true
    },
    {
      "inputs": [],
      "name": "renounceOwnership",
      "outputs": [],
      "stateMutability": "nonpayable",
      "type": "function"
    },
    {
      "inputs": [],
      "name": "totalMintToken",
      "outputs": [
        {
          "internalType": "uint256",
          "name": "",
          "type": "uint256"
        }
      ],
      "stateMutability": "view",
      "type": "function",
      "constant": true
    },
    {
      "inputs": [
        {
          "internalType": "address",
          "name": "newOwner",
          "type": "address"
        }
      ],
      "name": "transferOwnership",
      "outputs": [],
      "stateMutability": "nonpayable",
      "type": "function"
    },
    {
      "inputs": [
        {
          "internalType": "uint256",
          "name": "",
          "type": "uint256"
        },
        {
          "internalType": "address",
          "name": "",
          "type": "address"
        }
      ],
      "name": "userInfo",
      "outputs": [
        {
          "internalType": "uint256",
          "name": "amount",
          "type": "uint256"
        },
        {
          "internalType": "uint256",
          "name": "rewardDebt",
          "type": "uint256"
        }
      ],
      "stateMutability": "view",
      "type": "function",
      "constant": true
    },
    {
      "inputs": [],
      "name": "poolLength",
      "outputs": [
        {
          "internalType": "uint256",
          "name": "",
          "type": "uint256"
        }
      ],
      "stateMutability": "view",
      "type": "function",
      "constant": true
    },
    {
      "inputs": [
        {
          "internalType": "contract IERC20",
          "name": "_lpToken",
          "type": "address"
        },
        {
          "internalType": "uint256",
          "name": "_pursePerBlock",
          "type": "uint256"
        },
        {
          "internalType": "uint256",
          "name": "_bonusMultiplier",
          "type": "uint256"
        },
        {
          "internalType": "uint256",
          "name": "_startBlock",
          "type": "uint256"
        }
      ],
      "name": "add",
      "outputs": [],
      "stateMutability": "nonpayable",
      "type": "function"
    },
    {
      "inputs": [
        {
          "internalType": "uint256",
          "name": "_pid",
          "type": "uint256"
        },
        {
          "internalType": "uint256",
          "name": "_pursePerBlock",
          "type": "uint256"
        },
        {
          "internalType": "uint256",
          "name": "_bonusMultiplier",
          "type": "uint256"
        }
      ],
      "name": "set",
      "outputs": [],
      "stateMutability": "nonpayable",
      "type": "function"
    },
    {
      "inputs": [
        {
          "internalType": "uint256",
          "name": "_from",
          "type": "uint256"
        },
        {
          "internalType": "uint256",
          "name": "_to",
          "type": "uint256"
        }
      ],
      "name": "getMultiplier",
      "outputs": [
        {
          "internalType": "uint256",
          "name": "",
          "type": "uint256"
        }
      ],
      "stateMutability": "pure",
      "type": "function",
      "constant": true
    },
    {
      "inputs": [
        {
          "internalType": "uint256",
          "name": "_pid",
          "type": "uint256"
        }
      ],
      "name": "updatePool",
      "outputs": [],
      "stateMutability": "nonpayable",
      "type": "function"
    },
    {
      "inputs": [
        {
          "internalType": "uint256",
          "name": "_pid",
          "type": "uint256"
        },
        {
          "internalType": "uint256",
          "name": "_amount",
          "type": "uint256"
        }
      ],
      "name": "deposit",
      "outputs": [],
      "stateMutability": "nonpayable",
      "type": "function"
    },
    {
      "inputs": [
        {
          "internalType": "uint256",
          "name": "_pid",
          "type": "uint256"
        },
        {
          "internalType": "uint256",
          "name": "_amount",
          "type": "uint256"
        }
      ],
      "name": "withdraw",
      "outputs": [],
      "stateMutability": "nonpayable",
      "type": "function"
    },
    {
      "inputs": [
        {
          "internalType": "uint256",
          "name": "_pid",
          "type": "uint256"
        }
      ],
      "name": "claimReward",
      "outputs": [],
      "stateMutability": "nonpayable",
      "type": "function"
    },
    {
      "inputs": [
        {
          "internalType": "uint256",
          "name": "_newCap",
          "type": "uint256"
        }
      ],
      "name": "capMintTokenUpdate",
      "outputs": [],
      "stateMutability": "nonpayable",
      "type": "function"
    },
    {
      "inputs": [
        {
          "internalType": "uint256",
          "name": "_pid",
          "type": "uint256"
        },
        {
          "internalType": "address",
          "name": "_user",
          "type": "address"
        }
      ],
      "name": "pendingReward",
      "outputs": [
        {
          "internalType": "uint256",
          "name": "",
          "type": "uint256"
        }
      ],
      "stateMutability": "view",
      "type": "function",
      "constant": true
    }
  ],
  "bytecode": "0x60c0604052600d60808190527f52657374616b696e674661726d0000000000000000000000000000000000000060a0908152620000409160019190620000f6565b503480156200004e57600080fd5b5060405162001be038038062001be083398101604081905262000071916200019c565b6200007c33620000a6565b600280546001600160a01b0319166001600160a01b0393909316929092179091556005556200022e565b600080546001600160a01b038381166001600160a01b0319831681178455604051919092169283917f8be0079c531659141344cd1fd0a4f28419497f9722a3daafe3b4186f6b6457e09190a35050565b8280546200010490620001d8565b90600052602060002090601f01602090048101928262000128576000855562000173565b82601f106200014357805160ff191683800117855562000173565b8280016001018555821562000173579182015b828111156200017357825182559160200191906001019062000156565b506200018192915062000185565b5090565b5b8082111562000181576000815560010162000186565b60008060408385031215620001b057600080fd5b82516001600160a01b0381168114620001c857600080fd5b6020939093015192949293505050565b600181811c90821680620001ed57607f821691505b6020821081141562000228577f4e487b7100000000000000000000000000000000000000000000000000000000600052602260045260246000fd5b50919050565b6119a2806200023e6000396000f3fe608060405234801561001057600080fd5b506004361061012c5760003560e01c80638da5cb5b116100ad578063ae169a5011610071578063ae169a50146102c6578063e2bbb158146102d9578063e2d16c44146102ec578063f2fde38b146102f5578063ff51a2721461030857600080fd5b80638da5cb5b1461023f5780638dbb1e3a1461025057806393f1a40b1461026357806398969e82146102aa578063ac854ac5146102bd57600080fd5b806343b0e8df116100f457806343b0e8df146101d3578063441a3e70146101e657806351bf16ef146101f957806351eb05a614610224578063715018a61461023757600080fd5b806306fdde0314610131578063081e3eda1461014f5780631526fe27146101615780632df2fb73146101ab57806337c5a556146101c0575b600080fd5b610139610328565b60405161014691906117c2565b60405180910390f35b6003545b604051908152602001610146565b61017461016f3660046116f6565b6103b6565b604080516001600160a01b0390971687526020870195909552938501929092526060840152608083015260a082015260c001610146565b6101be6101b93660046116bb565b610406565b005b6101be6101ce3660046116f6565b61066e565b6101be6101e136600461177a565b61069d565b6101be6101f4366004611758565b610760565b60025461020c906001600160a01b031681565b6040516001600160a01b039091168152602001610146565b6101be6102323660046116f6565b610972565b6101be610bff565b6000546001600160a01b031661020c565b61015361025e366004611758565b610c35565b610295610271366004611728565b60076020908152600092835260408084209091529082529020805460019091015482565b60408051928352602083019190915201610146565b6101536102b8366004611728565b610c48565b61015360055481565b6101be6102d43660046116f6565b610de4565b6101be6102e7366004611758565b610f84565b61015360045481565b6101be61030336600461167c565b61115a565b61015361031636600461167c565b60066020526000908152604090205481565b60018054610335906118f0565b80601f0160208091040260200160405190810160405280929190818152602001828054610361906118f0565b80156103ae5780601f10610383576101008083540402835291602001916103ae565b820191906000526020600020905b81548152906001019060200180831161039157829003601f168201915b505050505081565b600381815481106103c657600080fd5b60009182526020909120600690910201805460018201546002830154600384015460048501546005909501546001600160a01b0390941695509193909286565b6000546001600160a01b031633146104395760405162461bcd60e51b81526004016104309061181f565b60405180910390fd5b6001600160a01b038416600090815260066020526040902054156104aa5760405162461bcd60e51b815260206004820152602260248201527f4661726d65723a3a6164643a206c7020697320616c726561647920696e20706f6044820152611bdb60f21b6064820152608401610430565b60008143116104b957816104bb565b435b6003549091506104cc906001611854565b6001600160a01b03868116600081815260066020818152604080842096909655855160c0810187528481528082018b81528188018b815260608084018b81526080850188815260a086018e8152600380546001810182559a5295517fc2575a0e9e593c00f959f8c92f12db2869c3395a3b0502d05e2516446f71f85b9990980298890180546001600160a01b03191698909b169790971790995591517fc2575a0e9e593c00f959f8c92f12db2869c3395a3b0502d05e2516446f71f85c870155517fc2575a0e9e593c00f959f8c92f12db2869c3395a3b0502d05e2516446f71f85d86015595517fc2575a0e9e593c00f959f8c92f12db2869c3395a3b0502d05e2516446f71f85e85015591517fc2575a0e9e593c00f959f8c92f12db2869c3395a3b0502d05e2516446f71f85f84015590517fc2575a0e9e593c00f959f8c92f12db2869c3395a3b0502d05e2516446f71f8609092019190915583518881529081018790529283018590529133917f2474bccb27f5e5e41c50b70eb93dac4cf5e7ba77949576a24c670ebeab2b5f2f91015b60405180910390a35050505050565b6000546001600160a01b031633146106985760405162461bcd60e51b81526004016104309061181f565b600555565b6000546001600160a01b031633146106c75760405162461bcd60e51b81526004016104309061181f565b600354839081106106ea5760405162461bcd60e51b8152600401610430906117f5565b6000600385815481106106ff576106ff611941565b9060005260206000209060060201905061071885610972565b60018101849055600281018390556040805185815260208101859052869133917fb723f8f6505fc383fcab094d999dd9cd624d9e53a8fd017fd4d0d2906f6de95d910161065f565b600354829081106107835760405162461bcd60e51b8152600401610430906117f5565b60006003848154811061079857610798611941565b6000918252602080832087845260078252604080852033865290925292208054600690920290920192508411156108065760405162461bcd60e51b81526020600482015260126024820152711dda5d1a191c985dce881b9bdd0819dbdbd960721b6044820152606401610430565b61080f85610972565b6000816001015464e8d4a5100084600401548460000154610830919061188e565b61083a919061186c565b61084491906118ad565b6002546040516370a0823160e01b81523060048201529192506000916001600160a01b03909116906370a082319060240160206040518083038186803b15801561088d57600080fd5b505afa1580156108a1573d6000803e3d6000fd5b505050506040513d601f19601f820116820180604052508101906108c5919061170f565b9050808211156108d3578091505b81156108e3576108e333836111f5565b851561090e5782546108f69087906118ad565b8355835461090e906001600160a01b03163388611346565b6004840154835464e8d4a51000916109259161188e565b61092f919061186c565b600184015560405186815233907f884edad9ce6fa2440d8a54cc123490eb96d2768479d49ff9c7366125a94243649060200160405180910390a250505050505050565b600354819081106109955760405162461bcd60e51b8152600401610430906117f5565b6000600383815481106109aa576109aa611941565b90600052602060002090600602019050806003015443116109ca57505050565b80546040516370a0823160e01b81523060048201526000916001600160a01b0316906370a082319060240160206040518083038186803b158015610a0d57600080fd5b505afa158015610a21573d6000803e3d6000fd5b505050506040513d601f19601f82011682018060405250810190610a45919061170f565b905080610a585750436003909101555050565b6000610a68836003015443610c35565b905060008360020154846001015483610a81919061188e565b610a8b919061188e565b90506005546004541015610bc05760055481600454610aaa9190611854565b10610b44576000600454600554610ac191906118ad565b90508060046000828254610ad59190611854565b90915550506002546040516340c10f1960e01b8152306004820152602481018390526001600160a01b03909116906340c10f1990604401600060405180830381600087803b158015610b2657600080fd5b505af1158015610b3a573d6000803e3d6000fd5b5050505050610bc0565b8060046000828254610b569190611854565b90915550506002546040516340c10f1960e01b8152306004820152602481018390526001600160a01b03909116906340c10f1990604401600060405180830381600087803b158015610ba757600080fd5b505af1158015610bbb573d6000803e3d6000fd5b505050505b82610bd08264e8d4a5100061188e565b610bda919061186c565b8460040154610be99190611854565b6004850155505043600390920191909155505050565b6000546001600160a01b03163314610c295760405162461bcd60e51b81526004016104309061181f565b610c3360006113a9565b565b6000610c4183836118ad565b9392505050565b60035460009083908110610c6e5760405162461bcd60e51b8152600401610430906117f5565b600060038581548110610c8357610c83611941565b600091825260208083208884526007825260408085206001600160a01b038a811687529352808520600460069590950290920184810154815492516370a0823160e01b8152309681019690965290965091949193919216906370a082319060240160206040518083038186803b158015610cfc57600080fd5b505afa158015610d10573d6000803e3d6000fd5b505050506040513d601f19601f82011682018060405250810190610d34919061170f565b90506000846003015443118015610d4a57508115155b15610daa57610d5d856003015443610c35565b905060008560020154866001015483610d76919061188e565b610d80919061188e565b905082610d928264e8d4a5100061188e565b610d9c919061186c565b610da69085611854565b9350505b6001840154845464e8d4a5100090610dc390869061188e565b610dcd919061186c565b610dd791906118ad565b9998505050505050505050565b60035481908110610e075760405162461bcd60e51b8152600401610430906117f5565b600060038381548110610e1c57610e1c611941565b60009182526020808320868452600782526040808520338652909252922060069091029091019150610e4d84610972565b6000816001015464e8d4a5100084600401548460000154610e6e919061188e565b610e78919061186c565b610e8291906118ad565b6002546040516370a0823160e01b81523060048201529192506000916001600160a01b03909116906370a082319060240160206040518083038186803b158015610ecb57600080fd5b505afa158015610edf573d6000803e3d6000fd5b505050506040513d601f19601f82011682018060405250810190610f03919061170f565b905080821115610f11578091505b8115610f2157610f2133836111f5565b6004840154835464e8d4a5100091610f389161188e565b610f42919061186c565b600184015560405182815233907fba8de60c3403ec381d1d484652ea1980e3c3e56359195c92525bff4ce47ad98e9060200160405180910390a2505050505050565b60035482908110610fa75760405162461bcd60e51b8152600401610430906117f5565b600060038481548110610fbc57610fbc611941565b60009182526020808320878452600782526040808520338652909252922060069091029091019150610fed85610972565b8054156110cb576000816001015464e8d4a5100084600401548460000154611015919061188e565b61101f919061186c565b61102991906118ad565b6002546040516370a0823160e01b81523060048201529192506000916001600160a01b03909116906370a082319060240160206040518083038186803b15801561107257600080fd5b505afa158015611086573d6000803e3d6000fd5b505050506040513d601f19601f820116820180604052508101906110aa919061170f565b9050808211156110b8578091505b81156110c8576110c833836111f5565b50505b83156110f85781546110e8906001600160a01b03163330876113f9565b80546110f5908590611854565b81555b6004820154815464e8d4a510009161110f9161188e565b611119919061186c565b600182015560405184815233907fe1fffcc4923d04b559f4d29a8bfc6cda04eb5b0d3c460751c2402c5c5cc9109c9060200160405180910390a25050505050565b6000546001600160a01b031633146111845760405162461bcd60e51b81526004016104309061181f565b6001600160a01b0381166111e95760405162461bcd60e51b815260206004820152602660248201527f4f776e61626c653a206e6577206f776e657220697320746865207a65726f206160448201526564647265737360d01b6064820152608401610430565b6111f2816113a9565b50565b6002546040516370a0823160e01b81523060048201526000916001600160a01b0316906370a082319060240160206040518083038186803b15801561123957600080fd5b505afa15801561124d573d6000803e3d6000fd5b505050506040513d601f19601f82011682018060405250810190611271919061170f565b9050808211156113085760025460405163a9059cbb60e01b81526001600160a01b038581166004830152602482018490529091169063a9059cbb906044015b602060405180830381600087803b1580156112ca57600080fd5b505af11580156112de573d6000803e3d6000fd5b505050506040513d601f19601f820116820180604052508101906113029190611699565b50505050565b60025460405163a9059cbb60e01b81526001600160a01b038581166004830152602482018590529091169063a9059cbb906044016112b0565b505050565b6040516001600160a01b03831660248201526044810182905261134190849063a9059cbb60e01b906064015b60408051601f198184030181529190526020810180516001600160e01b03166001600160e01b031990931692909217909152611431565b600080546001600160a01b038381166001600160a01b0319831681178455604051919092169283917f8be0079c531659141344cd1fd0a4f28419497f9722a3daafe3b4186f6b6457e09190a35050565b6040516001600160a01b03808516602483015283166044820152606481018290526113029085906323b872dd60e01b90608401611372565b6000611486826040518060400160405280602081526020017f5361666545524332303a206c6f772d6c6576656c2063616c6c206661696c6564815250856001600160a01b03166115039092919063ffffffff16565b80519091501561134157808060200190518101906114a49190611699565b6113415760405162461bcd60e51b815260206004820152602a60248201527f5361666545524332303a204552433230206f7065726174696f6e20646964206e6044820152691bdd081cdd58d8d9595960b21b6064820152608401610430565b6060611512848460008561151a565b949350505050565b6060303183111561157c5760405162461bcd60e51b815260206004820152602660248201527f416464726573733a20696e73756666696369656e742062616c616e636520666f6044820152651c8818d85b1b60d21b6064820152608401610430565b843b6115ca5760405162461bcd60e51b815260206004820152601d60248201527f416464726573733a2063616c6c20746f206e6f6e2d636f6e74726163740000006044820152606401610430565b600080866001600160a01b031685876040516115e691906117a6565b60006040518083038185875af1925050503d8060008114611623576040519150601f19603f3d011682016040523d82523d6000602084013e611628565b606091505b5091509150611638828286611643565b979650505050505050565b60608315611652575081610c41565b8251156116625782518084602001fd5b8160405162461bcd60e51b815260040161043091906117c2565b60006020828403121561168e57600080fd5b8135610c4181611957565b6000602082840312156116ab57600080fd5b81518015158114610c4157600080fd5b600080600080608085870312156116d157600080fd5b84356116dc81611957565b966020860135965060408601359560600135945092505050565b60006020828403121561170857600080fd5b5035919050565b60006020828403121561172157600080fd5b5051919050565b6000806040838503121561173b57600080fd5b82359150602083013561174d81611957565b809150509250929050565b6000806040838503121561176b57600080fd5b50508035926020909101359150565b60008060006060848603121561178f57600080fd5b505081359360208301359350604090920135919050565b600082516117b88184602087016118c4565b9190910192915050565b60208152600082518060208401526117e18160408501602087016118c4565b601f01601f19169190910160400192915050565b60208082526010908201526f141bdbdb081b9bdd08195e1a5cdd195960821b604082015260600190565b6020808252818101527f4f776e61626c653a2063616c6c6572206973206e6f7420746865206f776e6572604082015260600190565b600082198211156118675761186761192b565b500190565b60008261188957634e487b7160e01b600052601260045260246000fd5b500490565b60008160001904831182151516156118a8576118a861192b565b500290565b6000828210156118bf576118bf61192b565b500390565b60005b838110156118df5781810151838201526020016118c7565b838111156113025750506000910152565b600181811c9082168061190457607f821691505b6020821081141561192557634e487b7160e01b600052602260045260246000fd5b50919050565b634e487b7160e01b600052601160045260246000fd5b634e487b7160e01b600052603260045260246000fd5b6001600160a01b03811681146111f257600080fdfea264697066735822122053eccdf560996bb18cfe68c4e300439db956ddb166ee6cef513ae8ed0cc2d10864736f6c63430008070033",
  "immutableReferences": {},
  "source": "// SPDX-License-Identifier: UNLICENSED\r\n\r\npragma solidity ^0.8.0;\r\n\r\nimport \"@openzeppelin/contracts/access/Ownable.sol\";\r\nimport \"@openzeppelin/contracts/token/ERC20/IERC20.sol\";\r\nimport \"@openzeppelin/contracts/token/ERC20/utils/SafeERC20.sol\";\r\n \r\ninterface PurseToken {\r\n\r\n    function transfer(address to, uint tokens) external  returns (bool success);\r\n\r\n    function mint(address to, uint tokens) external;\r\n\r\n    function transferFrom(address from, address to, uint tokens) external  returns (bool success);\r\n\r\n    function balanceOf(address tokenOwner) external view returns (uint balance);\r\n\r\n}\r\n\r\ncontract RestakingFarm is Ownable{\r\n    using SafeERC20 for IERC20;\r\n\r\n    // ---Contract Variables---\r\n    string public name = \"RestakingFarm\";\r\n\r\n    // Userinfo\r\n    struct UserInfo {\r\n        uint256 amount;     // How many LP tokens the user has provided.\r\n        uint256 rewardDebt; // Reward debt. See explanation below.\r\n        //\r\n        // We do some fancy math here. Basically, any point in time, the amount of PURSEs\r\n        // entitled to a user but is pending to be distributed is:\r\n        //\r\n        //   pending reward = (user.amount * pool.accPursePerShare) - user.rewardDebt\r\n        //\r\n        // Whenever a user deposits or withdraws LP tokens to a pool. Here's what happens:\r\n        //   1. The pool's `accPursePerShare` (and `lastRewardBlock`) gets updated.\r\n        //   2. User receives the pending reward sent to his/her address.\r\n        //   3. User's `amount` gets updated.\r\n        //   4. User's `rewardDebt` gets updated.\r\n    }\r\n    \r\n    // Info of each pool.\r\n    struct PoolInfo {\r\n        IERC20 lpToken;           // Address of LP token contract.\r\n        uint256 pursePerBlock;\r\n        uint256 bonusMultiplier;\r\n        uint256 lastRewardBlock;  // Last block number that PURSEs distribution occurs.\r\n        uint256 accPursePerShare; // Accumulated PURSEs per share, times 1e12. See below.\r\n        uint256 startBlock;\r\n    }\r\n\r\n    // The PURSE TOKEN!\r\n    PurseToken public purseToken;\r\n    PoolInfo[] public poolInfo;\r\n    uint256 public totalMintToken;    \r\n    uint256 public capMintToken;\r\n    mapping(address => uint256) public poolId;  // poolId count from 1, need to subtract by 1 before using with variable poolInfo\r\n\r\n    // Info of each user that stakes LP tokens.\r\n    mapping (uint256 => mapping (address => UserInfo)) public userInfo;\r\n\r\n    event Deposit(address indexed user, uint256 amount);\r\n    event Withdraw(address indexed user, uint256 amount);\r\n    event AddNewPool(address indexed owner, IERC20 indexed _lpToken, uint256 _pursePerBlock, uint256 _bonusMultiplier, uint256 _startBlock);\r\n    event UpdatePoolReward(address indexed owner, uint256 indexed _pid, uint256 _pursePerBlock, uint256 _bonusMultiplier);\r\n    event ClaimReward(address indexed user, uint256 amount);\r\n\r\n    modifier poolExist(uint256 _pid) {\r\n        require( _pid < poolInfo.length, \"Pool not existed\");\r\n        _;\r\n    }\r\n\r\n    constructor(\r\n        PurseToken _purseToken,\r\n        uint256 _capMintToken\r\n    ) {\r\n        purseToken = _purseToken;\r\n        capMintToken = _capMintToken;\r\n        }    \r\n\r\n    function poolLength() external view returns (uint256) {\r\n        return poolInfo.length;\r\n    }\r\n    // Add a new lp to the pool. Can only be called by the owner.\r\n    function add(IERC20 _lpToken, uint256 _pursePerBlock, uint256 _bonusMultiplier, uint256 _startBlock) public onlyOwner {\r\n        require(poolId[address(_lpToken)] == 0, \"Farmer::add: lp is already in pool\");\r\n        uint256 lastRewardBlock = block.number > _startBlock ? block.number : _startBlock;\r\n        poolId[address(_lpToken)] = poolInfo.length + 1;\r\n        poolInfo.push(PoolInfo({\r\n            lpToken: _lpToken,\r\n            pursePerBlock : _pursePerBlock,\r\n            bonusMultiplier: _bonusMultiplier,\r\n            lastRewardBlock: lastRewardBlock,\r\n            accPursePerShare: 0,\r\n            startBlock: _startBlock\r\n        }));\r\n        emit AddNewPool(msg.sender, _lpToken, _pursePerBlock, _bonusMultiplier, _startBlock);\r\n    }\r\n\r\n    // Update the given pool's PURSE _pursePerBlock. Can only be called by the owner.\r\n    function set(uint256 _pid, uint256 _pursePerBlock, uint256 _bonusMultiplier) public onlyOwner poolExist(_pid){\r\n        PoolInfo storage pool = poolInfo[_pid];\r\n        updatePool(_pid);\r\n        pool.pursePerBlock = _pursePerBlock;\r\n        pool.bonusMultiplier= _bonusMultiplier;\r\n        emit UpdatePoolReward(msg.sender, _pid, _pursePerBlock, _bonusMultiplier );\r\n    }\r\n\r\n    // Return reward multiplier over the given _from to _to block.\r\n    function getMultiplier(uint256 _from, uint256 _to) public pure returns (uint256) {\r\n        return _to-_from;\r\n    }\r\n\r\n    // Update reward variables of the given pool to be up-to-date.\r\n    function updatePool(uint256 _pid) public poolExist(_pid){\r\n        PoolInfo storage pool = poolInfo[_pid];\r\n        if (block.number <= pool.lastRewardBlock) {\r\n            return;\r\n        }\r\n        uint256 lpSupply = pool.lpToken.balanceOf(address(this));\r\n        if (lpSupply == 0) {\r\n            pool.lastRewardBlock = block.number;\r\n            return;\r\n        }\r\n        uint256 multiplier = getMultiplier(pool.lastRewardBlock, block.number);\r\n        uint256 purseReward = multiplier*pool.pursePerBlock*pool.bonusMultiplier;\r\n        if (totalMintToken < capMintToken) {\r\n            if (totalMintToken + purseReward >= capMintToken) {\r\n                uint256 PurseCanMint = capMintToken-totalMintToken;\r\n                totalMintToken += PurseCanMint;\r\n                purseToken.mint(address(this), PurseCanMint);\r\n            } else {\r\n                totalMintToken += purseReward;\r\n                purseToken.mint(address(this), purseReward);\r\n            }\r\n        }\r\n        pool.accPursePerShare = pool.accPursePerShare+(purseReward*1e12/lpSupply);\r\n        pool.lastRewardBlock = block.number;\r\n    }\r\n\r\n    // Deposit LP tokens to Restaking Pool for Purse allocation.\r\n    function deposit(uint256 _pid, uint256 _amount) public poolExist(_pid) {        \r\n        PoolInfo storage pool = poolInfo[_pid];\r\n        // require(poolId[address(pool.lpToken)] != 0, \"Farmer::deposit: lp not exist\");\r\n        UserInfo storage user = userInfo[_pid][msg.sender];\r\n        updatePool(_pid);\r\n\r\n        if (user.amount > 0) {\r\n            uint256 pending = user.amount*pool.accPursePerShare/1e12-user.rewardDebt;\r\n            uint256 farmBal = purseToken.balanceOf(address(this));\r\n\r\n            if (pending > farmBal) {\r\n                pending = farmBal;\r\n            }\r\n            if(pending > 0) {\r\n                safePurseTransfer(msg.sender, pending);\r\n            }\r\n        }\r\n        if (_amount > 0) {\r\n            pool.lpToken.safeTransferFrom(address(msg.sender), address(this), _amount);\r\n            user.amount = user.amount+_amount;\r\n        }\r\n        user.rewardDebt = user.amount*pool.accPursePerShare/1e12;\r\n        emit Deposit(msg.sender, _amount);\r\n    }\r\n\r\n    // Withdraw LP tokens from MasterChef.\r\n    function withdraw(uint256 _pid, uint256 _amount) public poolExist(_pid){\r\n\r\n        PoolInfo storage pool = poolInfo[_pid];\r\n        UserInfo storage user = userInfo[_pid][msg.sender];\r\n        require(user.amount >= _amount, \"withdraw: not good\");\r\n\r\n        updatePool(_pid);\r\n        uint256 pending = user.amount*pool.accPursePerShare/1e12-user.rewardDebt;\r\n        uint256 farmBal = purseToken.balanceOf(address(this));\r\n\r\n        if (pending > farmBal) {\r\n            pending = farmBal;\r\n        }\r\n\r\n        if(pending > 0) {\r\n            safePurseTransfer(msg.sender, pending);\r\n        }\r\n        if(_amount > 0) {\r\n            user.amount = user.amount-_amount;\r\n            pool.lpToken.safeTransfer(address(msg.sender), _amount);\r\n        }\r\n        user.rewardDebt = user.amount*pool.accPursePerShare/1e12;\r\n        emit Withdraw(msg.sender, _amount);\r\n    }\r\n\r\n    // Harvest reward tokens from pool.\r\n    function claimReward(uint256 _pid) public poolExist(_pid){\r\n\r\n        PoolInfo storage pool = poolInfo[_pid];\r\n        UserInfo storage user = userInfo[_pid][msg.sender];\r\n\r\n        updatePool(_pid);\r\n        uint256 pending = user.amount*pool.accPursePerShare/1e12-user.rewardDebt;\r\n        uint256 farmBal = purseToken.balanceOf(address(this));\r\n\r\n        if (pending > farmBal) {\r\n            pending = farmBal;\r\n        }\r\n\r\n        if(pending > 0) {\r\n            safePurseTransfer(msg.sender, pending);\r\n        }\r\n        user.rewardDebt = user.amount*pool.accPursePerShare/1e12;\r\n\r\n        emit ClaimReward(msg.sender, pending);\r\n    }\r\n\r\n    function capMintTokenUpdate (uint256 _newCap) public onlyOwner {\r\n        capMintToken = _newCap;\r\n    }\r\n\r\n    // Safe purse transfer function, just in case if rounding error causes pool to not have enough PURSEs.\r\n    function safePurseTransfer(address _to, uint256 _amount) internal {\r\n        uint256 purseBal = purseToken.balanceOf(address(this));\r\n        if (_amount > purseBal) {\r\n            purseToken.transfer(_to, purseBal);\r\n        } else {\r\n            purseToken.transfer(_to, _amount);\r\n        }\r\n    }\r\n\r\n\r\n     // View function to see pending PURSEs on frontend.\r\n    function pendingReward(uint256 _pid, address _user) external view poolExist(_pid) returns (uint256) {\r\n        PoolInfo storage pool = poolInfo[_pid];\r\n        UserInfo storage user = userInfo[_pid][_user];\r\n        uint256 accPursePerShare = pool.accPursePerShare;\r\n        uint256 lpSupply = pool.lpToken.balanceOf(address(this));\r\n        uint256 multiplier;\r\n        if (block.number > pool.lastRewardBlock && lpSupply != 0) {\r\n            multiplier = getMultiplier(pool.lastRewardBlock, block.number);\r\n            uint256 purseReward = multiplier*pool.pursePerBlock*pool.bonusMultiplier;\r\n            accPursePerShare = accPursePerShare+(purseReward*(1e12)/lpSupply);\r\n        }\r\n        return (user.amount*(accPursePerShare)/(1e12)-(user.rewardDebt));\r\n    }\r\n}",
  "sourcePath": "C:/Users/cheek/Desktop/Developer doc/Visual Studio Code/PundiX/lpTokenRestakingFarm/src/contracts/RestakingFarm.sol",
  "compiler": {
    "name": "solc",
    "version": "0.8.7+commit.e28d00a7.Emscripten.clang"
  },
  "schemaVersion": "3.2.3",
  "updatedAt": "2021-11-16T13:50:46.045Z",
  "networkType": "ethereum",
  "devdoc": {
    "kind": "dev",
    "methods": {
      "owner()": {
        "details": "Returns the address of the current owner."
      },
      "renounceOwnership()": {
        "details": "Leaves the contract without owner. It will not be possible to call `onlyOwner` functions anymore. Can only be called by the current owner. NOTE: Renouncing ownership will leave the contract without an owner, thereby removing any functionality that is only available to the owner."
      },
      "transferOwnership(address)": {
        "details": "Transfers ownership of the contract to a new account (`newOwner`). Can only be called by the current owner."
      }
    },
    "version": 1
  },
  "userdoc": {
    "kind": "user",
    "methods": {},
    "version": 1
  }
}