{
  "contractName": "RestakingFarm",
  "abi": [
    {
      "inputs": [
        {
          "internalType": "contract PurseToken",
          "name": "_purseToken",
          "type": "address"
        },
        {
          "internalType": "uint256",
          "name": "_capMintToken",
          "type": "uint256"
        }
      ],
      "stateMutability": "nonpayable",
      "type": "constructor"
    },
    {
      "anonymous": false,
      "inputs": [
        {
          "indexed": true,
          "internalType": "address",
          "name": "owner",
          "type": "address"
        },
        {
          "indexed": true,
          "internalType": "contract IERC20",
          "name": "_lpToken",
          "type": "address"
        },
        {
          "indexed": false,
          "internalType": "uint256",
          "name": "_pursePerBlock",
          "type": "uint256"
        },
        {
          "indexed": false,
          "internalType": "bool",
          "name": "_withUpdate",
          "type": "bool"
        },
        {
          "indexed": false,
          "internalType": "uint256",
          "name": "_startBlock",
          "type": "uint256"
        }
      ],
      "name": "AddNewPool",
      "type": "event"
    },
    {
      "anonymous": false,
      "inputs": [
        {
          "indexed": true,
          "internalType": "address",
          "name": "user",
          "type": "address"
        },
        {
          "indexed": false,
          "internalType": "uint256",
          "name": "amount",
          "type": "uint256"
        }
      ],
      "name": "ClaimReward",
      "type": "event"
    },
    {
      "anonymous": false,
      "inputs": [
        {
          "indexed": true,
          "internalType": "address",
          "name": "user",
          "type": "address"
        },
        {
          "indexed": false,
          "internalType": "uint256",
          "name": "amount",
          "type": "uint256"
        }
      ],
      "name": "Deposit",
      "type": "event"
    },
    {
      "anonymous": false,
      "inputs": [
        {
          "indexed": true,
          "internalType": "address",
          "name": "previousOwner",
          "type": "address"
        },
        {
          "indexed": true,
          "internalType": "address",
          "name": "newOwner",
          "type": "address"
        }
      ],
      "name": "OwnershipTransferred",
      "type": "event"
    },
    {
      "anonymous": false,
      "inputs": [
        {
          "indexed": true,
          "internalType": "address",
          "name": "owner",
          "type": "address"
        },
        {
          "indexed": true,
          "internalType": "uint256",
          "name": "_pid",
          "type": "uint256"
        },
        {
          "indexed": false,
          "internalType": "uint256",
          "name": "_pursePerBlock",
          "type": "uint256"
        },
        {
          "indexed": false,
          "internalType": "bool",
          "name": "_withUpdate",
          "type": "bool"
        }
      ],
      "name": "UpdatePoolReward",
      "type": "event"
    },
    {
      "anonymous": false,
      "inputs": [
        {
          "indexed": true,
          "internalType": "address",
          "name": "user",
          "type": "address"
        },
        {
          "indexed": false,
          "internalType": "uint256",
          "name": "amount",
          "type": "uint256"
        }
      ],
      "name": "Withdraw",
      "type": "event"
    },
    {
      "inputs": [],
      "name": "capMintToken",
      "outputs": [
        {
          "internalType": "uint256",
          "name": "",
          "type": "uint256"
        }
      ],
      "stateMutability": "view",
      "type": "function",
      "constant": true
    },
    {
      "inputs": [],
      "name": "name",
      "outputs": [
        {
          "internalType": "string",
          "name": "",
          "type": "string"
        }
      ],
      "stateMutability": "view",
      "type": "function",
      "constant": true
    },
    {
      "inputs": [],
      "name": "owner",
      "outputs": [
        {
          "internalType": "address",
          "name": "",
          "type": "address"
        }
      ],
      "stateMutability": "view",
      "type": "function",
      "constant": true
    },
    {
      "inputs": [
        {
          "internalType": "address",
          "name": "",
          "type": "address"
        }
      ],
      "name": "poolId",
      "outputs": [
        {
          "internalType": "uint256",
          "name": "",
          "type": "uint256"
        }
      ],
      "stateMutability": "view",
      "type": "function",
      "constant": true
    },
    {
      "inputs": [
        {
          "internalType": "uint256",
          "name": "",
          "type": "uint256"
        }
      ],
      "name": "poolInfo",
      "outputs": [
        {
          "internalType": "contract IERC20",
          "name": "lpToken",
          "type": "address"
        },
        {
          "internalType": "uint256",
          "name": "pursePerBlock",
          "type": "uint256"
        },
        {
          "internalType": "uint256",
          "name": "lastRewardBlock",
          "type": "uint256"
        },
        {
          "internalType": "uint256",
          "name": "accPursePerShare",
          "type": "uint256"
        },
        {
          "internalType": "uint256",
          "name": "startBlock",
          "type": "uint256"
        }
      ],
      "stateMutability": "view",
      "type": "function",
      "constant": true
    },
    {
      "inputs": [],
      "name": "purseToken",
      "outputs": [
        {
          "internalType": "contract PurseToken",
          "name": "",
          "type": "address"
        }
      ],
      "stateMutability": "view",
      "type": "function",
      "constant": true
    },
    {
      "inputs": [],
      "name": "renounceOwnership",
      "outputs": [],
      "stateMutability": "nonpayable",
      "type": "function"
    },
    {
      "inputs": [],
      "name": "totalMintToken",
      "outputs": [
        {
          "internalType": "uint256",
          "name": "",
          "type": "uint256"
        }
      ],
      "stateMutability": "view",
      "type": "function",
      "constant": true
    },
    {
      "inputs": [
        {
          "internalType": "address",
          "name": "newOwner",
          "type": "address"
        }
      ],
      "name": "transferOwnership",
      "outputs": [],
      "stateMutability": "nonpayable",
      "type": "function"
    },
    {
      "inputs": [
        {
          "internalType": "uint256",
          "name": "",
          "type": "uint256"
        },
        {
          "internalType": "address",
          "name": "",
          "type": "address"
        }
      ],
      "name": "userInfo",
      "outputs": [
        {
          "internalType": "uint256",
          "name": "amount",
          "type": "uint256"
        },
        {
          "internalType": "uint256",
          "name": "rewardDebt",
          "type": "uint256"
        }
      ],
      "stateMutability": "view",
      "type": "function",
      "constant": true
    },
    {
      "inputs": [],
      "name": "poolLength",
      "outputs": [
        {
          "internalType": "uint256",
          "name": "",
          "type": "uint256"
        }
      ],
      "stateMutability": "view",
      "type": "function",
      "constant": true
    },
    {
      "inputs": [
        {
          "internalType": "contract IERC20",
          "name": "_lpToken",
          "type": "address"
        },
        {
          "internalType": "uint256",
          "name": "_pursePerBlock",
          "type": "uint256"
        },
        {
          "internalType": "bool",
          "name": "_withUpdate",
          "type": "bool"
        },
        {
          "internalType": "uint256",
          "name": "_startBlock",
          "type": "uint256"
        }
      ],
      "name": "add",
      "outputs": [],
      "stateMutability": "nonpayable",
      "type": "function"
    },
    {
      "inputs": [
        {
          "internalType": "uint256",
          "name": "_pid",
          "type": "uint256"
        },
        {
          "internalType": "uint256",
          "name": "_pursePerBlock",
          "type": "uint256"
        },
        {
          "internalType": "bool",
          "name": "_withUpdate",
          "type": "bool"
        }
      ],
      "name": "set",
      "outputs": [],
      "stateMutability": "nonpayable",
      "type": "function"
    },
    {
      "inputs": [],
      "name": "massUpdatePools",
      "outputs": [],
      "stateMutability": "nonpayable",
      "type": "function"
    },
    {
      "inputs": [
        {
          "internalType": "uint256",
          "name": "_from",
          "type": "uint256"
        },
        {
          "internalType": "uint256",
          "name": "_to",
          "type": "uint256"
        }
      ],
      "name": "getMultiplier",
      "outputs": [
        {
          "internalType": "uint256",
          "name": "",
          "type": "uint256"
        }
      ],
      "stateMutability": "pure",
      "type": "function",
      "constant": true
    },
    {
      "inputs": [
        {
          "internalType": "uint256",
          "name": "_pid",
          "type": "uint256"
        }
      ],
      "name": "updatePool",
      "outputs": [],
      "stateMutability": "nonpayable",
      "type": "function"
    },
    {
      "inputs": [
        {
          "internalType": "uint256",
          "name": "_pid",
          "type": "uint256"
        },
        {
          "internalType": "uint256",
          "name": "_amount",
          "type": "uint256"
        }
      ],
      "name": "deposit",
      "outputs": [],
      "stateMutability": "nonpayable",
      "type": "function"
    },
    {
      "inputs": [
        {
          "internalType": "uint256",
          "name": "_pid",
          "type": "uint256"
        },
        {
          "internalType": "uint256",
          "name": "_amount",
          "type": "uint256"
        }
      ],
      "name": "withdraw",
      "outputs": [],
      "stateMutability": "nonpayable",
      "type": "function"
    },
    {
      "inputs": [
        {
          "internalType": "uint256",
          "name": "_pid",
          "type": "uint256"
        }
      ],
      "name": "claimReward",
      "outputs": [],
      "stateMutability": "nonpayable",
      "type": "function"
    },
    {
      "inputs": [
        {
          "internalType": "uint256",
          "name": "_newCap",
          "type": "uint256"
        }
      ],
      "name": "capMintTokenUpdate",
      "outputs": [],
      "stateMutability": "nonpayable",
      "type": "function"
    },
    {
      "inputs": [
        {
          "internalType": "uint256",
          "name": "_pid",
          "type": "uint256"
        },
        {
          "internalType": "address",
          "name": "_user",
          "type": "address"
        }
      ],
      "name": "pendingReward",
      "outputs": [
        {
          "internalType": "uint256",
          "name": "",
          "type": "uint256"
        }
      ],
      "stateMutability": "view",
      "type": "function",
      "constant": true
    }
  ],
  "bytecode": "0x60c0604052600d60808190527f52657374616b696e674661726d0000000000000000000000000000000000000060a0908152620000409160019190620000f6565b503480156200004e57600080fd5b506040516200191b3803806200191b83398101604081905262000071916200019c565b6200007c33620000a6565b600280546001600160a01b0319166001600160a01b0393909316929092179091556005556200022e565b600080546001600160a01b038381166001600160a01b0319831681178455604051919092169283917f8be0079c531659141344cd1fd0a4f28419497f9722a3daafe3b4186f6b6457e09190a35050565b8280546200010490620001d8565b90600052602060002090601f01602090048101928262000128576000855562000173565b82601f106200014357805160ff191683800117855562000173565b8280016001018555821562000173579182015b828111156200017357825182559160200191906001019062000156565b506200018192915062000185565b5090565b5b8082111562000181576000815560010162000186565b60008060408385031215620001b057600080fd5b82516001600160a01b0381168114620001c857600080fd5b6020939093015192949293505050565b600181811c90821680620001ed57607f821691505b6020821081141562000228577f4e487b7100000000000000000000000000000000000000000000000000000000600052602260045260246000fd5b50919050565b6116dd806200023e6000396000f3fe608060405234801561001057600080fd5b50600436106101375760003560e01c80638da5cb5b116100b8578063ac854ac51161007c578063ac854ac5146102cb578063ae169a50146102d4578063e2bbb158146102e7578063e2d16c44146102fa578063f2fde38b14610303578063ff51a2721461031657600080fd5b80638da5cb5b1461023a5780638dbb1e3a1461024b57806393f1a40b1461025e57806398969e82146102a5578063a4039039146102b857600080fd5b806351bf16ef116100ff57806351bf16ef146101d957806351eb05a614610204578063630b5ba11461021757806364482f791461021f578063715018a61461023257600080fd5b806306fdde031461013c578063081e3eda1461015a5780631526fe271461016c57806337c5a556146101b1578063441a3e70146101c6575b600080fd5b610144610336565b6040516101519190611508565b60405180910390f35b6003545b604051908152602001610151565b61017f61017a36600461144b565b6103c4565b604080516001600160a01b0390961686526020860194909452928401919091526060830152608082015260a001610151565b6101c46101bf36600461144b565b61040f565b005b6101c46101d43660046114ad565b610447565b6002546101ec906001600160a01b031681565b6040516001600160a01b039091168152602001610151565b6101c461021236600461144b565b610720565b6101c4610978565b6101c461022d3660046114cf565b6109a3565b6101c4610a58565b6000546001600160a01b03166101ec565b61015e6102593660046114ad565b610a8e565b61029061026c36600461147d565b60076020908152600092835260408084209091529082529020805460019091015482565b60408051928352602083019190915201610151565b61015e6102b336600461147d565b610aa1565b6101c46102c6366004611403565b610c05565b61015e60055481565b6101c46102e236600461144b565b610e45565b6101c46102f53660046114ad565b61103d565b61015e60045481565b6101c46103113660046113c9565b6112de565b61015e6103243660046113c9565b60066020526000908152604090205481565b6001805461034390611602565b80601f016020809104026020016040519081016040528092919081815260200182805461036f90611602565b80156103bc5780601f10610391576101008083540402835291602001916103bc565b820191906000526020600020905b81548152906001019060200180831161039f57829003601f168201915b505050505081565b600381815481106103d457600080fd5b6000918252602090912060059091020180546001820154600283015460038401546004909401546001600160a01b0390931694509092909185565b6000546001600160a01b031633146104425760405162461bcd60e51b81526004016104399061155d565b60405180910390fd5b600555565b60006003838154811061045c5761045c61166e565b6000918252602080832086845260078252604080852033865290925292208054600590920290920192508311156104ca5760405162461bcd60e51b81526020600482015260126024820152711dda5d1a191c985dce881b9bdd0819dbdbd960721b6044820152606401610439565b6104d384610720565b6000816001015464e8d4a51000846003015484600001546104f491906115cc565b6104fe91906115aa565b61050891906115eb565b6002546040516370a0823160e01b81523060048201529192506000916001600160a01b03909116906370a082319060240160206040518083038186803b15801561055157600080fd5b505afa158015610565573d6000803e3d6000fd5b505050506040513d601f19601f820116820180604052508101906105899190611464565b905080821115610597578091505b81156106235760025460405163a9059cbb60e01b8152336004820152602481018490526001600160a01b039091169063a9059cbb90604401602060405180830381600087803b1580156105e957600080fd5b505af11580156105fd573d6000803e3d6000fd5b505050506040513d601f19601f8201168201806040525081019061062191906113e6565b505b84156106bd5782546106369086906115eb565b8355835460405163a9059cbb60e01b8152336004820152602481018790526001600160a01b039091169063a9059cbb90604401602060405180830381600087803b15801561068357600080fd5b505af1158015610697573d6000803e3d6000fd5b505050506040513d601f19601f820116820180604052508101906106bb91906113e6565b505b6003840154835464e8d4a51000916106d4916115cc565b6106de91906115aa565b600184015560405185815233907f884edad9ce6fa2440d8a54cc123490eb96d2768479d49ff9c7366125a94243649060200160405180910390a2505050505050565b6000600382815481106107355761073561166e565b9060005260206000209060050201905080600201544311610754575050565b80546040516370a0823160e01b81523060048201526000916001600160a01b0316906370a082319060240160206040518083038186803b15801561079757600080fd5b505afa1580156107ab573d6000803e3d6000fd5b505050506040513d601f19601f820116820180604052508101906107cf9190611464565b9050806107e157504360029091015550565b60006107f1836002015443610a8e565b9050600083600101548261080591906115cc565b9050600554600454101561093a57600554816004546108249190611592565b106108be57600060045460055461083b91906115eb565b9050806004600082825461084f9190611592565b90915550506002546040516340c10f1960e01b8152306004820152602481018390526001600160a01b03909116906340c10f1990604401600060405180830381600087803b1580156108a057600080fd5b505af11580156108b4573d6000803e3d6000fd5b505050505061093a565b80600460008282546108d09190611592565b90915550506002546040516340c10f1960e01b8152306004820152602481018390526001600160a01b03909116906340c10f1990604401600060405180830381600087803b15801561092157600080fd5b505af1158015610935573d6000803e3d6000fd5b505050505b8261094a8264e8d4a510006115cc565b61095491906115aa565b84600301546109639190611592565b60038501555050436002909201919091555050565b60035460005b8181101561099f5761098f81610720565b6109988161163d565b905061097e565b5050565b6000546001600160a01b031633146109cd5760405162461bcd60e51b81526004016104399061155d565b80156109db576109db610978565b81600384815481106109ef576109ef61166e565b90600052602060002090600502016001018190555082336001600160a01b03167f296775be915b3f4f01a2d9e35cee043b4afc1806ae780c44e535b68be2774b528484604051610a4b9291909182521515602082015260400190565b60405180910390a3505050565b6000546001600160a01b03163314610a825760405162461bcd60e51b81526004016104399061155d565b610a8c6000611379565b565b6000610a9a83836115eb565b9392505050565b60008060038481548110610ab757610ab761166e565b600091825260208083208784526007825260408085206001600160a01b03898116875293528085206005949094029091016003810154815492516370a0823160e01b815230600482015291965093949291909116906370a082319060240160206040518083038186803b158015610b2d57600080fd5b505afa158015610b41573d6000803e3d6000fd5b505050506040513d601f19601f82011682018060405250810190610b659190611464565b90506000846002015443118015610b7b57508115155b15610bcc57610b8e856002015443610a8e565b90506000856001015482610ba291906115cc565b905082610bb48264e8d4a510006115cc565b610bbe91906115aa565b610bc89085611592565b9350505b6001840154845464e8d4a5100090610be59086906115cc565b610bef91906115aa565b610bf991906115eb565b98975050505050505050565b6000546001600160a01b03163314610c2f5760405162461bcd60e51b81526004016104399061155d565b6001600160a01b03841660009081526006602052604090205415610ca05760405162461bcd60e51b815260206004820152602260248201527f4661726d65723a3a6164643a206c7020697320616c726561647920696e20706f6044820152611bdb60f21b6064820152608401610439565b8115610cae57610cae610978565b6000814311610cbd5781610cbf565b435b600354909150610cd0906001611592565b6001600160a01b03868116600081815260066020908152604080832095909555845160a0810186528381528082018a81528187018881526060808401868152608085018c815260038054600181018255985294517fc2575a0e9e593c00f959f8c92f12db2869c3395a3b0502d05e2516446f71f85b600590980297880180546001600160a01b03191691909a161790985591517fc2575a0e9e593c00f959f8c92f12db2869c3395a3b0502d05e2516446f71f85c860155517fc2575a0e9e593c00f959f8c92f12db2869c3395a3b0502d05e2516446f71f85d85015594517fc2575a0e9e593c00f959f8c92f12db2869c3395a3b0502d05e2516446f71f85e840155517fc2575a0e9e593c00f959f8c92f12db2869c3395a3b0502d05e2516446f71f85f909201919091558351888152871515918101919091529283018590529133917f438e64548bd09e269cd81aed09e17df3a0526a4c41224e92451419175e68b5c4910160405180910390a35050505050565b600060038281548110610e5a57610e5a61166e565b60009182526020808320858452600782526040808520338652909252922060059091029091019150610e8b83610720565b6000816001015464e8d4a5100084600301548460000154610eac91906115cc565b610eb691906115aa565b610ec091906115eb565b6002546040516370a0823160e01b81523060048201529192506000916001600160a01b03909116906370a082319060240160206040518083038186803b158015610f0957600080fd5b505afa158015610f1d573d6000803e3d6000fd5b505050506040513d601f19601f82011682018060405250810190610f419190611464565b905080821115610f4f578091505b8115610fdb5760025460405163a9059cbb60e01b8152336004820152602481018490526001600160a01b039091169063a9059cbb90604401602060405180830381600087803b158015610fa157600080fd5b505af1158015610fb5573d6000803e3d6000fd5b505050506040513d601f19601f82011682018060405250810190610fd991906113e6565b505b6003840154835464e8d4a5100091610ff2916115cc565b610ffc91906115aa565b600184015560405182815233907fba8de60c3403ec381d1d484652ea1980e3c3e56359195c92525bff4ce47ad98e9060200160405180910390a25050505050565b6000600383815481106110525761105261166e565b6000918252602080832086845260078252604080852033865290925292206005909102909101915061108384610720565b8054156111dd576000816001015464e8d4a51000846003015484600001546110ab91906115cc565b6110b591906115aa565b6110bf91906115eb565b6002546040516370a0823160e01b81523060048201529192506000916001600160a01b03909116906370a082319060240160206040518083038186803b15801561110857600080fd5b505afa15801561111c573d6000803e3d6000fd5b505050506040513d601f19601f820116820180604052508101906111409190611464565b90508082111561114e578091505b81156111da5760025460405163a9059cbb60e01b8152336004820152602481018490526001600160a01b039091169063a9059cbb90604401602060405180830381600087803b1580156111a057600080fd5b505af11580156111b4573d6000803e3d6000fd5b505050506040513d601f19601f820116820180604052508101906111d891906113e6565b505b50505b821561127d5781546040516323b872dd60e01b8152336004820152306024820152604481018590526001600160a01b03909116906323b872dd90606401602060405180830381600087803b15801561123457600080fd5b505af1158015611248573d6000803e3d6000fd5b505050506040513d601f19601f8201168201806040525081019061126c91906113e6565b50805461127a908490611592565b81555b6003820154815464e8d4a5100091611294916115cc565b61129e91906115aa565b600182015560405183815233907fe1fffcc4923d04b559f4d29a8bfc6cda04eb5b0d3c460751c2402c5c5cc9109c9060200160405180910390a250505050565b6000546001600160a01b031633146113085760405162461bcd60e51b81526004016104399061155d565b6001600160a01b03811661136d5760405162461bcd60e51b815260206004820152602660248201527f4f776e61626c653a206e6577206f776e657220697320746865207a65726f206160448201526564647265737360d01b6064820152608401610439565b61137681611379565b50565b600080546001600160a01b038381166001600160a01b0319831681178455604051919092169283917f8be0079c531659141344cd1fd0a4f28419497f9722a3daafe3b4186f6b6457e09190a35050565b6000602082840312156113db57600080fd5b8135610a9a81611684565b6000602082840312156113f857600080fd5b8151610a9a81611699565b6000806000806080858703121561141957600080fd5b843561142481611684565b935060208501359250604085013561143b81611699565b9396929550929360600135925050565b60006020828403121561145d57600080fd5b5035919050565b60006020828403121561147657600080fd5b5051919050565b6000806040838503121561149057600080fd5b8235915060208301356114a281611684565b809150509250929050565b600080604083850312156114c057600080fd5b50508035926020909101359150565b6000806000606084860312156114e457600080fd5b833592506020840135915060408401356114fd81611699565b809150509250925092565b600060208083528351808285015260005b8181101561153557858101830151858201604001528201611519565b81811115611547576000604083870101525b50601f01601f1916929092016040019392505050565b6020808252818101527f4f776e61626c653a2063616c6c6572206973206e6f7420746865206f776e6572604082015260600190565b600082198211156115a5576115a5611658565b500190565b6000826115c757634e487b7160e01b600052601260045260246000fd5b500490565b60008160001904831182151516156115e6576115e6611658565b500290565b6000828210156115fd576115fd611658565b500390565b600181811c9082168061161657607f821691505b6020821081141561163757634e487b7160e01b600052602260045260246000fd5b50919050565b600060001982141561165157611651611658565b5060010190565b634e487b7160e01b600052601160045260246000fd5b634e487b7160e01b600052603260045260246000fd5b6001600160a01b038116811461137657600080fd5b801515811461137657600080fdfea264697066735822122017e8ce4176914662b1d1154fe2d934788e160662c7cac2916f83541b9c388c0264736f6c63430008070033",
  "immutableReferences": {},
  "source": "// SPDX-License-Identifier: UNLICENSED\r\n\r\npragma solidity ^0.8.0;\r\n\r\nimport \"@openzeppelin/contracts/access/Ownable.sol\";\r\nimport \"@openzeppelin/contracts/token/ERC20/IERC20.sol\";\r\n \r\ninterface PurseToken {\r\n\r\n    function transfer(address to, uint tokens) external  returns (bool success);\r\n\r\n    function mint(address to, uint tokens) external;\r\n\r\n    function transferFrom(address from, address to, uint tokens) external  returns (bool success);\r\n\r\n    function balanceOf(address tokenOwner) external view returns (uint balance);\r\n\r\n}\r\n\r\ncontract RestakingFarm is Ownable{\r\n\r\n    // ---Contract Variables---\r\n    string public name = \"RestakingFarm\";\r\n\r\n    // Userinfo\r\n    struct UserInfo {\r\n        uint256 amount;     // How many LP tokens the user has provided.\r\n        uint256 rewardDebt; // Reward debt. See explanation below.\r\n        //\r\n        // We do some fancy math here. Basically, any point in time, the amount of PURSEs\r\n        // entitled to a user but is pending to be distributed is:\r\n        //\r\n        //   pending reward = (user.amount * pool.accPursePerShare) - user.rewardDebt\r\n        //\r\n        // Whenever a user deposits or withdraws LP tokens to a pool. Here's what happens:\r\n        //   1. The pool's `accPursePerShare` (and `lastRewardBlock`) gets updated.\r\n        //   2. User receives the pending reward sent to his/her address.\r\n        //   3. User's `amount` gets updated.\r\n        //   4. User's `rewardDebt` gets updated.\r\n    }\r\n    \r\n    // Info of each pool.\r\n    struct PoolInfo {\r\n        IERC20 lpToken;           // Address of LP token contract.\r\n        uint256 pursePerBlock;\r\n        uint256 lastRewardBlock;  // Last block number that PURSEs distribution occurs.\r\n        uint256 accPursePerShare; // Accumulated PURSEs per share, times 1e12. See below.\r\n        uint256 startBlock;\r\n    }\r\n\r\n    // The PURSE TOKEN!\r\n    PurseToken public purseToken;\r\n    PoolInfo[] public poolInfo;\r\n    uint256 public totalMintToken;    \r\n    uint256 public capMintToken;\r\n    mapping(address => uint256) public poolId;  // poolId count from 1, need to subtract by 1 before using with variable poolInfo\r\n\r\n    // Info of each user that stakes LP tokens.\r\n    mapping (uint256 => mapping (address => UserInfo)) public userInfo;\r\n\r\n    event Deposit(address indexed user, uint256 amount);\r\n    event Withdraw(address indexed user, uint256 amount);\r\n    event AddNewPool(address indexed owner, IERC20 indexed _lpToken, uint256 _pursePerBlock, bool _withUpdate, uint256 _startBlock);\r\n    event UpdatePoolReward(address indexed owner, uint256 indexed _pid, uint256 _pursePerBlock, bool _withUpdate);\r\n    event ClaimReward(address indexed user, uint256 amount);\r\n\r\n    constructor(\r\n        PurseToken _purseToken,\r\n        uint256 _capMintToken\r\n    ) {\r\n        purseToken = _purseToken;\r\n        capMintToken = _capMintToken;\r\n        }\r\n    \r\n\r\n    function poolLength() external view returns (uint256) {\r\n        return poolInfo.length;\r\n    }\r\n    // Add a new lp to the pool. Can only be called by the owner.\r\n    // XXX DO NOT add the same LP token more than once. Rewards will be messed up if you do.\r\n    function add(IERC20 _lpToken, uint256 _pursePerBlock, bool _withUpdate, uint256 _startBlock) public onlyOwner {\r\n        require(poolId[address(_lpToken)] == 0, \"Farmer::add: lp is already in pool\");\r\n        if (_withUpdate) {\r\n            massUpdatePools();\r\n        }\r\n        uint256 lastRewardBlock = block.number > _startBlock ? block.number : _startBlock;\r\n        poolId[address(_lpToken)] = poolInfo.length + 1;\r\n        poolInfo.push(PoolInfo({\r\n            lpToken: _lpToken,\r\n            pursePerBlock : _pursePerBlock,\r\n            lastRewardBlock: lastRewardBlock,\r\n            accPursePerShare: 0,\r\n            startBlock: _startBlock\r\n        }));\r\n        emit AddNewPool(msg.sender, _lpToken, _pursePerBlock, _withUpdate, _startBlock);\r\n    }\r\n\r\n    // Update the given pool's PURSE _pursePerBlock. Can only be called by the owner.\r\n    function set(uint256 _pid, uint256 _pursePerBlock, bool _withUpdate) public onlyOwner {\r\n        if (_withUpdate) {\r\n            massUpdatePools();\r\n        }\r\n        poolInfo[_pid].pursePerBlock = _pursePerBlock;\r\n        emit UpdatePoolReward(msg.sender, _pid, _pursePerBlock, _withUpdate);\r\n    }\r\n\r\n\r\n    // Update reward variables for all pools. Be careful of gas spending!\r\n    function massUpdatePools() public {\r\n        uint256 length = poolInfo.length;\r\n        for (uint256 pid = 0; pid < length; ++pid) {\r\n            updatePool(pid);\r\n        }\r\n    }\r\n\r\n\r\n\r\n\r\n    // Return reward multiplier over the given _from to _to block.\r\n    function getMultiplier(uint256 _from, uint256 _to) public pure returns (uint256) {\r\n        return _to-_from;\r\n    }\r\n\r\n    // Update reward variables of the given pool to be up-to-date.\r\n    function updatePool(uint256 _pid) public {\r\n        PoolInfo storage pool = poolInfo[_pid];\r\n        if (block.number <= pool.lastRewardBlock) {\r\n            return;\r\n        }\r\n        uint256 lpSupply = pool.lpToken.balanceOf(address(this));\r\n        if (lpSupply == 0) {\r\n            pool.lastRewardBlock = block.number;\r\n            return;\r\n        }\r\n        uint256 multiplier = getMultiplier(pool.lastRewardBlock, block.number);\r\n        uint256 purseReward = multiplier*pool.pursePerBlock;\r\n        if (totalMintToken < capMintToken) {\r\n            if (totalMintToken + purseReward >= capMintToken) {\r\n                uint256 PurseCanMint = capMintToken-totalMintToken;\r\n                totalMintToken += PurseCanMint;\r\n                purseToken.mint(address(this), PurseCanMint);\r\n            } else {\r\n                totalMintToken += purseReward;\r\n                purseToken.mint(address(this), purseReward);\r\n            }\r\n        }\r\n        pool.accPursePerShare = pool.accPursePerShare+(purseReward*1e12/lpSupply);\r\n        pool.lastRewardBlock = block.number;\r\n    }\r\n\r\n    // Deposit LP tokens to Restaking Pool for Purse allocation.\r\n    function deposit(uint256 _pid, uint256 _amount) public {\r\n\r\n        PoolInfo storage pool = poolInfo[_pid];\r\n        UserInfo storage user = userInfo[_pid][msg.sender];\r\n        updatePool(_pid);\r\n\r\n        if (user.amount > 0) {\r\n            uint256 pending = user.amount*pool.accPursePerShare/1e12-user.rewardDebt;\r\n            uint256 farmBal = purseToken.balanceOf(address(this));\r\n\r\n            if (pending > farmBal) {\r\n                pending = farmBal;\r\n            }\r\n            if(pending > 0) {\r\n                purseToken.transfer(msg.sender, pending);\r\n            }\r\n        }\r\n        if (_amount > 0) {\r\n            pool.lpToken.transferFrom(address(msg.sender), address(this), _amount);\r\n            user.amount = user.amount+_amount;\r\n        }\r\n        user.rewardDebt = user.amount*pool.accPursePerShare/1e12;\r\n        emit Deposit(msg.sender, _amount);\r\n    }\r\n\r\n    // Withdraw LP tokens from MasterChef.\r\n    function withdraw(uint256 _pid, uint256 _amount) public {\r\n\r\n        PoolInfo storage pool = poolInfo[_pid];\r\n        UserInfo storage user = userInfo[_pid][msg.sender];\r\n        require(user.amount >= _amount, \"withdraw: not good\");\r\n\r\n        updatePool(_pid);\r\n        uint256 pending = user.amount*pool.accPursePerShare/1e12-user.rewardDebt;\r\n        uint256 farmBal = purseToken.balanceOf(address(this));\r\n\r\n        if (pending > farmBal) {\r\n            pending = farmBal;\r\n        }\r\n\r\n        if(pending > 0) {\r\n            purseToken.transfer(msg.sender, pending);\r\n        }\r\n        if(_amount > 0) {\r\n            user.amount = user.amount-_amount;\r\n            pool.lpToken.transfer(address(msg.sender), _amount);\r\n        }\r\n        user.rewardDebt = user.amount*pool.accPursePerShare/1e12;\r\n        emit Withdraw(msg.sender, _amount);\r\n    }\r\n\r\n    // Harvest reward tokens from pool.\r\n    function claimReward(uint256 _pid) public {\r\n\r\n        PoolInfo storage pool = poolInfo[_pid];\r\n        UserInfo storage user = userInfo[_pid][msg.sender];\r\n\r\n        updatePool(_pid);\r\n        uint256 pending = user.amount*pool.accPursePerShare/1e12-user.rewardDebt;\r\n        uint256 farmBal = purseToken.balanceOf(address(this));\r\n\r\n        if (pending > farmBal) {\r\n            pending = farmBal;\r\n        }\r\n\r\n        if(pending > 0) {\r\n            purseToken.transfer(msg.sender, pending);\r\n        }\r\n        user.rewardDebt = user.amount*pool.accPursePerShare/1e12;\r\n\r\n        emit ClaimReward(msg.sender, pending);\r\n    }\r\n\r\n    function capMintTokenUpdate (uint256 _newCap) public onlyOwner {\r\n        capMintToken = _newCap;\r\n    }\r\n\r\n\r\n     // View function to see pending PURSEs on frontend.\r\n    function pendingReward(uint256 _pid, address _user) external view returns (uint256) {\r\n        PoolInfo storage pool = poolInfo[_pid];\r\n        UserInfo storage user = userInfo[_pid][_user];\r\n        uint256 accPursePerShare = pool.accPursePerShare;\r\n        uint256 lpSupply = pool.lpToken.balanceOf(address(this));\r\n        uint256 multiplier;\r\n        if (block.number > pool.lastRewardBlock && lpSupply != 0) {\r\n            multiplier = getMultiplier(pool.lastRewardBlock, block.number);\r\n            uint256 purseReward = multiplier*pool.pursePerBlock;\r\n            accPursePerShare = accPursePerShare+(purseReward*(1e12)/lpSupply);\r\n        }\r\n        return (user.amount*(accPursePerShare)/(1e12)-(user.rewardDebt));\r\n    }\r\n}",
  "sourcePath": "C:/Users/cheek/Desktop/Developer doc/Visual Studio Code/PundiX/lpTokenRestakingFarm/src/contracts/RestakingFarm.sol",
  "compiler": {
    "name": "solc",
    "version": "0.8.7+commit.e28d00a7.Emscripten.clang"
  },
  "schemaVersion": "3.2.3",
  "updatedAt": "2021-11-03T04:07:15.648Z",
  "networkType": "ethereum",
  "devdoc": {
    "kind": "dev",
    "methods": {
      "owner()": {
        "details": "Returns the address of the current owner."
      },
      "renounceOwnership()": {
        "details": "Leaves the contract without owner. It will not be possible to call `onlyOwner` functions anymore. Can only be called by the current owner. NOTE: Renouncing ownership will leave the contract without an owner, thereby removing any functionality that is only available to the owner."
      },
      "transferOwnership(address)": {
        "details": "Transfers ownership of the contract to a new account (`newOwner`). Can only be called by the current owner."
      }
    },
    "version": 1
  },
  "userdoc": {
    "kind": "user",
    "methods": {},
    "version": 1
  }
}