{
  "contractName": "RestakingFarm",
  "abi": [
    {
      "inputs": [
        {
          "internalType": "contract PurseToken",
          "name": "_purseToken",
          "type": "address"
        }
      ],
      "stateMutability": "nonpayable",
      "type": "constructor"
    },
    {
      "anonymous": false,
      "inputs": [
        {
          "indexed": true,
          "internalType": "address",
          "name": "owner",
          "type": "address"
        },
        {
          "indexed": true,
          "internalType": "contract IERC20",
          "name": "_lpToken",
          "type": "address"
        },
        {
          "indexed": false,
          "internalType": "uint256",
          "name": "_pursePerBlock",
          "type": "uint256"
        },
        {
          "indexed": false,
          "internalType": "bool",
          "name": "_withUpdate",
          "type": "bool"
        },
        {
          "indexed": false,
          "internalType": "uint256",
          "name": "_startBlock",
          "type": "uint256"
        }
      ],
      "name": "AddNewPool",
      "type": "event"
    },
    {
      "anonymous": false,
      "inputs": [
        {
          "indexed": true,
          "internalType": "address",
          "name": "user",
          "type": "address"
        },
        {
          "indexed": false,
          "internalType": "uint256",
          "name": "amount",
          "type": "uint256"
        }
      ],
      "name": "Deposit",
      "type": "event"
    },
    {
      "anonymous": false,
      "inputs": [
        {
          "indexed": true,
          "internalType": "address",
          "name": "previousOwner",
          "type": "address"
        },
        {
          "indexed": true,
          "internalType": "address",
          "name": "newOwner",
          "type": "address"
        }
      ],
      "name": "OwnershipTransferred",
      "type": "event"
    },
    {
      "anonymous": false,
      "inputs": [
        {
          "indexed": true,
          "internalType": "address",
          "name": "owner",
          "type": "address"
        },
        {
          "indexed": true,
          "internalType": "uint256",
          "name": "_pid",
          "type": "uint256"
        },
        {
          "indexed": false,
          "internalType": "uint256",
          "name": "_pursePerBlock",
          "type": "uint256"
        },
        {
          "indexed": false,
          "internalType": "bool",
          "name": "_withUpdate",
          "type": "bool"
        }
      ],
      "name": "UpdatePoolReward",
      "type": "event"
    },
    {
      "anonymous": false,
      "inputs": [
        {
          "indexed": true,
          "internalType": "address",
          "name": "user",
          "type": "address"
        },
        {
          "indexed": false,
          "internalType": "uint256",
          "name": "amount",
          "type": "uint256"
        }
      ],
      "name": "Withdraw",
      "type": "event"
    },
    {
      "inputs": [],
      "name": "name",
      "outputs": [
        {
          "internalType": "string",
          "name": "",
          "type": "string"
        }
      ],
      "stateMutability": "view",
      "type": "function",
      "constant": true
    },
    {
      "inputs": [],
      "name": "owner",
      "outputs": [
        {
          "internalType": "address",
          "name": "",
          "type": "address"
        }
      ],
      "stateMutability": "view",
      "type": "function",
      "constant": true
    },
    {
      "inputs": [
        {
          "internalType": "address",
          "name": "",
          "type": "address"
        }
      ],
      "name": "poolId",
      "outputs": [
        {
          "internalType": "uint256",
          "name": "",
          "type": "uint256"
        }
      ],
      "stateMutability": "view",
      "type": "function",
      "constant": true
    },
    {
      "inputs": [
        {
          "internalType": "uint256",
          "name": "",
          "type": "uint256"
        }
      ],
      "name": "poolInfo",
      "outputs": [
        {
          "internalType": "contract IERC20",
          "name": "lpToken",
          "type": "address"
        },
        {
          "internalType": "uint256",
          "name": "pursePerBlock",
          "type": "uint256"
        },
        {
          "internalType": "uint256",
          "name": "lastRewardBlock",
          "type": "uint256"
        },
        {
          "internalType": "uint256",
          "name": "accPursePerShare",
          "type": "uint256"
        },
        {
          "internalType": "uint256",
          "name": "startBlock",
          "type": "uint256"
        }
      ],
      "stateMutability": "view",
      "type": "function",
      "constant": true
    },
    {
      "inputs": [],
      "name": "purseToken",
      "outputs": [
        {
          "internalType": "contract PurseToken",
          "name": "",
          "type": "address"
        }
      ],
      "stateMutability": "view",
      "type": "function",
      "constant": true
    },
    {
      "inputs": [],
      "name": "renounceOwnership",
      "outputs": [],
      "stateMutability": "nonpayable",
      "type": "function"
    },
    {
      "inputs": [
        {
          "internalType": "address",
          "name": "newOwner",
          "type": "address"
        }
      ],
      "name": "transferOwnership",
      "outputs": [],
      "stateMutability": "nonpayable",
      "type": "function"
    },
    {
      "inputs": [
        {
          "internalType": "uint256",
          "name": "",
          "type": "uint256"
        },
        {
          "internalType": "address",
          "name": "",
          "type": "address"
        }
      ],
      "name": "userInfo",
      "outputs": [
        {
          "internalType": "uint256",
          "name": "amount",
          "type": "uint256"
        },
        {
          "internalType": "uint256",
          "name": "rewardDebt",
          "type": "uint256"
        }
      ],
      "stateMutability": "view",
      "type": "function",
      "constant": true
    },
    {
      "inputs": [],
      "name": "poolLength",
      "outputs": [
        {
          "internalType": "uint256",
          "name": "",
          "type": "uint256"
        }
      ],
      "stateMutability": "view",
      "type": "function",
      "constant": true
    },
    {
      "inputs": [
        {
          "internalType": "contract IERC20",
          "name": "_lpToken",
          "type": "address"
        },
        {
          "internalType": "uint256",
          "name": "_pursePerBlock",
          "type": "uint256"
        },
        {
          "internalType": "bool",
          "name": "_withUpdate",
          "type": "bool"
        },
        {
          "internalType": "uint256",
          "name": "_startBlock",
          "type": "uint256"
        }
      ],
      "name": "add",
      "outputs": [],
      "stateMutability": "nonpayable",
      "type": "function"
    },
    {
      "inputs": [
        {
          "internalType": "uint256",
          "name": "_pid",
          "type": "uint256"
        },
        {
          "internalType": "uint256",
          "name": "_pursePerBlock",
          "type": "uint256"
        },
        {
          "internalType": "bool",
          "name": "_withUpdate",
          "type": "bool"
        }
      ],
      "name": "set",
      "outputs": [],
      "stateMutability": "nonpayable",
      "type": "function"
    },
    {
      "inputs": [],
      "name": "massUpdatePools",
      "outputs": [],
      "stateMutability": "nonpayable",
      "type": "function"
    },
    {
      "inputs": [
        {
          "internalType": "uint256",
          "name": "_from",
          "type": "uint256"
        },
        {
          "internalType": "uint256",
          "name": "_to",
          "type": "uint256"
        }
      ],
      "name": "getMultiplier",
      "outputs": [
        {
          "internalType": "uint256",
          "name": "",
          "type": "uint256"
        }
      ],
      "stateMutability": "pure",
      "type": "function",
      "constant": true
    },
    {
      "inputs": [
        {
          "internalType": "uint256",
          "name": "_pid",
          "type": "uint256"
        }
      ],
      "name": "updatePool",
      "outputs": [],
      "stateMutability": "nonpayable",
      "type": "function"
    },
    {
      "inputs": [
        {
          "internalType": "uint256",
          "name": "_pid",
          "type": "uint256"
        },
        {
          "internalType": "uint256",
          "name": "_amount",
          "type": "uint256"
        }
      ],
      "name": "deposit",
      "outputs": [],
      "stateMutability": "nonpayable",
      "type": "function"
    },
    {
      "inputs": [
        {
          "internalType": "uint256",
          "name": "_pid",
          "type": "uint256"
        },
        {
          "internalType": "uint256",
          "name": "_amount",
          "type": "uint256"
        }
      ],
      "name": "withdraw",
      "outputs": [],
      "stateMutability": "nonpayable",
      "type": "function"
    },
    {
      "inputs": [
        {
          "internalType": "uint256",
          "name": "_pid",
          "type": "uint256"
        },
        {
          "internalType": "address",
          "name": "_user",
          "type": "address"
        }
      ],
      "name": "pendingReward",
      "outputs": [
        {
          "internalType": "uint256",
          "name": "",
          "type": "uint256"
        }
      ],
      "stateMutability": "view",
      "type": "function",
      "constant": true
    }
  ],
  "bytecode": "0x60c0604052600d60808190527f52657374616b696e674661726d0000000000000000000000000000000000000060a0908152620000409160019190620000f2565b503480156200004e57600080fd5b506040516200149538038062001495833981016040819052620000719162000198565b6200007c33620000a2565b600280546001600160a01b0319166001600160a01b039290921691909117905562000220565b600080546001600160a01b038381166001600160a01b0319831681178455604051919092169283917f8be0079c531659141344cd1fd0a4f28419497f9722a3daafe3b4186f6b6457e09190a35050565b8280546200010090620001ca565b90600052602060002090601f0160209004810192826200012457600085556200016f565b82601f106200013f57805160ff19168380011785556200016f565b828001600101855582156200016f579182015b828111156200016f57825182559160200191906001019062000152565b506200017d92915062000181565b5090565b5b808211156200017d576000815560010162000182565b600060208284031215620001ab57600080fd5b81516001600160a01b0381168114620001c357600080fd5b9392505050565b600181811c90821680620001df57607f821691505b602082108114156200021a577f4e487b7100000000000000000000000000000000000000000000000000000000600052602260045260246000fd5b50919050565b61126580620002306000396000f3fe608060405234801561001057600080fd5b506004361061010b5760003560e01c8063715018a6116100a257806398969e821161007157806398969e8214610266578063a403903914610279578063e2bbb1581461028c578063f2fde38b1461029f578063ff51a272146102b257600080fd5b8063715018a6146101f35780638da5cb5b146101fb5780638dbb1e3a1461020c57806393f1a40b1461021f57600080fd5b806351bf16ef116100de57806351bf16ef1461019a57806351eb05a6146101c5578063630b5ba1146101d857806364482f79146101e057600080fd5b806306fdde0314610110578063081e3eda1461012e5780631526fe2714610140578063441a3e7014610185575b600080fd5b6101186102d2565b6040516101259190611090565b60405180910390f35b6003545b604051908152602001610125565b61015361014e366004610fd3565b610360565b604080516001600160a01b0390961686526020860194909452928401919091526060830152608082015260a001610125565b610198610193366004611035565b6103ab565b005b6002546101ad906001600160a01b031681565b6040516001600160a01b039091168152602001610125565b6101986101d3366004610fd3565b6105fd565b610198610787565b6101986101ee366004611057565b6107b2565b610198610867565b6000546001600160a01b03166101ad565b61013261021a366004611035565b61089d565b61025161022d366004611005565b60056020908152600092835260408084209091529082529020805460019091015482565b60408051928352602083019190915201610125565b610132610274366004611005565b6108b0565b610198610287366004610f8b565b610a13565b61019861029a366004611035565b610c53565b6101986102ad366004610f51565b610e66565b6101326102c0366004610f51565b60046020526000908152604090205481565b600180546102df9061118a565b80601f016020809104026020016040519081016040528092919081815260200182805461030b9061118a565b80156103585780601f1061032d57610100808354040283529160200191610358565b820191906000526020600020905b81548152906001019060200180831161033b57829003601f168201915b505050505081565b6003818154811061037057600080fd5b6000918252602090912060059091020180546001820154600283015460038401546004909401546001600160a01b0390931694509092909185565b6000600383815481106103c0576103c06111f6565b60009182526020808320868452600580835260408086203387529093529190932080549290910290920192508311156104355760405162461bcd60e51b81526020600482015260126024820152711dda5d1a191c985dce881b9bdd0819dbdbd960721b60448201526064015b60405180910390fd5b61043e846105fd565b6000816001015464e8d4a510008460030154846000015461045f9190611154565b6104699190611132565b6104739190611173565b905080156105015760025460405163a9059cbb60e01b8152336004820152602481018390526001600160a01b039091169063a9059cbb90604401602060405180830381600087803b1580156104c757600080fd5b505af11580156104db573d6000803e3d6000fd5b505050506040513d601f19601f820116820180604052508101906104ff9190610f6e565b505b831561059b578154610514908590611173565b8255825460405163a9059cbb60e01b8152336004820152602481018690526001600160a01b039091169063a9059cbb90604401602060405180830381600087803b15801561056157600080fd5b505af1158015610575573d6000803e3d6000fd5b505050506040513d601f19601f820116820180604052508101906105999190610f6e565b505b6003830154825464e8d4a51000916105b291611154565b6105bc9190611132565b600183015560405184815233907f884edad9ce6fa2440d8a54cc123490eb96d2768479d49ff9c7366125a94243649060200160405180910390a25050505050565b600060038281548110610612576106126111f6565b9060005260206000209060050201905080600201544311610631575050565b80546040516370a0823160e01b81523060048201526000916001600160a01b0316906370a082319060240160206040518083038186803b15801561067457600080fd5b505afa158015610688573d6000803e3d6000fd5b505050506040513d601f19601f820116820180604052508101906106ac9190610fec565b9050806106be57504360029091015550565b60006106ce83600201544361089d565b905060008360010154826106e29190611154565b6002546040516340c10f1960e01b8152306004820152602481018390529192506001600160a01b0316906340c10f1990604401600060405180830381600087803b15801561072f57600080fd5b505af1158015610743573d6000803e3d6000fd5b50505050828164e8d4a510006107599190611154565b6107639190611132565b8460030154610772919061111a565b60038501555050436002909201919091555050565b60035460005b818110156107ae5761079e816105fd565b6107a7816111c5565b905061078d565b5050565b6000546001600160a01b031633146107dc5760405162461bcd60e51b815260040161042c906110e5565b80156107ea576107ea610787565b81600384815481106107fe576107fe6111f6565b90600052602060002090600502016001018190555082336001600160a01b03167f296775be915b3f4f01a2d9e35cee043b4afc1806ae780c44e535b68be2774b52848460405161085a9291909182521515602082015260400190565b60405180910390a3505050565b6000546001600160a01b031633146108915760405162461bcd60e51b815260040161042c906110e5565b61089b6000610f01565b565b60006108a98383611173565b9392505050565b600080600384815481106108c6576108c66111f6565b60009182526020808320878452600580835260408086206001600160a01b038a811688529452808620949091029091016003810154815492516370a0823160e01b815230600482015291965093949291909116906370a082319060240160206040518083038186803b15801561093b57600080fd5b505afa15801561094f573d6000803e3d6000fd5b505050506040513d601f19601f820116820180604052508101906109739190610fec565b9050600084600201544311801561098957508115155b156109da5761099c85600201544361089d565b905060008560010154826109b09190611154565b9050826109c28264e8d4a51000611154565b6109cc9190611132565b6109d6908561111a565b9350505b6001840154845464e8d4a51000906109f3908690611154565b6109fd9190611132565b610a079190611173565b98975050505050505050565b6000546001600160a01b03163314610a3d5760405162461bcd60e51b815260040161042c906110e5565b6001600160a01b03841660009081526004602052604090205415610aae5760405162461bcd60e51b815260206004820152602260248201527f4661726d65723a3a6164643a206c7020697320616c726561647920696e20706f6044820152611bdb60f21b606482015260840161042c565b8115610abc57610abc610787565b6000814311610acb5781610acd565b435b600354909150610ade90600161111a565b6001600160a01b03868116600081815260046020908152604080832095909555845160a0810186528381528082018a81528187018881526060808401868152608085018c815260038054600181018255985294517fc2575a0e9e593c00f959f8c92f12db2869c3395a3b0502d05e2516446f71f85b600590980297880180546001600160a01b03191691909a161790985591517fc2575a0e9e593c00f959f8c92f12db2869c3395a3b0502d05e2516446f71f85c860155517fc2575a0e9e593c00f959f8c92f12db2869c3395a3b0502d05e2516446f71f85d85015594517fc2575a0e9e593c00f959f8c92f12db2869c3395a3b0502d05e2516446f71f85e840155517fc2575a0e9e593c00f959f8c92f12db2869c3395a3b0502d05e2516446f71f85f909201919091558351888152871515918101919091529283018590529133917f438e64548bd09e269cd81aed09e17df3a0526a4c41224e92451419175e68b5c4910160405180910390a35050505050565b600060038381548110610c6857610c686111f6565b60009182526020808320868452600580835260408086203387529093529190932091029091019150610c99846105fd565b805415610d65576000816001015464e8d4a5100084600301548460000154610cc19190611154565b610ccb9190611132565b610cd59190611173565b90508015610d635760025460405163a9059cbb60e01b8152336004820152602481018390526001600160a01b039091169063a9059cbb90604401602060405180830381600087803b158015610d2957600080fd5b505af1158015610d3d573d6000803e3d6000fd5b505050506040513d601f19601f82011682018060405250810190610d619190610f6e565b505b505b8215610e055781546040516323b872dd60e01b8152336004820152306024820152604481018590526001600160a01b03909116906323b872dd90606401602060405180830381600087803b158015610dbc57600080fd5b505af1158015610dd0573d6000803e3d6000fd5b505050506040513d601f19601f82011682018060405250810190610df49190610f6e565b508054610e0290849061111a565b81555b6003820154815464e8d4a5100091610e1c91611154565b610e269190611132565b600182015560405183815233907fe1fffcc4923d04b559f4d29a8bfc6cda04eb5b0d3c460751c2402c5c5cc9109c9060200160405180910390a250505050565b6000546001600160a01b03163314610e905760405162461bcd60e51b815260040161042c906110e5565b6001600160a01b038116610ef55760405162461bcd60e51b815260206004820152602660248201527f4f776e61626c653a206e6577206f776e657220697320746865207a65726f206160448201526564647265737360d01b606482015260840161042c565b610efe81610f01565b50565b600080546001600160a01b038381166001600160a01b0319831681178455604051919092169283917f8be0079c531659141344cd1fd0a4f28419497f9722a3daafe3b4186f6b6457e09190a35050565b600060208284031215610f6357600080fd5b81356108a98161120c565b600060208284031215610f8057600080fd5b81516108a981611221565b60008060008060808587031215610fa157600080fd5b8435610fac8161120c565b9350602085013592506040850135610fc381611221565b9396929550929360600135925050565b600060208284031215610fe557600080fd5b5035919050565b600060208284031215610ffe57600080fd5b5051919050565b6000806040838503121561101857600080fd5b82359150602083013561102a8161120c565b809150509250929050565b6000806040838503121561104857600080fd5b50508035926020909101359150565b60008060006060848603121561106c57600080fd5b8335925060208401359150604084013561108581611221565b809150509250925092565b600060208083528351808285015260005b818110156110bd578581018301518582016040015282016110a1565b818111156110cf576000604083870101525b50601f01601f1916929092016040019392505050565b6020808252818101527f4f776e61626c653a2063616c6c6572206973206e6f7420746865206f776e6572604082015260600190565b6000821982111561112d5761112d6111e0565b500190565b60008261114f57634e487b7160e01b600052601260045260246000fd5b500490565b600081600019048311821515161561116e5761116e6111e0565b500290565b600082821015611185576111856111e0565b500390565b600181811c9082168061119e57607f821691505b602082108114156111bf57634e487b7160e01b600052602260045260246000fd5b50919050565b60006000198214156111d9576111d96111e0565b5060010190565b634e487b7160e01b600052601160045260246000fd5b634e487b7160e01b600052603260045260246000fd5b6001600160a01b0381168114610efe57600080fd5b8015158114610efe57600080fdfea2646970667358221220c33e9082eaf484dce25f33cf51cd38edc774458c247a4f9a89bc3785d93ea21a64736f6c63430008070033",
  "immutableReferences": {},
  "source": "// SPDX-License-Identifier: UNLICENSED\r\n\r\npragma solidity ^0.8.0;\r\n\r\nimport \"@openzeppelin/contracts/access/Ownable.sol\";\r\nimport \"@openzeppelin/contracts/token/ERC20/IERC20.sol\";\r\n \r\ninterface PurseToken {\r\n\r\n    function transfer(address to, uint tokens) external  returns (bool success);\r\n\r\n    function mint(address to, uint tokens) external;\r\n\r\n    function transferFrom(address from, address to, uint tokens) external  returns (bool success);\r\n\r\n    function balanceOf(address tokenOwner) external view returns (uint balance);\r\n\r\n}\r\n\r\ncontract RestakingFarm is Ownable{\r\n\r\n    // ---Contract Variables---\r\n    string public name = \"RestakingFarm\";\r\n\r\n    // Userinfo\r\n    struct UserInfo {\r\n        uint256 amount;     // How many LP tokens the user has provided.\r\n        uint256 rewardDebt; // Reward debt. See explanation below.\r\n        //\r\n        // We do some fancy math here. Basically, any point in time, the amount of PURSEs\r\n        // entitled to a user but is pending to be distributed is:\r\n        //\r\n        //   pending reward = (user.amount * pool.accPursePerShare) - user.rewardDebt\r\n        //\r\n        // Whenever a user deposits or withdraws LP tokens to a pool. Here's what happens:\r\n        //   1. The pool's `accPursePerShare` (and `lastRewardBlock`) gets updated.\r\n        //   2. User receives the pending reward sent to his/her address.\r\n        //   3. User's `amount` gets updated.\r\n        //   4. User's `rewardDebt` gets updated.\r\n    }\r\n    \r\n    // Info of each pool.\r\n    struct PoolInfo {\r\n        IERC20 lpToken;           // Address of LP token contract.\r\n        uint256 pursePerBlock;\r\n        uint256 lastRewardBlock;  // Last block number that PURSEs distribution occurs.\r\n        uint256 accPursePerShare; // Accumulated PURSEs per share, times 1e12. See below.\r\n        uint256 startBlock;\r\n    }\r\n\r\n    // The PURSE TOKEN!\r\n    PurseToken public purseToken;\r\n    PoolInfo[] public poolInfo;\r\n    mapping(address => uint256) public poolId;  // poolId count from 1, need to subtract by 1 before using with variable poolInfo\r\n\r\n    // Info of each user that stakes LP tokens.\r\n    mapping (uint256 => mapping (address => UserInfo)) public userInfo;\r\n\r\n    event Deposit(address indexed user, uint256 amount);\r\n    event Withdraw(address indexed user, uint256 amount);\r\n    event AddNewPool(address indexed owner, IERC20 indexed _lpToken, uint256 _pursePerBlock, bool _withUpdate, uint256 _startBlock);\r\n    event UpdatePoolReward(address indexed owner, uint256 indexed _pid, uint256 _pursePerBlock, bool _withUpdate);\r\n\r\n\r\n    constructor(\r\n        PurseToken _purseToken\r\n    ) {\r\n        purseToken = _purseToken;\r\n        }\r\n    \r\n\r\n    function poolLength() external view returns (uint256) {\r\n        return poolInfo.length;\r\n    }\r\n    // Add a new lp to the pool. Can only be called by the owner.\r\n    // XXX DO NOT add the same LP token more than once. Rewards will be messed up if you do.\r\n    function add(IERC20 _lpToken, uint256 _pursePerBlock, bool _withUpdate, uint256 _startBlock) public onlyOwner {\r\n        require(poolId[address(_lpToken)] == 0, \"Farmer::add: lp is already in pool\");\r\n        if (_withUpdate) {\r\n            massUpdatePools();\r\n        }\r\n        uint256 lastRewardBlock = block.number > _startBlock ? block.number : _startBlock;\r\n        poolId[address(_lpToken)] = poolInfo.length + 1;\r\n        poolInfo.push(PoolInfo({\r\n            lpToken: _lpToken,\r\n            pursePerBlock : _pursePerBlock,\r\n            lastRewardBlock: lastRewardBlock,\r\n            accPursePerShare: 0,\r\n            startBlock: _startBlock\r\n        }));\r\n        emit AddNewPool(msg.sender, _lpToken, _pursePerBlock, _withUpdate, _startBlock);\r\n    }\r\n\r\n    // Update the given pool's PURSE _pursePerBlock. Can only be called by the owner.\r\n    function set(uint256 _pid, uint256 _pursePerBlock, bool _withUpdate) public onlyOwner {\r\n        if (_withUpdate) {\r\n            massUpdatePools();\r\n        }\r\n        poolInfo[_pid].pursePerBlock = _pursePerBlock;\r\n        emit UpdatePoolReward(msg.sender, _pid, _pursePerBlock, _withUpdate);\r\n    }\r\n\r\n\r\n    // Update reward variables for all pools. Be careful of gas spending!\r\n    function massUpdatePools() public {\r\n        uint256 length = poolInfo.length;\r\n        for (uint256 pid = 0; pid < length; ++pid) {\r\n            updatePool(pid);\r\n        }\r\n    }\r\n\r\n\r\n\r\n\r\n    // Return reward multiplier over the given _from to _to block.\r\n    function getMultiplier(uint256 _from, uint256 _to) public pure returns (uint256) {\r\n        return _to-_from;\r\n    }\r\n\r\n    // Update reward variables of the given pool to be up-to-date.\r\n    function updatePool(uint256 _pid) public {\r\n        PoolInfo storage pool = poolInfo[_pid];\r\n        if (block.number <= pool.lastRewardBlock) {\r\n            return;\r\n        }\r\n        uint256 lpSupply = pool.lpToken.balanceOf(address(this));\r\n        if (lpSupply == 0) {\r\n            pool.lastRewardBlock = block.number;\r\n            return;\r\n        }\r\n        uint256 multiplier = getMultiplier(pool.lastRewardBlock, block.number);\r\n        uint256 purseReward = multiplier*pool.pursePerBlock;\r\n        purseToken.mint(address(this), purseReward);\r\n        pool.accPursePerShare = pool.accPursePerShare+(purseReward*1e12/lpSupply);\r\n        pool.lastRewardBlock = block.number;\r\n    }\r\n\r\n    // Deposit LP tokens to Restaking Pool for Purse allocation.\r\n    function deposit(uint256 _pid, uint256 _amount) public {\r\n\r\n        PoolInfo storage pool = poolInfo[_pid];\r\n        UserInfo storage user = userInfo[_pid][msg.sender];\r\n        updatePool(_pid);\r\n\r\n        if (user.amount > 0) {\r\n            uint256 pending = user.amount*pool.accPursePerShare/1e12-user.rewardDebt;\r\n            if(pending > 0) {\r\n                purseToken.transfer(msg.sender, pending);\r\n            }\r\n        }\r\n        if (_amount > 0) {\r\n            pool.lpToken.transferFrom(address(msg.sender), address(this), _amount);\r\n            user.amount = user.amount+_amount;\r\n        }\r\n        user.rewardDebt = user.amount*pool.accPursePerShare/1e12;\r\n        emit Deposit(msg.sender, _amount);\r\n    }\r\n        // Withdraw LP tokens from MasterChef.\r\n    function withdraw(uint256 _pid, uint256 _amount) public {\r\n\r\n        PoolInfo storage pool = poolInfo[_pid];\r\n        UserInfo storage user = userInfo[_pid][msg.sender];\r\n        require(user.amount >= _amount, \"withdraw: not good\");\r\n\r\n        updatePool(_pid);\r\n        uint256 pending = user.amount*pool.accPursePerShare/1e12-user.rewardDebt;\r\n        if(pending > 0) {\r\n            purseToken.transfer(msg.sender, pending);\r\n        }\r\n        if(_amount > 0) {\r\n            user.amount = user.amount-_amount;\r\n            pool.lpToken.transfer(address(msg.sender), _amount);\r\n        }\r\n        user.rewardDebt = user.amount*pool.accPursePerShare/1e12;\r\n        emit Withdraw(msg.sender, _amount);\r\n    }\r\n\r\n     // View function to see pending PURSEs on frontend.\r\n    function pendingReward(uint256 _pid, address _user) external view returns (uint256) {\r\n        PoolInfo storage pool = poolInfo[_pid];\r\n        UserInfo storage user = userInfo[_pid][_user];\r\n        uint256 accPursePerShare = pool.accPursePerShare;\r\n        uint256 lpSupply = pool.lpToken.balanceOf(address(this));\r\n        uint256 multiplier;\r\n        if (block.number > pool.lastRewardBlock && lpSupply != 0) {\r\n            multiplier = getMultiplier(pool.lastRewardBlock, block.number);\r\n            uint256 purseReward = multiplier*pool.pursePerBlock;\r\n            accPursePerShare = accPursePerShare+(purseReward*(1e12)/lpSupply);\r\n        }\r\n        return (user.amount*(accPursePerShare)/(1e12)-(user.rewardDebt));\r\n    }\r\n}",
  "sourcePath": "C:/Users/cheek/Desktop/Developer doc/Visual Studio Code/PundiX/lpTokenRestakingFarm/src/contracts/RestakingFarm.sol",
  "compiler": {
    "name": "solc",
    "version": "0.8.7+commit.e28d00a7.Emscripten.clang"
  },
  "schemaVersion": "3.2.3",
  "updatedAt": "2021-10-22T03:09:53.890Z",
  "networkType": "ethereum",
  "devdoc": {
    "kind": "dev",
    "methods": {
      "owner()": {
        "details": "Returns the address of the current owner."
      },
      "renounceOwnership()": {
        "details": "Leaves the contract without owner. It will not be possible to call `onlyOwner` functions anymore. Can only be called by the current owner. NOTE: Renouncing ownership will leave the contract without an owner, thereby removing any functionality that is only available to the owner."
      },
      "transferOwnership(address)": {
        "details": "Transfers ownership of the contract to a new account (`newOwner`). Can only be called by the current owner."
      }
    },
    "version": 1
  },
  "userdoc": {
    "kind": "user",
    "methods": {},
    "version": 1
  }
}