{
  "contractName": "RestakingFarm",
  "abi": [
    {
      "inputs": [
        {
          "internalType": "contract PurseToken",
          "name": "_purseToken",
          "type": "address"
        },
        {
          "internalType": "uint256",
          "name": "_capMintToken",
          "type": "uint256"
        }
      ],
      "stateMutability": "nonpayable",
      "type": "constructor"
    },
    {
      "anonymous": false,
      "inputs": [
        {
          "indexed": true,
          "internalType": "address",
          "name": "owner",
          "type": "address"
        },
        {
          "indexed": true,
          "internalType": "contract IERC20",
          "name": "lpToken",
          "type": "address"
        },
        {
          "indexed": false,
          "internalType": "uint256",
          "name": "pursePerBlock",
          "type": "uint256"
        },
        {
          "indexed": false,
          "internalType": "uint256",
          "name": "bonusMultiplier",
          "type": "uint256"
        },
        {
          "indexed": false,
          "internalType": "uint256",
          "name": "startBlock",
          "type": "uint256"
        }
      ],
      "name": "AddNewPool",
      "type": "event"
    },
    {
      "anonymous": false,
      "inputs": [
        {
          "indexed": true,
          "internalType": "address",
          "name": "user",
          "type": "address"
        },
        {
          "indexed": false,
          "internalType": "uint256",
          "name": "amount",
          "type": "uint256"
        }
      ],
      "name": "ClaimReward",
      "type": "event"
    },
    {
      "anonymous": false,
      "inputs": [
        {
          "indexed": true,
          "internalType": "address",
          "name": "user",
          "type": "address"
        },
        {
          "indexed": false,
          "internalType": "uint256",
          "name": "amount",
          "type": "uint256"
        }
      ],
      "name": "Deposit",
      "type": "event"
    },
    {
      "anonymous": false,
      "inputs": [
        {
          "indexed": true,
          "internalType": "address",
          "name": "user",
          "type": "address"
        },
        {
          "indexed": true,
          "internalType": "contract IERC20",
          "name": "lpToken",
          "type": "address"
        },
        {
          "indexed": false,
          "internalType": "uint256",
          "name": "amount",
          "type": "uint256"
        }
      ],
      "name": "EmergencyWithdraw",
      "type": "event"
    },
    {
      "anonymous": false,
      "inputs": [
        {
          "indexed": true,
          "internalType": "address",
          "name": "previousOwner",
          "type": "address"
        },
        {
          "indexed": true,
          "internalType": "address",
          "name": "newOwner",
          "type": "address"
        }
      ],
      "name": "OwnershipTransferred",
      "type": "event"
    },
    {
      "anonymous": false,
      "inputs": [
        {
          "indexed": true,
          "internalType": "address",
          "name": "owner",
          "type": "address"
        },
        {
          "indexed": true,
          "internalType": "contract IERC20",
          "name": "lpToken",
          "type": "address"
        },
        {
          "indexed": false,
          "internalType": "uint256",
          "name": "pursePerBlock",
          "type": "uint256"
        },
        {
          "indexed": false,
          "internalType": "uint256",
          "name": "bonusMultiplier",
          "type": "uint256"
        }
      ],
      "name": "UpdatePoolReward",
      "type": "event"
    },
    {
      "anonymous": false,
      "inputs": [
        {
          "indexed": true,
          "internalType": "address",
          "name": "user",
          "type": "address"
        },
        {
          "indexed": false,
          "internalType": "uint256",
          "name": "amount",
          "type": "uint256"
        }
      ],
      "name": "Withdraw",
      "type": "event"
    },
    {
      "inputs": [],
      "name": "capMintToken",
      "outputs": [
        {
          "internalType": "uint256",
          "name": "",
          "type": "uint256"
        }
      ],
      "stateMutability": "view",
      "type": "function",
      "constant": true
    },
    {
      "inputs": [],
      "name": "name",
      "outputs": [
        {
          "internalType": "string",
          "name": "",
          "type": "string"
        }
      ],
      "stateMutability": "view",
      "type": "function",
      "constant": true
    },
    {
      "inputs": [],
      "name": "owner",
      "outputs": [
        {
          "internalType": "address",
          "name": "",
          "type": "address"
        }
      ],
      "stateMutability": "view",
      "type": "function",
      "constant": true
    },
    {
      "inputs": [
        {
          "internalType": "contract IERC20",
          "name": "",
          "type": "address"
        }
      ],
      "name": "poolInfo",
      "outputs": [
        {
          "internalType": "contract IERC20",
          "name": "lpToken",
          "type": "address"
        },
        {
          "internalType": "uint256",
          "name": "pursePerBlock",
          "type": "uint256"
        },
        {
          "internalType": "uint256",
          "name": "bonusMultiplier",
          "type": "uint256"
        },
        {
          "internalType": "uint256",
          "name": "lastRewardBlock",
          "type": "uint256"
        },
        {
          "internalType": "uint256",
          "name": "accPursePerShare",
          "type": "uint256"
        },
        {
          "internalType": "uint256",
          "name": "startBlock",
          "type": "uint256"
        }
      ],
      "stateMutability": "view",
      "type": "function",
      "constant": true
    },
    {
      "inputs": [
        {
          "internalType": "uint256",
          "name": "",
          "type": "uint256"
        }
      ],
      "name": "poolTokenList",
      "outputs": [
        {
          "internalType": "contract IERC20",
          "name": "",
          "type": "address"
        }
      ],
      "stateMutability": "view",
      "type": "function",
      "constant": true
    },
    {
      "inputs": [],
      "name": "purseToken",
      "outputs": [
        {
          "internalType": "contract PurseToken",
          "name": "",
          "type": "address"
        }
      ],
      "stateMutability": "view",
      "type": "function",
      "constant": true
    },
    {
      "inputs": [],
      "name": "renounceOwnership",
      "outputs": [],
      "stateMutability": "nonpayable",
      "type": "function"
    },
    {
      "inputs": [],
      "name": "totalMintToken",
      "outputs": [
        {
          "internalType": "uint256",
          "name": "",
          "type": "uint256"
        }
      ],
      "stateMutability": "view",
      "type": "function",
      "constant": true
    },
    {
      "inputs": [
        {
          "internalType": "address",
          "name": "newOwner",
          "type": "address"
        }
      ],
      "name": "transferOwnership",
      "outputs": [],
      "stateMutability": "nonpayable",
      "type": "function"
    },
    {
      "inputs": [
        {
          "internalType": "contract IERC20",
          "name": "",
          "type": "address"
        },
        {
          "internalType": "address",
          "name": "",
          "type": "address"
        }
      ],
      "name": "userInfo",
      "outputs": [
        {
          "internalType": "uint256",
          "name": "amount",
          "type": "uint256"
        },
        {
          "internalType": "uint256",
          "name": "rewardDebt",
          "type": "uint256"
        }
      ],
      "stateMutability": "view",
      "type": "function",
      "constant": true
    },
    {
      "inputs": [],
      "name": "poolLength",
      "outputs": [
        {
          "internalType": "uint256",
          "name": "",
          "type": "uint256"
        }
      ],
      "stateMutability": "view",
      "type": "function",
      "constant": true
    },
    {
      "inputs": [
        {
          "internalType": "contract IERC20",
          "name": "_lpToken",
          "type": "address"
        },
        {
          "internalType": "uint256",
          "name": "_pursePerBlock",
          "type": "uint256"
        },
        {
          "internalType": "uint256",
          "name": "_bonusMultiplier",
          "type": "uint256"
        },
        {
          "internalType": "uint256",
          "name": "_startBlock",
          "type": "uint256"
        }
      ],
      "name": "add",
      "outputs": [],
      "stateMutability": "nonpayable",
      "type": "function"
    },
    {
      "inputs": [
        {
          "internalType": "contract IERC20",
          "name": "_lpToken",
          "type": "address"
        },
        {
          "internalType": "uint256",
          "name": "_pursePerBlock",
          "type": "uint256"
        },
        {
          "internalType": "uint256",
          "name": "_bonusMultiplier",
          "type": "uint256"
        }
      ],
      "name": "set",
      "outputs": [],
      "stateMutability": "nonpayable",
      "type": "function"
    },
    {
      "inputs": [
        {
          "internalType": "uint256",
          "name": "_from",
          "type": "uint256"
        },
        {
          "internalType": "uint256",
          "name": "_to",
          "type": "uint256"
        }
      ],
      "name": "getMultiplier",
      "outputs": [
        {
          "internalType": "uint256",
          "name": "",
          "type": "uint256"
        }
      ],
      "stateMutability": "pure",
      "type": "function",
      "constant": true
    },
    {
      "inputs": [
        {
          "internalType": "contract IERC20",
          "name": "_lpToken",
          "type": "address"
        }
      ],
      "name": "updatePool",
      "outputs": [],
      "stateMutability": "nonpayable",
      "type": "function"
    },
    {
      "inputs": [
        {
          "internalType": "contract IERC20",
          "name": "_lpToken",
          "type": "address"
        },
        {
          "internalType": "uint256",
          "name": "_amount",
          "type": "uint256"
        }
      ],
      "name": "deposit",
      "outputs": [],
      "stateMutability": "nonpayable",
      "type": "function"
    },
    {
      "inputs": [
        {
          "internalType": "contract IERC20",
          "name": "_lpToken",
          "type": "address"
        },
        {
          "internalType": "uint256",
          "name": "_amount",
          "type": "uint256"
        }
      ],
      "name": "withdraw",
      "outputs": [],
      "stateMutability": "nonpayable",
      "type": "function"
    },
    {
      "inputs": [
        {
          "internalType": "contract IERC20",
          "name": "_lpToken",
          "type": "address"
        }
      ],
      "name": "claimReward",
      "outputs": [],
      "stateMutability": "nonpayable",
      "type": "function"
    },
    {
      "inputs": [
        {
          "internalType": "uint256",
          "name": "_newCap",
          "type": "uint256"
        }
      ],
      "name": "capMintTokenUpdate",
      "outputs": [],
      "stateMutability": "nonpayable",
      "type": "function"
    },
    {
      "inputs": [
        {
          "internalType": "contract IERC20",
          "name": "_lpToken",
          "type": "address"
        }
      ],
      "name": "emergencyWithdraw",
      "outputs": [],
      "stateMutability": "nonpayable",
      "type": "function"
    },
    {
      "inputs": [
        {
          "internalType": "address",
          "name": "token",
          "type": "address"
        },
        {
          "internalType": "uint256",
          "name": "amount",
          "type": "uint256"
        },
        {
          "internalType": "address",
          "name": "_to",
          "type": "address"
        }
      ],
      "name": "returnAnyToken",
      "outputs": [],
      "stateMutability": "nonpayable",
      "type": "function"
    },
    {
      "inputs": [
        {
          "internalType": "contract IERC20",
          "name": "_lpToken",
          "type": "address"
        },
        {
          "internalType": "address",
          "name": "_user",
          "type": "address"
        }
      ],
      "name": "pendingReward",
      "outputs": [
        {
          "internalType": "uint256",
          "name": "",
          "type": "uint256"
        }
      ],
      "stateMutability": "view",
      "type": "function",
      "constant": true
    }
  ],
  "bytecode": "0x60c0604052600d60808190527f52657374616b696e674661726d0000000000000000000000000000000000000060a0908152620000409160019190620000f6565b503480156200004e57600080fd5b5060405162001d2b38038062001d2b83398101604081905262000071916200019c565b6200007c33620000a6565b600280546001600160a01b0319166001600160a01b0393909316929092179091556004556200022e565b600080546001600160a01b038381166001600160a01b0319831681178455604051919092169283917f8be0079c531659141344cd1fd0a4f28419497f9722a3daafe3b4186f6b6457e09190a35050565b8280546200010490620001d8565b90600052602060002090601f01602090048101928262000128576000855562000173565b82601f106200014357805160ff191683800117855562000173565b8280016001018555821562000173579182015b828111156200017357825182559160200191906001019062000156565b506200018192915062000185565b5090565b5b8082111562000181576000815560010162000186565b60008060408385031215620001b057600080fd5b82516001600160a01b0381168114620001c857600080fd5b6020939093015192949293505050565b600181811c90821680620001ed57607f821691505b6020821081141562000228577f4e487b7100000000000000000000000000000000000000000000000000000000600052602260045260246000fd5b50919050565b611aed806200023e6000396000f3fe608060405234801561001057600080fd5b50600436106101425760003560e01c80638308d7e9116100b8578063ac854ac51161007c578063ac854ac514610333578063c237e3261461033c578063d279c1911461034f578063e2d16c4414610362578063f2fde38b1461036b578063f3fef3a31461037e57600080fd5b80638308d7e9146102655780638da5cb5b146102785780638dbb1e3a146102895780639a7b5f111461029c5780639ced7e761461032057600080fd5b806337c5a5561161010a57806337c5a556146101fe57806347e7ef241461021157806351bf16ef146102245780636ff1c9bc14610237578063715018a61461024a5780637b46c54f1461025257600080fd5b806306fdde0314610147578063081e3eda146101655780630f208beb146101775780630fe79ee4146101be5780632df2fb73146101e9575b600080fd5b61014f610391565b60405161015c9190611925565b60405180910390f35b6005545b60405190815260200161015c565b6101a96101853660046117e0565b60076020908152600092835260408084209091529082529020805460019091015482565b6040805192835260208301919091520161015c565b6101d16101cc3660046118b5565b61041f565b6040516001600160a01b03909116815260200161015c565b6101fc6101f736600461187a565b610449565b005b6101fc61020c3660046118b5565b610607565b6101fc61021f366004611819565b610636565b6002546101d1906001600160a01b031681565b6101fc61024536600461175f565b610810565b6101fc6108a4565b6101fc61026036600461175f565b6108da565b6101fc610273366004611845565b610b70565b6000546001600160a01b03166101d1565b6101696102973660046118e7565b610c45565b6102e96102aa36600461175f565b6006602052600090815260409020805460018201546002830154600384015460048501546005909501546001600160a01b039094169492939192909186565b604080516001600160a01b0390971687526020870195909552938501929092526060840152608083015260a082015260c00161015c565b61016961032e3660046117e0565b610c58565b61016960045481565b6101fc61034a36600461177c565b610def565b6101fc61035d36600461175f565b610e88565b61016960035481565b6101fc61037936600461175f565b61102c565b6101fc61038c366004611819565b6110c7565b6001805461039e90611a51565b80601f01602080910402602001604051908101604052809291908181526020018280546103ca90611a51565b80156104175780601f106103ec57610100808354040283529160200191610417565b820191906000526020600020905b8154815290600101906020018083116103fa57829003601f168201915b505050505081565b6005818154811061042f57600080fd5b6000918252602090912001546001600160a01b0316905081565b6000546001600160a01b0316331461047c5760405162461bcd60e51b815260040161047390611980565b60405180910390fd5b6001600160a01b0384811660009081526006602052604090205416156104ef5760405162461bcd60e51b815260206004820152602260248201527f4661726d65723a3a6164643a206c7020697320616c726561647920696e20706f6044820152611bdb60f21b6064820152608401610473565b60008143116104fe5781610500565b435b6040805160c0810182526001600160a01b0388811680835260208084018a81528486018a8152606080870189815260006080890181815260a08a018e8152888352600688528b83209a518b549a166001600160a01b03199a8b16178b5595516001808c0191909155945160028b0155915160038a015590516004890155925160059788015586549182018755959091527f036b6384b5eca791c62761152d0c79bb0604c104a5fb6f4eb0703f3154bb3db001805490931682179092558351898152918201889052928101869052929350909133917f2474bccb27f5e5e41c50b70eb93dac4cf5e7ba77949576a24c670ebeab2b5f2f91015b60405180910390a35050505050565b6000546001600160a01b031633146106315760405162461bcd60e51b815260040161047390611980565b600455565b6001600160a01b0380831660009081526006602052604090205483911661066f5760405162461bcd60e51b815260040161047390611958565b6001600160a01b0383166000908152600660209081526040808320600783528184203385529092529091206106a3856108da565b805415610781576000816001015464e8d4a51000846004015484600001546106cb91906119ef565b6106d591906119cd565b6106df9190611a0e565b6002546040516370a0823160e01b81523060048201529192506000916001600160a01b03909116906370a082319060240160206040518083038186803b15801561072857600080fd5b505afa15801561073c573d6000803e3d6000fd5b505050506040513d601f19601f8201168201806040525081019061076091906118ce565b90508082111561076e578091505b811561077e5761077e33836112dd565b50505b83156107ae57815461079e906001600160a01b0316333087611429565b80546107ab9085906119b5565b81555b6004820154815464e8d4a51000916107c5916119ef565b6107cf91906119cd565b600182015560405184815233907fe1fffcc4923d04b559f4d29a8bfc6cda04eb5b0d3c460751c2402c5c5cc9109c9060200160405180910390a25050505050565b6001600160a01b03808216600090815260066020908152604080832060078352818420338086529352908320805484825560018201949094558154919490939261085e929091169083611494565b6040518181526001600160a01b0385169033907ff24ef89f38eadc1bde50701ad6e4d6d11a2dc24f7cf834a486991f38833285049060200160405180910390a350505050565b6000546001600160a01b031633146108ce5760405162461bcd60e51b815260040161047390611980565b6108d860006114c4565b565b6001600160a01b038082166000908152600660205260409020548291166109135760405162461bcd60e51b815260040161047390611958565b6001600160a01b03821660009081526006602052604090206003810154431161093b57505050565b80546040516370a0823160e01b81523060048201526000916001600160a01b0316906370a082319060240160206040518083038186803b15801561097e57600080fd5b505afa158015610992573d6000803e3d6000fd5b505050506040513d601f19601f820116820180604052508101906109b691906118ce565b9050806109c95750436003909101555050565b60006109d9836003015443610c45565b9050600083600201548460010154836109f291906119ef565b6109fc91906119ef565b90506004546003541015610b315760045481600354610a1b91906119b5565b10610ab5576000600354600454610a329190611a0e565b90508060036000828254610a4691906119b5565b90915550506002546040516340c10f1960e01b8152306004820152602481018390526001600160a01b03909116906340c10f1990604401600060405180830381600087803b158015610a9757600080fd5b505af1158015610aab573d6000803e3d6000fd5b5050505050610b31565b8060036000828254610ac791906119b5565b90915550506002546040516340c10f1960e01b8152306004820152602481018390526001600160a01b03909116906340c10f1990604401600060405180830381600087803b158015610b1857600080fd5b505af1158015610b2c573d6000803e3d6000fd5b505050505b82610b418264e8d4a510006119ef565b610b4b91906119cd565b8460040154610b5a91906119b5565b6004850155505043600390920191909155505050565b6000546001600160a01b03163314610b9a5760405162461bcd60e51b815260040161047390611980565b6001600160a01b03808416600090815260066020526040902054849116610bd35760405162461bcd60e51b815260040161047390611958565b6001600160a01b0384166000908152600660205260409020610bf4856108da565b600181018490556002810183905560408051858152602081018590526001600160a01b0387169133917f1a0c162ce211430801943e8fd16295f447a44d0f74f7671bbb751a76724e507b91016105f8565b6000610c518383611a0e565b9392505050565b6001600160a01b038083166000908152600660205260408120549091849116610c935760405162461bcd60e51b815260040161047390611958565b6001600160a01b038481166000908152600660209081526040808320600783528184208886168552909252808320600480840154845493516370a0823160e01b815230928101929092529395919492909116906370a082319060240160206040518083038186803b158015610d0757600080fd5b505afa158015610d1b573d6000803e3d6000fd5b505050506040513d601f19601f82011682018060405250810190610d3f91906118ce565b90506000846003015443118015610d5557508115155b15610db557610d68856003015443610c45565b905060008560020154866001015483610d8191906119ef565b610d8b91906119ef565b905082610d9d8264e8d4a510006119ef565b610da791906119cd565b610db190856119b5565b9350505b6001840154845464e8d4a5100090610dce9086906119ef565b610dd891906119cd565b610de29190611a0e565b9998505050505050505050565b6000546001600160a01b03163314610e195760405162461bcd60e51b815260040161047390611980565b6001600160a01b038116610e6f5760405162461bcd60e51b815260206004820152601860248201527f73656e6420746f20746865207a65726f206164647265737300000000000000006044820152606401610473565b610e836001600160a01b0384168284611494565b505050565b6001600160a01b03808216600090815260066020526040902054829116610ec15760405162461bcd60e51b815260040161047390611958565b6001600160a01b038216600090815260066020908152604080832060078352818420338552909252909120610ef5846108da565b6000816001015464e8d4a5100084600401548460000154610f1691906119ef565b610f2091906119cd565b610f2a9190611a0e565b6002546040516370a0823160e01b81523060048201529192506000916001600160a01b03909116906370a082319060240160206040518083038186803b158015610f7357600080fd5b505afa158015610f87573d6000803e3d6000fd5b505050506040513d601f19601f82011682018060405250810190610fab91906118ce565b905080821115610fb9578091505b8115610fc957610fc933836112dd565b6004840154835464e8d4a5100091610fe0916119ef565b610fea91906119cd565b600184015560405182815233907fba8de60c3403ec381d1d484652ea1980e3c3e56359195c92525bff4ce47ad98e9060200160405180910390a2505050505050565b6000546001600160a01b031633146110565760405162461bcd60e51b815260040161047390611980565b6001600160a01b0381166110bb5760405162461bcd60e51b815260206004820152602660248201527f4f776e61626c653a206e6577206f776e657220697320746865207a65726f206160448201526564647265737360d01b6064820152608401610473565b6110c4816114c4565b50565b6001600160a01b038083166000908152600660205260409020548391166111005760405162461bcd60e51b815260040161047390611958565b6001600160a01b03831660009081526006602090815260408083206007835281842033855290925290912080548411156111715760405162461bcd60e51b81526020600482015260126024820152711dda5d1a191c985dce881b9bdd0819dbdbd960721b6044820152606401610473565b61117a856108da565b6000816001015464e8d4a510008460040154846000015461119b91906119ef565b6111a591906119cd565b6111af9190611a0e565b6002546040516370a0823160e01b81523060048201529192506000916001600160a01b03909116906370a082319060240160206040518083038186803b1580156111f857600080fd5b505afa15801561120c573d6000803e3d6000fd5b505050506040513d601f19601f8201168201806040525081019061123091906118ce565b90508082111561123e578091505b811561124e5761124e33836112dd565b8515611279578254611261908790611a0e565b83558354611279906001600160a01b03163388611494565b6004840154835464e8d4a5100091611290916119ef565b61129a91906119cd565b600184015560405186815233907f884edad9ce6fa2440d8a54cc123490eb96d2768479d49ff9c7366125a94243649060200160405180910390a250505050505050565b6002546040516370a0823160e01b81523060048201526000916001600160a01b0316906370a082319060240160206040518083038186803b15801561132157600080fd5b505afa158015611335573d6000803e3d6000fd5b505050506040513d601f19601f8201168201806040525081019061135991906118ce565b9050808211156113f05760025460405163a9059cbb60e01b81526001600160a01b038581166004830152602482018490529091169063a9059cbb906044015b602060405180830381600087803b1580156113b257600080fd5b505af11580156113c6573d6000803e3d6000fd5b505050506040513d601f19601f820116820180604052508101906113ea91906117be565b50505050565b60025460405163a9059cbb60e01b81526001600160a01b038581166004830152602482018590529091169063a9059cbb90604401611398565b6040516001600160a01b03808516602483015283166044820152606481018290526113ea9085906323b872dd60e01b906084015b60408051601f198184030181529190526020810180516001600160e01b03166001600160e01b031990931692909217909152611514565b6040516001600160a01b038316602482015260448101829052610e8390849063a9059cbb60e01b9060640161145d565b600080546001600160a01b038381166001600160a01b0319831681178455604051919092169283917f8be0079c531659141344cd1fd0a4f28419497f9722a3daafe3b4186f6b6457e09190a35050565b6000611569826040518060400160405280602081526020017f5361666545524332303a206c6f772d6c6576656c2063616c6c206661696c6564815250856001600160a01b03166115e69092919063ffffffff16565b805190915015610e83578080602001905181019061158791906117be565b610e835760405162461bcd60e51b815260206004820152602a60248201527f5361666545524332303a204552433230206f7065726174696f6e20646964206e6044820152691bdd081cdd58d8d9595960b21b6064820152608401610473565b60606115f584846000856115fd565b949350505050565b6060303183111561165f5760405162461bcd60e51b815260206004820152602660248201527f416464726573733a20696e73756666696369656e742062616c616e636520666f6044820152651c8818d85b1b60d21b6064820152608401610473565b843b6116ad5760405162461bcd60e51b815260206004820152601d60248201527f416464726573733a2063616c6c20746f206e6f6e2d636f6e74726163740000006044820152606401610473565b600080866001600160a01b031685876040516116c99190611909565b60006040518083038185875af1925050503d8060008114611706576040519150601f19603f3d011682016040523d82523d6000602084013e61170b565b606091505b509150915061171b828286611726565b979650505050505050565b60608315611735575081610c51565b8251156117455782518084602001fd5b8160405162461bcd60e51b81526004016104739190611925565b60006020828403121561177157600080fd5b8135610c5181611aa2565b60008060006060848603121561179157600080fd5b833561179c81611aa2565b92506020840135915060408401356117b381611aa2565b809150509250925092565b6000602082840312156117d057600080fd5b81518015158114610c5157600080fd5b600080604083850312156117f357600080fd5b82356117fe81611aa2565b9150602083013561180e81611aa2565b809150509250929050565b6000806040838503121561182c57600080fd5b823561183781611aa2565b946020939093013593505050565b60008060006060848603121561185a57600080fd5b833561186581611aa2565b95602085013595506040909401359392505050565b6000806000806080858703121561189057600080fd5b843561189b81611aa2565b966020860135965060408601359560600135945092505050565b6000602082840312156118c757600080fd5b5035919050565b6000602082840312156118e057600080fd5b5051919050565b600080604083850312156118fa57600080fd5b50508035926020909101359150565b6000825161191b818460208701611a25565b9190910192915050565b6020815260008251806020840152611944816040850160208701611a25565b601f01601f19169190910160400192915050565b6020808252600e908201526d141bdbdb081b9bdd08195e1a5cdd60921b604082015260600190565b6020808252818101527f4f776e61626c653a2063616c6c6572206973206e6f7420746865206f776e6572604082015260600190565b600082198211156119c8576119c8611a8c565b500190565b6000826119ea57634e487b7160e01b600052601260045260246000fd5b500490565b6000816000190483118215151615611a0957611a09611a8c565b500290565b600082821015611a2057611a20611a8c565b500390565b60005b83811015611a40578181015183820152602001611a28565b838111156113ea5750506000910152565b600181811c90821680611a6557607f821691505b60208210811415611a8657634e487b7160e01b600052602260045260246000fd5b50919050565b634e487b7160e01b600052601160045260246000fd5b6001600160a01b03811681146110c457600080fdfea264697066735822122064269aae5e9ce58694dc7e21f99f1d2f9d6c8fedd473d1519da787a3e51c354164736f6c63430008070033",
  "immutableReferences": {},
  "source": "// SPDX-License-Identifier: UNLICENSED\r\n\r\npragma solidity ^0.8.0;\r\n\r\nimport \"@openzeppelin/contracts/access/Ownable.sol\";\r\nimport \"@openzeppelin/contracts/token/ERC20/IERC20.sol\";\r\nimport \"@openzeppelin/contracts/token/ERC20/utils/SafeERC20.sol\";\r\n \r\ninterface PurseToken {\r\n\r\n    function transfer(address to, uint tokens) external  returns (bool success);\r\n\r\n    function mint(address to, uint tokens) external;\r\n\r\n    function transferFrom(address from, address to, uint tokens) external  returns (bool success);\r\n\r\n    function balanceOf(address tokenOwner) external view returns (uint balance);\r\n\r\n}\r\n\r\ncontract RestakingFarm is Ownable{\r\n    using SafeERC20 for IERC20;\r\n\r\n    // ---Contract Variables---\r\n    string public name = \"RestakingFarm\";\r\n\r\n    // Userinfo\r\n    struct UserInfo {\r\n        uint256 amount;     // How many LP tokens the user has provided.\r\n        uint256 rewardDebt; // Reward debt. See explanation below.\r\n        //\r\n        // We do some fancy math here. Basically, any point in time, the amount of PURSEs\r\n        // entitled to a user but is pending to be distributed is:\r\n        //\r\n        //   pending reward = (user.amount * pool.accPursePerShare) - user.rewardDebt\r\n        //\r\n        // Whenever a user deposits or withdraws LP tokens to a pool. Here's what happens:\r\n        //   1. The pool's `accPursePerShare` (and `lastRewardBlock`) gets updated.\r\n        //   2. User receives the pending reward sent to his/her address.\r\n        //   3. User's `amount` gets updated.\r\n        //   4. User's `rewardDebt` gets updated.\r\n    }\r\n    \r\n    // Info of each pool.\r\n    struct PoolInfo {\r\n        IERC20 lpToken;           // Address of LP token contract.\r\n        uint256 pursePerBlock;\r\n        uint256 bonusMultiplier;\r\n        uint256 lastRewardBlock;  // Last block number that PURSEs distribution occurs.\r\n        uint256 accPursePerShare; // Accumulated PURSEs per share, times 1e12. See below.\r\n        uint256 startBlock;\r\n    }\r\n\r\n    // The PURSE TOKEN!\r\n    PurseToken public purseToken;\r\n    uint256 public totalMintToken;    \r\n    uint256 public capMintToken;\r\n    IERC20[] public poolTokenList;\r\n    mapping(IERC20 => PoolInfo) public poolInfo;\r\n\r\n    // Info of each user that stakes LP tokens.\r\n    mapping (IERC20 => mapping (address => UserInfo)) public userInfo;\r\n\r\n    event Deposit(address indexed user, uint256 amount);\r\n    event Withdraw(address indexed user, uint256 amount);\r\n    event AddNewPool(address indexed owner, IERC20 indexed lpToken, uint256 pursePerBlock, uint256 bonusMultiplier, uint256 startBlock);\r\n    event UpdatePoolReward(address indexed owner, IERC20 indexed lpToken, uint256 pursePerBlock, uint256 bonusMultiplier);\r\n    event ClaimReward(address indexed user, uint256 amount);\r\n    event EmergencyWithdraw(address indexed user, IERC20 indexed lpToken, uint256 amount);\r\n\r\n    modifier poolExist(IERC20 _lpToken) {\r\n        require( poolInfo[(_lpToken)].lpToken != IERC20(address(0)), \"Pool not exist\");\r\n        _;\r\n    }\r\n\r\n    constructor(\r\n        PurseToken _purseToken,\r\n        uint256 _capMintToken\r\n    ) {\r\n        purseToken = _purseToken;\r\n        capMintToken = _capMintToken;\r\n        }    \r\n\r\n    function poolLength() external view returns (uint256) {\r\n        return poolTokenList.length;\r\n    }\r\n\r\n    // Add a new lp to the pool. Can only be called by the owner.\r\n    function add(IERC20 _lpToken, uint256 _pursePerBlock, uint256 _bonusMultiplier, uint256 _startBlock) public onlyOwner {\r\n        require(poolInfo[(_lpToken)].lpToken == IERC20(address(0)), \"Farmer::add: lp is already in pool\");\r\n        uint256 lastRewardBlock = block.number > _startBlock ? block.number : _startBlock;\r\n        poolInfo[(_lpToken)] = PoolInfo({\r\n            lpToken: _lpToken,\r\n            pursePerBlock : _pursePerBlock,\r\n            bonusMultiplier: _bonusMultiplier,\r\n            lastRewardBlock: lastRewardBlock,\r\n            accPursePerShare: 0,\r\n            startBlock: _startBlock\r\n        });\r\n        poolTokenList.push(_lpToken);\r\n        emit AddNewPool(msg.sender, _lpToken, _pursePerBlock, _bonusMultiplier, _startBlock);\r\n    }\r\n\r\n    // Update the given pool's PURSE _pursePerBlock. Can only be called by the owner.\r\n    function set(IERC20 _lpToken, uint256 _pursePerBlock, uint256 _bonusMultiplier) public onlyOwner poolExist(_lpToken){\r\n        PoolInfo storage pool = poolInfo[_lpToken];\r\n        updatePool(_lpToken);\r\n        pool.pursePerBlock = _pursePerBlock;\r\n        pool.bonusMultiplier= _bonusMultiplier;\r\n        emit UpdatePoolReward(msg.sender, _lpToken, _pursePerBlock, _bonusMultiplier );\r\n    }\r\n\r\n    // Return reward multiplier over the given _from to _to block.\r\n    function getMultiplier(uint256 _from, uint256 _to) public pure returns (uint256) {\r\n        return _to-_from;\r\n    }\r\n\r\n    // Update reward variables of the given pool to be up-to-date.\r\n    function updatePool(IERC20 _lpToken) public poolExist(_lpToken){\r\n        PoolInfo storage pool = poolInfo[_lpToken];\r\n        if (block.number <= pool.lastRewardBlock) {\r\n            return;\r\n        }\r\n        uint256 lpSupply = pool.lpToken.balanceOf(address(this));\r\n        if (lpSupply == 0) {\r\n            pool.lastRewardBlock = block.number;\r\n            return;\r\n        }\r\n        uint256 multiplier = getMultiplier(pool.lastRewardBlock, block.number);\r\n        uint256 purseReward = multiplier*pool.pursePerBlock*pool.bonusMultiplier;\r\n        if (totalMintToken < capMintToken) {\r\n            if (totalMintToken + purseReward >= capMintToken) {\r\n                uint256 PurseCanMint = capMintToken-totalMintToken;\r\n                totalMintToken += PurseCanMint;\r\n                purseToken.mint(address(this), PurseCanMint);\r\n            } else {\r\n                totalMintToken += purseReward;\r\n                purseToken.mint(address(this), purseReward);\r\n            }\r\n        }\r\n        pool.accPursePerShare = pool.accPursePerShare+(purseReward*1e12/lpSupply);\r\n        pool.lastRewardBlock = block.number;\r\n    }\r\n\r\n    // Deposit LP tokens to Restaking Pool for Purse allocation.\r\n    function deposit(IERC20 _lpToken, uint256 _amount) public poolExist(_lpToken) {        \r\n        PoolInfo storage pool = poolInfo[_lpToken];\r\n        UserInfo storage user = userInfo[_lpToken][msg.sender];\r\n        updatePool(_lpToken);\r\n\r\n        if (user.amount > 0) {\r\n            uint256 pending = user.amount*pool.accPursePerShare/1e12-user.rewardDebt;\r\n            uint256 farmBal = purseToken.balanceOf(address(this));\r\n\r\n            if (pending > farmBal) {\r\n                pending = farmBal;\r\n            }\r\n            if(pending > 0) {\r\n                safePurseTransfer(msg.sender, pending);\r\n            }\r\n        }\r\n        if (_amount > 0) {\r\n            pool.lpToken.safeTransferFrom(address(msg.sender), address(this), _amount);\r\n            user.amount = user.amount+_amount;\r\n        }\r\n        user.rewardDebt = user.amount*pool.accPursePerShare/1e12;\r\n        emit Deposit(msg.sender, _amount);\r\n    }\r\n\r\n    // Withdraw LP tokens from MasterChef.\r\n    function withdraw(IERC20 _lpToken, uint256 _amount) public poolExist(_lpToken){\r\n\r\n        PoolInfo storage pool = poolInfo[_lpToken];\r\n        UserInfo storage user = userInfo[_lpToken][msg.sender];\r\n        require(user.amount >= _amount, \"withdraw: not good\");\r\n\r\n        updatePool(_lpToken);\r\n        uint256 pending = user.amount*pool.accPursePerShare/1e12-user.rewardDebt;\r\n        uint256 farmBal = purseToken.balanceOf(address(this));\r\n\r\n        if (pending > farmBal) {\r\n            pending = farmBal;\r\n        }\r\n\r\n        if(pending > 0) {\r\n            safePurseTransfer(msg.sender, pending);\r\n        }\r\n        if(_amount > 0) {\r\n            user.amount = user.amount-_amount;\r\n            pool.lpToken.safeTransfer(address(msg.sender), _amount);\r\n        }\r\n        user.rewardDebt = user.amount*pool.accPursePerShare/1e12;\r\n        emit Withdraw(msg.sender, _amount);\r\n    }\r\n\r\n    // Harvest reward tokens from pool.\r\n    function claimReward(IERC20 _lpToken) public poolExist(_lpToken){\r\n\r\n        PoolInfo storage pool = poolInfo[_lpToken];\r\n        UserInfo storage user = userInfo[_lpToken][msg.sender];\r\n\r\n        updatePool(_lpToken);\r\n        uint256 pending = user.amount*pool.accPursePerShare/1e12-user.rewardDebt;\r\n        uint256 farmBal = purseToken.balanceOf(address(this));\r\n\r\n        if (pending > farmBal) {\r\n            pending = farmBal;\r\n        }\r\n\r\n        if(pending > 0) {\r\n            safePurseTransfer(msg.sender, pending);\r\n        }\r\n        user.rewardDebt = user.amount*pool.accPursePerShare/1e12;\r\n\r\n        emit ClaimReward(msg.sender, pending);\r\n    }\r\n\r\n    function capMintTokenUpdate (uint256 _newCap) public onlyOwner {\r\n        capMintToken = _newCap;\r\n    }\r\n\r\n    // Safe purse transfer function, just in case if rounding error causes pool to not have enough PURSEs.\r\n    function safePurseTransfer(address _to, uint256 _amount) internal {\r\n        uint256 purseBal = purseToken.balanceOf(address(this));\r\n        if (_amount > purseBal) {\r\n            purseToken.transfer(_to, purseBal);\r\n        } else {\r\n            purseToken.transfer(_to, _amount);\r\n        }\r\n    }\r\n\r\n    // Withdraw without caring about rewards. EMERGENCY ONLY.\r\n    function emergencyWithdraw(IERC20 _lpToken) public {\r\n        PoolInfo storage pool = poolInfo[_lpToken];\r\n        UserInfo storage user = userInfo[_lpToken][msg.sender];\r\n        uint256 amount = user.amount;\r\n        user.amount = 0;\r\n        user.rewardDebt = 0;\r\n        pool.lpToken.safeTransfer(address(msg.sender), amount);\r\n        emit EmergencyWithdraw(msg.sender, _lpToken, amount);\r\n    }\r\n\r\n    // Return any token function, just in case if any user transfer token into the smart contract. \r\n    function returnAnyToken(address token, uint256 amount, address _to) public onlyOwner{\r\n        require(_to != address(0), \"send to the zero address\");\r\n        IERC20(token).safeTransfer(_to, amount);\r\n    }\r\n\r\n     // View function to see pending PURSEs on frontend.\r\n    function pendingReward(IERC20 _lpToken, address _user) external view poolExist(_lpToken) returns (uint256) {\r\n        PoolInfo storage pool = poolInfo[_lpToken];\r\n        UserInfo storage user = userInfo[_lpToken][_user];\r\n        uint256 accPursePerShare = pool.accPursePerShare;\r\n        uint256 lpSupply = pool.lpToken.balanceOf(address(this));\r\n        uint256 multiplier;\r\n        if (block.number > pool.lastRewardBlock && lpSupply != 0) {\r\n            multiplier = getMultiplier(pool.lastRewardBlock, block.number);\r\n            uint256 purseReward = multiplier*pool.pursePerBlock*pool.bonusMultiplier;\r\n            accPursePerShare = accPursePerShare+(purseReward*(1e12)/lpSupply);\r\n        }\r\n        return (user.amount*(accPursePerShare)/(1e12)-(user.rewardDebt));\r\n    }\r\n}",
  "sourcePath": "C:/Users/cheek/Desktop/Developer doc/Visual Studio Code/PundiX/lpTokenRestakingFarm/src/contracts/RestakingFarm.sol",
  "compiler": {
    "name": "solc",
    "version": "0.8.7+commit.e28d00a7.Emscripten.clang"
  },
  "schemaVersion": "3.2.3",
  "updatedAt": "2021-11-17T07:38:07.681Z",
  "networkType": "ethereum",
  "devdoc": {
    "kind": "dev",
    "methods": {
      "owner()": {
        "details": "Returns the address of the current owner."
      },
      "renounceOwnership()": {
        "details": "Leaves the contract without owner. It will not be possible to call `onlyOwner` functions anymore. Can only be called by the current owner. NOTE: Renouncing ownership will leave the contract without an owner, thereby removing any functionality that is only available to the owner."
      },
      "transferOwnership(address)": {
        "details": "Transfers ownership of the contract to a new account (`newOwner`). Can only be called by the current owner."
      }
    },
    "version": 1
  },
  "userdoc": {
    "kind": "user",
    "methods": {},
    "version": 1
  }
}