{
  "contractName": "RestakingFarm",
  "abi": [
    {
      "inputs": [
        {
          "internalType": "contract PurseToken",
          "name": "_purseToken",
          "type": "address"
        },
        {
          "internalType": "uint256",
          "name": "_capMintToken",
          "type": "uint256"
        }
      ],
      "stateMutability": "nonpayable",
      "type": "constructor"
    },
    {
      "anonymous": false,
      "inputs": [
        {
          "indexed": true,
          "internalType": "address",
          "name": "owner",
          "type": "address"
        },
        {
          "indexed": true,
          "internalType": "contract IERC20",
          "name": "_lpToken",
          "type": "address"
        },
        {
          "indexed": false,
          "internalType": "uint256",
          "name": "_pursePerBlock",
          "type": "uint256"
        },
        {
          "indexed": false,
          "internalType": "uint256",
          "name": "_bonusMultiplier",
          "type": "uint256"
        },
        {
          "indexed": false,
          "internalType": "bool",
          "name": "_withUpdate",
          "type": "bool"
        },
        {
          "indexed": false,
          "internalType": "uint256",
          "name": "_startBlock",
          "type": "uint256"
        }
      ],
      "name": "AddNewPool",
      "type": "event"
    },
    {
      "anonymous": false,
      "inputs": [
        {
          "indexed": true,
          "internalType": "address",
          "name": "user",
          "type": "address"
        },
        {
          "indexed": false,
          "internalType": "uint256",
          "name": "amount",
          "type": "uint256"
        }
      ],
      "name": "ClaimReward",
      "type": "event"
    },
    {
      "anonymous": false,
      "inputs": [
        {
          "indexed": true,
          "internalType": "address",
          "name": "user",
          "type": "address"
        },
        {
          "indexed": false,
          "internalType": "uint256",
          "name": "amount",
          "type": "uint256"
        }
      ],
      "name": "Deposit",
      "type": "event"
    },
    {
      "anonymous": false,
      "inputs": [
        {
          "indexed": true,
          "internalType": "address",
          "name": "previousOwner",
          "type": "address"
        },
        {
          "indexed": true,
          "internalType": "address",
          "name": "newOwner",
          "type": "address"
        }
      ],
      "name": "OwnershipTransferred",
      "type": "event"
    },
    {
      "anonymous": false,
      "inputs": [
        {
          "indexed": true,
          "internalType": "address",
          "name": "owner",
          "type": "address"
        },
        {
          "indexed": true,
          "internalType": "uint256",
          "name": "_pid",
          "type": "uint256"
        },
        {
          "indexed": false,
          "internalType": "uint256",
          "name": "_pursePerBlock",
          "type": "uint256"
        },
        {
          "indexed": false,
          "internalType": "uint256",
          "name": "_bonusMultiplier",
          "type": "uint256"
        },
        {
          "indexed": false,
          "internalType": "bool",
          "name": "_withUpdate",
          "type": "bool"
        }
      ],
      "name": "UpdatePoolReward",
      "type": "event"
    },
    {
      "anonymous": false,
      "inputs": [
        {
          "indexed": true,
          "internalType": "address",
          "name": "user",
          "type": "address"
        },
        {
          "indexed": false,
          "internalType": "uint256",
          "name": "amount",
          "type": "uint256"
        }
      ],
      "name": "Withdraw",
      "type": "event"
    },
    {
      "inputs": [],
      "name": "capMintToken",
      "outputs": [
        {
          "internalType": "uint256",
          "name": "",
          "type": "uint256"
        }
      ],
      "stateMutability": "view",
      "type": "function"
    },
    {
      "inputs": [],
      "name": "name",
      "outputs": [
        {
          "internalType": "string",
          "name": "",
          "type": "string"
        }
      ],
      "stateMutability": "view",
      "type": "function"
    },
    {
      "inputs": [],
      "name": "owner",
      "outputs": [
        {
          "internalType": "address",
          "name": "",
          "type": "address"
        }
      ],
      "stateMutability": "view",
      "type": "function"
    },
    {
      "inputs": [
        {
          "internalType": "address",
          "name": "",
          "type": "address"
        }
      ],
      "name": "poolId",
      "outputs": [
        {
          "internalType": "uint256",
          "name": "",
          "type": "uint256"
        }
      ],
      "stateMutability": "view",
      "type": "function"
    },
    {
      "inputs": [
        {
          "internalType": "uint256",
          "name": "",
          "type": "uint256"
        }
      ],
      "name": "poolInfo",
      "outputs": [
        {
          "internalType": "contract IERC20",
          "name": "lpToken",
          "type": "address"
        },
        {
          "internalType": "uint256",
          "name": "pursePerBlock",
          "type": "uint256"
        },
        {
          "internalType": "uint256",
          "name": "bonusMultiplier",
          "type": "uint256"
        },
        {
          "internalType": "uint256",
          "name": "lastRewardBlock",
          "type": "uint256"
        },
        {
          "internalType": "uint256",
          "name": "accPursePerShare",
          "type": "uint256"
        },
        {
          "internalType": "uint256",
          "name": "startBlock",
          "type": "uint256"
        }
      ],
      "stateMutability": "view",
      "type": "function"
    },
    {
      "inputs": [],
      "name": "purseToken",
      "outputs": [
        {
          "internalType": "contract PurseToken",
          "name": "",
          "type": "address"
        }
      ],
      "stateMutability": "view",
      "type": "function"
    },
    {
      "inputs": [],
      "name": "renounceOwnership",
      "outputs": [],
      "stateMutability": "nonpayable",
      "type": "function"
    },
    {
      "inputs": [],
      "name": "totalMintToken",
      "outputs": [
        {
          "internalType": "uint256",
          "name": "",
          "type": "uint256"
        }
      ],
      "stateMutability": "view",
      "type": "function"
    },
    {
      "inputs": [
        {
          "internalType": "address",
          "name": "newOwner",
          "type": "address"
        }
      ],
      "name": "transferOwnership",
      "outputs": [],
      "stateMutability": "nonpayable",
      "type": "function"
    },
    {
      "inputs": [
        {
          "internalType": "uint256",
          "name": "",
          "type": "uint256"
        },
        {
          "internalType": "address",
          "name": "",
          "type": "address"
        }
      ],
      "name": "userInfo",
      "outputs": [
        {
          "internalType": "uint256",
          "name": "amount",
          "type": "uint256"
        },
        {
          "internalType": "uint256",
          "name": "rewardDebt",
          "type": "uint256"
        }
      ],
      "stateMutability": "view",
      "type": "function"
    },
    {
      "inputs": [],
      "name": "poolLength",
      "outputs": [
        {
          "internalType": "uint256",
          "name": "",
          "type": "uint256"
        }
      ],
      "stateMutability": "view",
      "type": "function"
    },
    {
      "inputs": [
        {
          "internalType": "contract IERC20",
          "name": "_lpToken",
          "type": "address"
        },
        {
          "internalType": "uint256",
          "name": "_pursePerBlock",
          "type": "uint256"
        },
        {
          "internalType": "uint256",
          "name": "_bonusMultiplier",
          "type": "uint256"
        },
        {
          "internalType": "bool",
          "name": "_withUpdate",
          "type": "bool"
        },
        {
          "internalType": "uint256",
          "name": "_startBlock",
          "type": "uint256"
        }
      ],
      "name": "add",
      "outputs": [],
      "stateMutability": "nonpayable",
      "type": "function"
    },
    {
      "inputs": [
        {
          "internalType": "uint256",
          "name": "_pid",
          "type": "uint256"
        },
        {
          "internalType": "uint256",
          "name": "_pursePerBlock",
          "type": "uint256"
        },
        {
          "internalType": "uint256",
          "name": "_bonusMultiplier",
          "type": "uint256"
        },
        {
          "internalType": "bool",
          "name": "_withUpdate",
          "type": "bool"
        }
      ],
      "name": "set",
      "outputs": [],
      "stateMutability": "nonpayable",
      "type": "function"
    },
    {
      "inputs": [],
      "name": "massUpdatePools",
      "outputs": [],
      "stateMutability": "nonpayable",
      "type": "function"
    },
    {
      "inputs": [
        {
          "internalType": "uint256",
          "name": "_from",
          "type": "uint256"
        },
        {
          "internalType": "uint256",
          "name": "_to",
          "type": "uint256"
        }
      ],
      "name": "getMultiplier",
      "outputs": [
        {
          "internalType": "uint256",
          "name": "",
          "type": "uint256"
        }
      ],
      "stateMutability": "pure",
      "type": "function"
    },
    {
      "inputs": [
        {
          "internalType": "uint256",
          "name": "_pid",
          "type": "uint256"
        }
      ],
      "name": "updatePool",
      "outputs": [],
      "stateMutability": "nonpayable",
      "type": "function"
    },
    {
      "inputs": [
        {
          "internalType": "uint256",
          "name": "_pid",
          "type": "uint256"
        },
        {
          "internalType": "uint256",
          "name": "_amount",
          "type": "uint256"
        }
      ],
      "name": "deposit",
      "outputs": [],
      "stateMutability": "nonpayable",
      "type": "function"
    },
    {
      "inputs": [
        {
          "internalType": "uint256",
          "name": "_pid",
          "type": "uint256"
        },
        {
          "internalType": "uint256",
          "name": "_amount",
          "type": "uint256"
        }
      ],
      "name": "withdraw",
      "outputs": [],
      "stateMutability": "nonpayable",
      "type": "function"
    },
    {
      "inputs": [
        {
          "internalType": "uint256",
          "name": "_pid",
          "type": "uint256"
        }
      ],
      "name": "claimReward",
      "outputs": [],
      "stateMutability": "nonpayable",
      "type": "function"
    },
    {
      "inputs": [
        {
          "internalType": "uint256",
          "name": "_newCap",
          "type": "uint256"
        }
      ],
      "name": "capMintTokenUpdate",
      "outputs": [],
      "stateMutability": "nonpayable",
      "type": "function"
    },
    {
      "inputs": [
        {
          "internalType": "uint256",
          "name": "_pid",
          "type": "uint256"
        },
        {
          "internalType": "address",
          "name": "_user",
          "type": "address"
        }
      ],
      "name": "pendingReward",
      "outputs": [
        {
          "internalType": "uint256",
          "name": "",
          "type": "uint256"
        }
      ],
      "stateMutability": "view",
      "type": "function"
    }
  ],
  "bytecode": "0x60c0604052600d60808190527f52657374616b696e674661726d0000000000000000000000000000000000000060a0908152620000409160019190620000f6565b503480156200004e57600080fd5b50604051620019b0380380620019b083398101604081905262000071916200019c565b6200007c33620000a6565b600280546001600160a01b0319166001600160a01b0393909316929092179091556005556200022e565b600080546001600160a01b038381166001600160a01b0319831681178455604051919092169283917f8be0079c531659141344cd1fd0a4f28419497f9722a3daafe3b4186f6b6457e09190a35050565b8280546200010490620001d8565b90600052602060002090601f01602090048101928262000128576000855562000173565b82601f106200014357805160ff191683800117855562000173565b8280016001018555821562000173579182015b828111156200017357825182559160200191906001019062000156565b506200018192915062000185565b5090565b5b8082111562000181576000815560010162000186565b60008060408385031215620001b057600080fd5b82516001600160a01b0381168114620001c857600080fd5b6020939093015192949293505050565b600181811c90821680620001ed57607f821691505b6020821081141562000228577f4e487b7100000000000000000000000000000000000000000000000000000000600052602260045260246000fd5b50919050565b611772806200023e6000396000f3fe608060405234801561001057600080fd5b50600436106101375760003560e01c80638862445a116100b8578063ac854ac51161007c578063ac854ac5146102d0578063ae169a50146102d9578063e2bbb158146102ec578063e2d16c44146102ff578063f2fde38b14610308578063ff51a2721461031b57600080fd5b80638862445a1461023f5780638da5cb5b146102525780638dbb1e3a1461026357806393f1a40b1461027657806398969e82146102bd57600080fd5b8063441a3e70116100ff578063441a3e70146101de57806351bf16ef146101f157806351eb05a61461021c578063630b5ba11461022f578063715018a61461023757600080fd5b806306fdde031461013c578063081e3eda1461015a5780631526fe271461016c57806320bb68e0146101b657806337c5a556146101cb575b600080fd5b61014461033b565b604051610151919061159d565b60405180910390f35b6003545b604051908152602001610151565b61017f61017a3660046114d8565b6103c9565b604080516001600160a01b0390971687526020870195909552938501929092526060840152608083015260a082015260c001610151565b6101c96101c4366004611486565b610419565b005b6101c96101d93660046114d8565b610697565b6101c96101ec36600461153a565b6106c6565b600254610204906001600160a01b031681565b6040516001600160a01b039091168152602001610151565b6101c961022a3660046114d8565b61099f565b6101c9610c06565b6101c9610c31565b6101c961024d36600461155c565b610c67565b6000546001600160a01b0316610204565b61015e61027136600461153a565b610d3f565b6102a861028436600461150a565b60076020908152600092835260408084209091529082529020805460019091015482565b60408051928352602083019190915201610151565b61015e6102cb36600461150a565b610d52565b61015e60055481565b6101c96102e73660046114d8565b610ec8565b6101c96102fa36600461153a565b6110c0565b61015e60045481565b6101c961031636600461144c565b611361565b61015e61032936600461144c565b60066020526000908152604090205481565b6001805461034890611697565b80601f016020809104026020016040519081016040528092919081815260200182805461037490611697565b80156103c15780601f10610396576101008083540402835291602001916103c1565b820191906000526020600020905b8154815290600101906020018083116103a457829003601f168201915b505050505081565b600381815481106103d957600080fd5b60009182526020909120600690910201805460018201546002830154600384015460048501546005909501546001600160a01b0390941695509193909286565b6000546001600160a01b0316331461044c5760405162461bcd60e51b8152600401610443906115f2565b60405180910390fd5b6001600160a01b038516600090815260066020526040902054156104bd5760405162461bcd60e51b815260206004820152602260248201527f4661726d65723a3a6164643a206c7020697320616c726561647920696e20706f6044820152611bdb60f21b6064820152608401610443565b81156104cb576104cb610c06565b60008143116104da57816104dc565b435b6003549091506104ed906001611627565b6001600160a01b03878116600081815260066020818152604080842096909655855160c0810187528481528082018c81528188018c815260608084018b8152608080860189815260a087018f8152600380546001810182559b5296517fc2575a0e9e593c00f959f8c92f12db2869c3395a3b0502d05e2516446f71f85b9a909902998a0180546001600160a01b03191699909c1698909817909a5592517fc2575a0e9e593c00f959f8c92f12db2869c3395a3b0502d05e2516446f71f85c88015590517fc2575a0e9e593c00f959f8c92f12db2869c3395a3b0502d05e2516446f71f85d87015590517fc2575a0e9e593c00f959f8c92f12db2869c3395a3b0502d05e2516446f71f85e86015592517fc2575a0e9e593c00f959f8c92f12db2869c3395a3b0502d05e2516446f71f85f850155517fc2575a0e9e593c00f959f8c92f12db2869c3395a3b0502d05e2516446f71f8609093019290925584518a81529182018990528715158286015281018690529251909233927f0282aee652339ffa6b59031300d71fa1861448381ce90cd728fbbb7b6d56036292918290030190a3505050505050565b6000546001600160a01b031633146106c15760405162461bcd60e51b8152600401610443906115f2565b600555565b6000600383815481106106db576106db611703565b6000918252602080832086845260078252604080852033865290925292208054600690920290920192508311156107495760405162461bcd60e51b81526020600482015260126024820152711dda5d1a191c985dce881b9bdd0819dbdbd960721b6044820152606401610443565b6107528461099f565b6000816001015464e8d4a51000846004015484600001546107739190611661565b61077d919061163f565b6107879190611680565b6002546040516370a0823160e01b81523060048201529192506000916001600160a01b03909116906370a082319060240160206040518083038186803b1580156107d057600080fd5b505afa1580156107e4573d6000803e3d6000fd5b505050506040513d601f19601f8201168201806040525081019061080891906114f1565b905080821115610816578091505b81156108a25760025460405163a9059cbb60e01b8152336004820152602481018490526001600160a01b039091169063a9059cbb90604401602060405180830381600087803b15801561086857600080fd5b505af115801561087c573d6000803e3d6000fd5b505050506040513d601f19601f820116820180604052508101906108a09190611469565b505b841561093c5782546108b5908690611680565b8355835460405163a9059cbb60e01b8152336004820152602481018790526001600160a01b039091169063a9059cbb90604401602060405180830381600087803b15801561090257600080fd5b505af1158015610916573d6000803e3d6000fd5b505050506040513d601f19601f8201168201806040525081019061093a9190611469565b505b6004840154835464e8d4a510009161095391611661565b61095d919061163f565b600184015560405185815233907f884edad9ce6fa2440d8a54cc123490eb96d2768479d49ff9c7366125a94243649060200160405180910390a2505050505050565b6000600382815481106109b4576109b4611703565b90600052602060002090600602019050806003015443116109d3575050565b80546040516370a0823160e01b81523060048201526000916001600160a01b0316906370a082319060240160206040518083038186803b158015610a1657600080fd5b505afa158015610a2a573d6000803e3d6000fd5b505050506040513d601f19601f82011682018060405250810190610a4e91906114f1565b905080610a6057504360039091015550565b6000610a70836003015443610d3f565b905060008360020154846001015483610a899190611661565b610a939190611661565b90506005546004541015610bc85760055481600454610ab29190611627565b10610b4c576000600454600554610ac99190611680565b90508060046000828254610add9190611627565b90915550506002546040516340c10f1960e01b8152306004820152602481018390526001600160a01b03909116906340c10f1990604401600060405180830381600087803b158015610b2e57600080fd5b505af1158015610b42573d6000803e3d6000fd5b5050505050610bc8565b8060046000828254610b5e9190611627565b90915550506002546040516340c10f1960e01b8152306004820152602481018390526001600160a01b03909116906340c10f1990604401600060405180830381600087803b158015610baf57600080fd5b505af1158015610bc3573d6000803e3d6000fd5b505050505b82610bd88264e8d4a51000611661565b610be2919061163f565b8460040154610bf19190611627565b60048501555050436003909201919091555050565b60035460005b81811015610c2d57610c1d8161099f565b610c26816116d2565b9050610c0c565b5050565b6000546001600160a01b03163314610c5b5760405162461bcd60e51b8152600401610443906115f2565b610c6560006113fc565b565b6000546001600160a01b03163314610c915760405162461bcd60e51b8152600401610443906115f2565b8015610c9f57610c9f610c06565b8260038581548110610cb357610cb3611703565b9060005260206000209060060201600101819055508160038581548110610cdc57610cdc611703565b6000918252602091829020600260069092020101919091556040805185815291820184905282151590820152849033907fe14a3408bb7dc5c212857d1251aa50dce7371e65fa65b99d1be8c9da5886638d9060600160405180910390a350505050565b6000610d4b8383611680565b9392505050565b60008060038481548110610d6857610d68611703565b600091825260208083208784526007825260408085206001600160a01b0389811687529352808520600460069590950290920184810154815492516370a0823160e01b8152309681019690965290965091949193919216906370a082319060240160206040518083038186803b158015610de157600080fd5b505afa158015610df5573d6000803e3d6000fd5b505050506040513d601f19601f82011682018060405250810190610e1991906114f1565b90506000846003015443118015610e2f57508115155b15610e8f57610e42856003015443610d3f565b905060008560020154866001015483610e5b9190611661565b610e659190611661565b905082610e778264e8d4a51000611661565b610e81919061163f565b610e8b9085611627565b9350505b6001840154845464e8d4a5100090610ea8908690611661565b610eb2919061163f565b610ebc9190611680565b98975050505050505050565b600060038281548110610edd57610edd611703565b60009182526020808320858452600782526040808520338652909252922060069091029091019150610f0e8361099f565b6000816001015464e8d4a5100084600401548460000154610f2f9190611661565b610f39919061163f565b610f439190611680565b6002546040516370a0823160e01b81523060048201529192506000916001600160a01b03909116906370a082319060240160206040518083038186803b158015610f8c57600080fd5b505afa158015610fa0573d6000803e3d6000fd5b505050506040513d601f19601f82011682018060405250810190610fc491906114f1565b905080821115610fd2578091505b811561105e5760025460405163a9059cbb60e01b8152336004820152602481018490526001600160a01b039091169063a9059cbb90604401602060405180830381600087803b15801561102457600080fd5b505af1158015611038573d6000803e3d6000fd5b505050506040513d601f19601f8201168201806040525081019061105c9190611469565b505b6004840154835464e8d4a510009161107591611661565b61107f919061163f565b600184015560405182815233907fba8de60c3403ec381d1d484652ea1980e3c3e56359195c92525bff4ce47ad98e9060200160405180910390a25050505050565b6000600383815481106110d5576110d5611703565b600091825260208083208684526007825260408085203386529092529220600690910290910191506111068461099f565b805415611260576000816001015464e8d4a510008460040154846000015461112e9190611661565b611138919061163f565b6111429190611680565b6002546040516370a0823160e01b81523060048201529192506000916001600160a01b03909116906370a082319060240160206040518083038186803b15801561118b57600080fd5b505afa15801561119f573d6000803e3d6000fd5b505050506040513d601f19601f820116820180604052508101906111c391906114f1565b9050808211156111d1578091505b811561125d5760025460405163a9059cbb60e01b8152336004820152602481018490526001600160a01b039091169063a9059cbb90604401602060405180830381600087803b15801561122357600080fd5b505af1158015611237573d6000803e3d6000fd5b505050506040513d601f19601f8201168201806040525081019061125b9190611469565b505b50505b82156113005781546040516323b872dd60e01b8152336004820152306024820152604481018590526001600160a01b03909116906323b872dd90606401602060405180830381600087803b1580156112b757600080fd5b505af11580156112cb573d6000803e3d6000fd5b505050506040513d601f19601f820116820180604052508101906112ef9190611469565b5080546112fd908490611627565b81555b6004820154815464e8d4a510009161131791611661565b611321919061163f565b600182015560405183815233907fe1fffcc4923d04b559f4d29a8bfc6cda04eb5b0d3c460751c2402c5c5cc9109c9060200160405180910390a250505050565b6000546001600160a01b0316331461138b5760405162461bcd60e51b8152600401610443906115f2565b6001600160a01b0381166113f05760405162461bcd60e51b815260206004820152602660248201527f4f776e61626c653a206e6577206f776e657220697320746865207a65726f206160448201526564647265737360d01b6064820152608401610443565b6113f9816113fc565b50565b600080546001600160a01b038381166001600160a01b0319831681178455604051919092169283917f8be0079c531659141344cd1fd0a4f28419497f9722a3daafe3b4186f6b6457e09190a35050565b60006020828403121561145e57600080fd5b8135610d4b81611719565b60006020828403121561147b57600080fd5b8151610d4b8161172e565b600080600080600060a0868803121561149e57600080fd5b85356114a981611719565b9450602086013593506040860135925060608601356114c78161172e565b949793965091946080013592915050565b6000602082840312156114ea57600080fd5b5035919050565b60006020828403121561150357600080fd5b5051919050565b6000806040838503121561151d57600080fd5b82359150602083013561152f81611719565b809150509250929050565b6000806040838503121561154d57600080fd5b50508035926020909101359150565b6000806000806080858703121561157257600080fd5b84359350602085013592506040850135915060608501356115928161172e565b939692955090935050565b600060208083528351808285015260005b818110156115ca578581018301518582016040015282016115ae565b818111156115dc576000604083870101525b50601f01601f1916929092016040019392505050565b6020808252818101527f4f776e61626c653a2063616c6c6572206973206e6f7420746865206f776e6572604082015260600190565b6000821982111561163a5761163a6116ed565b500190565b60008261165c57634e487b7160e01b600052601260045260246000fd5b500490565b600081600019048311821515161561167b5761167b6116ed565b500290565b600082821015611692576116926116ed565b500390565b600181811c908216806116ab57607f821691505b602082108114156116cc57634e487b7160e01b600052602260045260246000fd5b50919050565b60006000198214156116e6576116e66116ed565b5060010190565b634e487b7160e01b600052601160045260246000fd5b634e487b7160e01b600052603260045260246000fd5b6001600160a01b03811681146113f957600080fd5b80151581146113f957600080fdfea2646970667358221220fd22594a08dc0b31daa1e3f7b6c41e36161d0b31d3dcff7a5c8ad08b0a714c4a64736f6c63430008070033",
  "immutableReferences": {},
  "source": "// SPDX-License-Identifier: UNLICENSED\r\n\r\npragma solidity ^0.8.0;\r\n\r\nimport \"@openzeppelin/contracts/access/Ownable.sol\";\r\nimport \"@openzeppelin/contracts/token/ERC20/IERC20.sol\";\r\n \r\ninterface PurseToken {\r\n\r\n    function transfer(address to, uint tokens) external  returns (bool success);\r\n\r\n    function mint(address to, uint tokens) external;\r\n\r\n    function transferFrom(address from, address to, uint tokens) external  returns (bool success);\r\n\r\n    function balanceOf(address tokenOwner) external view returns (uint balance);\r\n\r\n}\r\n\r\ncontract RestakingFarm is Ownable{\r\n\r\n    // ---Contract Variables---\r\n    string public name = \"RestakingFarm\";\r\n\r\n    // Userinfo\r\n    struct UserInfo {\r\n        uint256 amount;     // How many LP tokens the user has provided.\r\n        uint256 rewardDebt; // Reward debt. See explanation below.\r\n        //\r\n        // We do some fancy math here. Basically, any point in time, the amount of PURSEs\r\n        // entitled to a user but is pending to be distributed is:\r\n        //\r\n        //   pending reward = (user.amount * pool.accPursePerShare) - user.rewardDebt\r\n        //\r\n        // Whenever a user deposits or withdraws LP tokens to a pool. Here's what happens:\r\n        //   1. The pool's `accPursePerShare` (and `lastRewardBlock`) gets updated.\r\n        //   2. User receives the pending reward sent to his/her address.\r\n        //   3. User's `amount` gets updated.\r\n        //   4. User's `rewardDebt` gets updated.\r\n    }\r\n    \r\n    // Info of each pool.\r\n    struct PoolInfo {\r\n        IERC20 lpToken;           // Address of LP token contract.\r\n        uint256 pursePerBlock;\r\n        uint256 bonusMultiplier;\r\n        uint256 lastRewardBlock;  // Last block number that PURSEs distribution occurs.\r\n        uint256 accPursePerShare; // Accumulated PURSEs per share, times 1e12. See below.\r\n        uint256 startBlock;\r\n    }\r\n\r\n    // The PURSE TOKEN!\r\n    PurseToken public purseToken;\r\n    PoolInfo[] public poolInfo;\r\n    uint256 public totalMintToken;    \r\n    uint256 public capMintToken;\r\n    mapping(address => uint256) public poolId;  // poolId count from 1, need to subtract by 1 before using with variable poolInfo\r\n\r\n    // Info of each user that stakes LP tokens.\r\n    mapping (uint256 => mapping (address => UserInfo)) public userInfo;\r\n\r\n    event Deposit(address indexed user, uint256 amount);\r\n    event Withdraw(address indexed user, uint256 amount);\r\n    event AddNewPool(address indexed owner, IERC20 indexed _lpToken, uint256 _pursePerBlock, uint256 _bonusMultiplier, bool _withUpdate, uint256 _startBlock);\r\n    event UpdatePoolReward(address indexed owner, uint256 indexed _pid, uint256 _pursePerBlock, uint256 _bonusMultiplier, bool _withUpdate);\r\n    event ClaimReward(address indexed user, uint256 amount);\r\n\r\n    constructor(\r\n        PurseToken _purseToken,\r\n        uint256 _capMintToken\r\n    ) {\r\n        purseToken = _purseToken;\r\n        capMintToken = _capMintToken;\r\n        }\r\n    \r\n\r\n    function poolLength() external view returns (uint256) {\r\n        return poolInfo.length;\r\n    }\r\n    // Add a new lp to the pool. Can only be called by the owner.\r\n    function add(IERC20 _lpToken, uint256 _pursePerBlock, uint256 _bonusMultiplier, bool _withUpdate, uint256 _startBlock) public onlyOwner {\r\n        require(poolId[address(_lpToken)] == 0, \"Farmer::add: lp is already in pool\");\r\n        if (_withUpdate) {\r\n            massUpdatePools();\r\n        }\r\n        uint256 lastRewardBlock = block.number > _startBlock ? block.number : _startBlock;\r\n        poolId[address(_lpToken)] = poolInfo.length + 1;\r\n        poolInfo.push(PoolInfo({\r\n            lpToken: _lpToken,\r\n            pursePerBlock : _pursePerBlock,\r\n            bonusMultiplier: _bonusMultiplier,\r\n            lastRewardBlock: lastRewardBlock,\r\n            accPursePerShare: 0,\r\n            startBlock: _startBlock\r\n        }));\r\n        emit AddNewPool(msg.sender, _lpToken, _pursePerBlock, _bonusMultiplier, _withUpdate, _startBlock);\r\n    }\r\n\r\n    // Update the given pool's PURSE _pursePerBlock. Can only be called by the owner.\r\n    function set(uint256 _pid, uint256 _pursePerBlock, uint256 _bonusMultiplier, bool _withUpdate) public onlyOwner {\r\n        if (_withUpdate) {\r\n            massUpdatePools();\r\n        }\r\n        poolInfo[_pid].pursePerBlock = _pursePerBlock;\r\n        poolInfo[_pid].bonusMultiplier= _bonusMultiplier;\r\n        emit UpdatePoolReward(msg.sender, _pid, _pursePerBlock, _bonusMultiplier ,_withUpdate);\r\n    }\r\n\r\n\r\n    // Update reward variables for all pools. Be careful of gas spending!\r\n    function massUpdatePools() public {\r\n        uint256 length = poolInfo.length;\r\n        for (uint256 pid = 0; pid < length; ++pid) {\r\n            updatePool(pid);\r\n        }\r\n    }\r\n\r\n    // Return reward multiplier over the given _from to _to block.\r\n    function getMultiplier(uint256 _from, uint256 _to) public pure returns (uint256) {\r\n        return _to-_from;\r\n    }\r\n\r\n    // Update reward variables of the given pool to be up-to-date.\r\n    function updatePool(uint256 _pid) public {\r\n        PoolInfo storage pool = poolInfo[_pid];\r\n        if (block.number <= pool.lastRewardBlock) {\r\n            return;\r\n        }\r\n        uint256 lpSupply = pool.lpToken.balanceOf(address(this));\r\n        if (lpSupply == 0) {\r\n            pool.lastRewardBlock = block.number;\r\n            return;\r\n        }\r\n        uint256 multiplier = getMultiplier(pool.lastRewardBlock, block.number);\r\n        uint256 purseReward = multiplier*pool.pursePerBlock*pool.bonusMultiplier;\r\n        if (totalMintToken < capMintToken) {\r\n            if (totalMintToken + purseReward >= capMintToken) {\r\n                uint256 PurseCanMint = capMintToken-totalMintToken;\r\n                totalMintToken += PurseCanMint;\r\n                purseToken.mint(address(this), PurseCanMint);\r\n            } else {\r\n                totalMintToken += purseReward;\r\n                purseToken.mint(address(this), purseReward);\r\n            }\r\n        }\r\n        pool.accPursePerShare = pool.accPursePerShare+(purseReward*1e12/lpSupply);\r\n        pool.lastRewardBlock = block.number;\r\n    }\r\n\r\n    // Deposit LP tokens to Restaking Pool for Purse allocation.\r\n    function deposit(uint256 _pid, uint256 _amount) public {\r\n\r\n        PoolInfo storage pool = poolInfo[_pid];\r\n        UserInfo storage user = userInfo[_pid][msg.sender];\r\n        updatePool(_pid);\r\n\r\n        if (user.amount > 0) {\r\n            uint256 pending = user.amount*pool.accPursePerShare/1e12-user.rewardDebt;\r\n            uint256 farmBal = purseToken.balanceOf(address(this));\r\n\r\n            if (pending > farmBal) {\r\n                pending = farmBal;\r\n            }\r\n            if(pending > 0) {\r\n                purseToken.transfer(msg.sender, pending);\r\n            }\r\n        }\r\n        if (_amount > 0) {\r\n            pool.lpToken.transferFrom(address(msg.sender), address(this), _amount);\r\n            user.amount = user.amount+_amount;\r\n        }\r\n        user.rewardDebt = user.amount*pool.accPursePerShare/1e12;\r\n        emit Deposit(msg.sender, _amount);\r\n    }\r\n\r\n    // Withdraw LP tokens from MasterChef.\r\n    function withdraw(uint256 _pid, uint256 _amount) public {\r\n\r\n        PoolInfo storage pool = poolInfo[_pid];\r\n        UserInfo storage user = userInfo[_pid][msg.sender];\r\n        require(user.amount >= _amount, \"withdraw: not good\");\r\n\r\n        updatePool(_pid);\r\n        uint256 pending = user.amount*pool.accPursePerShare/1e12-user.rewardDebt;\r\n        uint256 farmBal = purseToken.balanceOf(address(this));\r\n\r\n        if (pending > farmBal) {\r\n            pending = farmBal;\r\n        }\r\n\r\n        if(pending > 0) {\r\n            purseToken.transfer(msg.sender, pending);\r\n        }\r\n        if(_amount > 0) {\r\n            user.amount = user.amount-_amount;\r\n            pool.lpToken.transfer(address(msg.sender), _amount);\r\n        }\r\n        user.rewardDebt = user.amount*pool.accPursePerShare/1e12;\r\n        emit Withdraw(msg.sender, _amount);\r\n    }\r\n\r\n    // Harvest reward tokens from pool.\r\n    function claimReward(uint256 _pid) public {\r\n\r\n        PoolInfo storage pool = poolInfo[_pid];\r\n        UserInfo storage user = userInfo[_pid][msg.sender];\r\n\r\n        updatePool(_pid);\r\n        uint256 pending = user.amount*pool.accPursePerShare/1e12-user.rewardDebt;\r\n        uint256 farmBal = purseToken.balanceOf(address(this));\r\n\r\n        if (pending > farmBal) {\r\n            pending = farmBal;\r\n        }\r\n\r\n        if(pending > 0) {\r\n            purseToken.transfer(msg.sender, pending);\r\n        }\r\n        user.rewardDebt = user.amount*pool.accPursePerShare/1e12;\r\n\r\n        emit ClaimReward(msg.sender, pending);\r\n    }\r\n\r\n    function capMintTokenUpdate (uint256 _newCap) public onlyOwner {\r\n        capMintToken = _newCap;\r\n    }\r\n\r\n\r\n     // View function to see pending PURSEs on frontend.\r\n    function pendingReward(uint256 _pid, address _user) external view returns (uint256) {\r\n        PoolInfo storage pool = poolInfo[_pid];\r\n        UserInfo storage user = userInfo[_pid][_user];\r\n        uint256 accPursePerShare = pool.accPursePerShare;\r\n        uint256 lpSupply = pool.lpToken.balanceOf(address(this));\r\n        uint256 multiplier;\r\n        if (block.number > pool.lastRewardBlock && lpSupply != 0) {\r\n            multiplier = getMultiplier(pool.lastRewardBlock, block.number);\r\n            uint256 purseReward = multiplier*pool.pursePerBlock*pool.bonusMultiplier;\r\n            accPursePerShare = accPursePerShare+(purseReward*(1e12)/lpSupply);\r\n        }\r\n        return (user.amount*(accPursePerShare)/(1e12)-(user.rewardDebt));\r\n    }\r\n}",
  "sourcePath": "C:/Users/cheek/Desktop/Developer doc/Visual Studio Code/PundiX/lpTokenRestakingFarm/src/contracts/RestakingFarm.sol",
  "compiler": {
    "name": "solc",
    "version": "0.8.7+commit.e28d00a7.Emscripten.clang"
  },
  "schemaVersion": "3.3.4",
  "updatedAt": "2021-11-08T11:06:21.897Z",
  "devdoc": {
    "kind": "dev",
    "methods": {
      "owner()": {
        "details": "Returns the address of the current owner."
      },
      "renounceOwnership()": {
        "details": "Leaves the contract without owner. It will not be possible to call `onlyOwner` functions anymore. Can only be called by the current owner. NOTE: Renouncing ownership will leave the contract without an owner, thereby removing any functionality that is only available to the owner."
      },
      "transferOwnership(address)": {
        "details": "Transfers ownership of the contract to a new account (`newOwner`). Can only be called by the current owner."
      }
    },
    "version": 1
  },
  "userdoc": {
    "kind": "user",
    "methods": {},
    "version": 1
  }
}