{
  "contractName": "RestakingFarm",
  "abi": [
    {
      "anonymous": false,
      "inputs": [
        {
          "indexed": true,
          "internalType": "address",
          "name": "owner",
          "type": "address"
        },
        {
          "indexed": true,
          "internalType": "contract IERC20Upgradeable",
          "name": "lpToken",
          "type": "address"
        },
        {
          "indexed": false,
          "internalType": "uint256",
          "name": "pursePerBlock",
          "type": "uint256"
        },
        {
          "indexed": false,
          "internalType": "uint256",
          "name": "bonusMultiplier",
          "type": "uint256"
        },
        {
          "indexed": false,
          "internalType": "uint256",
          "name": "startBlock",
          "type": "uint256"
        }
      ],
      "name": "AddNewPool",
      "type": "event"
    },
    {
      "anonymous": false,
      "inputs": [
        {
          "indexed": false,
          "internalType": "address",
          "name": "previousAdmin",
          "type": "address"
        },
        {
          "indexed": false,
          "internalType": "address",
          "name": "newAdmin",
          "type": "address"
        }
      ],
      "name": "AdminChanged",
      "type": "event"
    },
    {
      "anonymous": false,
      "inputs": [
        {
          "indexed": true,
          "internalType": "address",
          "name": "beacon",
          "type": "address"
        }
      ],
      "name": "BeaconUpgraded",
      "type": "event"
    },
    {
      "anonymous": false,
      "inputs": [
        {
          "indexed": true,
          "internalType": "address",
          "name": "user",
          "type": "address"
        },
        {
          "indexed": false,
          "internalType": "uint256",
          "name": "amount",
          "type": "uint256"
        }
      ],
      "name": "ClaimReward",
      "type": "event"
    },
    {
      "anonymous": false,
      "inputs": [
        {
          "indexed": true,
          "internalType": "address",
          "name": "user",
          "type": "address"
        },
        {
          "indexed": false,
          "internalType": "uint256",
          "name": "amount",
          "type": "uint256"
        }
      ],
      "name": "Deposit",
      "type": "event"
    },
    {
      "anonymous": false,
      "inputs": [
        {
          "indexed": true,
          "internalType": "address",
          "name": "user",
          "type": "address"
        },
        {
          "indexed": true,
          "internalType": "contract IERC20Upgradeable",
          "name": "lpToken",
          "type": "address"
        },
        {
          "indexed": false,
          "internalType": "uint256",
          "name": "amount",
          "type": "uint256"
        }
      ],
      "name": "EmergencyWithdraw",
      "type": "event"
    },
    {
      "anonymous": false,
      "inputs": [
        {
          "indexed": true,
          "internalType": "address",
          "name": "previousOwner",
          "type": "address"
        },
        {
          "indexed": true,
          "internalType": "address",
          "name": "newOwner",
          "type": "address"
        }
      ],
      "name": "OwnershipTransferred",
      "type": "event"
    },
    {
      "anonymous": false,
      "inputs": [
        {
          "indexed": true,
          "internalType": "address",
          "name": "owner",
          "type": "address"
        },
        {
          "indexed": true,
          "internalType": "contract IERC20Upgradeable",
          "name": "lpToken",
          "type": "address"
        },
        {
          "indexed": false,
          "internalType": "uint256",
          "name": "bonusMultiplier",
          "type": "uint256"
        }
      ],
      "name": "UpdatePoolMultiplier",
      "type": "event"
    },
    {
      "anonymous": false,
      "inputs": [
        {
          "indexed": true,
          "internalType": "address",
          "name": "owner",
          "type": "address"
        },
        {
          "indexed": true,
          "internalType": "contract IERC20Upgradeable",
          "name": "lpToken",
          "type": "address"
        },
        {
          "indexed": false,
          "internalType": "uint256",
          "name": "pursePerBlock",
          "type": "uint256"
        }
      ],
      "name": "UpdatePoolReward",
      "type": "event"
    },
    {
      "anonymous": false,
      "inputs": [
        {
          "indexed": true,
          "internalType": "address",
          "name": "implementation",
          "type": "address"
        }
      ],
      "name": "Upgraded",
      "type": "event"
    },
    {
      "anonymous": false,
      "inputs": [
        {
          "indexed": true,
          "internalType": "address",
          "name": "user",
          "type": "address"
        },
        {
          "indexed": false,
          "internalType": "uint256",
          "name": "amount",
          "type": "uint256"
        }
      ],
      "name": "Withdraw",
      "type": "event"
    },
    {
      "inputs": [],
      "name": "capMintToken",
      "outputs": [
        {
          "internalType": "uint256",
          "name": "",
          "type": "uint256"
        }
      ],
      "stateMutability": "view",
      "type": "function",
      "constant": true
    },
    {
      "inputs": [],
      "name": "name",
      "outputs": [
        {
          "internalType": "string",
          "name": "",
          "type": "string"
        }
      ],
      "stateMutability": "view",
      "type": "function",
      "constant": true
    },
    {
      "inputs": [],
      "name": "owner",
      "outputs": [
        {
          "internalType": "address",
          "name": "",
          "type": "address"
        }
      ],
      "stateMutability": "view",
      "type": "function",
      "constant": true
    },
    {
      "inputs": [
        {
          "internalType": "contract IERC20Upgradeable",
          "name": "",
          "type": "address"
        }
      ],
      "name": "poolInfo",
      "outputs": [
        {
          "internalType": "contract IERC20Upgradeable",
          "name": "lpToken",
          "type": "address"
        },
        {
          "internalType": "uint256",
          "name": "pursePerBlock",
          "type": "uint256"
        },
        {
          "internalType": "uint256",
          "name": "bonusMultiplier",
          "type": "uint256"
        },
        {
          "internalType": "uint256",
          "name": "lastRewardBlock",
          "type": "uint256"
        },
        {
          "internalType": "uint256",
          "name": "accPursePerShare",
          "type": "uint256"
        },
        {
          "internalType": "uint256",
          "name": "startBlock",
          "type": "uint256"
        }
      ],
      "stateMutability": "view",
      "type": "function",
      "constant": true
    },
    {
      "inputs": [
        {
          "internalType": "uint256",
          "name": "",
          "type": "uint256"
        }
      ],
      "name": "poolTokenList",
      "outputs": [
        {
          "internalType": "contract IERC20Upgradeable",
          "name": "",
          "type": "address"
        }
      ],
      "stateMutability": "view",
      "type": "function",
      "constant": true
    },
    {
      "inputs": [],
      "name": "purseToken",
      "outputs": [
        {
          "internalType": "contract PurseToken",
          "name": "",
          "type": "address"
        }
      ],
      "stateMutability": "view",
      "type": "function",
      "constant": true
    },
    {
      "inputs": [],
      "name": "renounceOwnership",
      "outputs": [],
      "stateMutability": "nonpayable",
      "type": "function"
    },
    {
      "inputs": [],
      "name": "totalMintToken",
      "outputs": [
        {
          "internalType": "uint256",
          "name": "",
          "type": "uint256"
        }
      ],
      "stateMutability": "view",
      "type": "function",
      "constant": true
    },
    {
      "inputs": [
        {
          "internalType": "address",
          "name": "newOwner",
          "type": "address"
        }
      ],
      "name": "transferOwnership",
      "outputs": [],
      "stateMutability": "nonpayable",
      "type": "function"
    },
    {
      "inputs": [
        {
          "internalType": "address",
          "name": "newImplementation",
          "type": "address"
        }
      ],
      "name": "upgradeTo",
      "outputs": [],
      "stateMutability": "nonpayable",
      "type": "function"
    },
    {
      "inputs": [
        {
          "internalType": "address",
          "name": "newImplementation",
          "type": "address"
        },
        {
          "internalType": "bytes",
          "name": "data",
          "type": "bytes"
        }
      ],
      "name": "upgradeToAndCall",
      "outputs": [],
      "stateMutability": "payable",
      "type": "function",
      "payable": true
    },
    {
      "inputs": [
        {
          "internalType": "contract IERC20Upgradeable",
          "name": "",
          "type": "address"
        },
        {
          "internalType": "address",
          "name": "",
          "type": "address"
        }
      ],
      "name": "userInfo",
      "outputs": [
        {
          "internalType": "uint256",
          "name": "amount",
          "type": "uint256"
        },
        {
          "internalType": "uint256",
          "name": "rewardDebt",
          "type": "uint256"
        }
      ],
      "stateMutability": "view",
      "type": "function",
      "constant": true
    },
    {
      "inputs": [],
      "name": "poolLength",
      "outputs": [
        {
          "internalType": "uint256",
          "name": "",
          "type": "uint256"
        }
      ],
      "stateMutability": "view",
      "type": "function",
      "constant": true
    },
    {
      "inputs": [
        {
          "internalType": "contract IERC20Upgradeable",
          "name": "_lpToken",
          "type": "address"
        },
        {
          "internalType": "uint256",
          "name": "_pursePerBlock",
          "type": "uint256"
        },
        {
          "internalType": "uint256",
          "name": "_bonusMultiplier",
          "type": "uint256"
        },
        {
          "internalType": "uint256",
          "name": "_startBlock",
          "type": "uint256"
        }
      ],
      "name": "add",
      "outputs": [],
      "stateMutability": "nonpayable",
      "type": "function"
    },
    {
      "inputs": [
        {
          "internalType": "contract IERC20Upgradeable",
          "name": "_lpToken",
          "type": "address"
        },
        {
          "internalType": "uint256",
          "name": "_pursePerBlock",
          "type": "uint256"
        }
      ],
      "name": "setPurseReward",
      "outputs": [],
      "stateMutability": "nonpayable",
      "type": "function"
    },
    {
      "inputs": [
        {
          "internalType": "contract IERC20Upgradeable",
          "name": "_lpToken",
          "type": "address"
        },
        {
          "internalType": "uint256",
          "name": "_bonusMultiplier",
          "type": "uint256"
        }
      ],
      "name": "setBonusMultiplier",
      "outputs": [],
      "stateMutability": "nonpayable",
      "type": "function"
    },
    {
      "inputs": [
        {
          "internalType": "uint256",
          "name": "_from",
          "type": "uint256"
        },
        {
          "internalType": "uint256",
          "name": "_to",
          "type": "uint256"
        }
      ],
      "name": "getMultiplier",
      "outputs": [
        {
          "internalType": "uint256",
          "name": "",
          "type": "uint256"
        }
      ],
      "stateMutability": "pure",
      "type": "function",
      "constant": true
    },
    {
      "inputs": [
        {
          "internalType": "contract IERC20Upgradeable",
          "name": "_lpToken",
          "type": "address"
        }
      ],
      "name": "updatePool",
      "outputs": [],
      "stateMutability": "nonpayable",
      "type": "function"
    },
    {
      "inputs": [
        {
          "internalType": "contract IERC20Upgradeable",
          "name": "_lpToken",
          "type": "address"
        },
        {
          "internalType": "uint256",
          "name": "_amount",
          "type": "uint256"
        }
      ],
      "name": "deposit",
      "outputs": [],
      "stateMutability": "nonpayable",
      "type": "function"
    },
    {
      "inputs": [
        {
          "internalType": "contract IERC20Upgradeable",
          "name": "_lpToken",
          "type": "address"
        },
        {
          "internalType": "uint256",
          "name": "_amount",
          "type": "uint256"
        }
      ],
      "name": "withdraw",
      "outputs": [],
      "stateMutability": "nonpayable",
      "type": "function"
    },
    {
      "inputs": [
        {
          "internalType": "contract IERC20Upgradeable",
          "name": "_lpToken",
          "type": "address"
        }
      ],
      "name": "claimReward",
      "outputs": [],
      "stateMutability": "nonpayable",
      "type": "function"
    },
    {
      "inputs": [
        {
          "internalType": "uint256",
          "name": "_newCap",
          "type": "uint256"
        }
      ],
      "name": "capMintTokenUpdate",
      "outputs": [],
      "stateMutability": "nonpayable",
      "type": "function"
    },
    {
      "inputs": [
        {
          "internalType": "contract IERC20Upgradeable",
          "name": "_lpToken",
          "type": "address"
        }
      ],
      "name": "emergencyWithdraw",
      "outputs": [],
      "stateMutability": "nonpayable",
      "type": "function"
    },
    {
      "inputs": [
        {
          "internalType": "address",
          "name": "token",
          "type": "address"
        },
        {
          "internalType": "uint256",
          "name": "amount",
          "type": "uint256"
        },
        {
          "internalType": "address",
          "name": "_to",
          "type": "address"
        }
      ],
      "name": "returnAnyToken",
      "outputs": [],
      "stateMutability": "nonpayable",
      "type": "function"
    },
    {
      "inputs": [
        {
          "internalType": "contract IERC20Upgradeable",
          "name": "_lpToken",
          "type": "address"
        },
        {
          "internalType": "address",
          "name": "_user",
          "type": "address"
        }
      ],
      "name": "pendingReward",
      "outputs": [
        {
          "internalType": "uint256",
          "name": "",
          "type": "uint256"
        }
      ],
      "stateMutability": "view",
      "type": "function",
      "constant": true
    },
    {
      "inputs": [
        {
          "internalType": "contract PurseToken",
          "name": "_purseToken",
          "type": "address"
        },
        {
          "internalType": "uint256",
          "name": "_capMintToken",
          "type": "uint256"
        }
      ],
      "name": "initialize",
      "outputs": [],
      "stateMutability": "nonpayable",
      "type": "function"
    }
  ],
  "bytecode": "0x60a06040523060601b60805234801561001757600080fd5b5060805160601c61289c61004b6000396000818161083c0152818161087c01528181610ac50152610b05015261289c6000f3fe6080604052600436106101815760003560e01c8063715018a6116100d1578063ac854ac51161008a578063d279c19111610064578063d279c191146104eb578063e2d16c441461050b578063f2fde38b14610521578063f3fef3a31461054157600080fd5b8063ac854ac514610495578063c237e326146104ab578063cd6dc687146104cb57600080fd5b8063715018a6146103715780637b46c54f146103865780638da5cb5b146103a65780638dbb1e3a146103c45780639a7b5f11146103e45780639ced7e761461047557600080fd5b806337c5a5561161013e57806351bf16ef1161011857806351bf16ef146102f157806352cd3dd9146103115780636692caee146103315780636ff1c9bc1461035157600080fd5b806337c5a5561461029e57806347e7ef24146102be5780634f1ef286146102de57600080fd5b806306fdde0314610186578063081e3eda146101b15780630f208beb146101d05780630fe79ee4146102245780632df2fb731461025c5780633659cfe61461027e575b600080fd5b34801561019257600080fd5b5061019b610561565b6040516101a891906125b1565b60405180910390f35b3480156101bd57600080fd5b5060cd545b6040519081526020016101a8565b3480156101dc57600080fd5b5061020f6101eb3660046124a1565b60cf6020908152600092835260408084209091529082529020805460019091015482565b604080519283526020830191909152016101a8565b34801561023057600080fd5b5061024461023f366004612541565b6105ef565b6040516001600160a01b0390911681526020016101a8565b34801561026857600080fd5b5061027c610277366004612506565b610619565b005b34801561028a57600080fd5b5061027c61029936600461235c565b610831565b3480156102aa57600080fd5b5061027c6102b9366004612541565b6108fa565b3480156102ca57600080fd5b5061027c6102d93660046124da565b610929565b61027c6102ec366004612379565b610aba565b3480156102fd57600080fd5b5060ca54610244906001600160a01b031681565b34801561031d57600080fd5b5061027c61032c3660046124da565b610b74565b34801561033d57600080fd5b5061027c61034c3660046124da565b610c8e565b34801561035d57600080fd5b5061027c61036c36600461235c565b610da2565b34801561037d57600080fd5b5061027c610eb3565b34801561039257600080fd5b5061027c6103a136600461235c565b610ee9565b3480156103b257600080fd5b506097546001600160a01b0316610244565b3480156103d057600080fd5b506101c26103df366004612573565b61117f565b3480156103f057600080fd5b5061043e6103ff36600461235c565b60ce602052600090815260409020805460018201546002830154600384015460048501546005909501546001600160a01b039094169492939192909186565b604080516001600160a01b0390971687526020870195909552938501929092526060840152608083015260a082015260c0016101a8565b34801561048157600080fd5b506101c26104903660046124a1565b611192565b3480156104a157600080fd5b506101c260cc5481565b3480156104b757600080fd5b5061027c6104c636600461243d565b611439565b3480156104d757600080fd5b5061027c6104e63660046124da565b6114d2565b3480156104f757600080fd5b5061027c61050636600461235c565b6115b4565b34801561051757600080fd5b506101c260cb5481565b34801561052d57600080fd5b5061027c61053c36600461235c565b611700565b34801561054d57600080fd5b5061027c61055c3660046124da565b611798565b60c9805461056e906127c3565b80601f016020809104026020016040519081016040528092919081815260200182805461059a906127c3565b80156105e75780601f106105bc576101008083540402835291602001916105e7565b820191906000526020600020905b8154815290600101906020018083116105ca57829003601f168201915b505050505081565b60cd81815481106105ff57600080fd5b6000918252602090912001546001600160a01b0316905081565b6097546001600160a01b0316331461064c5760405162461bcd60e51b8152600401610643906126f2565b60405180910390fd5b6001600160a01b0384166106a25760405162461bcd60e51b815260206004820152601d60248201527f4661726d65723a3a6164643a20696e76616c6964206c7020746f6b656e0000006044820152606401610643565b6001600160a01b03848116600090815260ce602052604090205416156107155760405162461bcd60e51b815260206004820152602260248201527f4661726d65723a3a6164643a206c7020697320616c726561647920696e20706f6044820152611bdb60f21b6064820152608401610643565b60008143116107245781610726565b435b6040805160c0810182526001600160a01b0388811680835260208084018a81528486018a8152606080870189815260006080890181815260a08a018e815288835260ce88528b83209a518b549a166001600160a01b03199a8b16178b5595516001808c0191909155945160028b0155915160038a015590516004890155925160059097019690965560cd805491820181559091527f83978b4c69c48dd978ab43fe30f077615294f938fb7f936d9eb340e51ea7db2e01805490931682179092558351898152918201889052928101869052929350909133917f2474bccb27f5e5e41c50b70eb93dac4cf5e7ba77949576a24c670ebeab2b5f2f91015b60405180910390a35050505050565b306001600160a01b037f000000000000000000000000000000000000000000000000000000000000000016141561087a5760405162461bcd60e51b8152600401610643906125e4565b7f00000000000000000000000000000000000000000000000000000000000000006001600160a01b03166108ac611920565b6001600160a01b0316146108d25760405162461bcd60e51b815260040161064390612630565b6108db8161194e565b604080516000808252602082019092526108f791839190611978565b50565b6097546001600160a01b031633146109245760405162461bcd60e51b8152600401610643906126f2565b60cc55565b6001600160a01b03808316600090815260ce60205260409020548391166109625760405162461bcd60e51b8152600401610643906126ca565b600082116109a65760405162461bcd60e51b815260206004820152601160248201527011195c1bdcda5d0e881b9bdd0819dbdbd9607a1b6044820152606401610643565b6001600160a01b038316600090815260ce6020908152604080832060cf83528184203385529092529091206109da85610ee9565b805415610a2a576000816001015464e8d4a5100084600401548460000154610a029190612761565b610a0c919061273f565b610a169190612780565b90508015610a2857610a283382611ac3565b505b8315610a57578154610a47906001600160a01b0316333087611c0f565b8054610a54908590612727565b81555b6004820154815464e8d4a5100091610a6e91612761565b610a78919061273f565b600182015560405184815233907fe1fffcc4923d04b559f4d29a8bfc6cda04eb5b0d3c460751c2402c5c5cc9109c906020015b60405180910390a25050505050565b306001600160a01b037f0000000000000000000000000000000000000000000000000000000000000000161415610b035760405162461bcd60e51b8152600401610643906125e4565b7f00000000000000000000000000000000000000000000000000000000000000006001600160a01b0316610b35611920565b6001600160a01b031614610b5b5760405162461bcd60e51b815260040161064390612630565b610b648261194e565b610b7082826001611978565b5050565b6097546001600160a01b03163314610b9e5760405162461bcd60e51b8152600401610643906126f2565b6001600160a01b03808316600090815260ce6020526040902054839116610bd75760405162461bcd60e51b8152600401610643906126ca565b6001600160a01b038316600090815260ce602052604090206001810154831415610c375760405162461bcd60e51b815260206004820152601160248201527014d85b5948141d5c9cd94814995dd85c99607a1b6044820152606401610643565b610c4084610ee9565b600181018390556040518381526001600160a01b0385169033907f6bd9b567b3baf7b1a1460bd971aa6646c2b816470a2000fac19e3982e78730be906020015b60405180910390a350505050565b6097546001600160a01b03163314610cb85760405162461bcd60e51b8152600401610643906126f2565b6001600160a01b03808316600090815260ce6020526040902054839116610cf15760405162461bcd60e51b8152600401610643906126ca565b6001600160a01b038316600090815260ce602052604090206002810154831415610d555760405162461bcd60e51b815260206004820152601560248201527429b0b6b2903137b73ab99036bab63a34b83634b2b960591b6044820152606401610643565b610d5e84610ee9565b600281018390556040518381526001600160a01b0385169033907ff54770bce888996c0b4b161ce489bbb5b9c51b6b5ed08d49ef69f308dd2403bf90602001610c80565b6001600160a01b03808216600090815260ce6020526040902054829116610ddb5760405162461bcd60e51b8152600401610643906126ca565b6001600160a01b038216600090815260ce6020908152604080832060cf83528184203385529092529091208054610e545760405162461bcd60e51b815260206004820152601c60248201527f456d657267656e63792057697468647261773a206e6f7420676f6f64000000006044820152606401610643565b8054600080835560018301558254610e76906001600160a01b03163383611c7a565b6040518181526001600160a01b0386169033907ff24ef89f38eadc1bde50701ad6e4d6d11a2dc24f7cf834a486991f388332850490602001610822565b6097546001600160a01b03163314610edd5760405162461bcd60e51b8152600401610643906126f2565b610ee76000611caa565b565b6001600160a01b03808216600090815260ce6020526040902054829116610f225760405162461bcd60e51b8152600401610643906126ca565b6001600160a01b038216600090815260ce6020526040902060038101544311610f4a57505050565b80546040516370a0823160e01b81523060048201526000916001600160a01b0316906370a082319060240160206040518083038186803b158015610f8d57600080fd5b505afa158015610fa1573d6000803e3d6000fd5b505050506040513d601f19601f82011682018060405250810190610fc5919061255a565b905080610fd85750436003909101555050565b6000610fe883600301544361117f565b9050600083600201548460010154836110019190612761565b61100b9190612761565b905060cc5460cb5410156111405760cc548160cb5461102a9190612727565b106110c457600060cb5460cc546110419190612780565b90508060cb60008282546110559190612727565b909155505060ca546040516340c10f1960e01b8152306004820152602481018390526001600160a01b03909116906340c10f1990604401600060405180830381600087803b1580156110a657600080fd5b505af11580156110ba573d6000803e3d6000fd5b5050505050611140565b8060cb60008282546110d69190612727565b909155505060ca546040516340c10f1960e01b8152306004820152602481018390526001600160a01b03909116906340c10f1990604401600060405180830381600087803b15801561112757600080fd5b505af115801561113b573d6000803e3d6000fd5b505050505b826111508264e8d4a51000612761565b61115a919061273f565b84600401546111699190612727565b6004850155505043600390920191909155505050565b600061118b8383612780565b9392505050565b6001600160a01b03808316600090815260ce602052604081205490918491166111cd5760405162461bcd60e51b8152600401610643906126ca565b6001600160a01b03848116600081815260ce60209081526040808320815160c08101835281548716815260018083015482860152600283015482850152600383015460608301526004808401546080840190815260059094015460a084015296865260cf85528386208b8916875285528386208451808601865281548152910154948101949094529051815192516370a0823160e01b815230968101969096529095929490939291909116906370a082319060240160206040518083038186803b15801561129a57600080fd5b505afa1580156112ae573d6000803e3d6000fd5b505050506040513d601f19601f820116820180604052508101906112d2919061255a565b60ca546040516370a0823160e01b81523060048201529192506000916001600160a01b03909116906370a082319060240160206040518083038186803b15801561131b57600080fd5b505afa15801561132f573d6000803e3d6000fd5b505050506040513d601f19601f82011682018060405250810190611353919061255a565b9050600060cb5460cc546113679190612780565b905060006113758284612727565b9050600087606001514311801561138b57508415155b156113eb5761139e88606001514361117f565b9050600088604001518960200151836113b79190612761565b6113c19190612761565b9050856113d38264e8d4a51000612761565b6113dd919061273f565b6113e79088612727565b9650505b6000876020015164e8d4a51000888a600001516114089190612761565b611412919061273f565b61141c9190612780565b9050828111156114295750815b9c9b505050505050505050505050565b6097546001600160a01b031633146114635760405162461bcd60e51b8152600401610643906126f2565b6001600160a01b0381166114b95760405162461bcd60e51b815260206004820152601860248201527f73656e6420746f20746865207a65726f206164647265737300000000000000006044820152606401610643565b6114cd6001600160a01b0384168284611c7a565b505050565b600054610100900460ff16806114eb575060005460ff16155b6115075760405162461bcd60e51b81526004016106439061267c565b600054610100900460ff16158015611529576000805461ffff19166101011790555b6040805180820190915260178082527f4c5020546f6b656e2052657374616b696e67204661726d000000000000000000602090920191825261156d9160c9916122c3565b5060ca80546001600160a01b0319166001600160a01b03851617905560cc829055611596611cfc565b61159e611d77565b80156114cd576000805461ff0019169055505050565b6001600160a01b03808216600090815260ce60205260409020548291166115ed5760405162461bcd60e51b8152600401610643906126ca565b6001600160a01b038216600090815260ce6020908152604080832060cf835281842033855290925290912080546116585760405162461bcd60e51b815260206004820152600f60248201526e10db185a5b4e881b9bdd0819dbdbd9608a1b6044820152606401610643565b61166184610ee9565b6000816001015464e8d4a51000846004015484600001546116829190612761565b61168c919061273f565b6116969190612780565b905080156116a8576116a83382611ac3565b6004830154825464e8d4a51000916116bf91612761565b6116c9919061273f565b600183015560405181815233907fba8de60c3403ec381d1d484652ea1980e3c3e56359195c92525bff4ce47ad98e90602001610aab565b6097546001600160a01b0316331461172a5760405162461bcd60e51b8152600401610643906126f2565b6001600160a01b03811661178f5760405162461bcd60e51b815260206004820152602660248201527f4f776e61626c653a206e6577206f776e657220697320746865207a65726f206160448201526564647265737360d01b6064820152608401610643565b6108f781611caa565b6001600160a01b03808316600090815260ce60205260409020548391166117d15760405162461bcd60e51b8152600401610643906126ca565b6001600160a01b038316600090815260ce6020908152604080832060cf835281842033855290925290912080548411156118425760405162461bcd60e51b81526020600482015260126024820152711dda5d1a191c985dce881b9bdd0819dbdbd960721b6044820152606401610643565b61184b85610ee9565b6000816001015464e8d4a510008460040154846000015461186c9190612761565b611876919061273f565b6118809190612780565b90508015611892576118923382611ac3565b84156118bd5781546118a5908690612780565b825582546118bd906001600160a01b03163387611c7a565b6004830154825464e8d4a51000916118d491612761565b6118de919061273f565b600183015560405185815233907f884edad9ce6fa2440d8a54cc123490eb96d2768479d49ff9c7366125a94243649060200160405180910390a2505050505050565b7f360894a13ba1a3210667c828492db98dca3e2076cc3735a920a3ca505d382bbc546001600160a01b031690565b6097546001600160a01b031633146108f75760405162461bcd60e51b8152600401610643906126f2565b6000611982611920565b905061198d84611dde565b60008351118061199a5750815b156119ab576119a98484611e83565b505b7f4910fdfa16fed3260ed0e7147f7cc6da11a60208b5b9406d12a635614ffd9143805460ff16611abc57805460ff191660011781556040516001600160a01b0383166024820152611a2a90869060440160408051601f198184030181529190526020810180516001600160e01b0316631b2ce7f360e11b179052611e83565b50805460ff19168155611a3b611920565b6001600160a01b0316826001600160a01b031614611ab35760405162461bcd60e51b815260206004820152602f60248201527f45524331393637557067726164653a207570677261646520627265616b73206660448201526e75727468657220757067726164657360881b6064820152608401610643565b611abc85611f6e565b5050505050565b60ca546040516370a0823160e01b81523060048201526000916001600160a01b0316906370a082319060240160206040518083038186803b158015611b0757600080fd5b505afa158015611b1b573d6000803e3d6000fd5b505050506040513d601f19601f82011682018060405250810190611b3f919061255a565b905080821115611bd65760ca5460405163a9059cbb60e01b81526001600160a01b038581166004830152602482018490529091169063a9059cbb906044015b602060405180830381600087803b158015611b9857600080fd5b505af1158015611bac573d6000803e3d6000fd5b505050506040513d601f19601f82011682018060405250810190611bd0919061247f565b50505050565b60ca5460405163a9059cbb60e01b81526001600160a01b038581166004830152602482018590529091169063a9059cbb90604401611b7e565b6040516001600160a01b0380851660248301528316604482015260648101829052611bd09085906323b872dd60e01b906084015b60408051601f198184030181529190526020810180516001600160e01b03166001600160e01b031990931692909217909152611fae565b6040516001600160a01b0383166024820152604481018290526114cd90849063a9059cbb60e01b90606401611c43565b609780546001600160a01b038381166001600160a01b0319831681179093556040519116919082907f8be0079c531659141344cd1fd0a4f28419497f9722a3daafe3b4186f6b6457e090600090a35050565b600054610100900460ff1680611d15575060005460ff16155b611d315760405162461bcd60e51b81526004016106439061267c565b600054610100900460ff16158015611d53576000805461ffff19166101011790555b611d5b612080565b611d636120ea565b80156108f7576000805461ff001916905550565b600054610100900460ff1680611d90575060005460ff16155b611dac5760405162461bcd60e51b81526004016106439061267c565b600054610100900460ff16158015611dce576000805461ffff19166101011790555b611dd6612080565b611d63612080565b803b611e425760405162461bcd60e51b815260206004820152602d60248201527f455243313936373a206e657720696d706c656d656e746174696f6e206973206e60448201526c1bdd08184818dbdb9d1c9858dd609a1b6064820152608401610643565b7f360894a13ba1a3210667c828492db98dca3e2076cc3735a920a3ca505d382bbc80546001600160a01b0319166001600160a01b0392909216919091179055565b6060823b611ee25760405162461bcd60e51b815260206004820152602660248201527f416464726573733a2064656c65676174652063616c6c20746f206e6f6e2d636f6044820152651b9d1c9858dd60d21b6064820152608401610643565b600080846001600160a01b031684604051611efd9190612595565b600060405180830381855af49150503d8060008114611f38576040519150601f19603f3d011682016040523d82523d6000602084013e611f3d565b606091505b5091509150611f6582826040518060600160405280602781526020016128406027913961214a565b95945050505050565b611f7781611dde565b6040516001600160a01b038216907fbc7cd75a20ee27fd9adebab32041f755214dbc6bffa90cc0225b39da2e5c2d3b90600090a250565b6000612003826040518060400160405280602081526020017f5361666545524332303a206c6f772d6c6576656c2063616c6c206661696c6564815250856001600160a01b03166121839092919063ffffffff16565b8051909150156114cd5780806020019051810190612021919061247f565b6114cd5760405162461bcd60e51b815260206004820152602a60248201527f5361666545524332303a204552433230206f7065726174696f6e20646964206e6044820152691bdd081cdd58d8d9595960b21b6064820152608401610643565b600054610100900460ff1680612099575060005460ff16155b6120b55760405162461bcd60e51b81526004016106439061267c565b600054610100900460ff16158015611d63576000805461ffff191661010117905580156108f7576000805461ff001916905550565b600054610100900460ff1680612103575060005460ff16155b61211f5760405162461bcd60e51b81526004016106439061267c565b600054610100900460ff16158015612141576000805461ffff19166101011790555b611d6333611caa565b6060831561215957508161118b565b8251156121695782518084602001fd5b8160405162461bcd60e51b815260040161064391906125b1565b6060612192848460008561219a565b949350505050565b606030318311156121fc5760405162461bcd60e51b815260206004820152602660248201527f416464726573733a20696e73756666696369656e742062616c616e636520666f6044820152651c8818d85b1b60d21b6064820152608401610643565b843b61224a5760405162461bcd60e51b815260206004820152601d60248201527f416464726573733a2063616c6c20746f206e6f6e2d636f6e74726163740000006044820152606401610643565b600080866001600160a01b031685876040516122669190612595565b60006040518083038185875af1925050503d80600081146122a3576040519150601f19603f3d011682016040523d82523d6000602084013e6122a8565b606091505b50915091506122b882828661214a565b979650505050505050565b8280546122cf906127c3565b90600052602060002090601f0160209004810192826122f15760008555612337565b82601f1061230a57805160ff1916838001178555612337565b82800160010185558215612337579182015b8281111561233757825182559160200191906001019061231c565b50612343929150612347565b5090565b5b808211156123435760008155600101612348565b60006020828403121561236e57600080fd5b813561118b8161282a565b6000806040838503121561238c57600080fd5b82356123978161282a565b9150602083013567ffffffffffffffff808211156123b457600080fd5b818501915085601f8301126123c857600080fd5b8135818111156123da576123da612814565b604051601f8201601f19908116603f0116810190838211818310171561240257612402612814565b8160405282815288602084870101111561241b57600080fd5b8260208601602083013760006020848301015280955050505050509250929050565b60008060006060848603121561245257600080fd5b833561245d8161282a565b92506020840135915060408401356124748161282a565b809150509250925092565b60006020828403121561249157600080fd5b8151801515811461118b57600080fd5b600080604083850312156124b457600080fd5b82356124bf8161282a565b915060208301356124cf8161282a565b809150509250929050565b600080604083850312156124ed57600080fd5b82356124f88161282a565b946020939093013593505050565b6000806000806080858703121561251c57600080fd5b84356125278161282a565b966020860135965060408601359560600135945092505050565b60006020828403121561255357600080fd5b5035919050565b60006020828403121561256c57600080fd5b5051919050565b6000806040838503121561258657600080fd5b50508035926020909101359150565b600082516125a7818460208701612797565b9190910192915050565b60208152600082518060208401526125d0816040850160208701612797565b601f01601f19169190910160400192915050565b6020808252602c908201527f46756e6374696f6e206d7573742062652063616c6c6564207468726f7567682060408201526b19195b1959d85d1958d85b1b60a21b606082015260800190565b6020808252602c908201527f46756e6374696f6e206d7573742062652063616c6c6564207468726f7567682060408201526b6163746976652070726f787960a01b606082015260800190565b6020808252602e908201527f496e697469616c697a61626c653a20636f6e747261637420697320616c72656160408201526d191e481a5b9a5d1a585b1a5e995960921b606082015260800190565b6020808252600e908201526d141bdbdb081b9bdd08195e1a5cdd60921b604082015260600190565b6020808252818101527f4f776e61626c653a2063616c6c6572206973206e6f7420746865206f776e6572604082015260600190565b6000821982111561273a5761273a6127fe565b500190565b60008261275c57634e487b7160e01b600052601260045260246000fd5b500490565b600081600019048311821515161561277b5761277b6127fe565b500290565b600082821015612792576127926127fe565b500390565b60005b838110156127b257818101518382015260200161279a565b83811115611bd05750506000910152565b600181811c908216806127d757607f821691505b602082108114156127f857634e487b7160e01b600052602260045260246000fd5b50919050565b634e487b7160e01b600052601160045260246000fd5b634e487b7160e01b600052604160045260246000fd5b6001600160a01b03811681146108f757600080fdfe416464726573733a206c6f772d6c6576656c2064656c65676174652063616c6c206661696c6564a26469706673582212202934242f7907da954378fc8fc7c6868ae8c54c7d0b9f128b2f5c79f88522df5964736f6c63430008070033",
  "immutableReferences": {
    "4128": [
      {
        "length": 32,
        "start": 2108
      },
      {
        "length": 32,
        "start": 2172
      },
      {
        "length": 32,
        "start": 2757
      },
      {
        "length": 32,
        "start": 2821
      }
    ]
  },
  "source": "// SPDX-License-Identifier: UNLICENSED\r\n\r\npragma solidity ^0.8.0;\r\n\r\nimport \"@openzeppelin/contracts-upgradeable/access/OwnableUpgradeable.sol\";\r\nimport \"@openzeppelin/contracts-upgradeable/proxy/utils/Initializable.sol\";\r\nimport \"@openzeppelin/contracts-upgradeable/proxy/utils/UUPSUpgradeable.sol\";\r\nimport \"@openzeppelin/contracts-upgradeable/token/ERC20/IERC20Upgradeable.sol\";\r\nimport \"@openzeppelin/contracts-upgradeable/token/ERC20/utils/SafeERC20Upgradeable.sol\";\r\n \r\ninterface PurseToken {\r\n\r\n    function transfer(address to, uint tokens) external returns (bool success);\r\n\r\n    function mint(address to, uint tokens) external;\r\n\r\n    function transferFrom(address from, address to, uint tokens) external returns (bool success);\r\n\r\n    function balanceOf(address tokenOwner) external view returns (uint balance);\r\n\r\n}\r\n\r\ncontract RestakingFarm is Initializable, UUPSUpgradeable, OwnableUpgradeable {\r\n\r\n    using SafeERC20Upgradeable for IERC20Upgradeable;\r\n\r\n    // ---Contract Variables---\r\n    string public name;\r\n\r\n    // Userinfo\r\n    struct UserInfo {\r\n        uint256 amount;     // How many LP tokens the user has provided.\r\n        uint256 rewardDebt; // Reward debt. See explanation below.\r\n        //\r\n        // We do some fancy math here. Basically, any point in time, the amount of PURSEs\r\n        // entitled to a user but is pending to be distributed is:\r\n        //\r\n        //   pending reward = (user.amount * pool.accPursePerShare) - user.rewardDebt\r\n        //\r\n        // Whenever a user deposits or withdraws LP tokens to a pool. Here's what happens:\r\n        //   1. The pool's `accPursePerShare` (and `lastRewardBlock`) gets updated.\r\n        //   2. User receives the pending reward sent to his/her address.\r\n        //   3. User's `amount` gets updated.\r\n        //   4. User's `rewardDebt` gets updated.\r\n    }\r\n    \r\n    // Info of each pool.\r\n    struct PoolInfo {\r\n        IERC20Upgradeable lpToken;           // Address of LP token contract.\r\n        uint256 pursePerBlock;\r\n        uint256 bonusMultiplier;\r\n        uint256 lastRewardBlock;  // Last block number that PURSEs distribution occurs.\r\n        uint256 accPursePerShare; // Accumulated PURSEs per share, times 1e12. See below.\r\n        uint256 startBlock;\r\n    }\r\n\r\n    // The PURSE TOKEN!\r\n    PurseToken public purseToken;\r\n    uint256 public totalMintToken;    \r\n    uint256 public capMintToken;\r\n    IERC20Upgradeable[] public poolTokenList;\r\n    mapping(IERC20Upgradeable => PoolInfo) public poolInfo;\r\n\r\n    // Info of each user that stakes LP tokens.\r\n    mapping (IERC20Upgradeable => mapping (address => UserInfo)) public userInfo;\r\n\r\n    event Deposit(address indexed user, uint256 amount);\r\n    event Withdraw(address indexed user, uint256 amount);\r\n    event AddNewPool(address indexed owner, IERC20Upgradeable indexed lpToken, uint256 pursePerBlock, uint256 bonusMultiplier, uint256 startBlock);\r\n    event UpdatePoolReward(address indexed owner, IERC20Upgradeable indexed lpToken, uint256 pursePerBlock);\r\n    event UpdatePoolMultiplier(address indexed owner, IERC20Upgradeable indexed lpToken, uint256 bonusMultiplier);\r\n    event ClaimReward(address indexed user, uint256 amount);\r\n    event EmergencyWithdraw(address indexed user, IERC20Upgradeable indexed lpToken, uint256 amount);\r\n\r\n    modifier poolExist(IERC20Upgradeable _lpToken) {\r\n        require( poolInfo[(_lpToken)].lpToken != IERC20Upgradeable(address(0)), \"Pool not exist\");\r\n        _;\r\n    }  \r\n\r\n    function poolLength() external view returns (uint256) {\r\n        return poolTokenList.length;\r\n    }\r\n\r\n    // Add a new lp to the pool. Can only be called by the owner.\r\n    function add(IERC20Upgradeable _lpToken, uint256 _pursePerBlock, uint256 _bonusMultiplier, uint256 _startBlock) public onlyOwner {\r\n        require(_lpToken != IERC20Upgradeable(address(0)), \"Farmer::add: invalid lp token\");\r\n        require(poolInfo[_lpToken].lpToken == IERC20Upgradeable(address(0)), \"Farmer::add: lp is already in pool\");\r\n        uint256 lastRewardBlock = block.number > _startBlock ? block.number : _startBlock;\r\n        poolInfo[(_lpToken)] = PoolInfo({\r\n            lpToken: _lpToken,\r\n            pursePerBlock : _pursePerBlock,\r\n            bonusMultiplier: _bonusMultiplier,\r\n            lastRewardBlock: lastRewardBlock,\r\n            accPursePerShare: 0,\r\n            startBlock: _startBlock\r\n        });\r\n        poolTokenList.push(_lpToken);\r\n        emit AddNewPool(msg.sender, _lpToken, _pursePerBlock, _bonusMultiplier, _startBlock);\r\n    }\r\n\r\n    // Update the given pool's PURSE _pursePerBlock. Can only be called by the owner.\r\n    function setPurseReward(IERC20Upgradeable _lpToken, uint256 _pursePerBlock) public onlyOwner poolExist(_lpToken){        \r\n        PoolInfo storage pool = poolInfo[_lpToken];\r\n        require(pool.pursePerBlock != _pursePerBlock, \"Same Purse Reward\");\r\n        updatePool(_lpToken);\r\n        pool.pursePerBlock = _pursePerBlock;\r\n        emit UpdatePoolReward(msg.sender, _lpToken, _pursePerBlock);\r\n    }\r\n\r\n    // Update the given pool's PURSE _bonusMultiplier. Can only be called by the owner.\r\n    function setBonusMultiplier(IERC20Upgradeable _lpToken, uint256 _bonusMultiplier) public onlyOwner poolExist(_lpToken){        \r\n        PoolInfo storage pool = poolInfo[_lpToken];\r\n        require(pool.bonusMultiplier != _bonusMultiplier, \"Same bonus multiplier\");\r\n        updatePool(_lpToken);\r\n        pool.bonusMultiplier= _bonusMultiplier;\r\n        emit UpdatePoolMultiplier(msg.sender, _lpToken, _bonusMultiplier );\r\n    }\r\n\r\n    // Return reward multiplier over the given _from to _to block.\r\n    function getMultiplier(uint256 _from, uint256 _to) public pure returns (uint256) {\r\n        return _to-_from;\r\n    }\r\n\r\n    // Update reward variables of the given pool to be up-to-date.\r\n    function updatePool(IERC20Upgradeable _lpToken) public poolExist(_lpToken){\r\n        PoolInfo storage pool = poolInfo[_lpToken];\r\n        if (block.number <= pool.lastRewardBlock) {\r\n            return;\r\n        }\r\n        uint256 lpSupply = pool.lpToken.balanceOf(address(this));\r\n        if (lpSupply == 0) {\r\n            pool.lastRewardBlock = block.number;\r\n            return;\r\n        }\r\n        uint256 multiplier = getMultiplier(pool.lastRewardBlock, block.number);\r\n        uint256 purseReward = multiplier*pool.pursePerBlock*pool.bonusMultiplier;\r\n        if (totalMintToken < capMintToken) {\r\n            if (totalMintToken + purseReward >= capMintToken) {\r\n                uint256 PurseCanMint = capMintToken-totalMintToken;\r\n                totalMintToken += PurseCanMint;\r\n                purseToken.mint(address(this), PurseCanMint);\r\n            } else {\r\n                totalMintToken += purseReward;\r\n                purseToken.mint(address(this), purseReward);\r\n            }\r\n        }\r\n        pool.accPursePerShare = pool.accPursePerShare+(purseReward*1e12/lpSupply);\r\n        pool.lastRewardBlock = block.number;\r\n    }\r\n\r\n    // Deposit LP tokens to Restaking Pool for Purse allocation.\r\n    function deposit(IERC20Upgradeable _lpToken, uint256 _amount) public poolExist(_lpToken) {     \r\n        require(_amount > 0, \"Deposit: not good\");\r\n        PoolInfo storage pool = poolInfo[_lpToken];\r\n        UserInfo storage user = userInfo[_lpToken][msg.sender];\r\n        updatePool(_lpToken);\r\n\r\n        if (user.amount > 0) {\r\n            uint256 pending = user.amount*pool.accPursePerShare/1e12-user.rewardDebt;\r\n\r\n            if(pending > 0) {\r\n                safePurseTransfer(msg.sender, pending);\r\n            }\r\n        }\r\n        if (_amount > 0) {\r\n            pool.lpToken.safeTransferFrom(address(msg.sender), address(this), _amount);\r\n            user.amount = user.amount+_amount;\r\n        }\r\n        user.rewardDebt = user.amount*pool.accPursePerShare/1e12;\r\n        emit Deposit(msg.sender, _amount);\r\n    }\r\n\r\n    // Withdraw LP tokens from MasterChef.\r\n    function withdraw(IERC20Upgradeable _lpToken, uint256 _amount) public poolExist(_lpToken){\r\n\r\n        PoolInfo storage pool = poolInfo[_lpToken];\r\n        UserInfo storage user = userInfo[_lpToken][msg.sender];\r\n        require(user.amount >= _amount, \"withdraw: not good\");\r\n\r\n        updatePool(_lpToken);\r\n        uint256 pending = user.amount*pool.accPursePerShare/1e12-user.rewardDebt;\r\n\r\n        if(pending > 0) {\r\n            safePurseTransfer(msg.sender, pending);\r\n        }\r\n        if(_amount > 0) {\r\n            user.amount = user.amount-_amount;\r\n            pool.lpToken.safeTransfer(address(msg.sender), _amount);\r\n        }\r\n        user.rewardDebt = user.amount*pool.accPursePerShare/1e12;\r\n        emit Withdraw(msg.sender, _amount);\r\n    }\r\n\r\n    // Harvest reward tokens from pool.\r\n    function claimReward(IERC20Upgradeable _lpToken) public poolExist(_lpToken){\r\n\r\n        PoolInfo storage pool = poolInfo[_lpToken];\r\n        UserInfo storage user = userInfo[_lpToken][msg.sender];\r\n        require(user.amount > 0, \"Claim: not good\");\r\n\r\n        updatePool(_lpToken);\r\n        uint256 pending = user.amount*pool.accPursePerShare/1e12-user.rewardDebt;\r\n\r\n        if(pending > 0) {\r\n            safePurseTransfer(msg.sender, pending);\r\n        }\r\n        user.rewardDebt = user.amount*pool.accPursePerShare/1e12;\r\n\r\n        emit ClaimReward(msg.sender, pending);\r\n    }\r\n\r\n    function capMintTokenUpdate (uint256 _newCap) public onlyOwner {\r\n        capMintToken = _newCap;\r\n    }\r\n\r\n    // Safe purse transfer function, just in case if rounding error causes pool to not have enough PURSEs.\r\n    function safePurseTransfer(address _to, uint256 _amount) internal {\r\n        uint256 purseBal = purseToken.balanceOf(address(this));\r\n        if (_amount > purseBal) {\r\n            purseToken.transfer(_to, purseBal);\r\n        } else {\r\n            purseToken.transfer(_to, _amount);\r\n        }\r\n    }\r\n\r\n    // Withdraw without caring about rewards. EMERGENCY ONLY.\r\n    function emergencyWithdraw(IERC20Upgradeable _lpToken) public poolExist(_lpToken) {\r\n        PoolInfo storage pool = poolInfo[_lpToken];\r\n        UserInfo storage user = userInfo[_lpToken][msg.sender];\r\n        require(user.amount > 0, \"Emergency Withdraw: not good\");\r\n        uint256 amount = user.amount;\r\n        user.amount = 0;\r\n        user.rewardDebt = 0;\r\n        pool.lpToken.safeTransfer(address(msg.sender), amount);\r\n        emit EmergencyWithdraw(msg.sender, _lpToken, amount);\r\n    }\r\n\r\n    // Return any token function, just in case if any user transfer token into the smart contract. \r\n    function returnAnyToken(address token, uint256 amount, address _to) public onlyOwner{\r\n        require(_to != address(0), \"send to the zero address\");\r\n        IERC20Upgradeable(token).safeTransfer(_to, amount);\r\n    }\r\n\r\n     // View function to see pending PURSEs on frontend.\r\n    function pendingReward(IERC20Upgradeable _lpToken, address _user) external view poolExist(_lpToken) returns (uint256) {\r\n        PoolInfo memory pool = poolInfo[_lpToken];\r\n        UserInfo memory user = userInfo[_lpToken][_user];\r\n        uint256 accPursePerShare = pool.accPursePerShare;\r\n        uint256 lpSupply = pool.lpToken.balanceOf(address(this));\r\n        uint256 purseBal = purseToken.balanceOf(address(this));\r\n        uint256 pendingPurseMint = capMintToken - totalMintToken;\r\n        uint256 totalPurseSupply = purseBal + pendingPurseMint;\r\n        uint256 multiplier;\r\n        if (block.number > pool.lastRewardBlock && lpSupply != 0) {\r\n            multiplier = getMultiplier(pool.lastRewardBlock, block.number);\r\n            uint256 purseReward = multiplier*pool.pursePerBlock*pool.bonusMultiplier;\r\n            accPursePerShare = accPursePerShare+(purseReward*(1e12)/lpSupply);\r\n        }\r\n        uint256 pending = user.amount*(accPursePerShare)/(1e12)-(user.rewardDebt);\r\n\r\n        if (pending > totalPurseSupply) {\r\n            pending = totalPurseSupply;\r\n        }\r\n\r\n        return (pending);\r\n    }\r\n\r\n    function _authorizeUpgrade(address) internal override onlyOwner {}\r\n\r\n    function initialize(PurseToken _purseToken, uint256 _capMintToken) public initializer {\r\n        name = \"LP Token Restaking Farm\";\r\n        purseToken = _purseToken;\r\n        capMintToken = _capMintToken;\r\n        __Ownable_init();\r\n        __UUPSUpgradeable_init();\r\n    }\r\n\r\n}",
  "sourcePath": "C:/Users/cheek/Desktop/Developer doc/Visual Studio Code/PundiX/lpTokenRestakingFarm/src/contracts/RestakingFarm.sol",
  "compiler": {
    "name": "solc",
    "version": "0.8.7+commit.e28d00a7.Emscripten.clang"
  },
  "schemaVersion": "3.2.3",
  "updatedAt": "2021-11-23T03:25:19.292Z",
  "networkType": "ethereum",
  "devdoc": {
    "kind": "dev",
    "methods": {
      "owner()": {
        "details": "Returns the address of the current owner."
      },
      "renounceOwnership()": {
        "details": "Leaves the contract without owner. It will not be possible to call `onlyOwner` functions anymore. Can only be called by the current owner. NOTE: Renouncing ownership will leave the contract without an owner, thereby removing any functionality that is only available to the owner."
      },
      "transferOwnership(address)": {
        "details": "Transfers ownership of the contract to a new account (`newOwner`). Can only be called by the current owner."
      },
      "upgradeTo(address)": {
        "details": "Upgrade the implementation of the proxy to `newImplementation`. Calls {_authorizeUpgrade}. Emits an {Upgraded} event."
      },
      "upgradeToAndCall(address,bytes)": {
        "details": "Upgrade the implementation of the proxy to `newImplementation`, and subsequently execute the function call encoded in `data`. Calls {_authorizeUpgrade}. Emits an {Upgraded} event."
      }
    },
    "version": 1
  },
  "userdoc": {
    "kind": "user",
    "methods": {},
    "version": 1
  }
}